:10000000C0C3CFC3CEC3CDC3CCC3E3C7CAC3C9C368
:10001000C8C3C7C3C6C3C5C3C4C3C3C3C2C3013FE8
:100020003F3F7F00012D1B377F0001152B157F00FF
:10003000011325097F00010101017F007F4141413A
:100040007F00003E0000000000003E0000000000B5
:10005000003E0000000000000000020502FE0D0B43
:10006000FE7FB0D07F3E413EF09090909090F0E0C7
:10007000404040406040F01010F08080F0F0808000
:10008000E08080F0808080F0909090F08080F01090
:1000900010F0F09090F01010F0808080808080F060
:1000A000F09090F09090F0F08080F09090F0AA5551
:1000B000AA55AA55AA55AA55AA55AA55AA55AA5548
:1000C000AA55AA55AA150A05020100000000000061
:1000D00000080000000000C0C08000000000000018
:1000E00000000200000000000000000000001000FE
:1000F00000000000000000020000000000000000FE
:10010000327F776363777F7141425A544448485045
:1001100050606040003870F4F0D0D0D0D6DA867CE1
:10012000F88000FE03C12121A12121C103FEAA05FF
:1001300002FFFF0303C303030303834343434383D8
:1001400003FFFE55AA0000000000000000000000B0
:1001500020000000000000000D0B1B397DF3E1C200
:10016000CC986808C83060800000000000000020C3
:1001700000000000000000000000010080000000FE
:10018000A1B1B1BBBBBF9F8F9191A5A5CDCDA5A5B9
:10019000A191998F001070F0F0D0D0D0D0D0D1D6EE
:1001A000D6E300FF0007888B888B880700FFAA0032
:1001B00000FFFF000003040404040300000000E744
:1001C00000FFFF55AA000002000000000000000030
:1001D00000000000C0F09C84C4340C0C936001014A
:1001E000C1300C0302041820C30C10E08000000092
:1001F00000000000000200000000000000000000FD
:100200001010B9B99F9F8F8F88081226662A3A125C
:10021000120202030004CCECECFC9CE4F4D4CCCC41
:100220008C8400FF0000A9AABAAA910000FFAA00CE
:1002300000FFFF0000212121212121E12141418FE7
:1002400000FFFF55AA0000000000000000066CD867
:10025000D8D8C8E898103B4787070606816018077A
:10026000000000E0D8BC72E2C42D37C100030C10BE
:10027000E0800000000000010000004000000000DD
:10028000DBDBDBD9D9D9DBDFD8515152525454587A
:10029000D8D0D041007171F1E1A1A1A12111D1E922
:1002A000391D00FF0000D454D655D40000FFAA0029
:1002B00000FFFF000024242424A464E7242222E178
:1002C00000FFFF55EA000000008000000000400031
:1002D00001217BA76FAF6EAC68E7980E11204080BC
:1002E0000000003DFDFBFB7ABF40C03F80601C0367
:1002F00000FF1B260C100040000000000000000062
:1003000040C0E0F0F0FCFCFEA3A0B8BCB4B2B3B1B6
:10031000B0B0A0E0000000000000040101030604EA
:100320000D3E00FF00005D040404050000FFAA006C
:1003300000FFFF000082828281808081828282F1C0
:1003400000FFFF55EA000400042E040004004000F2
:1003500000000000010103060D1A352B56AC58B001
:1003600061B24C83000302050281700C0300C0706F
:100370008E816618000000000000000000000000F0
:10038000F0F8FCFCFEFE1EAFF1A9A9F9A9A9F1A2A3
:10039000020408F00000000000010000000000005E
:1003A000100000FF000086810101860000FFAA0006
:1003B000007FFFC0C0C0C0C0C0C0C0C0C0C0C0C7F8
:1003C000C0FFFF55AA002000000000000000000050
:1003D000000000100000000000000000000001020A
:1003E00005060D1A355A74D8B659A8C482030703F6
:1003F00002010000000000000008000000000000F2
:1004000021232767E7EFFFFEB1B2B2B3B2B2B1A8C2
:10041000A8A4A3E0000004100010BA10001000000F
:10042000080000FF000093A8A9AA910000FFAA54A9
:10043000A854A854A854A854A854A854A854A854DC
:10044000A854AA55AA50A04080080000000000004F
:10045000000000000000000000000000000000009C
:10046000100000000000000001030204010302006C
:10047000000000100000000000000000000000006C
:100480000101030307070F0F111121254D45D5D594
:100490004D4D21231E0000000080000000000002DE
:1004A0000000007FC0808C928C928C80C07F0800FE
:1004B0000001000440000008002000000005F903CE
:1004C000FE00000000FEFF0703030303030303070E
:1004D000FFFE00FEABABABFE000000FFFF00000024
:1004E000000000000000FFFF0000FF01FF0000000F
:1004F00000FFFF000000000000000000FFFF00E020
:10050000BFB0BFE0000000FFFF00000000000000DF
:100510000000FFFF000FFA1AFA0F000000FFFF00B3
:100520000000000000000000FFFF0000FF80FF004F
:10053000000000FFFF060606060606060606FFFF89
:10054000007FD5D5D57F000000FFFF000000000030
:1005500000000000FFFF00A09FC07F000000007FA0
:10056000FFE0C0C0C0C0C0C0C0E0FF7F00A0A0A12D
:10057000A0A4E0F010F810F010F0E0A8A0A0A1A056
:10058000A4A0A0A0A8A0A0A0E0F018F010F110F482
:10059000E0A0A0A8A0A0A0A0A0A8A0A0E1F014F0B6
:1005A00010F018F0E0A0A0A0A8A0A0A1A0A4A0A076
:1005B000A0E8F010F010F018F0E0A1A0A4A0A0A016
:1005C000A8A0A0A0A0E0F810F011F014F0E0A0A8FE
:1005D000A0A0A0A0A0A8A0A00505050505470F089C
:1005E0000F082F080F070D05050505054505050D25
:1005F000052505070F080F080F080F4705050D050E
:10060000250505050D0505070F084F080F080F27DD
:100610000505050D0505050505450505070F280F09
:10062000080F080F070505054505050D05250505F6
:10063000070F080F080F084F07050D0525050505CD
:100640000505050001020304000102030400010284
:100650000304000102030400010203040001020379
:100660000400010203050001020304050102030561
:100670000501020304000102030500010203040551
:100680000505050500010203040001020304000141
:100690000203040001020304050505050505010226
:1006A0000304050102030505010203040501020319
:1006B00004050102030505010203040505050505FE
:1006C0000000000000050500050505050005050002
:1006D000000000000505050505000000003700AE1C
:1006E0002000B0C8001040813FA1A6A83FA4D300BD
:1006F000D5F0D922DA12DB208D14AF7DFF7DFF000B
:10070000C87DFF7DFF91FF91FF91FF91FF91FF91C8
:10071000FF91FF91FF91FF91FF91FF91FF8CFF8C63
:10072000FF8CFF7DFF7DFF7DFF69FF69FF69FF870C
:10073000FF87FF87FF7DFF7DFF7DFF7DFF7DFF7DC5
:10074000FF7DFF7DFF007D7DFF7DFF7DFF7DFF7DC8
:10075000FF7DFF7DFF7DFF000000003600000000F0
:100760000038000202020202020202020201020436
:1007700008102020041008010200000400000000FE
:10078000000011241FBECFE5D2E0DEBFCDBF20E0C8
:10079000A0E6B0E001C01D92AA36B207E1F763D42B
:1007A00020CB2ECCC298C098C29AC09A089520E05F
:1007B00030E090E0AC01022E01C0440F0A94EAF749
:1007C00047FF02C0C09A01C0C098C29AC2982F5F6A
:1007D0003F4F2830310571F7C09AC29AC2980895E8
:1007E000C29AC09AC098C2980895CF93C82FF8DFD4
:1007F00088E7DDDF80E0DBDF8C2FD9DFCF91D2CF40
:1008000083E087B9369A3699FECF84B125B190E05E
:10081000922B0895823081F018F4813051F00895C0
:10082000833019F0843009F008958CB58F7D8CBD2C
:1008300008958AB58F7702C08AB58F7D8ABD0895E5
:100840001F93CF93DF93EBE7F7E09491E1E7F7E0B5
:10085000D491E7E6F7E0C491CC23C9F0182F99238F
:1008600011F0892FD7DFEC2FF0E0EE0FFF1FE35AD6
:10087000F84FA591B4919FB7F894111104C08C91D1
:10088000D095D82302C0EC91DE2BDC939FBFDF9183
:10089000CF911F910895CF93DF93E8E7F7E084911C
:1008A000EEE6F7E0D491E4E6F7E0C491CC2389F0DA
:1008B0008111B0DFEC2FF0E0EE0FFF1FE95AF84F87
:1008C000A591B491EC91ED2381E090E021F480E0DA
:1008D00002C080E090E0DF91CF910895CF93DF9345
:1008E00090E0FC01E359F84F2491FC01ED59F84FD9
:1008F0008491882361F190E0880F991FFC01E752F1
:10090000F94FC591D491FC01E35AF84FA591B491E8
:10091000611109C09FB7F89488812095822388834C
:10092000EC912E230BC0623061F49FB7F89488815C
:10093000322F309583238883EC912E2B2C939FBFED
:1009400006C08FB7F894E8812E2B28838FBFDF91E4
:10095000CF9108953FB7F894809166009091670019
:10096000A0916800B091690022B708B601FE05C0E9
:100970002F3F19F00196A11DB11D3FBFBA2FA92F1E
:10098000982F8827820F911DA11DB11DBC01CD019B
:1009900042E0660F771F881F991F4A95D1F7089587
:1009A0008F929F92AF92BF92CF92DF92EF92FF927F
:1009B0006B017C01CFDF4B015C01C114D104E10468
:1009C000F104E9F0C7DFDC01CB0188199909AA0914
:1009D000BB09883E9340A105B10578F321E0C21A16
:1009E000D108E108F10888EE880E83E0981EA11C6A
:1009F000B11CC114D104E104F10421F7DECFFF9052
:100A0000EF90DF90CF90BF90AF909F908F90089520
:100A1000CF93DF93EB0190E06EE170E0C5D920E069
:100A200030E0DE01A20FB31F40E050E0BC01620FD6
:100A3000731FFB01E40FF51FED5BF94FE491149672
:100A4000EC9314974B5F5F4F15964E31510589F724
:100A50002F5F3F4F2530310521F7DF91CF9108956A
:100A6000E82F811103C01092600002C08A36F0F4B2
:100A7000809160008E3020F48F5F8093600002C010
:100A800010926000673030F4613050F4F0E0E852CA
:100A9000FA4F16C06730B1F4F0E0E359FA4F10C0D6
:100AA000E0916000F0E0E255FB4F0AC0862F90E035
:100AB00066E170E079D98E0F911DFC01ED5AFB4F74
:100AC0008491089580E008952F923F924F925F9213
:100AD0006F927F928F929F92AF92BF92CF92DF924E
:100AE000EF92FF920F931F93CF93DF93CDB7DEB7B3
:100AF0006E970FB6F894DEBF0FBECDBF88877B011F
:100B000020EB2A83212C312C645B7F4F7C8B6B8BF9
:100B1000C701815B9F4F9C878B87D701AF5ABF4F1F
:100B2000BE8BAD8BF701E35BFF4FF88FEF8B970127
:100B3000225B3F4F3A8F298F615071097C8F6B8FF9
:100B40002E8E8A8152DE80E050DE80E14EDE48DE6D
:100B500088E72DDE80E42BDEC1019695982F88274B
:100B6000979587959F878E87ADEBBFEFBC83AB834F
:100B7000BDEFB983EBE8FFEFFE83ED8300E010E00B
:100B8000FA81F55BF88B9101215031093A8B298B61
:100B90000D870038110509F4C0C1388531119BC19A
:100BA0008B818E3108F05AC06E8D662309F456C0D1
:100BB000673009F453C0863070F0898186548630DE
:100BC00060F089818C54863050F08981825586305E
:100BD00040F423E007C020E005C021E003C022E08C
:100BE00001C024E030E089899A8965E070E0DCD8B2
:100BF0008E0D9F1DFC01E20FF31F44814F3F71F1E9
:100C0000C9016AEF7FEFD0D84530B9F42B813C8120
:100C1000280F391FD7018C9190E066E070E0C4D8AE
:100C2000820F931FFC01EE5BFF4FB491F901E45C6E
:100C3000FF4FE491BE2BBD8F12C0EB81FC81E80F0A
:100C4000F91F842F90E066E070E0AED88E0F9F1FF2
:100C5000FC01E25EFF4F24912D8F01C01D8EAB89F8
:100C6000BC89BC91BF83EE8DEB1708F47BC0CB2E03
:100C7000D12C96012F5F3F4F3A87298722153305E4
:100C80000CF470C020E030E040E85FE3D7019296BA
:100C90006D917D918D919C91959763D64B015C01EF
:100CA00036D76801C61AD108D7FC5CC0B801012E3E
:100CB000000C880B990B59D72B013C019B01AC010F
:100CC000C501B40102D818160CF44CC020E030E085
:100CD00040E050E4C501B40145D69B01AC01C3011D
:100CE000B201F3D718160CF43DC0AB8DBC8DEC915E
:100CF000E11109C0BF81FE8DBF1335C0F601E65A70
:100D0000FF4FE49130C020E030E040E85FE3D701DE
:100D10009A966D917D918D919C919D9722D6F7D653
:100D20006770BF81EE8DBE1309C0F601E65AFF4F12
:100D3000E49101C0EE0F6A95EAF715C029853A855E
:100D40002216330679F4F601E65AFF4FE491F0E0FB
:100D500088E090E0861B910902C0F595E7958A9599
:100D6000E2F701C0E0E0AD8DAE2B3981343008F000
:100D70006AC0EF89F88D8081282F30E0A9014E5F8D
:100D80005F4F421553050CF45EC0FE8DF81708F452
:100D90005AC0E98DFA8D9081911111C04215530509
:100DA00009F452C0F101E21BF30BEE0FFF1FEE0F2F
:100DB000FF1FE00FF11FE65AFF4F949145C0FE8DD3
:100DC0008F1309C0F801E65AFF4FE49101C0EE0FFE
:100DD0009A95EAF736C0B9016F5F7F4F98012F5F90
:100DE0003F4F26163706E1F4F801E65AFF4F84918B
:100DF000492F50E0F901E35AFF4FE491282F30E0EA
:100E000068E070E0641B750B02C0359527956A9504
:100E1000E2F701C0EE0F9A95EAF7922F9E2B14C0CD
:100E20004215530581F4F901E35AFF4FE491F0E0D4
:100E300028E030E0291B310902C0F595E7952A9595
:100E4000E2F79E2F01C090E0A92BAF836E8D8D85B8
:100E500007DE3F81382B3F836E8D662371F0AD89AD
:100E6000BE898C91861748F089818457833028F495
:100E7000F801E251F040E49101C0E0E0BF81BE2BF7
:100E8000BF83E889E23018F5FD81F73000F52E8D3B
:100E9000AB85BC85253029F48C916AE096D790E02B
:100EA0000AC02C91822F6AE090D790E066EF7FEF26
:100EB0007BD7820F911D67E070E076D7ED81FE81D0
:100EC0008E0F9F1FFC01E859FF4F849101C080E005
:100ED0002F81822B11C03885313041F4EE85FF859A
:100EE000E00FF11FE255FF4F849106C06885623024
:100EF00021F46E8D802FB4DD5ADC0F5F1F4F8D8182
:100F00009E8101969E838D8399819F5F9983AB819A
:100F1000BC811196BC83AB833BCE44DCBFEF2B1A64
:100F20003B0AEA81EF5FEA83E83B09F009CE6E965F
:100F30000FB6F894DEBF0FBECDBFDF91CF911F91EA
:100F40000F91FF90EF90DF90CF90BF90AF909F9068
:100F50008F907F906F905F904F903F902F9008956B
:100F60000F931F93CF93DF93882339F0C62FD0E0E0
:100F70000FEF10E0081B110909C070E080E090E05D
:100F8000DF91CF911F910F910BCDDF5FDC17E1F067
:100F900081E056DC80E0282F30E02017310734F460
:100FA00095E09A95F1F700008F5FF5CF80E048DC7F
:100FB00080E0282F30E0201731073CF795E09A9524
:100FC000F1F700008F5FF5CFDF91CF911F910F9167
:100FD00008951F920F920FB60F9211242F933F93F3
:100FE0008F939F93AF93BF93809162009091630022
:100FF000A0916400B09165003091610023E0230F5F
:101000002D3720F40196A11DB11D05C026E8230F40
:101010000296A11DB11D2093610080936200909300
:101020006300A0936400B093650080916600909186
:101030006700A0916800B09169000196A11DB11DE3
:101040008093660090936700A0936800B093690056
:10105000BF91AF919F918F913F912F910F900FBEB4
:101060000F901F901895CF93DF93CDB7DEB7C35580
:10107000D1090FB6F894DEBF0FBECDBF78948AB504
:1010800082608ABD8AB581608ABD83B7826083BF72
:1010900083B7816083BF89B7826089BF80B7826070
:1010A00080BF80B7816080BF329A319A309A379A78
:1010B0008CB580648CBDB89ABA9A0FED16E0F80131
:1010C000849193DB0F5F1F4FF6E00B3F1F07B9F7CB
:1010D00060E081E003DC61E084E000DC60E086E069
:1010E000FDDB60E089E0FADBBE016F5F7F4F81E0EE
:1010F000EBDCD1DB892BE9F780E162968FAF629759
:1011000081E061968FAF619783E063968FAF6397BD
:101110001982BE016F5F7F4F80E07ADCBE016F5F96
:101120007F4F82E0D1DC0BEF16E057E5E52E57E06C
:10113000F52EF80131966491F8018491645610DF20
:101140000E5F1F4FE016F106A1F761968FAD619714
:10115000BE016F5F7F4F81505BDC198282E02F966A
:101160008FAF2F9784E060968FAF609780E090E01C
:10117000A0E0B1E48BA39CA3ADA3BEA38FA398A7CB
:10118000A9A7BAA780E090E0A0E0B2E48BA79CA753
:10119000ADA7BEA78FA798ABA9ABBAAB80E090E094
:1011A000A0E8BFE38BAB9CABADABBEAB8FAB98AF56
:1011B000A9AFBAAF64968FAD6497813228F085E805
:1011C0009BEEA1EDBEE304C087ED93EAA0EFBEE382
:1011D0008BAF9CAFADAFBEAF23968CAF9DAFAEAF24
:1011E000BFAF23971A8264968FAD6497877009F01A
:1011F00065C006DB8E3E9240DCF002DB863B93400E
:10120000BCF460962FAD6097273008F062C22F962D
:101210008FAD2F9790E043E0880F991F4A95E1F733
:10122000820F911D8C9724F42F5F60962FAF6097EB
:10123000E7DA853F9140DCF0E3DA8E3E9240BCF481
:1012400060962FAD6097222309F44EC22F968FAD82
:101250002F9790E033E0880F991F3A95E1F7820FBE
:10126000911D059724F0215060962FAF60978A81D9
:10127000811124C010DB892B09F442C28A818111BB
:101280001DC02F966FAD2F9770E023E0660F771F7C
:101290002A95E1F760968FAD6097680F711D665FC4
:1012A0007F4F072E000C880B990B5FD46BA77CA790
:1012B0008DA79EA76FA778AB89AB9AAB64968FADCD
:1012C000649762966FAD629780D591118BC1249619
:1012D0001FAE249710E06BA17CA18DA19EA16FA3EE
:1012E00078A789A79AA7CBA4DCA4EDA4FEA4CFA6D7
:1012F000D8AAE9AAFAAA8BA89CA8ADA8BEA88FAACA
:1013000098AEA9AEBAAE4BAC5CAC6DAC7EAC2396DD
:101310004CAE5DAE6EAE7FAE23972A8121111FC009
:1013200024966FAD2497062E000C770B880B990B33
:101330001CD420E030E048EC52E47CD323962CAD62
:101340003DAD4EAD5FAD23970DD36B017C0120E029
:1013500030E040E85FEB6AD387FFFBC00AC113307F
:1013600069F128F4113011F1123079F15EC01530B5
:1013700009F440C0A0F1163009F057C020E030E079
:1013800040E85FE3EFD26FA378A789A79AA720E090
:1013900030E040E85FEB2FAB38AF49AF5AAF239650
:1013A0002CAF3DAF4EAF5FAF23973FC0D501C40117
:1013B000B0588FAB98AFA9AFBAAF37C0D501C40151
:1013C000B0588FAB98AFA9AFBAAFB301A2017058B4
:1013D00023964CAF5DAF6EAF7FAF239726C0B301AE
:1013E000A20170584FAB58AF69AF7AAFD501C401B5
:1013F000B05815C020E030E040E85FE3B3D26FA3FF
:1014000078A789A79AA780E090E0A0E8BFEB8FAB10
:1014100098AFA9AFBAAF80E090E0A0E8BFE3239611
:101420008CAF9DAFAEAFBFAF23972FA938AD49ADFD
:101430005AAD6FA178A589A59AA594D24B015C01FC
:101440006FA378A789A79AA723962CAD3DAD4EAD83
:101450005FAD2397C701B60185D26B017C016FA7F1
:1014600078AB89AB9AAB20E030E044ED52E4C501A3
:10147000B4012BD418160CF458C220E030E04CE62E
:1014800052E4C701B60121D418160CF44EC220E074
:1014900030E040E850E4C701B601C8D287FD45C23C
:1014A00020E030E040EC50E4C501B4010ED4181641
:1014B0000CF429C120E030E040EA50E4C501B40159
:1014C000B5D287FD20C12F962FAC2F97220C220C6E
:1014D000220C60968FAD6097280E312CB101032C41
:1014E000000C880B990B41D32B013C019B01AC01F3
:1014F000C701B6019BD287FD06C1B101605F7F4F76
:10150000072E000C880B990B30D39B01AC01C7014F
:10151000B601DBD318160CF4F6C0A3019201C70183
:10152000B6011FD220E030E048E453E4D2D320E0FB
:1015300030E040E85DE3CDD320E030E048EC52E419
:1015400010D2E0D224966FAF24976AE08CE308DDD6
:10155000ECC120E030E040E85FE3C701B601B5D35D
:1015600018166CF4C12CD12C90E8E92E9FE3F92ECB
:1015700006C0C12CD12C80E8E82E8FEBF82E8FA16D
:1015800098A5A9A5BAA58BA39CA3ADA3BEA36FA53F
:1015900078A989A99AA96BA77CA78DA79EA70FA94F
:1015A00018AD29AD3AAD0BAB1CAB2DAB3EABCBAE02
:1015B000DCAEEDAEFEAE20E030E040E85FE3D1D13E
:1015C0006B017C01A4D267702D966FAF2D9720E040
:1015D00030E040E05EE3C701B6017BD398D22E969F
:1015E0006FAF2E9764968FAD64978F7121F4BE0113
:1015F0006F5F7F4F69DA64961FAD6497103309F00F
:1016000061C08981833010F48F5F898320E030E0EE
:10161000A9016BA17CA18DA19EA108D287FD8AC1E1
:101620009E012F5F3F4F85E041E0F90190E054813A
:101630005F3F19F0553009F040E09F5F35969630D6
:10164000B1F781502F5F3F4F8111EFCF4423A9F1B4
:1016500064E68CE385DC64E680E582DC64E684E6AF
:101660007FDC64E688E77CDC64E68CE879DC629603
:101670008FAD6297893020F0825062968FAF62976B
:10168000BE016F5F7F4F82E01FDA60E971E080E0AA
:1016900090E086D961968FAD6197853010F08550C6
:1016A000FCCFBE016F5F7F4FB3D961968FAD61975D
:1016B0008F5F61968FAF619750CD1F5F64961FAFAC
:1016C000649791CD1034C8F381E064968FAF64972E
:1016D0008ACD60961FAE60972F968FAD2F978F5F44
:1016E0002F968FAF2F97A4CD87E060968FAF60972E
:1016F0002F968FAD2F9781502F968FAF2F97B7CD05
:1017000081E08A83BBCD20E030E044E852E4C501AB
:10171000B401DBD287FD09C020E030E040E952E4AB
:10172000C501B40183D187FD4AC020E030E040E923
:1017300052E4C501B401C9D287FD09C020E030E000
:101740004CE952E4C501B40171D187FD3AC020E0F3
:1017500030E04CE952E4C501B401B7D287FD09C0BD
:1017600020E030E048EA52E4C501B4015FD187FDD2
:101770002AC020E030E048EA52E4C501B401A5D215
:1017800087FD09C020E030E044EB52E4C501B4011C
:101790004DD187FD1AC020E030E044EB52E4C50192
:1017A000B40193D287FD13C020E030E040EC52E456
:1017B000C501B4013BD187FF0AC004E009C000E0C5
:1017C00007C001E005C002E003C003E001C00FEF65
:1017D0000B8320E030E040E051E4C701B60175D250
:1017E00087FD09C020E030E040E851E4C701B601C0
:1017F0001DD187FD5CC020E030E040E851E4C70126
:10180000B60163D287FD09C020E030E048EB51E427
:10181000C701B6010BD187FD4CC020E030E048EB9A
:1018200051E4C701B60151D287FD09C020E030E084
:1018300048EF51E4C701B601F9D087FD3CC020E074
:1018400030E048EF51E4C701B6013FD287FD09C03F
:1018500020E030E040E252E4C701B601E7D087FD66
:101860002CC020E030E040E252E4C701B6012DD2A6
:1018700087FD09C020E030E040E452E4C701B60132
:10188000D5D087FD1CC020E030E040E452E4C70121
:10189000B6011BD287FD15C020E030E04CE552E4D4
:1018A000C701B601C3D087FF0CC085E00BC080E044
:1018B00009C081E007C082E005C083E003C084E086
:1018C00001C08FEF8C830F3F09F42ACD8F3F09F4BD
:1018D00027CD90E065E070E067D241E050E04C0F2A
:1018E0005D1F840F951FFC01E00FF11D8481853081
:1018F00029F462E382ED34DB198217C08F3F09F4CB
:101900000FCD6AE086E92CDB8C812B8190E065E0CD
:1019100070E04AD2A1E0B0E0AC0FBD1F8A0F9B1F60
:10192000FC01E20FF11DBFEFB4831F5F173009F018
:10193000D2CCF6CC64E688EC13DB64E686E910DBF7
:1019400064E684E60DDB64E682E30ADB63968FAD32
:101950006397882309F4C8CB815063968FAF639750
:10196000FCCB5058BB27AA270ED075C166D130F0EA
:101970006BD120F031F49F3F11F41EF45BC10EF4E3
:10198000E095E7FB51C1E92F77D180F3BA176207E1
:1019900073078407950718F071F49EF58FC10EF454
:1019A000E0950B2EBA2FA02D0B01B90190010C016F
:1019B000CA01A0011124FF27591B99F0593F50F487
:1019C000503E68F11A16F040A22F232F342F4427DF
:1019D000585FF3CF469537952795A795F0405395D7
:1019E000C9F77EF41F16BA0B620B730B840BBAF0A7
:1019F0009150A1F0FF0FBB1F661F771F881FC2F712
:101A00000EC0BA0F621F731F841F48F48795779525
:101A10006795B795F7959E3F08F0B3CF9395880FDC
:101A200008F09927EE0F979587950895D9D008F477
:101A300081E008950CD00FC107D140F0FED030F006
:101A400021F45F3F19F0F0C0511139C1F3C014D136
:101A500098F39923C9F35523B1F3951B550BBB2775
:101A6000AA2762177307840738F09F5F5F4F220F22
:101A7000331F441FAA1FA9F333D00E2E3AF0E0E81B
:101A800030D091505040E695001CCAF729D0FE2F67
:101A900027D0660F771F881FBB1F261737074807F9
:101AA000AB07B0E809F0BB0B802DBF01FF279358AF
:101AB0005F4F2AF09E3F510568F0B6C000C15F3FFE
:101AC000ECF3983EDCF3869577956795B795F79597
:101AD0009F5FC9F7880F911D9695879597F908958F
:101AE000E1E0660F771F881FBB1F6217730784072B
:101AF000BA0720F0621B730B840BBA0BEE1F88F73A
:101B0000E095089504D06894B111D9C00895BCD06F
:101B100088F09F5790F0B92F9927B751A0F0D1F0D6
:101B2000660F771F881F991F1AF0BA95C9F712C060
:101B3000B13081F0C3D0B1E00895C0C0672F782FD5
:101B40008827B85F39F0B93FCCF3869577956795CC
:101B5000B395D9F73EF490958095709561957F4F38
:101B60008F4F9F4F0895E89409C097FB3EF49095DE
:101B70008095709561957F4F8F4F9F4F9923A9F066
:101B8000F92F96E9BB279395F695879577956795F5
:101B9000B795F111F8CFFAF4BB0F11F460FF1BC039
:101BA0006F5F7F4F8F4F9F4F16C0882311F096E9CC
:101BB00011C0772321F09EE8872F762F05C066237A
:101BC00071F096E8862F70E060E02AF09A95660F33
:101BD000771F881FDAF7880F9695879597F90895EC
:101BE000990F0008550FAA0BE0E8FEEF161617062E
:101BF000E807F907C0F012161306E407F50798F096
:101C0000621B730B840B950B39F40A2661F0232BAE
:101C1000242B252B21F408950A2609F4A140A6952A
:101C20008FEF811D811D089597F99F6780E870E00F
:101C300060E008959FEF80EC089500240A94161642
:101C4000170618060906089500240A9412161306AA
:101C5000140605060895092E0394000C11F4882338
:101C600052F0BB0F40F4BF2B11F460FF04C06F5F54
:101C70007F4F8F4F9F4F089557FD9058440F551F2A
:101C800059F05F3F71F04795880F97FB991F61F0FE
:101C90009F3F79F087950895121613061406551F75
:101CA000F2CF4695F1DF08C0161617061806991FE1
:101CB000F1CF86957105610508940895E894BB27D6
:101CC00066277727CB0197F908958ADF08F48FEF0D
:101CD00008950AD0C0CFB1DF28F0B6DF18F0952301
:101CE00009F0A2CFA7CFEBCFC7DFA8F39923D9F391
:101CF0005523C9F3950F50E0551FAA27EE27FF275C
:101D0000BB2700240894679520F4E20FF31FB41F4B
:101D10000A1E220F331F441FAA1F6695A9F7779545
:101D200030F4F30FB41F0A1E121E08F46395330F2C
:101D3000441FAA1F221F769599F7879520F4B40FA8
:101D40000A1E121E631F440FAA1F221F331F8695EF
:101D5000A9F7862F712D602D11249F5750408AF0CE
:101D6000E1F088234AF0EE0FFF1FBB1F661F771FAD
:101D7000881F91505040A9F79E3F510570F054CFF5
:101D80009ECF5F3FECF3983EDCF3869577956795A1
:101D9000B795F795E7959F5FC1F7FE2B880F911DCB
:101DA0009695879597F908950024552704C0080E45
:101DB000591F880F991F009729F076956795B8F3FA
:101DC0007105B9F7802D952F0895991B79E004C00E
:101DD000991F961708F0961B881F7A95C9F780956A
:061DE0000895F894FFCF06
:00000001FF
