:1000000046C260C25FC25EC25DC2BEC55BC25AC2AA
:1000100059C258C257C256C255C254C253C20C1C10
:100020003EFECE0630387C7F736000000000370053
:10003000AE2000B0C8001040813FA1A6A83FA4D3C5
:1000400000D5F0D922DA12DB208D14AF0C1830E085
:10005000C00000001EF0C000000010F8CC063018F0
:100060000C0703000000780F03000000081F336036
:10007000ABAB2B2B0B0B030383C3E373333B3B3B38
:100080003B130303070F1F3F3F3F1F1F0F0F0F07B8
:1000900007070707070707070707070707070707F0
:1000A0000707070F0F0F1F3FFFFFFF03D9D903FFFC
:1000B0000200000000000607030100000004060320
:1000C000030101000000000000000000000000002B
:1000D0000080C0C0800000000000000C1E1E0C004C
:1000E000000000000000000000FFFF80B6B680FFA7
:1000F00040000000000060E0C0800000002060C000
:10010000C08080000000000000000000000000002F
:100110000001030301000000000000307878300087
:10012000000000000000000000FFFF01ABAB01FF7A
:10013000D5D5D4D4D0D0C0C0C1C3C7CECCDCDCDCD4
:10014000DCC8C0C0E0F0B8BCBCBCB8B8B0B0B0B09F
:10015000B0B0B0B0B0B0B0B0B0B0B0B0B0B0B0B09F
:100160008080C0C0E0E0F0FCFFFFFFC0AAAAC0FF93
:10017000ABAB2B2B0B0B030383C3E373333B3B3B37
:100180003B130303070F1F3F3F3F1F1F0F0F0F07B7
:1001900007070707070707070707070707070707EF
:1001A0000707070F0F0F1F3FFFFFFF03D9D903FFFB
:1001B000020000000000060703010000000406031F
:1001C000030101000000000000000000000000002A
:1001D000C060A0A060C0000000001E332D2D331EA3
:1001E000000000000000000000FFFF80B6B680FFA6
:1001F00040000000000060E0C0800000002060C0FF
:10020000C08080000000000000000000000000002E
:100210000306050506030000000078CCB4B4CC78D2
:10022000000000000000000000FFFF01ABAB01FF79
:10023000D5D5D4D4D0D0C0C0C1C3C7CECCDCDCDCD3
:10024000DCC8C0C0E0F0B8BCBCBCB8B8B0B0B0B09E
:10025000B0B0B0B0B0B0B0B0B0B0B0B0B0B0B0B09E
:100260008080C0C0E0E0F0FCFFFFFFC0AAAAC0FF92
:10027000FFC08080C0FFFFC08080C0FFFFC08080C3
:10028000C0FFFFC08080C0FFFFC18081C0FFFFC5ED
:100290008285C2FFFFD58A95CAFFFFD5AAD5EAFF9E
:1002A000FF01010101FFFF05030503FFFF150B150A
:1002B0000BFFFF552B552BFFFF55AB55ABFFFF55E4
:1002C000AB55ABFFFF55AB55ABFFFF55AB55ABFF88
:1002D000FF80808080FFFF80808080FFFF808080A3
:1002E00080FFFF80868680FFFF80B6B680FFFF0319
:1002F000010103FFFF03191903FFFF03D9D903FF0E
:10030000FF03D9D903FFFF03D9D903FFFF0101017F
:10031000010101010101017D457505457D01FFFFD9
:100320000000609090909060000029292FA9A946B4
:1003300000FFFF0000E42A2A6A2AEA00003A0A0ABB
:100340001A0A3900FFFF8080928A868E928E808002
:1003500080808080808080FFFF017D457505457D20
:1003600001FFFF80AF89A9A9A9AF80FF00FCFE1E95
:100370000EEE2EEE6EAE6EEEEEEE0EFEFEFE06FA09
:100380009C0C0C0898F20206FEFEFEFEFEFEFEFE2F
:10039000FE0EFE3EFEFEFEFEFEDEDE1EDEDEDE1E8D
:1003A000FEFEFEFEFEFEFEFEFE7EFEFC0000FFFFE9
:1003B0000000FF4E6D6EEF44EFEFFF00FFFFFFFE0A
:1003C000F8C73FFFFFFFFF80003FFFFF7F3F1F1F7A
:1003D0000F0F080F101F207F83FFFFFFABAAAAAAF1
:1003E000CBFFFFFF8DDDDDDDCDFDD0FFFF0000FF8A
:1003F000FF0000FFE8EDECED4CFFFFFF00FFFFFF0B
:10040000FFFFFFFEE11FFFFFFFC0003FC100000034
:10041000000000000080C03000C1FFFFFF8CAA88F0
:10042000BACCFFFF9FB6B6365658EFFFFFFF00006D
:100430003F7F6060676466666664666667707F7F3C
:100440007F7F7F7F7F7F7F78776F6760707F7F7E22
:100450007C7C787878797C7C7E7F7F7F7F7F7A7ADE
:100460007A7A7A7F7F7F7F7F7F7F7E7E7F7F3F006C
:100470000000000036000000000038000202020206
:1004800002020102040810200102000004001124ED
:100490001FBECFE5D2E0DEBFCDBF10E0A0E6B0E0EA
:1004A000ECEAFEE102C005900D92AE36B107D9F735
:1004B00020E0AEE6B0E001C01D92AF37B207E1F731
:1004C000ADD3F2CC9DCDC298C098C29AC09A08957F
:1004D00030E020E090E0AC01022E01C0440F0A940D
:1004E000EAF747FF0CC0C09AC29AC2982F5F3F4FED
:1004F0002830310581F7C09AC29AC2980895C098F1
:10050000F3CFC29AC09AC098C2980895FADF88E7DC
:10051000DFDF80E4DDCFF5DF88E7DADF80E0D8CF0A
:10052000CF93C82FF8DF8C2FD3DFCF91CCCF1F9381
:10053000CF93DF93182FC0EB8C2FF2DF80E0F0DF3A
:1005400080E1EEDFE3DFD0E0812FC2DFDF5FD03874
:10055000D9F7B9DFCF5FC83B79F7DF91CF911F9112
:100560000895ECE8F4E02491E6E8F4E09491E0E802
:10057000F4E0E491EE23C1F0222329F02130A9F424
:100580002AB52F772ABDF0E0EE0FFF1FEA58FB4F88
:10059000A591B49181111AC08FB7F8942C91E92FCD
:1005A000E095E223EC938FBF0895223019F42AB529
:1005B0002F7DE8CF233021F420B72F7D20BFE3CF5C
:1005C000243009F72CB52F7D2CBDDDCF8FB7F894E3
:1005D000EC91E92BE7CFE3E8F4E08491EDE7F4E078
:1005E000E491EE2371F0F0E0EE0FFF1FE059FB4FB6
:1005F000A591B491EC91E82381E090E021F480E0B2
:10060000089580E090E0089583E087B987B187B9C5
:10061000369A3699FECF84B195B108957F928F9224
:100620009F92AF92BF92CF92DF92EF92FF920F9381
:100630001F93CF93DF93E82EA42E82958F70B82E50
:100640006894B4F880EBF82EF60ECFEFC40FCE19F5
:10065000D0E02196680110EB120F0E2D0E70016094
:100660005ADF8F2D35DF8B2D33DF802F31DF2BDFEE
:100670004DDF46017E2CF40184912ADF7394FFEF55
:100680008F1A9F0AA710F7CF1EDFF394CC0EDD1E42
:10069000F112E6CFDF91CF911F910F91FF90EF9074
:1006A000DF90CF90BF90AF909F908F907F900895F4
:1006B000CF93DF9387FF07C08F7769F1813069F1AE
:1006C000823069F183E090E0FC01EE57FB4F24910A
:1006D00084589B4FFC0184918823D1F090E0880FCF
:1006E000991FFC01E65DFF4FA591B491FC01EA580A
:1006F000FB4FC591D491611114C09FB7F8948C91B0
:10070000E22FE0958E238C932881E223E8839FBF1C
:10071000DF91CF91089585E0D6CF82E0D4CF84E0F9
:10072000D2CF8FB7F894EC91E22BEC938FBFF0CF40
:100730003FB7F8948091730090917400A091750078
:10074000B091760022B708B601FE05C02F3F19F020
:100750000196A11DB11D3FBFBA2FA92F982F882741
:10076000BC01CD01620F711D811D911D42E0660F1C
:10077000771F881F991F4A95D1F70895CF92DF926E
:10078000EF92FF92CF93DF936B017C01D1DFEB01FE
:10079000CFDF6C1B7D0B683E7340A0F0C114D10409
:1007A000E104F10439F4DF91CF91FF90EF90DF90F5
:1007B000CF90089581E0C81AD108E108F108C85126
:1007C000DC4FE6CFC114D104E104F10409F7EBCF0B
:1007D00080FF0BC080EC67FF80E066FD806365FDF5
:1007E0008C6064FF0BC0836009C080EC63FF80E015
:1007F00062FD806361FD8C6060FDF5CF0895E82F98
:1008000086958695869568EF35DBE80FF0E0EA5926
:10081000FF4F80810895CF93DF93EC0120E030E01B
:1008200040E85FE3688579858A859B85B4DA181688
:1008300044F480E090E0A0E8BFE388879987AA8726
:10084000BB8720E030E040E85FEB688579858A85EA
:100850009B8552D987FF08C080E090E0A0E8BFEBFD
:1008600088879987AA87BB8720E030E040E85FE36C
:100870006C857D858E859F858EDA181644F480E020
:1008800090E0A0E8BFE38C879D87AE87BF8720E01C
:1008900030E040E85FEB6C857D858E859F852CD9A7
:1008A00087FF08C080E090E0A0E8BFEB8C879D87C1
:1008B000AE87BF87DF91CF9108958F929F92AF92BD
:1008C000BF92CF92DF92EF92FF92CF93DF93EC0132
:1008D000A2DFC888D988EA88FB8820E030E0A90137
:1008E000C701B60158DA87FD44C0888C998CAA8C60
:1008F000BB8C20E030E040E85FEBC501B4014BDA8F
:100900001816A4F42DEC3CEC4CE45DE3C501B401F5
:100910008ED84B015C0120E030E040E85FEB3BDA31
:10092000181624F4888E998EAA8EBB8EA701960184
:10093000688D798D8A8D9B8D7BD8688B798B8A8B1E
:100940009B8B2C8D3D8D4E8D5F8D6C897D898E8925
:100950009F896ED86C8B7D8B8E8B9F8BDF91CF9117
:10096000FF90EF90DF90CF90BF90AF909F908F90CF
:10097000089581E088A7E5CF0F931F93CF93DF936E
:10098000062F10E0CFEFD0E0C81BD10981E0E9DDF0
:1009900080E08C171D0634F495E09A95F1F700007D
:1009A0008F5FF7CF80E0DDDD80E08C171D0634F42B
:1009B00095E09A95F1F700008F5FF7CF1F5F011365
:1009C000E5CFDF91CF911F910F9108954F925F92E4
:1009D0006F927F928F929F92AF92BF92CF92DF924F
:1009E000EF92FF920F931F93CF93DF932B013C0164
:1009F00049015A017801C8010EDF20E030E0A90169
:100A0000C301B201C8D920E030E040E05FE387FDD8
:100A100056C0C301B2010CD8DBD8162F20E030E05D
:100A2000A901C501B401B7D920E030E040E05FE39F
:100A300087FD49C0C501B401FBD7CAD8D62E212FE6
:100A400030E0E62FE695E695E695F0E086E0EE0FDD
:100A5000FF1F8A95E1F7EF01C20FD31F1450163024
:100A600008F071C085EF8D0D843008F059C0C0903A
:100A70007B008901045011098D2DC1DEC11027C0F2
:100A8000025A1F4FF8010491082309F07BC0FE01B0
:100A9000E059FF4FE491E82381E0A1F1DF91CF918C
:100AA0001F910F91FF90EF90DF90CF90BF90AF908C
:100AB0009F908F907F906F905F904F900895C301AB
:100AC000B201B5D7A9CFC501B401B1D7B6CF0C5D7E
:100AD0001F4FF8010491082331F4FE01E059FF4F44
:100AE000E491E82379F0F3E0CF1671F080E090E034
:100AF000A0E0B0E4F701808F918FA28FB38F6CE0FC
:100B000084E13ADF80E0CACF80E090E0A0E8BFE374
:100B1000F701808F918FA28FB38F66E081E0F1CFD4
:100B20008FEE8D0D843078F4C0907A0089010450E6
:100B300011098D2D64DEC11003C0045B1F4FA2CFCD
:100B4000025E1F4FC6CF205E3F4F8091600082172C
:100B5000130669F064F020E030E040EF51E4F70163
:100B60006481758186819781C7D7882359F0C059E0
:100B7000DF4FFE01C4918D2D42DEC82381E009F0D4
:100B80008DCFC0CF81E08ACF1F920F920FB60F9208
:100B900011242F933F938F939F93AF93BF93809193
:100BA0006F0090917000A0917100B091720030912F
:100BB0006E0023E0230F2D3768F126E8230F0296FD
:100BC000A11DB11D20936E0080936F009093700063
:100BD000A0937100B09372008091730090917400A3
:100BE000A0917500B09176000196A11DB11D809372
:100BF000730090937400A0937500B0937600BF913A
:100C0000AF919F918F913F912F910F900FBE0F90B9
:100C10001F9018950196A11DB11DD4CFCF93DF93DE
:100C2000CDB7DEB7EB970FB6F894DEBF0FBECDBFE2
:100C300083E08ABD83BF789489B7826089BF80E4EE
:100C40008CBD8FEF8DBD87EC80BF86B1876886B97C
:100C5000379A2FEF33EF41E0215030404040E1F729
:100C600000C00000B89ABA9A00E310E07CE4E72ED6
:100C700070E0F72EF801849153DC0F5F1F4FE016F0
:100C8000F106C1F7FFEF23EF31E0F1502040304093
:100C9000E1F700C0000060E083E80ADD60E081E089
:100CA00007DD61E084E004DD80E041DC80E059DCC8
:100CB00010927E0085E0809361008FEF38DC64EF56
:100CC00071E080E090E05ADD0CE613E026E040E6BB
:100CD00062E08FE1A3DC1FEF62E0812F4DDE115057
:100CE000D9F762E0812F48DE1F5F1F3FD1F768EE22
:100CF00073E080E090E042DDECD586DC8E3E9240F1
:100D00000CF075C268DC892B09F077C280E00FDC3B
:100D100008E513E025E045E463E08BE37FDC81E058
:100D200080937D0068EE73E080E090E027DD8091A5
:100D30006100882309F46CC2815080936100FE0138
:100D4000399687E2DF011D928A95E9F720E030E0CD
:100D500048E352E429833A834B835C8380E090E04C
:100D6000A0EFB1E48D839E83AF83B887298B3A8B44
:100D70004B8B5C8B8D8B9E8BAF8BB88FCE0101968E
:100D80009CDD2D893E894F89588D69897A898B89A7
:100D90009C898E010F5F1F4F19DE882309F4E5C37C
:100DA000C80139DDC980DA80EB80FC80C98ADA8A23
:100DB000EB8AFC8A6D817E818F8198856D8B7E8B1D
:100DC0008F8B988F09851A852B853C85098F1A8F03
:100DD0002B8F3C8F0D851E852F8538890D8F1E8F9B
:100DE0002F8F38A320E030E040EF51E485D6811109
:100DF000A9C220E030E04CE352E4C701B6017CD642
:100E000018160CF49FC28E010F5F1F4F20E030E0D8
:100E100040EF51E4C701B601D9DD811114C2CE0102
:100E200001964BDD4D805E806F80788489899A8938
:100E3000AB89BC8988AB99ABAAABBBABCD88DE884C
:100E4000EF88F88C898C9A8CAB8CBC8C2D8D3E8D68
:100E50004F8D58A12CAB3DAB4EAB5FAB20E030E0EB
:100E600040EE50E4C301B20147D687FD20C020E028
:100E700030E040EC51E4C301B2018DD71816BCF04C
:100E800049805A806B807C8020E030E048EF51E45C
:100E9000C301B20131D687FD0AC020E030E040E452
:100EA00052E4C301B20177D718160CF0BFC288A96B
:100EB00099A9AAA9BBA989839A83AB83BC83CD8254
:100EC000DE82EF82F88689869A86AB86BC862CA95C
:100ED0003DA94EA95FA92D873E874F87588B20E0FB
:100EE00030E048EE51E4C701B60106D687FF03C0E3
:100EF00066E081E041DDCD8CDE8CEF8CF8A02AE944
:100F000039E949E15EE3C701B60145D787FD0BC06A
:100F10002DEC3CEC4CEC5DE3C701B60188D56D8F40
:100F20007E8F8F8F98A3CD8CDE8CEF8CF8A02AE972
:100F300039E949E15EEBC701B601DED518165CF070
:100F40002DEC3CEC4CEC5DE3C701B60171D56D8F27
:100F50007E8F8F8F98A3C980DA80EB80FC8020E0A1
:100F600030E048EE51E46D817E818F81988513D702
:100F700018168CF420E030E040EB51E4C701B601D4
:100F80000AD7181644F480E090E0A0EFB1E48D8316
:100F90009E83AF83B88720E030E0A901C701B60186
:100FA000FAD620E030E040E05FE387FDFFC2C701F2
:100FB000B6013ED50DD661337105810591050CF45E
:100FC00055C0CD80DE80EF80F88420E030E0A901BC
:100FD000C701B601E0D620E030E040E05FE387FDE6
:100FE000E9C2C701B60124D5F3D56E31710581057B
:100FF0009105E1F520E030E048E452E429833A83AA
:101000004B835C8380E090E0A8EEB1E48D839E8307
:10101000AF83B8875ED42AE030E040E050E0C9D426
:101020000AD620E030E048EC52E46AD59B01AC01DE
:101030006DEC7CEC8CE49FE3FAD469877A878B872C
:101040009C8747D42EE130E040E050E0B2D4F3D5A5
:1010500020E030E048EC52E453D520E030E040E8B6
:101060005FE3E5D46D877E878F87988BCD80DE80A8
:10107000EF80F8842CE53FE84AE251E4C701B6016D
:101080003BD587FD9BC22EEA37E44DEA51E4C70108
:10109000B60181D618160CF095C237E038AB64E083
:1010A000962E80917D00813019F4912C87E088ABD9
:1010B00000E080EB800F34DA80E032DA80E130DA71
:1010C00025DA602F669570E090E080E0B4D520E0EE
:1010D00030E040E850E4ACD480D5162F862F90E065
:1010E0005C01A4E0AA1AB10846E0AA0CBB1C4A9510
:1010F000E1F7D12CC12C9C01990F440B550B28AF63
:1011000039AF4AAF5BAF091518F038A9301720F492
:101110004BE04C1508F49CC29C2D30E2632E6C0C05
:1011200059E5561508F4E3C2173049F485E38615EE
:1011300030F48091600020E4722E681608F0712C63
:1011400020917B0080917A00153009F040C29450C4
:10115000963008F04EC223300CF022E0822F90E04F
:1011600066E070E090D6FC01EC0DFD1DE65AFF4FE5
:10117000E4908091780090917900F501EC0DFD1DCF
:10118000E80FF91FE059FF4FF49029803A804B8017
:101190005C8020E030E0A901C201B101FCD520E073
:1011A00030E040E05FE387FD26C2C201B10140D4D8
:1011B0000FD5605E6CAB2D803E804F80588420E060
:1011C00030E0A901C201B101E6D520E030E040E005
:1011D0005FE387FD14C2C201B1012AD4F9D480E2D1
:1011E000882E860E143008F00EC280E027C20CDA7A
:1011F000863B93400CF086CD89CD06DA853F914041
:101200000CF47ACD01DA8E3E92400CF075CD7ECD95
:101210006CE271E080E090E0B1DA0CE013E026E0EF
:1012200049E462E086E3FAD915E064E684E6A4DBEB
:1012300064E681E0A1DB1150C1F768EE73E080E065
:1012400090E09CDA35CDC988DA88EB88FC8860911B
:1012500060006150770B072E000C880B990BEBD4C4
:101260004B015C0120E030E040E052E4C701B601F0
:10127000DFD3A501940140D487FF28C010E020E00F
:1012800030E040E052E4C701B601D2D39B01AC018B
:10129000C501B40180D518165CF420E030E040E8C8
:1012A0005FE3C701B601C4D36B017C011F5FE7CFC9
:1012B000C98ADA8AEB8AFC8A153040F080E090E037
:1012C000A0E0B0E4898F9A8FAB8FBC8FC98CDA8C89
:1012D000EB8CFC8C20E030E0A901C701B6010CD4F6
:1012E00018160CF49CCDF7FAF094F7F8F094C98E28
:1012F000DA8EEB8EFC8E93CD89859A85AB85BC8585
:10130000898F9A8FAB8FBC8F8D859E85AF85B8896D
:101310008D8F9E8FAF8FB8A3CE010196CEDA2D8927
:101320003E894F89588D69897A898B899C898E017C
:101330000F5F1F4F4BDB882309F474CDF39437E024
:10134000F31201C0F12C69817A818B819C81698BB8
:101350007A8B8B8B9C8B0D811E812F8138850D8B19
:101360001E8B2F8B388FA6E0AF15B0F2EF2DF0E07B
:10137000E554F64F0994C0CF05C00AC017C01CC081
:1013800029C03EC089859A85AB85BC85B058B8CF49
:1013900089859A85AB85BC85898F9A8FAB8FBC8FE9
:1013A0008D859E85AF85B889B058B2CF89859A85DD
:1013B000AB85BC85B058F0CF8D859E85AF85B8894B
:1013C000B058898F9A8FAB8FBC8F89859A85AB85F2
:1013D000BC85EACF20E030E040E85FE329D3698BA9
:1013E0007A8B8B8B9C8B2DEC3CEC4CE45EEB298F49
:1013F0003A8F4B8F5C8F8DEC9CECACE4BEE388CFD6
:1014000020E030E040E85FE313D3698B7A8B8B8B6D
:101410009C8B2DEC3CEC4CE45EEB298F3A8F4B8F90
:101420005C8F2D8F3E8F4F8F58A376CF88A999A9B7
:10143000AAA9BBA989839A83AB83BC83CD82DE82B0
:10144000EF82F88620E030E040E051E4C501B401CD
:10145000A6D46B017C01C98EDA8EEB8EFC8E20E067
:1014600030E040E051E46CA97DA98EA99FA997D4F2
:101470004B015C018D8E9E8EAF8EB8A223E333E3C9
:1014800043EB5FE3C701B60186D4181644F483E347
:1014900093E3A3EBBFE3898F9A8FAB8FBC8F23E3DA
:1014A00033E343EB5FEB698D7A8D8B8D9C8D24D379
:1014B00087FF08C083E393E3A3EBBFEB898F9A8F89
:1014C000AB8FBC8F23E333E343EB5FE3C501B40190
:1014D00062D4181644F483E393E3A3EBBFE38D8F48
:1014E0009E8FAF8FB8A323E333E343EB5FEB6D8DA8
:1014F0007E8D8F8D98A100D387FF08C083E393E38F
:10150000A3EBBFEB8D8F9E8FAF8FB8A3898D9A8D84
:10151000AB8DBC8D89879A87AB87BC878D8D9E8D5F
:10152000AF8DB8A18D879E87AF87B88B80E091E0A3
:10153000909379008093780080917E00873020F42A
:101540008F5F80937E00D7CC80916100843018F447
:101550008F5F8093610010927E001CE366E0812F14
:101560000BDA1C5E103FD1F7C6CC89899A89AB890A
:10157000BC8989839A83AB83BC838D899E89AF891B
:10158000B88D8D839E83AF83B887898D9A8DAB8DFF
:10159000BC8D89879A87AB87BC878D8D9E8DAF8DDB
:1015A000B8A18D879E87AF87B88BD5CCC701B60110
:1015B0003ED200CDC701B6013AD216CD912C43E000
:1015C00048AB6FCD55E058AB52E0952E6ACD163042
:1015D00081F49450963068F483300CF082E090E00F
:1015E00066E070E050D4FC01EC0DFD1DE85BFF4FA0
:1015F000BFCDE12CBECDC201B10119D2D9CDC201FE
:10160000B10115D2EBCD682D66956695669570E0B3
:1016100090E080E010D31B012C0168AD79AD8AAD5C
:101620009BAD09D39B01AC01C201B10165D281110F
:10163000DCCD9CA96912D9CD882DE1D8FE287F2860
:10164000672D682B802FC4D8F82E42D78F2D40D716
:10165000AFEFCA1ADA0AB0E4CB16D10409F053CDC1
:1016600032D70F5F083009F024CD80917800909137
:10167000790081159140B1F4809177008F5F80935C
:101680007700823078F064E181E076D964E184E12A
:1016900073D964E181E070D91092790010927800DA
:1016A0001092770010927D0063E070E080E090E09F
:1016B00065D880917C00811158C081E080937C00C6
:1016C000C980DA80EB80FC8020E030E040E05FE31E
:1016D000C701B60111D287FF4BC012E366E0812F2C
:1016E0004BD91150D9F781E080937D0020CBE6ECF7
:1016F000EC0D153011F120F4143091F060E0A2CF20
:10170000163039F11730D1F780917E0090E066E015
:1017100070E0B9D3E80FF92FF11DE059FD4F0BC070
:101720008091610090E066E070E0ADD3E80FF92FA2
:10173000F11DE251FD4F649185CF8091610090E0F1
:1017400066E070E0A0D3E80FF92FF11DE053FD4FE4
:10175000F2CF80917E0090E066E070E094D3E80FD5
:10176000F92FF11DE056FD4FE6CF10927C00A8CF77
:1017700020E030E048EE51E46D817E818F819885D4
:101780000AD387FD40C020E030E040E951E4C701C2
:10179000B60101D387FD37C037D78E3E924074F42F
:1017A0001AD7892B79F0809160008F53893038F1F6
:1017B00080916000883468F4885F09C025D7863B33
:1017C000934074F780916000873318F082508093C3
:1017D00060001AD710917B00853F9140B4F4111638
:1017E000F4F012D78E3E9240E4F4F5D6892BE9F05E
:1017F00080917A0018160CF0C1CA81501CC088E490
:1018000080936000D5CF88E4E2CFFED68E3E924032
:1018100034F7133034F71F5F10937B00E2CF115081
:10182000FBCFF2D6863B934004F780917A00833059
:101830000CF0A4CA8F5F80937A00A0CA8F929F9207
:10184000AF92BF92CF92DF92EF92FF92CF93DF934E
:10185000EC01688179818A819B816115710581051F
:10186000910521F464E279ED8BE597E02DE133EF0A
:1018700041E050E09ED049015A0127EA31E440E0BE
:1018800050E07ED06B017C012CEE34EF4FEF5FEF28
:10189000C501B40175D0C60ED71EE81EF91EF7FEAD
:1018A00006C081E0C81AD108E10880E8F80AC882B9
:1018B000D982EA82FB82C701B6019F77DF91CF917F
:1018C000FF90EF90DF90CF90BF90AF909F908F9060
:1018D00008958F929F92AF92BF92CF92DF92EF9234
:1018E000FF9260916200709163008091640090911A
:1018F0006500611571058105910521F464E279EDBA
:101900008BE597E02DE133EF41E050E052D0490103
:101910005A0127EA31E440E050E032D06B017C010B
:101920002CEE34EF4FEF5FEFC501B40129D0C60EA6
:10193000D71EE81EF91EF7FE06C081E0C81AD108BE
:10194000E10880E8F80AC0926200D0926300E09259
:101950006400F0926500C701B6019F77FF90EF9099
:10196000DF90CF90BF90AF909F908F90089560933D
:101970006200709363008093640090936500089503
:10198000EE27FF27AA27BB2708C0A20FB31FE41F1B
:10199000F51F220F331F441F551F96958795779586
:1019A000679598F37040A9F7009799F7BD01CF01AB
:1019B0000895052E97FB16F400940FD057FD05D01F
:1019C00014D007FC02D046F408C0509540953095DD
:1019D00021953F4F4F4F5F4F08959095809570959B
:1019E00061957F4F8F4F9F4F0895A1E21A2EAA1B3A
:1019F000BB1BFD010DC0AA1FBB1FEE1FFF1FA217BF
:101A0000B307E407F50720F0A21BB30BE40BF50BBB
:101A1000661F771F881F991F1A9469F76095709544
:101A2000809590959B01AC01BD01CF010895505860
:101A3000BB27AA270ED075C166D130F06BD120F03C
:101A400031F49F3F11F41EF45BC10EF4E095E7FB07
:101A500051C1E92F77D180F3BA1762077307840762
:101A6000950718F071F49EF58FC10EF4E0950B2EDA
:101A7000BA2FA02D0B01B90190010C01CA01A001E0
:101A80001124FF27591B99F0593F50F4503E68F13B
:101A90001A16F040A22F232F342F4427585FF3CF7C
:101AA000469537952795A795F0405395C9F77EF44D
:101AB0001F16BA0B620B730B840BBAF09150A1F096
:101AC000FF0FBB1F661F771F881FC2F70EC0BA0F1C
:101AD000621F731F841F48F4879577956795B795A4
:101AE000F7959E3F08F0B3CF9395880F08F099279C
:101AF000EE0F979587950895D9D008F481E0089561
:101B00000CD00FC107D140F0FED030F021F45F3F80
:101B100019F0F0C0511139C1F3C014D198F39923D1
:101B2000C9F35523B1F3951B550BBB27AA276217A1
:101B30007307840738F09F5F5F4F220F331F441FE6
:101B4000AA1FA9F333D00E2E3AF0E0E830D091501E
:101B50005040E695001CCAF729D0FE2F27D0660F0B
:101B6000771F881FBB1F261737074807AB07B0E84A
:101B700009F0BB0B802DBF01FF2793585F4F2AF060
:101B80009E3F510568F0B6C000C15F3FECF3983E40
:101B9000DCF3869577956795B795F7959F5FC9F7BD
:101BA000880F911D9695879597F90895E1E0660F46
:101BB000771F881FBB1F621773078407BA0720F0BF
:101BC000621B730B840BBA0BEE1F88F7E095089528
:101BD00004D06894B111D9C00895BCD088F09F5743
:101BE00090F0B92F9927B751A0F0D1F0660F771F69
:101BF000881F991F1AF0BA95C9F712C0B13081F049
:101C0000C3D0B1E00895C0C0672F782F8827B85F90
:101C100039F0B93FCCF3869577956795B395D9F7A9
:101C20003EF490958095709561957F4F8F4F9F4FB3
:101C30000895E89409C097FB3EF4909580957095BF
:101C400061957F4F8F4F9F4F9923A9F0F92F96E908
:101C5000BB279395F695879577956795B795F1117D
:101C6000F8CFFAF4BB0F11F460FF1BC06F5F7F4F1A
:101C70008F4F9F4F16C0882311F096E911C077232C
:101C800021F09EE8872F762F05C0662371F096E835
:101C9000862F70E060E02AF09A95660F771F881F04
:101CA000DAF7880F9695879597F90895990F0008A8
:101CB000550FAA0BE0E8FEEF16161706E807F9071E
:101CC000C0F012161306E407F50798F0621B730BB9
:101CD000840B950B39F40A2661F0232B242B252B3A
:101CE00021F408950A2609F4A140A6958FEF811DDD
:101CF000811D089597F99F6780E870E060E008957E
:101D00009FEF80EC089500240A9416161706180613
:101D10000906089500240A941216130614060506EF
:101D20000895092E0394000C11F4882352F0BB0F80
:101D300040F4BF2B11F460FF04C06F5F7F4F8F4FE3
:101D40009F4F089557FD9058440F551F59F05F3F1E
:101D500071F04795880F97FB991F61F09F3F79F0CD
:101D600087950895121613061406551FF2CF46954F
:101D7000F1DF08C0161617061806991FF1CF8695D1
:101D80007105610508940895E894BB2766277727B5
:101D9000CB0197F908958ADF08F48FEF08950AD0F0
:101DA000C0CFB1DF28F0B6DF18F0952309F0A2CF3D
:101DB000A7CFEBCFC7DFA8F39923D9F35523C9F3F6
:101DC000950F50E0551FAA27EE27FF27BB270024B9
:101DD0000894679520F4E20FF31FB41F0A1E220F28
:101DE000331F441FAA1F6695A9F7779530F4F30FA8
:101DF000B41F0A1E121E08F46395330F441FAA1F56
:101E0000221F769599F7879520F4B40F0A1E121EAB
:101E1000631F440FAA1F221F331F8695A9F7862F21
:101E2000712D602D11249F5750408AF0E1F08823D6
:101E30004AF0EE0FFF1FBB1F661F771F881F9150D0
:101E40005040A9F79E3F510570F054CF9ECF5F3FA1
:101E5000ECF3983EDCF3869577956795B795F79503
:101E6000E7959F5FC1F7FE2B880F911D969587958B
:101E700097F90895002480FD060E660F11F08695EF
:101E8000D1F7802D08950024552704C0080E591F4E
:101E9000880F991F009729F076956795B8F371051B
:0C1EA000B9F7802D952F0895F894FFCF1E
:0E1EAC004804010000000102040810204080DC
:00000001FF
