:100000003AC354C353C352C351C3F0C64FC34EC3C4
:100010004DC34CC34BC34AC349C348C347C356AE81
:1000200056AA56AE56AA050209020502050200208C
:1000300000200000200020000084008004008400D4
:100040008004B010501050105010B0F0808C818C93
:1000500080B084B080868D8B89868B8986808080F5
:10006000808080FFC3818181A19995A18181818157
:10007000A19995A181818181A19995A1818181C356
:10008000FFFFC3818185BD858181A58199AD95A93A
:1000900095A995A995A995A995A995A995A995A970
:1000A00095A995A995A995A995A995A9B59981C34A
:1000B000FFFFC38181BD958981A58181BD999999F2
:1000C00099999999999999999999999999999999A0
:1000D0009999999999999999999999999999BD8184
:1000E00081C3FF0D0200008080DCBEF9AB860000FA
:1000F0000000000305040300010F16120C000000AD
:100100000000F07CF2D68C8080000000000C1217FA
:100110000C0D02070F16120C00000000F83EF9B596
:10012000E3E0A0800000000C12130E06000103059E
:100130000403000018FE39F5A3E07CB490600000D1
:10014000000C13120E06010000000000001E39759D
:10015000B360B4182C24180000000000000C131227
:100160000C000000000000003C72F2ECC068305847
:10017000483000000000000000010E13120C0000C7
:1001800000000000E0F8E4AC180000000000000CE3
:10019000121F080B050F0F1F120C00000000E07863
:1001A000E4CC98C0A0000000000C12170C0D020354
:1001B0000504030000000080C070D898B000000063
:1001C000000006090B070C0D02071F251800000B85
:1001D00001344E5E363208193D5E48300B01010392
:1001E0000E0E0C08090B0E0E0C0B0300000080C055
:1001F000E0F0F83C1EFFFC1E8FC7E3FF7FBF5EAF41
:10020000571F0F170B150A150A150A150303FF00D0
:10021000FFFF00FF0F000F0603FF3333CCCCFFFFBF
:100220003333CCCCFF0F03030C0C0F0F0100000481
:100230000A0C0A0C0A0C0A0C0E0400000E04E01052
:10024000080442FFA57329FE7CF8F0E0FF002100BE
:1002500008FF94CEA5FFEFDEBD7BFF008440211F89
:100260001219143F7DFBF7EF0301000000000000AE
:100270000000000001031A0400000000804020106C
:10028000080442FFA57329FE7CF8F0E0C08000005E
:100290000000F804420110008400210008FF94CE01
:1002A000A5FFEFDEBD7BF7EFDFBE7CF8FF000800A7
:1002B000420010008440211F1219143F7DFBF7EF0C
:1002C000DEBD7BF7EFDEFF402110080402010000D5
:1002D00000000000000000000103070F1F3E7DFB2F
:1002E000000000003700AE2000B0C8001040813F81
:1002F000A1A6A83FA4D300D5F0D922DA12DB208D25
:1003000014AF3205FE01057D050175017D097901F6
:100310000D710D013E7C40404040408000000020B7
:100320000020200080C0E0E0E0E0C080000000008D
:10033000000000000000000101010101013E40DF5A
:10034000D5CAC0DDC0DFC6D9C0DFD5D1C0BF7F08E8
:100350000901C1F0F8FFFFF9F031333B1F0F03062D
:100360000400000000000000000000000000000089
:1003700000000000120012121212121212121212B7
:1003800012120000FFFFFF0F0F7FFF3F2E26E0F04D
:10039000F2FE3C38100000000000000010001110B8
:1003A000111111111111111111111111111101015D
:1003B0000178FCCE87070F1F9FFCF8787C0F070F92
:1003C0001F17F7FB9F1F0F078FFEFC78000000012F
:1003D000000101010101010101010101010101010E
:1003E00001010000000103030303030100000000FA
:1003F00000000000000103030303030100003202B8
:10040000FF01FD05EDDD05FDFD055575FD75ADDD56
:10041000AD75FDF5F505F5F5FDFDFDFD05B5954D54
:10042000FDFD0DD5D50DFD8D757575FD055575FD5C
:1004300001FF070405050505050505050505050575
:10044000050505050505050505050505050505055C
:10045000050505050505050505050505050505054C
:1004600005050407171C21263617A2F230F2020DEB
:10047000A20DF2300DA215310DF2A2310D31310D68
:10048000330F381002A23052B5F23130F231A230BF
:100490003131315252316556A630330F411230306E
:1004A000300DA215F230065615A656B5F715A23135
:1004B000B531311531F63130330F4112313130065B
:1004C0005615A215F2A6F63006F256153156A2318F
:1004D000B5313115313130330F4817300656A6F695
:1004E00030A2155606F6A630025230A2F23152A2C0
:1004F000B556A631F6313006330F601C301556B5AF
:100500000665A6F6313056A6A6F6300656F7F63042
:10051000B5F63156B506653056A2F2A60631F2A6FA
:100520003052B5330F601C150656A6F6B50656A612
:10053000F631B530B531A6F630063015F6A656B50B
:100540000665A6563131A6063131A63006B5330F01
:100550006E2202155665A6B530303031063156315F
:10056000A631F631A2650665F6650665F6300D65BD
:100570000665F6650665F631305631305631303352
:100580000F7C223130F631A631300631B5303106DC
:10059000310615B5F60631F63130A631F6310630A2
:1005A00031F631F6310631F6310615B5F6F7303150
:1005B0003031563130330F611930F630A631F63014
:1005C00006305630A631305630063106305630F6F9
:1005D00031A63106F6300D300D315630A6300D31D2
:1005E000330E1A200E1A0F04061405140B150B04F3
:1005F0000B073202FF01FDED5555BDFDF505F5FD7B
:100600000DD50DFD05D52DFDF505F5FDFDFDFDFD1A
:1006100005B5954DFDFD0DD5D50DFD8D757575FD9A
:10062000055575FD01FF07040505050505050505CB
:10063000050505050505050505050505050505056A
:10064000050505050505050505050505050505055A
:10065000050505050505040700000000360000003B
:100660000000380002020202020201020408102007
:1006700001020000040011241FBECFE5D2E0DEBF5E
:10068000CDBF10E0A0E6B0E0EEE4FEE102C00590D0
:100690000D92AA36B107D9F720E0AAE6B0E001C072
:1006A0001D92AB3BB207E1F7EBD3CFCBA9CCE4E78C
:1006B000F6E02491EEE6F6E09491E8E6F6E0E491C7
:1006C000EE23C1F0222329F02130A9F42AB52F7797
:1006D0002ABDF0E0EE0FFF1FE25AF94FA591B49149
:1006E00081111AC08FB7F8942C91E92FE095E2237D
:1006F000EC938FBF0895223019F42AB52F7DE8CFEF
:10070000233021F420B72F7D20BFE3CF243009F719
:100710002CB52F7D2CBDDDCF8FB7F894EC91E92B54
:10072000E7CFC298C098C29AC09A089530E020E0FE
:1007300090E0AC01022E01C0440F0A94EAF747FF93
:100740000CC0C09AC29AC2982F5F3F4F2830310523
:1007500081F7C09AC29AC2980895C098F3CFC29AFE
:10076000C09AC098C2980895CF93C82FF8DF88E741
:10077000DDDF80E0DBDF8C2FD9DFCF91D2CFEBE65E
:10078000F6E08491E5E6F6E0E491EE2371F0F0E026
:10079000EE0FFF1FE85AF94FA591B491EC91E823B1
:1007A00081E090E021F480E0089580E090E00895F9
:1007B000CF93DF9387FF07C08F7769F1813069F1AD
:1007C000823069F183E090E0FC01E659F94F249111
:1007D0008C59994FFC0184918823D1F090E0880FC7
:1007E000991FFC01E052FD4FA591B491FC01E25A22
:1007F000F94FC591D491611114C09FB7F8948C91B1
:10080000E22FE0958E238C932881E223E8839FBF1B
:10081000DF91CF91089585E0D6CF82E0D4CF84E0F8
:10082000D2CF8FB7F894EC91E22BEC938FBFF0CF3F
:100830008F7787B987B187B9369A3699FECF84B159
:1008400095B10895AF92BF92CF92DF92EF92FF924F
:100850000F93CF93DF93B82F362F962F96959695BB
:100860009695892F68EFD7DA380F309377009093F9
:100870007800F701549131966491C42ED12CCB2F7E
:100880000B2E000CDD0BE52FE150FF0BEC0FFD1FD5
:10089000EC15FD050CF451C0CC16DD060CF44DC072
:1008A000291708F44AC0C92FC60FDD27DD1F2C17F2
:1008B0001D0611F00CF041C0852FADDA71E0780F04
:1008C000602FA9DAA82F291B852F622FA4DA4E5F8B
:1008D0004B1BE82FE40F90E07E1758F0EA0FFF273C
:1008E000FF1FEE0DFF1D9491032E01C0990F0A9476
:1008F000EAF72223B9F0851B840F482F4A0F5527AA
:10090000551FFA01EE0DFF1DE490781758F0F12CF9
:1009100048E050E0431B510902C0F594E7944A9522
:10092000E2F79E29892FDF91CF910F91FF90EF90F1
:10093000DF90CF90BF90AF90089590E0F3CF9AE012
:10094000853021F090E0863009F494E180916B00CD
:10095000893060F48F5F80936B00E0916B00E90F4A
:10096000FF27FF1FE25DFF4F8491089510926B00F7
:10097000F4CF823089F080916D00873050F48F5F22
:1009800080936D00E0916D00F0E0E25EFF4F849196
:10099000089510926D00F6CF80E00895BF92CF9237
:1009A000DF92EF92FF920F931F93CF93DF93D82E96
:1009B000162F8EEF80936A00C0E06830D0F4E62FE7
:1009C000F0E0EC51FB4F099407C02EC031C032C09B
:1009D00041C043C044C045C080916D00873008F5D8
:1009E0008F5F80936D00E0916D00F0E0E45BFF4F5E
:1009F000C491E3EEEE2EE0E0FE2E00916500212F83
:100A00004D2D6091600088E11DDFC82ECC2A8EEF4D
:100A1000810FCAE8D0E0B12C853008F49BC080E09B
:100A200064C010926D00DFCF81E0A3DFC82FE1CF5B
:100A300082E0FBCF80916C008E3048F48F5F809312
:100A40006C00E0916C00F0E0EC5AFF4FD1CF1092B7
:100A50006C00F7CF84E073DFE9CF85E0FCCF86E060
:100A6000FACF2D2D30E0F901ED59FF4FC491C0951B
:100A7000A0916200AF5F8AE1A43020F4B0E0AA59EF
:100A8000BF4F8C91D81620F08AE1EEE78D1508F45F
:100A9000E0E0CE2B4091A6008BE490E0841B91090E
:100AA0002817390724F08BE4ECE38D1508F4E0E017
:100AB000CE2B80919F0090E0865A9F4FE0E0281750
:100AC000390709F4E8E1EC2BCE2FC09592CF76E7F9
:100AD000E72E72E0F72E00E0212F4D2D6B818A81E9
:100AE000B1DE882381F1B0926A008C29DF91CF9129
:100AF0001F910F91FF90EF90DF90CF90BF900895DE
:100B00006CE3E62E62E0F62EE6CF5BE2E52E52E0E5
:100B1000F52EE1CF47E1E42E42E0F42EDCCF3CE0BD
:100B2000E32E32E0F32ED7CF29EEE22E21E0F22E93
:100B3000D2CF9CEDE92E91E0F92ECDCF8FECE82EAF
:100B400081E0F82EC8CF269681E0B81609F467CF69
:100B5000BB24B39488818823B1F3E981E150E83064
:100B600090F7F0E0EB54FA4F0994B1CFC9CFCDCF55
:100B7000D1CFD5CFD9CFDDCFE1CFDF92EF92FF92AA
:100B80000F931F93CF93DF93182FC0E027E0D22E4F
:100B9000882341F098E0D92EC2E0813019F088E036
:100BA000D82EC0E080EB8C0FDFDD80E0DDDD80E162
:100BB000DBDDD5DD88E7BADD80E4B8DD8091960025
:100BC00080936D008091970080936C0080919800D5
:100BD00080936B00D0E0123091F0E8F01330D9F040
:100BE000DF5FD038C1F79DDDCF5FDC12DBCFDF9157
:100BF000CF911F910F91FF90EF90DF900895E090BB
:100C0000B900F090BA0000E02C2F4D2F6EE186E283
:100C100019DE8CDDE5CF6C2F8D2FC0DEFACFCF92A1
:100C2000DF92EF92FF928091890090E066E070E0A1
:100C3000FBD886579F4FFC0182818E3181F510923F
:100C40007D0010927E0010927F00109280008091B3
:100C5000B000811124C080916400813001F5C09002
:100C6000B300D090B400E090B500F090B60020E062
:100C700030E040EA50E4C701B601C9D818167CF448
:100C800020E030E040E050E4C701B60179D760933E
:100C9000B3007093B4008093B5009093B600FF90BA
:100CA000EF90DF90CF900895CF92DF92EF92FF9276
:100CB000C0909A00D0909B00E0909C00F0909D0026
:100CC0002FE832EC45E75EE3C701B601A0D887FD07
:100CD00052C0A70196016091790070917A008091CD
:100CE0007B0090917C004DD76093790070937A00DF
:100CF00080937B0090937C00209181003091820052
:100D00004091830050918400C701B60139D76093A8
:100D10009A0070939B0080939C0090939D00C090DC
:100D20007900D0907A00E0907B00F0907C0020E089
:100D300030E040E85FE3C701B60169D887FD16C01F
:100D400020E030E040E85FE3C701B60119D76093C7
:100D5000790070937A0080937B0090937C0080915F
:100D60006000882319F0815080936000FF90EF901D
:100D7000DF90CF9008951092790010927A0010922F
:100D80007B0010927C0010929A0010929B001092AF
:100D90009C0010929D00C3CF0F931F93CF93DF93BE
:100DA000062F10E0CFEFD0E0C81BD10981E07FDC37
:100DB00080E08C171D0634F495E09A95F1F7000059
:100DC0008F5FF7CF80E073DC80E08C171D0634F472
:100DD00095E09A95F1F700008F5FF7CF1F5F011341
:100DE000E5CFDF91CF911F910F9108951F920F9240
:100DF0000FB60F9211242F933F938F939F93AF932E
:100E0000BF938091730090917400A0917500B09190
:100E100076003091720023E0230F2D3768F126E829
:100E2000230F0296A11DB11D2093720080937300C1
:100E300090937400A0937500B093760080916E003B
:100E400090916F00A0917000B09171000196A11D6A
:100E5000B11D80936E0090936F00A0937000B093CB
:100E60007100BF91AF919F918F913F912F910F9002
:100E70000FBE0F901F9018950196A11DB11DD4CFE4
:100E800083E08ABD83BF789489B7826089BF80E49C
:100E90008CBD8FEF8DBD87EC80BF86B1876886B92A
:100EA000379AB89ABA9AC6EED2E002E013E0FE0191
:100EB00084915ADC21960C171D07C9F760E081E088
:100EC00077DC61E084E074DC60E080E871DC60E0A5
:100ED00083E86EDCEFE84E2EE2EC5E2EE5E76E2E48
:100EE000EEE37E2E1092AC0083E0809362001092BD
:100EF0009A0010929B0010929C0010929D001092FC
:100F0000880010927800109277001092860010925C
:100F1000850042E053E05093BA004093B90082E06C
:100F20002CDE2DDC892BD9F782EF95E09093BA0067
:100F30008093B90064E188EC2FDF64E18CE32CDF5F
:100F400082E01BDE5FEF67EA71E65150604070405F
:100F5000E1F700C0000010928A0010928B001092FE
:100F60008C0010928D0010928E0010928F001092C3
:100F700090001092910010929200109293001092A3
:100F80009400109295001092AD001092990010926A
:100F900081001092820010928300109284001092BF
:100FA000790010927A0010927B0010927C001092CF
:100FB000A5001092AB001092B3001092B4001092F2
:100FC000B5001092B60082E08093610080936300C8
:100FD00010927D0010927E0010927F00109280008F
:100FE00081E2809360001092B70081E080936500F9
:100FF00010929E00109289001092A9001092A200F7
:101000001092A3001092A4001092AF001092AE00B4
:10101000809364001092B0001092B2001092B10060
:101020001092B8001092AA0080918700813031F4AC
:1010300010928700109286001092850080918500A2
:1010400090918600009729F00196909386008093F6
:1010500085008091850090918600FC01E859FB4F46
:10106000E491E093A0001092A10010929F00FC0177
:10107000E759FB4FE491E093A7001092A80010926B
:10108000A600029690938600809385008EEF93E0F1
:101090009093BA008093B90001E015E0D4E2C0E279
:1010A0006EDB892BE9F300938A0010938B00D093B9
:1010B0008C00C0938D0083E060DD6FEF84E66CDE12
:1010C0008FEF97E8A3E181509040A040E1F700C086
:1010D00000006FEF84E660DEBFEFE7E8F3E1B150B8
:1010E000E040F040E1F700C000006FEF84E654DE1E
:1010F0002FEF47E853E1215040405040E1F700C056
:1011000000006FEF8BE948DE6FEF8BE945DE6FEF94
:101110008BE942DE6FEF8BE93FDE31DB892B09F48F
:10112000BFCF86E080936500D0E0C1E07EE1272E4E
:10113000312C8091B800811150C18091B70081118C
:10114000A1C080E875DB8E3E92400CF442C080E87E
:101150006FDB863B93400CF03CC020E030E040E881
:101160005FE36091B3007091B4008091B5009091FD
:10117000B6004DD618166CF5C093B200809164008D
:10118000853008F457C08091AF0081116AC080910A
:10119000AE00811166C083E84BDB8E3E92400CF0BE
:1011A00051C083E845DB853F91400CF45AC083E889
:1011B0003FDB8E3E92400CF054C080916300882348
:1011C00009F44FC081508093630082E08093B700A0
:1011D00048C080E82DDB853F9140ACF280E828DBF9
:1011E0008E3E924084F620E030E040E85FE360917C
:1011F000B3007091B4008091B5009091B60007D60D
:1012000018160CF0C0CFC093B20080916400882300
:1012100009F4B9CF9091B1009111B5CF815080936D
:1012200064008111B0CF8091B0008111ACCFC09328
:101230006400A9CF9091B1009111A5CF8F5F8093E9
:101240006400A1CF83E8F4DA863B93400CF0A9CF89
:1012500080916300833028F48F5F80936300C09394
:10126000B7008091B70081110DC08091640081307A
:1012700049F4DD2339F090916500913009F486E05E
:10128000809365007CDAC090B300D090B400E09009
:10129000B500F090B600892B81F48091AD008130CB
:1012A00061F08091B000882321F080916400833048
:1012B00020F48091AC008823D9F020E030E040E8B1
:1012C0005FE3C701B601A3D51816F4F11092B2007E
:1012D00080916400823040F19091B100911124C05E
:1012E0009091B000911120C081508093640018C08B
:1012F00020E030E040E051E4C701B601A6D487FF0A
:101300000FC02DEC3CEC4CEC5DE3C701B60139D4C9
:101310006093B3007093B4008093B5009093B600CF
:101320008091B200811120C0809164008230F0F081
:101330009091B10091111AC09091B000911116C016
:1013400081508093640012C02DEC3CEC4CEC5DE3CA
:10135000C701B60115D46093B3007093B4008093B5
:10136000B5009093B600B2CF1092B20020E030E00A
:10137000A90160919A0070919B0080919C009091CE
:101380009D0063D4882309F455C0C093AF008CDC62
:10139000D0E012E003E050E1852E68E0962EC09088
:1013A000B300D090B400E090B500F090B600B12C3E
:1013B00020E030E040E85FE3C701B60128D5181609
:1013C0000CF087C0B39420E030E040E85FE3C70151
:1013D000B601D6D36B017C01EBCFC090B300D090A7
:1013E000B400E090B500F090B60023E333E343EBA4
:1013F0005FE3C701B6010BD51816ACF42DEC3CEC3D
:101400004CEC5DE3C701B601BBD36093B3007093AE
:10141000B4008093B5009093B60080916400811170
:101420008FCF85E08ECF1092B800C0936400C09338
:10143000AA009CCF80916100E82FF0E0EC59FB4FAF
:10144000E4919091630089132FC06091600070E077
:1014500020918800AE2FA21BBB0B6A177B074CF5AF
:10146000C0907D00D0907E00E0907F00F0908000E2
:10147000072E000C880B990B1AD4A701960181D373
:10148000E8D3609360002DEC3CEC4CE45EE3C701D4
:10149000B60177D360937D0070937E0080937F00C8
:1014A00090938000C093B000109299001092AF000A
:1014B0006FCF1092B0001092AE00E21BE09360007C
:1014C00010927D0010927E0010927F00109280009A
:1014D000EBCFB5E0BB1588F0E3E0BE1608F4D8C04A
:1014E0004CEE51E568E37EE3409381005093820027
:1014F000609383007093840004C0F8E0FB1508F04B
:10150000D0C0DB1508F0A8C28091A4008111DCC016
:10151000C093A4008091A3008111D3C0C093A30005
:101520008091A2008111CAC0C093A2008091A40042
:10153000813009F0A9C11093A4008091A10090917D
:10154000A000891708F0C3C08F5F8093A10080912D
:101550009E00803408F0C6C08F5F80939E0020E01C
:1015600030E0A90160919A0070919B0080919C00ED
:1015700090919D006AD3882319F0C093AF0094DB4B
:1015800080919900882371F01092990080E090E09A
:10159000A0E8BFE380939A0090939B00A0939C00E7
:1015A000B0939D0080918A00882341F080918C0047
:1015B000873E0CF43AC1815080938C00809190005A
:1015C000882341F080919200873E0CF431C1815014
:1015D00080939200A0908900B12CC0906100D12C22
:1015E000AAE8B0E030E020E08C91882309F423C120
:1015F00012964C9112974F310CF01DC1E42E042E1F
:10160000000CFF08C50166E070E00ED486579F4FBE
:10161000FC018181682F6150770BFB01EE0FFF1FEA
:10162000EE51FA4FE491EE0DFF2DF11D7E970CF473
:1016300002C115968C911597082E000C990B8C15EC
:101640009D050CF4F8C014968C911497082E000C8C
:10165000990BC816D9060CF4EEC020938900C90175
:1016600066E070E0E1D386579F4FDC011196EC9164
:10167000E150E83008F0FEC0F0E0E05CF44F09947F
:10168000E1C064C171C196C1F5C09AC1A5C1AEC126
:101690004092810050928200609283007092840098
:1016A00030CF6FE77AE68CE39DE36093810070931F
:1016B0008200809383009093840023CF1092A20035
:1016C00035CF1092A30032CF1092A4002FCF1092EA
:1016D000A10080919F00803208F039CF8F5F809306
:1016E0009F0035CFC0908500D0908600F601E85964
:1016F000FB4F8491449190918A00992339F0909105
:10170000900091112CCF21E030E002C030E020E0C9
:101710008F70E82E50E096E0559547959A95E1F741
:10172000842F65E078D3F82EC90166E070E07CD3A1
:1017300086579F4F6FE7DC0112966C931297CC93FC
:1017400014964C931497E491F0E044E0F595E795F6
:101750004A95E1F7E3701596EC93B7E0BE1508F4EF
:1017600057C0EE2DF0E0E654F44FC90166E070E09A
:101770005BD3099407C01FC024C02AC030C034C046
:101780003AC040C0FC01E657FF4FC18384E1838328
:1017900010929E00FEE0EF1244C0C093870080913B
:1017A0008700813009F4DBCED6011196B093860014
:1017B000A0938500D4CEFC01E657FF4F11838AE148
:1017C000E6CFFC01E657FF4F018380E28F0DDFCFAC
:1017D000FC01E657FF4F84E0818380E2D8CFFC0113
:1017E000E657FF4F85E0F8CFFC01E657FF4F86E054
:1017F000818386E1EBCFFC01E657FF4F87E08183D1
:1018000082E2E4CFFC01E657FF4F91828EE1DECF0A
:10181000C90166E070E008D386579F4FFC018182C2
:10182000B7CF2FE0E212BBCF9ACE10928A00C6CE7D
:1018300010929000CFCE169621303105E9F021E0CC
:1018400030E0D2CEECD900936400C1018E199F091B
:101850008B30910544F4C093AE00C0939900809101
:1018600088008F5F05C040972CF0809188008150E0
:1018700080938800C093AF0080919800893008F071
:10188000D1C08F5F809398008091A300813051F484
:101890001093A300809197008E3008F0C6C08F5F30
:1018A000809397008091A200813051F41093A200A0
:1018B00080919600873008F0BBC08F5F80939600C0
:1018C0008091AB00833009F0C3C081E0F0D6F5E32E
:1018D000FA95F1F7000080E0EAD6809161009091DE
:1018E0006300891749F1891738F42091A500211167
:1018F00003C025E02093A500981738F48091A50037
:10190000811103C08BEF8093A5008091A50018166C
:101910000CF091C081508093A50090926500809159
:1019200060008F5F809360008091A500811104C0EA
:101930001092B7009093610080916400813011F0A3
:10194000809365001092AB00DF5F29CD68D90093CA
:101950006400C1018E199F09853091050CF47BCF7D
:101960000A970CF082CF86CFC090B300D090B4001D
:10197000E090B500F090B60020E030E040E050E4A8
:10198000C701B60144D218160CF074CF8091B00094
:10199000811170CF2DEC3CEC4CE45EE3C701B60145
:1019A000EFD06093B3007093B4008093B500909330
:1019B000B60060CFC093AD0064E088ECEDD95ACF9B
:1019C0002ED900936400C1018E199F0909970CF468
:1019D00042CF109288004ECF4E3109F04BCF80910C
:1019E000B000811147CFC093B80044CF8091B000C0
:1019F000811140CFC90166E070E016D286579F4F33
:101A0000FC0110828091620083301CF48F5F809310
:101A1000620064E08CE3C0D964E088ECBDD964E086
:101A200088E7CCCF109298002FCF109297003ACF32
:101A30001092960045CF882309F476CF8F5F80936C
:101A4000A50087E0809365008091600081506ACF97
:101A50008F5F8093AB0078CF8091AA00813049F4EA
:101A60008091620087FD03C08150809362001092D4
:101A7000AA008091B1008F5F843009F44CC080933C
:101A8000B1008091B00081110CC080916400882366
:101A900011F0853031F48091B800813011F0C0939D
:101AA000B8001091A900812F68D881E0111180E061
:101AB0008093A9008091A8009091A700891770F5E4
:101AC0008F5F8093A8008091AD008130A1F520E068
:101AD00030E040E85FE36091B3007091B400809122
:101AE000B5009091B600B1D018162CF1C5E064E6AF
:101AF00084E652D964E681E04FD9C150C1F72FEF97
:101B000047EA51E6215040405040E1F700C0000054
:101B10001092AC0015CA1092B100B3CF1092A80079
:101B20008091A600823220F48F5F8093A600CBCFF5
:101B3000C093AC00C8CF8091AC008130C9F420E0E4
:101B400030E040E85FE36091B3007091B4008091B1
:101B5000B5009091B60079D0181654F06FEF77EA7F
:101B600081E6615070408040E1F700C00000BAC9D2
:101B7000809162008F3F09F0DCCAC093AC00D9CAE3
:101B80005058BB27AA270ED008C1F9D030F0FED09C
:101B900020F031F49F3F11F41EF4EEC00EF4E095F6
:101BA000E7FBE4C0E92F0AD180F3BA176207730795
:101BB0008407950718F071F49EF522C10EF4E095A4
:101BC0000B2EBA2FA02D0B01B90190010C01CA01F7
:101BD000A0011124FF27591B99F0593F50F4503EA2
:101BE00068F11A16F040A22F232F342F4427585F94
:101BF000F3CF469537952795A795F0405395C9F7AC
:101C00007EF41F16BA0B620B730B840BBAF0915063
:101C1000A1F0FF0FBB1F661F771F881FC2F70EC002
:101C2000BA0F621F731F841F48F4879577956795D5
:101C3000B795F7959E3F08F0B3CF9395880F08F0BE
:101C40009927EE0F9795879508956CD008F481E059
:101C50000895BCD088F09F5790F0B92F9927B751BD
:101C6000A0F0D1F0660F771F881F991F1AF0BA9560
:101C7000C9F712C0B13081F0C3D0B1E00895C0C03F
:101C8000672F782F8827B85F39F0B93FCCF3869556
:101C900077956795B395D9F73EF4909580957095B3
:101CA00061957F4F8F4F9F4F0895E89409C097FB30
:101CB0003EF490958095709561957F4F8F4F9F4F23
:101CC0009923A9F0F92F96E9BB279395F695879567
:101CD00077956795B795F111F8CFFAF4BB0F11F42A
:101CE00060FF1BC06F5F7F4F8F4F9F4F16C08823D1
:101CF00011F096E911C0772321F09EE8872F762F07
:101D000005C0662371F096E8862F70E060E02AF047
:101D10009A95660F771F881FDAF7880F9695879533
:101D200097F90895990F0008550FAA0BE0E8FEEF08
:101D300016161706E807F907C0F012161306E4078F
:101D4000F50798F0621B730B840B950B39F40A2688
:101D500061F0232B242B252B21F408950A2609F466
:101D6000A140A6958FEF811D811D089597F99F676A
:101D700080E870E060E008959FEF80EC0895002413
:101D80000A941616170618060906089500240A94E0
:101D900012161306140605060895092E0394000C66
:101DA00011F4882352F0BB0F40F4BF2B11F460FFF5
:101DB00004C06F5F7F4F8F4F9F4F089557FD90581E
:101DC000440F551F59F05F3F71F04795880F97FBFF
:101DD000991F61F09F3F79F08795089512161306B9
:101DE0001406551FF2CF4695F1DF08C016161706E8
:101DF0001806991FF1CF869571056105089408951D
:101E0000E894BB2766277727CB0197F908958ADFE7
:101E100008F48FEF0895002480FD060E660F11F080
:101E20008695D1F7802D08950024552704C0080E0B
:101E3000591F880F991F009729F076956795B8F379
:0E1E40007105B9F7802D952F0895F894FFCF06
:0A1E4E0021020302010104040B133A
:00000001FF
