:100000002CC146C145C144C143C1C7C541C140C15E
:100010003FC13EC13DC13CC13BC13AC139C10000F5
:100020000000380002020202020202020202010281
:100030000408102020041008010200000400000041
:100040000000AE2000C840817FA1A6A83FD300D504
:1000500080D922DA12DB208D14A4AF00050720001E
:100060000000000000005F00000003000300143ED9
:10007000143E14242A7F2A124333086661364955F8
:1000800022500005030000001C2241000041221CF8
:100090000014083E081408083E080800503000000C
:1000A0000808080808006060000020100804023EEC
:1000B0005149453E0004027F0042615149462241B8
:1000C0004949361814127F1027454545393E49499C
:1000D00049320101710907364949493626494949DA
:1000E0003E0036360000005636000008142241005B
:1000F0001414141414004122140802015109063E7C
:100100004159555E7E0909097E7F494949363E417C
:100110004141227F4141413E7F494949417F09098F
:1001200009013E4141493A7F0808087F00417F416B
:1001300000304040403F7F081422417F4040404013
:100140007F020C027F7F0204087F3E4141413E7FD7
:10015000090909061E2121215E7F09090976264920
:1001600049493201017F01013F4040403F1F20408B
:10017000201F7F2010207F41221C22410708700889
:10018000076151494543007F4100000204081020E7
:100190000000417F00040201020440404040400052
:1001A0000102040020545454787F444444383844B5
:1001B000444444384444447F385454541804047E1E
:1001C0000505085454543C7F0804047800447D40DD
:1001D000002040443D007F1028440000417F400043
:1001E0007C047804787C0804047838444444387CDF
:1001F00014141408081414147C007C0804044854D3
:1002000054542004043F44443C4040207C1C204083
:10021000201C3C4030403C44281028440C50505096
:100220003C4464544C44000836414100007F0000C7
:10023000414136080002010204021414141414008F
:10024000070F18FEFF18180C1830F87C7F9D270741
:10025000031830F87CFF1D17070311241FBECFE5DC
:10026000D2E0DEBFCDBF10E0A0E6B0E0ECE4F8E104
:1002700002C005900D92AC3CB107D9F721E0ACEC7F
:10028000B0E001C01D92A338B207E1F7D0D4DCCAB8
:10029000B7CE68E041E050E023E030E090916100AB
:1002A00077B387FF55C09095972397BB98B370910C
:1002B0006100972B98BB880FFA013197F1F777B35C
:1002C000909162009095972397BB98B370916200CC
:1002D000972B98BBF9013197F1F797B370916200B2
:1002E000972B97BB78B3909162009095972398BB1A
:1002F000F9013197F1F7615089F697B38091610068
:100300008095892387BB88B390916100892B88BB36
:10031000CA010197F1F797B3809162008095892314
:1003200087BB88B390916200892B88BBC901019774
:10033000F1F787B390916200892B87BB98B38091C6
:1003400062008095892388BBC9010197F1F7089560
:10035000972B97BB78B39091610090959723AACF84
:100360008FB78093CE00F89481E08093CF0087B35D
:1003700090916100892B87BB98B380916100809533
:10038000892388BB82E090E00197F1F787B39091D1
:100390006200892B87BB98B3809162008095892386
:1003A00088BB83E090E00197F1F780916000880FAF
:1003B00070CF0F931F93CF93DF93EC018C01060F47
:1003C000171FC017D10729F4DF91CF911F910F910B
:1003D000089589915EDFF5CF0895089508958630D8
:1003E00008F0865087B9369A3699FECF84B195B118
:1003F0000895EDE3F0E02491E3E3F0E09491E9E285
:10040000F0E0E491EE23C1F0222329F0223009F13B
:10041000A0F42130D1F0F0E0EE0FFF1FE25EFF4FBD
:10042000A591B4912FB7F894811116C08C91E92F42
:10043000E095E823EC932FBF0895233011F024308A
:1004400051F72CB52F7D2CBDE6CF2AB52F772ABDCD
:10045000E2CF2AB52F7DFBCFEC91E92BEBCF1F9399
:10046000CF93DF93D82F162FC42FE0916400F09123
:1004700065000995809163008823D9F180E0B9DF98
:10048000E0916800F091690081E20995E0916800CF
:10049000F09169008D2F0995E0916800F091690055
:1004A0008FEF8C0F8D0FC11103C080916F018150B0
:1004B0000995E0916800F091690082E20995E09168
:1004C0006800F0916900812F0995809170018695EF
:1004D00086958695E0916800F091690081500995B4
:1004E00080916300882361F081E0DF91CF911F91BB
:1004F00080CFE0916800F091690080E00995C0CF5D
:10050000E0916600F09167000995E0916400F09138
:1005100065000995E0916800F091690080E4DF9141
:10052000CF911F91099487B390916100892B87BB6C
:1005300098B3809161008095892388BB81E090E029
:100540000197F1F797B3809162008095892387BB6B
:1005500088B390916200892B88BB82E090E001977C
:10056000F1F797B3809161008095892387BB88B3A9
:1005700090916100892B88BB85E090E00197F1F7AD
:100580008091CF00882329F08091CE008FBF1092F8
:10059000CF0008950F931F93CF93DF93EC018C014D
:1005A000060F171FC017D10729F4DF91CF911F91B4
:1005B0000F910895E0916800F09169008991099583
:1005C000F1CFCF93DF93EB01A091DD00B0E0FC0110
:1005D00044913196E491542F4E2FFC013296E491D0
:1005E000E11105C090E080E0DF91CF9108959C017A
:1005F0002D5F3F4F8E2F90E0C417D50730F0BC0120
:10060000640F751FC617D70728F0BD01D9D8820F10
:10061000931FDDCFCE01841B950BBD01D1D8820F76
:10062000931FE2CFE091DE00F091DF00082E000C76
:10063000990B2091DA006091DD0070E0821B910936
:10064000BFD82091D700213039F030E020E0820F70
:10065000931F8E0F9F1F089523E030E0F8CF0F9374
:100660001F93CF93DF936115710551F1EB018C015D
:100670008091D80088838091D90089831A828091E3
:10068000DE009091DF000038110548F42091D7007A
:10069000211105C0892B29F0802FC4DF0FC00097DE
:1006A00049F48091E0009091E100009771F480910D
:1006B000DA00F3CFB80185DF009799F39C838B8331
:1006C000DF91CF911F910F910895B8017ADF0097C4
:1006D000A9F7EDCFEF92FF920F931F93CF93DF9384
:1006E0008C01DC0114969C911497F92EF694F694E3
:1006F000F694492F50E09A01295F3F4F63E035950A
:1007000027956A95E1F7D22F11968C91981708F0EA
:1007100040C08695869586958150821708F4D82F1B
:10072000D8011396CC911397DF1508F03FC08C9138
:100730008C1741F112964C919FEF940F9C0F8C17E0
:1007400008F051C02C2F30E0E82FE40FFF27FF1FE7
:10075000EF01E217F3070CF4E901D8011496FC90BD
:10076000F694F694F694D1E0D90FF801848190E0E4
:10077000079623E0959587952A95E1F7F8161906CF
:10078000C1F1BCF1DF91CF911F910F91FF90EF90DC
:10079000089590E007968417950714F26F2D70E086
:1007A000621773070CF4B901F62EBACFE09171010C
:1007B000F0917201D80112964C916F2D8C2F0995F2
:1007C000F801C281C11107C0E0916600F091670095
:1007D0000995F394A5CFE0917501F091760180E041
:1007E0000995C150EFCF8150891708F0B6CF982FE7
:1007F000B4CFED2EEC1AE0917101F09172014E2D03
:100800006F2D8C2F0995E11007C0E0916600F091E3
:1008100067000995F394A9CFE0917501F0917601F5
:1008200080E00995EA94EFCFFF920F931F93CF9347
:10083000DF93EC016981062F077088819091700128
:10084000691790F4669566956695E0917101F0914F
:1008500072014A81099510E08A811817A8F1E09188
:100860006600F09167000995002321F16981862FC8
:1008700090E008962091700128171906D9F0D4F05D
:100880006695669566956F5FE0917101F0917201D2
:100890004A8188810995F12C88E090E09C01201B19
:1008A000310989018A81F81600F1E0916600F09122
:1008B0006700099588818B8389818C83DF91CF9133
:1008C0001F910F91FF900895ED81FE81E10FF11DC1
:1008D0008491E0917501F0917601002E01C0880F9E
:1008E0000A94EAF709951F5FB7CFED81FE81EF0DFE
:1008F000F11D849190E0002E02C0959587950A9491
:10090000E2F7E0917501F09176010995F394CACF71
:100910005F926F927F928F929F92AF92BF92CF928F
:10092000DF92EF92FF920F931F93CF93DF9300D04C
:1009300000D01F92CDB7DEB7B82E6A017901062F1D
:1009400006950695069540916F01481BE09171014F
:10095000F0917201602F09959B2CA12C812C10E045
:1009600080916F019091D800891B990B98161906F8
:1009700009F034F4F601E10FF11D8081811128C0E6
:100980000F5F80917001869586958695E09166004F
:10099000F0916700081708F083C0A3948091DC00F1
:1009A0008A1109C0D601A10FB11D8C91882309F4C9
:1009B00077C0812EA12C099540916F014B19E091D0
:1009C0007101F0917201602F8B2D09959B2C182DD0
:1009D0008091CC009091CD00F601E10FF11D2081B6
:1009E0001F5F009791F5822F90E0203CA8F71092AE
:1009F000CD001092CC00E091D500F091D600BE0160
:100A00006F5F7F4F099579806B80670C6A2D70E06E
:100A10002A81CB0133E0880F991F3A95E1F7281717
:100A20001906A1F19CF1872D90E0CAD62C813D8159
:100A3000820F931F9D838C83512C711010C0712CD9
:100A40008B81781628F1960C8BCF46E0880F991F82
:100A50004A95E1F7807C97702F73822BC8CFEC8189
:100A6000FD81E114F10469F48491E0917501F09144
:100A7000760109958C819D8101969D838C837A9462
:100A8000DCCFE491852D8E2B5E2EEFCF6B82D7CFFE
:100A9000E0917501F091760180E009957394D0CFD3
:100AA0000995812F0F900F900F900F900F90DF916D
:100AB000CF911F910F91FF90EF90DF90CF90BF905B
:100AC000AF909F908F907F906F905F900895CF939D
:100AD000DF93E0917101F091720140E060E080E00D
:100AE0000995C0917001C695C695C695C11107C0FC
:100AF000E0916600F0916700DF91CF910994D09169
:100B00006F01D11107C0E0917301F0917401099553
:100B1000C150ECCFE0917501F091760180E009952C
:100B2000D150EFCF1F93CF93DF9333D52AE036E533
:100B300040E050E0FED52AE036E5261B370BE4EA1C
:100B4000F0E090E080E0419151912417350700F5E5
:100B5000182FCAE0D0E0C11BD1096091E700709165
:100B6000E8008091E9009091EA002AE030E040E05E
:100B700050E0FBD5822F90E064E170E021D6CC0FED
:100B8000CC0FCC0F8C0F911DDF91CF911F91089549
:100B900001968A309105B9F6DCCF1F920F920FB6FD
:100BA0000F9211242F933F938F939F93AF93BF93F3
:100BB0008091E2009091E300A091E400B091E50003
:100BC0003091D40023E0230F2D3758F50196A11D55
:100BD000B11D2093D4008093E2009093E300A09392
:100BE000E400B093E5008091D0009091D100A091F5
:100BF000D200B091D3000196A11DB11D8093D00009
:100C00009093D100A093D200B093D300BF91AF9145
:100C10009F918F913F912F910F900FBE0F901F903A
:100C2000189526E8230F0296A11DB11DD2CFCF93B0
:100C3000DF93CDB7DEB7A0970FB6F894DEBF0FBE37
:100C4000CDBF78948AB582608ABD8AB581608ABD3D
:100C500083B7826083BF83B7816083BF89B78260B7
:100C600089BF80B7826080BF80B7816080BF329AC1
:100C7000319A309A379A8CB580648CBD80E0AFDBB6
:100C8000BC01990F880B990B6115710581059105C0
:100C900009F0CDD4EBE5F0E0E491E093D700ECE58A
:100CA000F0E084918093D800EDE5F0E064916093EA
:100CB000D900EEE5F0E0E491E093DA002FE530E0D2
:100CC0003093DF002093DE002FE233E03093D60034
:100CD0002093D50070E0695F7F4F13E075956795AD
:100CE0001A95E1F76093DC0062D58093DD001092E5
:100CF000E1001092E000BC9AB998BE9887B387BB18
:100D000084E08093620081E0809361001092630030
:100D100080EB91E0909365008093640083E992E01A
:100D2000909367008093660029E431E03093690076
:100D30002093680089ED91E090936B0080936A00A6
:100D40004CEE51E050936D0040936C0010926E0198
:100D500010926D0140E44093700140E840936F01B0
:100D60004FE252E050937201409371014DEE51E019
:100D70005093740140937301309376012093750171
:100D800090937801809377018EEE91E090937E01AD
:100D900080937D0102E410E0F801F490E09164009A
:100DA000F0916500099580916300882309F468C07B
:100DB00080E01FDBE0916800F09169008F2D0995BC
:100DC000E0916600F091670009950F5F1F4FF0E01A
:100DD0000B351F0709F77BDE90E080E062D460935B
:100DE00046017093470180934801909349016F3FFA
:100DF0007F4F8F4F9F4F71F4109246011092470121
:100E0000109248011092490140E050E0BA0190E090
:100E100080E04CD482E090E09093800180937F0149
:100E2000BAE08B2E912CA12CB12C8FB7F894409165
:100E3000E2005091E3006091E4007091E5008FBF03
:100E400080918201942F981B481708F491509F308D
:100E500008F4F0C0909181019F5F90938101825FBF
:100E60008093820189E0BBDA853F914084F4B19B95
:100E700013C086B383FB882780F991E089270DC0D2
:100E8000E0916800F091690080E0099593CF89E0D6
:100E9000A6DA8E3E92405CF781E020917F0130918E
:100EA0008001A9014D7F452B09F0CBC09091EB004B
:100EB0002115310519F441E0911101C040E0941B66
:100EC0009093EB00882309F4A8C0232B11F491110F
:100ED000DFC281E090E09093800180937F011092C7
:100EE0004A0110924B0110924C0110924D01109248
:100EF00081011092E600109282012AE030E040E089
:100F000050E02093E7003093E8004093E9005093CD
:100F1000EA0099E190934E0180E380934F0129E02C
:100F200020935001909351018093520188E492E004
:100F300090935401809353011092560110925501E1
:100F400010925901109258011092570181E080933C
:100F50005A0186E0E2E7F0E0ABE5B1E001900D92E6
:100F60008A95E1F786E0E8E7F0E0A1E6B1E00190DC
:100F70000D928A95E1F786E0EEE7F0E0A7E6B1E0B2
:100F800001900D928A95E1F70CEE10E0F12CE12C26
:100F90006FE7762E70E3672EE0E4CE2EE2E0DE2EE1
:100FA000F6EF2F2EF4E03F2EAFE04A2E512CC80171
:100FB00091DBD8017C9211966C921197E8E0129621
:100FC000EC93129713967C92139714966C92149745
:100FD0001696DC92CE92159718961C921E92179731
:100FE0001A963C922E9219971C965C924E921B97E1
:100FF00099DDD8011D968C9381E0E114F10409F08C
:1010000080E0F8018687FFEFEF1AFF0A015F1F4FAC
:1010100026E0E216F10459F65ADD80917F019091A5
:1010200080018130910509F47AC108F431C2029738
:1010300009F436C280E090E0892B09F4F6CEE0D7BF
:10104000F4CE882349F080915A01882329F081E069
:101050008093590110925A015BE5E52E51E0F52E7F
:10106000F70120E831E0ED36F307A9F08581882308
:1010700021F0815085833696F5CF80819381891741
:1010800040F4848185838281422F481B842F808392
:10109000F2CF891BFCCF80915901882341F084EF66
:1010A00091E09093580180935701109259019091CB
:1010B00081019F7081E0993008F480E060915A01CD
:1010C00076D390E069E070E07BD3885B9D4F90938E
:1010D0005401809353012091570130915801C90167
:1010E0006CE97FEF9ED380914F01680F60934F01B1
:1010F000225331093093580120935701603350F047
:1011000080E380934F01109258011092570181E0C3
:1011100080935A012CEE222E20E0322E8101D12C18
:10112000C12C7724739430E8432E512C4FE7642E62
:101130005FEFC51AD50AD8011E968C911E97882399
:1011400049F01D968C911D97882309F45EC081504B
:101150001D968C93015F1F4FF6E0CF16D10441F727
:101160008091810165E03DD391111CC080914A01BD
:1011700090914B01A0914C01B0914D014091E7003D
:101180005091E8006091E9007091EA00840F951F8A
:10119000A61FB71F80934A0190934B01A0934C0167
:1011A000B0934D0140904A0150904B0160904C012A
:1011B00070904D011091E600143108F08CC0C3010D
:1011C000B20128EE33E040E050E0CFD2121708F031
:1011D00082C02BE03AE04DE6E41641E0F40609F067
:1011E00047C026E431E0ECEEF0E02E173F0709F4AB
:1011F00057C0838594856BE070E0E2D26AE070E0CE
:10120000FCD2748763873F96F0CFC60166E070E03A
:10121000F4D26FE070E0D4D284519F4FFC01768607
:10122000D80119968D919C911A971B962D913C91FE
:101230001C972817390780F075DCF80185878281B3
:101240009201281B3109C9016AE070E0B9D2928786
:101250008187608216867ECF821B930B1A969C93A1
:101260008E9319976AE070E0C8D2F801608372CF5C
:10127000D70113968C9113976BE099D2632FB1D25B
:1012800013968C93139714968C9114976AE08FD2CF
:10129000622FA7D214968C93B6E0EB0EF11C9BCF75
:1012A0002BE030E040E050E06091E7007091E80012
:1012B0008091E9009091EA0023D2A501940155D2D2
:1012C0002093E7003093E8004093E9005093EA0050
:1012D0001F5F1093E60080914F01873208F49DCE86
:1012E00090914E0139E0390F46E451E04215530523
:1012F00009F493CEF101858581110DC0808128E02C
:10130000280F321708F4232F8E5F891708F4892FCE
:10131000281708F0CCC0FFE02F0E311CE7CFE0917A
:101320007101F091720140E867E080E0099510E0FA
:1013300000E09DE6E92E91E0F92EEBE5F1E081E099
:10134000EE16FF06E9F09581911118C0208130E07A
:10135000201731079CF49281290F311D02171307C2
:101360006CF4918128E030E0291B310941E050E024
:1013700002C0440F551F2A95E2F7842B3696E0CF22
:10138000E0917501F091760109950F5F1F4F0038CC
:10139000110599F6E0916600F091670009958EE4D9
:1013A00091E098D98EE491E03FDA88E0E4E8F0E05B
:1013B000DE01119601900D928A95E1F7FE013996B2
:1013C00088E1DF011D928A95E9F760914A017091E9
:1013D0004B0180914C0190914D01A5019401C5D123
:1013E00069017A012AE0AE01485F5F4FC701B6018B
:1013F00027D1A701960110E01F5FCA01B901A5011D
:101400009401B3D12115310541055105A9F7412FAB
:1014100050E0E8E0F0E0EC0FFD1FE40FF51F8CE575
:101420008083485F5F4FE1E0F0E0EC0FFD1F4E0F5F
:101430005F1F609146017091470180914801909132
:1014400049016C157D058E059F0510F4C701B60195
:101450002AE0F6D030E020E0AE014F5F5F4F61E060
:1014600081E056DA0CEE10E086E4E82E81E0F82EFA
:10147000E016F10609F4DECDC8012CD9D8011D967D
:101480008C91811102C0C801CFD9015F1F4FF0CFED
:1014900021E030E048EB50E069E180E239DACACD82
:1014A00021E030E045EC50E069E184E3F7CF1092B1
:1014B000800110927F01C301B201A501940155D1B1
:1014C000BA01A9018091460190914701A09148017C
:1014D000B091490184179507A607B70758F44093C0
:1014E000460150934701609348017093490190E091
:1014F00080E0DCD083E28093EB008FCD8F929F92CF
:10150000AF92BF92CF92DF92EF92FF92CF93DF9391
:10151000EC01688179818A819B8161157105810562
:10152000910521F464E279ED8BE597E02DE133EF4D
:1015300041E050E0FED049015A0127EA31E440E0A1
:1015400050E0DED06B017C012CEE34EF4FEF5FEF0B
:10155000C501B401D5D0C60ED71EE81EF91EF7FE90
:1015600006C081E0C81AD108E10880E8F80AC882FC
:10157000D982EA82FB82C701B6019F77DF91CF91C2
:10158000FF90EF90DF90CF90BF90AF909F908F90A3
:1015900008958F929F92AF92BF92CF92DF92EF9277
:1015A000FF9260916E0070916F0080917000909139
:1015B0007100611571058105910521F464E279EDF1
:1015C0008BE597E02DE133EF41E050E0B2D04901E7
:1015D0005A0127EA31E440E050E092D06B017C01EF
:1015E0002CEE34EF4FEF5FEFC501B40189D0C60E8A
:1015F000D71EE81EF91EF7FE06C081E0C81AD10802
:10160000E10880E8F80AC0926E00D0926F00E09284
:101610007000F0927100C701B6019F77FF90EF90C4
:10162000DF90CF90BF90AF909F908F900895609380
:101630006E0070936F008093700090937100089516
:10164000BB27FA01A62F6217710581059105330B9F
:1016500030FB66F0AA27660F771F881F991FAA1F05
:10166000A21710F0A21B63953850A9F7A05DAA330A
:1016700008F0A95DA19336F7B111B1931082CA01A8
:1016800000C0DC01FC01672F71917723E1F73297ED
:1016900004C07C916D9370836291AE17BF07C8F34D
:1016A0000895A6E1B0E044E050E00AC00396272F79
:1016B00016D014D0252F13D0242F11C0DC01CB015C
:1016C000FC01E199FECF06C0FFBBEEBBE09A31966C
:1016D0000DB20D9241505040B8F70895262FE19970
:1016E000FECF9FBB8EBBE09A01970DB2021639F078
:1016F0001CBA2DBB0FB6F894E29AE19A0FBE08957A
:10170000EE27FF27AA27BB2708C0A20FB31FE41F9D
:10171000F51F220F331F441F551F96958795779508
:10172000679598F37040A9F7009799F7BD01CF012D
:101730000895052E97FB16F400940FD057FD05D0A1
:1017400014D007FC02D046F408C05095409530955F
:1017500021953F4F4F4F5F4F08959095809570951D
:1017600061957F4F8F4F9F4F0895A1E21A2EAA1BBC
:10177000BB1BFD010DC0AA1FBB1FEE1FFF1FA21741
:10178000B307E407F50720F0A21BB30BE40BF50B3E
:10179000661F771F881F991F1A9469F760957095C7
:1017A000809590959B01AC01BD01CF010895002467
:1017B00080FD060E660F11F08695D1F7802D0895F5
:1017C0000024552704C0080E591F880F991F009741
:1017D00029F076956795B8F37105B9F7802D952FA7
:1017E0000895991B79E004C0991F961708F0961B7D
:1017F000881F7A95C9F780950895AA1BBB1B51E1F4
:1018000007C0AA1FBB1FA617B70710F0A61BB70B70
:10181000881F991F5A95A9F780959095BC01CD0115
:10182000089597FB072E16F4009406D077FD08D094
:10183000E4DF07FC05D03EF4909581959F4F089515
:0C184000709561957F4F0895F894FFCFDC
:10184C003C100800000000000000CA02000001006B
:10185C0000007F01070378327F03040264147F06C3
:10186C0003011E0A73636F72653A200000000000CA
:10187C00000000000000000000000000000000005C
:10188C0000000000030007001400370094009301CF
:10189C004904A50BA71F0A5647616D65206F766535
:0C18AC0072203A2800537461727400002E
:00000001FF
