:100000003AC254C2FCC952C251C2AFC94FC24EC259
:100010004DC24CC24BC24AC249C248C247C277779E
:1000200000007077700070007077700770077007BD
:1000300000EE7077000E7007EE0000000000000078
:1000400000000000003F0000000000000000000C65
:100050000C006030180C060301003E63737B6F6771
:100060003E000C0E0C0C0C0C3F001E33301C0633F3
:100070003F001E33301C30331E00383C36337F3097
:1000800078003F031F3030331E001C06031F33333C
:100090001E003F3330180C0C0C001E33331E33335C
:1000A0001E001E33333E30180E000C1E33333F3318
:1000B00033003F66663E66663F003C6603030366A8
:1000C0003C001F36666666361F007F46161E1646C3
:1000D0007F007F46161E16060F003C6603037366FC
:1000E0007C003333333F333333001E0C0C0C0C0CC9
:1000F0001E007830303033331E006766361E366699
:1001000067000F06060646667F0063777F7F6B6396
:10011000630063676F7B736363001C3663636336DE
:100120001C003F66663E06060F001E3333333B1E3F
:1001300038003F66663E366667001E33070E38336A
:100140001E003F2D0C0C0C0C1E00333333333333A5
:100150003F0033333333331E0C006363636B7F77AD
:1001600063006363361C1C3663003333331E0C0C90
:100170001E007F6331184C667F0000001E303E3346
:100180006E000706063E66663B0000001E33033322
:100190001E003830303E33336E0000001E333F0304
:1001A0001E001C36060F06060F0000006E33333E9D
:1001B000301F0706366E666667000C000E0C0C0CCE
:1001C0001E00300030303033331E070666361E36D0
:1001D00067000E0C0C0C0C0C1E000000337F7F6BB4
:1001E000630000001F333333330000001E3333330A
:1001F0001E0000003B66663E060F00006E33333E75
:10020000307800003B6E66060F0000003E031E3093
:100210001F00080C3E0C0C2C180000003333333345
:100220006E0000003333331E0C000000636B7F7FD1
:100230003600000063361C36630000003333333E63
:10024000301F00003F190C263F0088002280082044
:1002500002882280082002882200F8003E800FE0F9
:1002600003F83E800FE003F83E000102030304059B
:100270000606070808000101020304040506070832
:10028000F0023C03EC038001B40380014D038001C4
:10029000F002BE004D03BE00B4038001EC038001F8
:1002A000670428030000280067046C01B403800180
:1002B000F0023C034D038001B4038001EC032803EA
:1002C00000002800EC037C01B40380014D033C03D3
:1002D000F0023C03B4033C03670400030000280061
:1002E00067048C064D031E03000028004D036201C5
:1002F000C602800132023C0378028001C6028001FE
:10030000F002280300002800F0026C01B403800111
:10031000F0023C034D038001B4038001EC03280389
:1003200000002800EC037C01B40380014D033C0372
:10033000F0023C03B4033C036704EC0200000E002F
:1003400000001A006704A006010101018181C1E1DA
:10035000F1F10111F1F1E1C1C1818101010101015D
:10036000010101010101010101010101FCFCFEFF8C
:10037000FFFFFFFFFFFFFF00FFFFFFFFFFFFFFFF8C
:10038000FFFEF80000000000000000000000000078
:10039000FFFF7F3FBF9FCFEFE7F7FBE001FBF3F7E6
:1003A000E7EFCFDFDFBFBF3000000000000000003C
:1003B0000000000000FEFFFFFFFFFFFFFFFFFFFF49
:1003C000003FFFFFFFFFFFFFFFFFFFFFE006FEFC18
:1003D000FCFCF8F8F0F0E00000FFFF7F7F3FBF9FDC
:1003E000DFCFEFEFE400F7E7EFEFCFDFDF9FBFBF37
:1003F0003F00077FFFFFFFFFFFFFFFF000FCFEFE57
:10040000FFFFFFFFFFFFFFFFFF8007FFFFFFFFFF73
:10041000FFFFFFFFFFFFC00E3E1E1C1D0D09030363
:100420000007FFFFFFFFFFFFFFFFFF7F7F3F003F52
:100430003F7F7F7F7F7FFFFFFFFFFF800000000087
:10044000000000008080838383898D8D8C8E8E8E4A
:100450008F8F9F8F8F8F8F8786868282828080800A
:1004600080808080808080804444C04460446006F6
:10047000C006400E600C11241FBECFE5D2E0DEBFE7
:10048000CDBF10E0A0E6B0E0ECE8FEE102C00590D0
:100490000D92AC39B107D9F721E0ACE9B0E001C069
:1004A0001D92AE33B207E1F7B4D7EECCA9CDEF92EF
:1004B000FF921F93CF93DF938150282F30E0220FBC
:1004C000331F28593B4F64E171E090E0C1E0D0E078
:1004D00081E014E0190FDB01F901E590F490AE0121
:1004E000092E02C0440F551F0A94E2F74E215F21E6
:1004F000092E02C0569547950A94E2F741305105FE
:10050000D9F48C939F5F11969113E6CF6C5F7F4F68
:100510009031F9F683E190E09093250180932401D6
:1005200083E090E09093270180932601DF91CF91A3
:100530001F91FF90EF9008951C92E4CF865087B9E9
:10054000369A3699FECF84B195B108953FB7F894A5
:100550008091E9009091EA00A091EB00B091EC004D
:1005600022B708B601FE05C02F3F19F00196A11D64
:10057000B11D3FBFBA2FA92F982F8827BC01CD01ED
:10058000620F711D811D911D42E0660F771F881F4C
:10059000991F4A95D1F708958F929F92AF92BF927B
:1005A000CF92DF92EF92FF926B017C01CFDF4B0184
:1005B0005C01C114D104E104F104B1F0C7DF681992
:1005C00079098A099B09683E73408105910588F382
:1005D00021E0C21AD108E108F10888EE880E83E014
:1005E000981EA11CB11CE5CFFF90EF90DF90CF903B
:1005F000BF90AF909F908F9008950F931F93CF93CC
:10060000DF93262FE0E0683020F0603158F12F5062
:10061000E2E0A82FB0E0F0E0CD0163E070E0FCDBA9
:1006200086549F4FEC01CE0FDF1FC881022F10E0D0
:10063000CD0163E070E0F0DB86549F4FE80FF91FB7
:10064000442399F061E070E0CB0102C0880F991F4C
:100650002A95E2F79C012C2B2083DF91CF911F91EB
:100660000F9108952850E1E0D4CF67E070E0601B5F
:10067000710B4FE750E002C0559547956A95E2F738
:100680006EEF70E001C0660F2A95EAF7462B4C2307
:100690004083E3CFBF92CF92DF92EF92FF920F930E
:1006A0001F93CF93DF93C82E0AE211E0C0E07801D8
:1006B000D0E0F70181917F01813069F4D0903A0157
:1006C000B0903B016D2F6D0D80913C018C0FC110DE
:1006D00014C041E092DFDF5FD43059F7CF5F0C5F89
:1006E0001F4FC43021F7DF91CF911F910F91FF90E1
:1006F000EF90DF90CF90BF90089540E07EDFD092E2
:100700002801B0922901E7CF462F90E0262F30E054
:100710006830C0F463E070E07FDB86549F4FFC01DB
:10072000808190E021E030E0042E02C0220F331FD0
:100730000A94E2F78223932302C0959587954A9500
:10074000E2F708956031D0F02F50310963E070E096
:1007500063DB86549F4FFC01828190E041E050E0D2
:10076000022E02C0440F551F0A94E2F784239523FA
:1007700002C0959587952A95E2F70895285031098A
:1007800063E070E049DB86549F4FFC018181E5CF37
:100790000F931F93CF93DF93262FE0E0683020F074
:1007A000603158F12F50E2E0A82FB0E0F0E0CD0129
:1007B00063E070E031DB84569F4FEC01CE0FDF1F0A
:1007C000C881022F10E0CD0163E070E025DB845684
:1007D0009F4FE80FF91F442399F061E070E0CB01CF
:1007E00002C0880F991F2A95E2F79C012C2B2083C9
:1007F000DF91CF911F910F9108952850E1E0D4CF60
:1008000067E070E0601B710B4FE750E002C0559548
:1008100047956A95E2F76EEF70E001C0660F2A9582
:10082000EAF7462B4C234083E3CFDF92EF92FF920F
:100830000F931F93CF93DF93D82E04E111E0C0E014
:100840007801D0E0F70181917F01813051F460910E
:1008500024016D0F809126018C0F41E0D11040E002
:1008600097DFDF5FD43071F7CF5F0C5F1F4FC4306D
:1008700039F7DF91CF911F910F91FF90EF90DF90AB
:100880000895462F90E0262F30E06830C0F463E0F2
:1008900070E0C2DA84569F4FFC01808190E021E035
:1008A00030E0042E02C0220F331F0A94E2F78223A5
:1008B000932302C0959587954A95E2F70895603194
:1008C000D0F02F50310963E070E0A6DA84569F4FD4
:1008D000FC01828190E041E050E0022E02C0440F12
:1008E000551F0A94E2F78423952302C095958795B6
:1008F0002A95E2F708952850310963E070E08CDA18
:1009000084569F4FFC018181E5CF5F926F927F9269
:100910008F929F92AF92BF92CF92DF92EF92FF920F
:100920000F931F93CF93DF93C0902601D0902701A0
:100930008090240190902501E601360183E0680E45
:10094000711C540193E0A90EB11C5C2EEC2EEC1826
:100950006C167D064CF18401F12CEE0CFF1CEE0CA4
:10096000FF1CC7018C5E9E4F7C01E02FE819A0168A
:10097000B106C4F0EE0DFF2DF11D8081882379F0C2
:10098000D7FD23C0CA30D10514F517FD20C00831AA
:1009900011052CF4602F852D74DF811118C00F5FB5
:1009A0001F4FE3CF2196D1CF80E0DF91CF911F91F0
:1009B0000F91FF90EF90DF90CF90BF90AF909F90FE
:1009C0008F907F906F905F90089582E0EECF81E0EE
:1009D000ECCFCF93DF93C0912401D0912501C33098
:1009E000D105ACF1CE0102979093250180932401AB
:1009F0008CDF2091240130912501811107C0215005
:100A000031093093250120932401F2CF80E1E4E104
:100A1000F1E0AAE2B1E001900D928A95E1F72F5F33
:100A20003F4F30933B0120933A01809126019091F2
:100A3000270190933D0180933C01DD27D093250150
:100A4000C0932401229781E02C173D070CF080E031
:100A5000DF91CF91089581E01DDEBBDF882311F087
:100A600080E018CE089584E1E4E1F1E0A1EFB0E088
:100A700001900D928A95E1F78091260190912701CE
:100A8000019790932701809326013FDF882351F03F
:100A900084E1E1EFF0E0A4E1B1E001900D928A95EC
:100AA000E1F70895D8CF30E020E090E0AC01022ECD
:100AB00001C0440F0A94EAF747FF0CC0C09AC29ADB
:100AC000C2982F5F3F4F2830310581F7C09AC29AF4
:100AD000C2980895C098F3CFC298C098C29AC09A9D
:100AE0000895C29AC09AC098C2980895CF93DF9390
:100AF000C82FD62FF6DF88E7D6DF80E0D4DF80EB83
:100B00008D0FD1DF8C2F82958F708061CCDF8C2F81
:100B10008E708160C8DFDF91CF91DECF683008F43E
:100B2000E5CF0895DEDF88E7BEDF80E4BCCF2F92FB
:100B30003F924F925F926F927F928F929F92AF926D
:100B4000BF92CF92DF92EF92FF920F931F93CF93BA
:100B5000DF93CDB7DEB72D970FB6F894DEBF0FBE8B
:100B6000CDBF1A01402E690124E1C216D1041CF048
:100B700023E1C22ED12CFC0197FF02C0F0E0E0E09F
:100B8000EB58FD4F34913983FB016B30710514F044
:100B9000EAE0F0E0E659FD4F44914D83822D37FCA9
:100BA00080E0782E66E02FD9582E8980880C5981F4
:100BB0005C87B12CA12C852F90E0FC01EE52FF4FF9
:100BC000FB87EA87FD812C852F1708F0B4C0622EC1
:100BD0006394EC84243030F0E22EE394E3942730E5
:100BE00008F4E62C6C85852D99DF9CDF1214130424
:100BF0000CF472C08FEF57DF10E0882D90E0FC01FD
:100C0000E65AFD4FFA83E983FF24F394FE0C9C011E
:100C10002F5F3F4FA901465A5D4F5C834B83F9011B
:100C2000E65BFD4FFF83EE839C01265B3D4F3987DA
:100C300028871C151D040CF05DC0912C3C8501E03B
:100C4000332321F000E8373009F000E0612F8E2DCA
:100C500018DE882309F44CC0E981FA81F491F02B65
:100C6000FD87612F8F2D0DDE882331F0EB81FC8114
:100C70008491FD85F82BFD8780911201882311F165
:100C8000612F8E2D41DD882361F0892D8B7FE981D5
:100C9000FA81882311F0E885F9858491FD85F82B88
:100CA000FD87612F8F2D30DD882361F0892D8B7FAB
:100CB000EB81FC81882311F0EE81FF818491FD8519
:100CC000F82BFD878D85EFDE939425E09212B6CF49
:100CD000802FE9DE1F5FADCF3C8581E0332329F013
:100CE0004C8580E8473009F080E0DDDE172D85CFA8
:100CF0000D87B7CF411017C03C853630A0F04A852C
:100D00005B854A0D5B1D5A83498318E0E981FA81AE
:100D10008081C9DE115029813A812E5F3F4F3A838D
:100D200029831111F3CFD8DE3FEFA31AB30A8394BE
:100D300083946C8647CF2D960FB6F894DEBF0FBE16
:100D4000CDBFDF91CF911F910F91FF90EF90DF907A
:100D5000CF90BF90AF909F908F907F906F905F905B
:100D60004F903F902F900895EF92FF920F93CF9363
:100D7000DF93EC017B0101E0DADE40913A01509112
:100D80003B0180912801909129019C012C5F3F4FEC
:100D9000481759072CF09A012C5F3F4F01E0AC0136
:100DA000B701CE01C4DEDF91CF910F91FF90EF909C
:100DB00008957F928F929F92AF92BF92CF92DF92CF
:100DC000EF92FF920F931F93CF93DF9300D000D049
:100DD00000D0CDB7DEB7FC014B01742EE22E2AE025
:100DE00030E0B9012AD88E83CB01B90126D88D8392
:100DF000CF0164E670E021D8CB01B9011ED88C8305
:100E0000CF0168EE73E019D8CB01B90116D88B83F6
:100E1000CF0160E177E211D86A831982F82C54017E
:100E200085E0A80EB11C0F2D10E0A016B10644F10C
:100E30006F2D872D73DE76DE97E0C92ED12C081931
:100E40001909A1E0B0E0AC0FBD1F0A0F1B1F80E025
:100E5000E1100EC0D801EC91F0E0349683E0EE0F83
:100E6000FF1F8A95E1F7EC0DFD1DE65CFF4F8491B5
:100E70001ADEB1E0CB1AD10850F72EDEF394D3CFAF
:100E800026960FB6F894DEBF0FBECDBFDF91CF918F
:100E90001F910F91FF90EF90DF90CF90BF90AF9098
:100EA0009F908F907F900895CF9360E080E01EDE4A
:100EB00039DE8FEFF8DDCDE781E0F5DDC150E1F7F8
:100EC0008FEFF1DD09DEC1E06C2F80E027DE2ADE46
:100ED0008FEFE9DD01DE6C2F8FE720DE23DE8FEF61
:100EE000E2DDFADDCF5FC73079F767E080E0FEDD55
:100EF00019DE8FEFD8DDCDE780E8D5DDC150E1F711
:100F00008FEFD1DDCF91E8CDCF93C82FEADD88E711
:100F1000CADD80E0C8DD8C2FC6DDCF91DDCDCF935B
:100F2000DF93C0EB8C2FF0DF80E0EEDF80E1ECDFC1
:100F3000F9DDD0E080E0B7DDDF5FD038D9F7CCDD78
:100F4000CF5FC83B79F7DF91CF910895B89ABA9AED
:100F50008EEADADF80E0D8DF80E1D6DF80E4D4DF1C
:100F600081E8D2DF8FECD0DF81EACEDF88ECCCDF06
:100F700086EACADF88EAC8DF8FE3C6DF83EDC4DF15
:100F800080E0C2DF85EDC0DF80E8BEDF89EDBCDF39
:100F900081EFBADF8AEDB8DF82E1B6DF8BEDB4DF37
:100FA00080E4B2DF80E2B0DF82E0AEDF8DE8ACDF6C
:100FB00084E1AADF84EAA8DF86EAA6DF8FEAA4CF6D
:100FC000BF92CF92DF92EF92FF920F931F93CF9336
:100FD000DF93082FB62E7A0110E0612F600FF70122
:100FE000E10FF11D8081882349F1C0E0803251F08A
:100FF000C4EDC80FC03130F0CDECC80FC93210F0CD
:10100000C7ECC80F8B2D8ADD8DDDD0E083E0CC0FDF
:10101000DD1F8A95E1F7D12CC12CCF5BDF4FFE019C
:10102000EC19FD0984913FDD8FEFC81AD80A88E0DA
:10103000C816D104A1F750DD1F5FCFCFDF91CF914C
:101040001F910F91FF90EF90DF90CF90BF90089588
:1010500050E040E0C49A30E020E02617370721F046
:1010600000002F5F3F4FF9CFC498F0E0E0E02E176B
:101070003F0719F000003196FACF4F5F5F4F84179A
:10108000950744F7089586E059DA8F3E924034F090
:1010900086E054DA21E0863B93400CF020E0822F7A
:1010A000089589E04BDA8F3E924034F089E046DAC9
:1010B00021E0863B93400CF020E0822F089589E0E8
:1010C0003DDA853F914034F089E038DA21E08E3E08
:1010D00092400CF020E0822F08950F93CF93DF937E
:1010E000C82F6CEB73E084E190E0B2DFE8EDF0E054
:1010F00080E1DF011D928A95E9F78FEF8C0FF1F403
:10110000DF01EEE1F0E0849114968C9314978491C2
:1011100015968C931597129620E0A03EB20799F78A
:1011200000E023E130E050E040E06AE070E090E071
:1011300080E0FDDCDF91CF910F91089590E0880F62
:10114000991F880F991FBC01625E7F4FAC01415E01
:101150005F4FA8EDB0E0ED01FB0124912883FA0177
:10116000249129832296F0E0CE3DDF07A9F7AC0158
:10117000405E5F4F8F5D9F4FFA01249118962C932C
:101180001897FC01249119962C9319971296F0E068
:10119000AE3DBF0789F7C4CFFF920F931F93CF9344
:1011A000DF9380E1E4E1F1E0A1EFB0E001900D9286
:1011B0008A95E1F7C0912401D0912501D0930201D5
:1011C000C093010180912601909127019093040121
:1011D00080930301CE010197909325018093240110
:1011E00094DB882309F499C0D0932501C09324018E
:1011F00080E01BDBC0E0D0E010E001E06C2F812F2D
:1012000040DB811101C000E01F5F1A30B9F70023F5
:10121000F1F1DF5F60E273E08EE190E019DF68E5F5
:1012200072E08EE190E014DF60E971E08EE190E021
:101230000FDF10E040E06C2F812FAADA1F5F1A3019
:10124000C9F74C2F50E09A012F5F3F4F69E070E0E3
:1012500090E080E089DD6EE170E080E090E09CD974
:1012600010E00C2F073178F4FF24F394F00E6F2D6B
:10127000812F07DB41E0811101C040E0602F812F09
:1012800087DA0F2DEFCF1F5F1A3059F7C150CF5FAC
:10129000C83109F0B1CF80910B0190910C018D0FF5
:1012A000911D90930C0180930B0180910F019091FF
:1012B0001001D23009F449C0E8F58896D13009F41C
:1012C0003FC000E023E130E050E040E06AE070E041
:1012D00090E080E02CDC20E045E750E070E060E04A
:1012E00080910F019091100164DDC0910D018C2F50
:1012F000DED80BDB882379F181E080931101A7D43C
:1013000027E030E040E050E040D5DC01CB01019621
:10131000A11DB11D80930D01E0DE81E0BBD959DB39
:10132000882311F080E0B6D9DF91CF911F910F9102
:10133000FF900895D33061F0805E9C4FD43009F661
:101340009093100180930F01BCCF8C599F4FF8CF21
:10135000845D9E4FF5CF8C2FAAD881E09BD939DBD5
:10136000882369F280E096D9CACF1F920F920FB6F8
:101370000F9211242F933F938F939F93AF93BF931B
:101380008091ED009091EE00A091EF00B091F000FF
:101390003091E80023E0230F2D3758F50196A11D69
:1013A000B11D2093E8008093ED009093EE00A09390
:1013B000EF00B093F0008091E9009091EA00A091D5
:1013C000EB00B091EC000196A11DB11D8093E900E6
:1013D0009093EA00A093EB00B093EC00BF91AF9123
:1013E0009F918F913F912F910F900FBE0F901F9063
:1013F000189526E8230F0296A11DB11DD2CF1F928A
:101400000F920FB60F9211240F900FBE0F901F90E6
:101410001895CF93DF93CDB7DEB76A970FB6F894E0
:10142000DEBF0FBECDBF78948AB582608ABD8AB513
:1014300081608ABD83B7826083BF83B7816083BFC9
:1014400089B7826089BF80B7826080BF80B78160C2
:1014500080BF329A319A309A379A8CB580648CBDAD
:10146000BC9AB998BE9887B387BBA99A8BB780629C
:101470008BBF83E090E04AD48C010F5F1F4FBC010B
:1014800090E080E0611571058105910509F02DD48A
:10149000B801772783E090E04CD4789457DD17E0CB
:1014A000412E512C612C712C00E2202E01E0302EB7
:1014B000B3E0EB2E4BDD33DDF7DC44E650E060E4D7
:1014C00081E07EDD4BE650E060E381E079DD42E7DC
:1014D00050E068E281E074DDE7DC10E000E0F12C30
:1014E0006F2D8EE41BDB1EDBB12CA12C9801285B39
:1014F0003C4F6901F601EA0DFB1D8491D4DA3FEF00
:10150000A31AB30A44E2A416B104A1F7E5DAF394EE
:101510000C5D1F4F58E0F512E3CF8FB7F894A09001
:10152000ED00B090EE00C090EF00D090F0008FBFC3
:10153000AADD182F882361F12FB7F8948091ED0070
:101540009091EE00A091EF00B091F0002FBF8A19AA
:101550009B09AC09BD09813D9740A105B10544F344
:101560006CEB73E084E190E073DDB19984C049E7EE
:1015700050E068E082E024DD00911301011172C0A7
:1015800081E0809313014EE750E060E182E018DDD6
:101590007ADDF82E8111FCCF1111EAC247E950E043
:1015A00065E182E00DDD80911201882309F47AC0A3
:1015B00032E3398FA0E8CA2EA2E0DA2E1A8EF601A5
:1015C00005911491F601329665917491769567951F
:1015D00090E080E0101611060CF067C028EE33E0B2
:1015E00040E050E0B9D39801220F331F220F331F80
:1015F000D9011597A801440F551F4A01550FAA0894
:10160000BB088D8A9E8AAF8AB88E198A1A8A1B8A6D
:101610001C8A29893A894B895C892617370748072C
:1016200059070CF043C0C49A0130110519F0FD01AF
:101630003197F1F7C4980130110519F0FD01319788
:10164000F1F789889A88AB88BC882D893E894F89B3
:10165000588D820E931EA41EB51E898A9A8AAB8A63
:10166000BC8AD7CF1092130143E850E060E181E0DB
:10167000A7DC102F8DCF4AE850E060E181E0A0DCCC
:1016800000911201011107C081E08093120140E92D
:1016900050E068E07BCF1092120143E950E068E02F
:1016A00082E0E6CF49E1498F85CF76D73A8D3F5F1B
:1016B0003A8F44E0C40ED11C898C831280CF2FDC7A
:1016C000109211011092100110920F0110920E0150
:1016D00010E000E040E0612F802F5AD80F5F0A3001
:1016E000C9F71F5F1831A9F710E000E040E0612F53
:1016F000802F83D70F5F0A30C9F71F5F1831A9F712
:10170000A6D2A301920141D381E0860FD0D680E01A
:101710008CD85FD9882311F080E0BCD780E0BAD79D
:1017200096D2A301920131D3DC01CB010196A11D18
:10173000B11D80930D01D1DC80911301882391F0BC
:1017400014E681E072D828DD82D2A30192011DD374
:1017500064307105810591050CF085D980E065D86C
:10176000115079F781E090E090930C0180930B0188
:1017700000E023E130E050E040E06AE070E090E01B
:1017800080E0D5D920E045E750E070E060E080914E
:101790000F01909110010DDB04E0B2E0CB2ED09050
:1017A0001101D1106DC181E040D8F6DC80E03DD858
:1017B00068E372E084E190E04BDC409124015091B9
:1017C000250180912601909127019A012B5F3F4FBF
:1017D000BC016C5F7F4FC8DA2FB7F8948091ED00A1
:1017E0009091EE00A091EF00B091F0002FBF809398
:1017F000070190930801A0930901B0930A01809119
:101800000B0190910C01880F991F880F991F893542
:10181000924034F046E950E050930C0140930B01A4
:101820008FB7F8944091ED005091EE006091EF0079
:101830007091F0008FBF8091070190910801A091F5
:101840000901B0910A01481B590B6A0B7B0B80916F
:101850000B0190910C01E6E98E2E912C881A990AC1
:10186000C401880F991F880F991F092E000CAA0B1D
:10187000BB0B481759076A077B0708F090CF809188
:101880000E018111EFC01BDC8823C1F081E0809341
:101890000E0110910E01112359F06CE171E084E109
:1018A00090E0D6DB123009F455C0C8F41130E9F1EC
:1018B0006EE170E080E090E06FD6B2CFF2DB88237B
:1018C00019F0C0920E01E5CFDEDB882319F00093FA
:1018D0000E01DFCFB199DDCFE0920E01DACF1330E8
:1018E00009F46CC0143021F7CEDB882309F381E0C2
:1018F0009CD752DC80E099D740912401509125017A
:1019000080912601909127019A012B5F3F4FBC01E6
:101910006C5F7F4F29DA6AE070E080E090E03CD6AF
:1019200080911101882301F37BCF81E07ED79BD882
:1019300080E07BD7409124015091250180912601C0
:10194000909127019A012C5F3F4FBC016B5F7F4F45
:101950000BDAAECF81E069D784E1E4E1F1E0A1EFF9
:10196000B0E001900D928A95E1F780912601909167
:10197000270101969093270180932601C6D78823DB
:10198000D9F084E1E1EFF0E0A4E1B1E001900D9243
:101990008A95E1F780E049D74091240150912501D3
:1019A00080912601909127019A012C5F3F4FBC0145
:1019B0006C5F7F4F0197CCCF4ED8ECCF81E035D70D
:1019C00090E080E09C01220F331F220F331FD101D2
:1019D000A21BB30BE1E0F0E0EC0FFD1FE80FF91FD5
:1019E00024E03D913083215034962111FACF0196A5
:1019F0008430910539F784E1E4E1F1E0A1EFB0E052
:101A000001900D928A95E1F780E1FE013196A4E103
:101A1000B1E001900D928A95E1F777D78823D1F054
:101A200084E1E1EFF0E0A4E1B1E001900D928A954C
:101A3000E1F780E0FAD64091240150912501809190
:101A40002601909127019A012C5F3F4FBC016C5FEA
:101A50007F4F7ECF81E01ED6BCD7882351F380E034
:101A600019D6E7CF2CDB811123CF1BDB811120CFCF
:101A70000ADB81111DCFB19B1BCF10920E0118CF35
:101A80004EDA90E080E03AD1082F10E0102F0027C6
:101A9000109306010093050181E090E02FD1082BFF
:101AA000109306010093050160910F0170911001E0
:101AB000061717076CF4709306016093050181E027
:101AC00090E029D16091100190E080E024D1FD2CBC
:101AD000EBD9C0900F01D090100120E040E550E01C
:101AE00061E070E0C60165D9A0900501B0900601E3
:101AF00020E048E250E061E070E0C5015AD910E012
:101B000000E0B80182E390E0A3DA0E5C1F4F083ECC
:101B100023E01207B1F714E021E040E550E061E076
:101B200070E0C60146D9FF2039F021E048E250E0DC
:101B300061E070E0C5013DD968EC70E080E090E0C4
:101B40002BD520E040E550E061E070E0C60131D9DE
:101B5000FF2039F020E048E250E061E070E0C5018C
:101B600028D968EC70E080E090E016D51150A1F61D
:101B700068EE73E080E090E00FD5D1D98EEAC4D949
:101B8000379885B7877E806185BF85B7806285BFBE
:101B900085B7806285BF889585B78F7D85BF85B7FE
:101BA0008F7D85BF379A8FEAAFD980E090E0892B8F
:101BB00009F480CC25D27CCC8F929F92AF92BF92B9
:101BC000CF92DF92EF92FF92CF93DF93EC01688187
:101BD00079818A819B81611571058105910521F4C7
:101BE00064E279ED8BE597E02DE133EF41E050E0E1
:101BF000CCD049015A0127EA31E440E050E0ACD0B2
:101C00006B017C012CEE34EF4FEF5FEFC501B401A7
:101C1000A3D0C60ED71EE81EF91EF7FE06C081E04F
:101C2000C81AD108E10880E8F80AC882D982EA8295
:101C3000FB82C701B6019F77DF91CF91FF90EF90B4
:101C4000DF90CF90BF90AF909F908F9008958F922C
:101C50009F92AF92BF92CF92DF92EF92FF926091EC
:101C60006000709161008091620090916300611545
:101C700071058105910521F464E279ED8BE597E02A
:101C80002DE133EF41E050E080D049015A0127EACD
:101C900031E440E050E060D06B017C012CEE34EF89
:101CA0004FEF5FEFC501B40157D0C60ED71EE81E37
:101CB000F91EF7FE06C081E0C81AD108E10880E8E5
:101CC000F80AC0926000D0926100E0926200F09247
:101CD0006300C701B6019F77FF90EF90DF90CF9030
:101CE000BF90AF909F908F90089560936000709325
:101CF000610080936200909363000895E199FECFA4
:101D00009FBB8EBBE09A99278DB30895A8E1B0E000
:101D100042E050E013C0262FE199FECF1CBA9FBBD2
:101D20008EBB2DBB0FB6F894E29AE19A0FBE0196D6
:101D30000895F1DF272FF0CFDC01CB01FC01E19901
:101D4000FECF06C0FFBBEEBBE09A31960DB20D92FE
:101D500041505040B8F70895EE27FF27AA27BB2728
:101D600008C0A20FB31FE41FF51F220F331F441F2B
:101D7000551F969587957795679598F37040A9F7C5
:101D8000009799F7BD01CF010895052E97FB16F432
:101D900000940FD057FD05D014D007FC02D046F4B4
:101DA00008C050954095309521953F4F4F4F5F4F5C
:101DB000089590958095709561957F4F8F4F9F4FB7
:101DC0000895A1E21A2EAA1BBB1BFD010DC0AA1F7C
:101DD000BB1FEE1FFF1FA217B307E407F50720F094
:101DE000A21BB30BE40BF50B661F771F881F991F0F
:101DF0001A9469F760957095809590959B01AC0158
:101E0000BD01CF010895002480FD060E660F11F07C
:101E10008695D1F7802D08950024552704C0080E1B
:101E2000591F880F991F009729F076956795B8F389
:101E30007105B9F7802D952F089597FB072E16F49D
:101E4000009406D077FD08D00BD007FC05D03EF4F7
:101E5000909581959F4F0895709561957F4F089556
:101E6000AA1BBB1B51E107C0AA1FBB1FA617B707C0
:101E700010F0A61BB70B881F991F5A95A9F78095DC
:0C1E80009095BC01CD010895F894FFCFAF
:101E8C000100000054455452495300417474696E6A
:101E9C007900417263616465004D4F4445004841CF
:101EAC005244004E4F524D414C0047484F53540042
:0C1EBC004F4E004F464600474F4C44007C
:00000001FF
