:1000000025C33FC33EC33DC33CC366C93AC339C3DE
:1000100038C337C336C335C334C333C332C30020F8
:100020007000000000303000000030600000103030
:100030002000202020200000202060000020203010
:10004000000201C0C00301E0E0E003010705070072
:100050000000010101020202030303040404050578
:10006000050606060707070808080909090A0A0A13
:100070000B0B0B0C0C0C04011F111F00001F0000C8
:100080001D15170011151F0007041F0017151D006F
:100090001F151D00011D03001F151F0017151F0050
:1000A000000000003700AE2000B0C8001040813FC3
:1000B000A1A6A83FA4D300D5F0D922DA12DB208D67
:1000C00014AFD5F8F4EA547A5568747A546A5578BE
:1000D000746A547A5568747A546A5578746A547A92
:1000E0005568F4FAD4EAFF0100020282FE8202029D
:1000F00088FA8000F8100808F0001860C03888A05E
:10010000A8A828282808080801FFFF0004040414F0
:10011000141454545050440404FC040404F02212F7
:100120000110F400002050509000000000FFFF007C
:10013000000000804040004040C0404001814140FC
:10014000800100C0404181014041C14140000000A8
:1001500000FFFF000000000112120C00001F000051
:10016000001F02021F00001F060A110000001F00EE
:100170000000000000FFFF000000F0B0508888C8B9
:10018000505020206060B0901018089898A4E44661
:10019000E4E4E8F8F0F0000000FFFF0000000306D0
:1001A0000D1A3F6BD6AA54F8FCFCFEFEAB7F7F3FD6
:1001B0003F1F0F0D070703030101000000FF1F3C55
:1001C000383830303030303030313337333131300F
:1001D000303030303030303030303030303038380F
:1001E0003C1F1E0103040404040404040404040466
:1001F00004040404040404040404040404040404BF
:1002000004031E01FE0101010101010101010101BF
:1002100001010101010101010101010101010101CE
:1002200001FEFC02F9F51D0D0D0D0D0B071F3F2002
:100230002F2F3F223F203933203F202A2E3F2D2AC7
:100240002A361F070B0D0D0D0D1DF5F902FCF800E8
:1002500040004040004040004040004040004040DE
:10026000004040004040004040004040004040000E
:100270004040004000F8FC02F9F51D0D0D0B071F72
:100280003F2D2A2A363F312E2E3F312E2E313F2050
:100290003A322D3F202A2E3F1F070B0D0D1DF5F979
:1002A00002FCFF007FBFE0C0C0C0C0C0C0C0C0C073
:1002B000C0C0C0C0C0C0C0C0C0C0C0C0C0C0C0C03E
:1002C000C0C0C0C0C0C0C0C0C0E0BF7F00FFFF0052
:1002D000000000000000000000000000000000001E
:1002E000000000000000000000000000000000000E
:1002F0000000000000FFFF007FBFE0C0C0C0C0C022
:10030000C0C0C0C0C0C0C0C0C0C0C0C0C0C0C0C0ED
:10031000C0C0C0C0C0C0C0C0C0C0C0C0C0E0BF7FFF
:1003200000FF0001FA5A7A5ADA5A7A5ADA5A7A5A95
:10033000DADA7A5ADA5A7A5ADA5A7A5ADA5A7A5A1D
:10034000DA5A7A5ADA5A7A5ADA5A7AFA0100FF00F5
:10035000000000000000000000000000000000009D
:10036000000000000000000000000000000000008D
:100370000000000000FF0001FAFA5A5A5A7A5A5A4D
:100380005A7A5A5A5A7A5A5A5A7A5A5A5A7ADADA4D
:100390005A7A5ADA5A7A5ADA5A7A5ADA5A7A5AFA1D
:1003A00001000000FF557755DD557755DDF5FF3F1E
:1003B00007E0FCBCE081071D7DD57755DD557755FD
:1003C000DD557755DD557755DD5577FF0000FF008A
:1003D000000000000000000000000000000000001D
:1003E000000000000000000000000000000000000D
:1003F0000000000000FF0000FF00FEFD07030303F4
:10040000030303030303030303030307FDFE0001C8
:10041000FFF7D5DDD5F7D5DDD5F7D5DDD57755FF98
:1004200000000000FF557755DDF57F3F8FC3F0DCFE
:10043000BFF7EFFDEAD7BCF04081071D753F87F19C
:1004400081030F35DD557755DD5577FF0000FF003F
:10045000000000000000000000000000000000009C
:10046000000000000000000000000000000000008C
:100470000000000000FF0000FF00FFFF0000000080
:10048000000000000000000000FC7EC25E7E4252C0
:100490005A7E625E627E42525A7EC25EFC0103FF59
:1004A00000000000FF557755DF577CF8E1042AEE85
:1004B000DA4E0A0A0E1AAE0A0501C060786F5F7E36
:1004C000756F5860C0030F75DD5577FF0000FF00A2
:1004D000000000000000000000000000000000001C
:1004E000000000000000000000000000000000000C
:1004F0000000000000FF0000FF7873E5676666E615
:1005000066666EFEFE0E06C600FFFF80000000005D
:100510000000000000000000000080FFFF0000FF5E
:10052000000000000F1517951D15971F9F0009BFAC
:100530003A9520009100AA0000800285372D95078A
:10054000850D37850280181C9F15170F0000FF00CE
:10055000000000000000000000000000000000009B
:10056000000000000000000000000000000000008B
:100570000000000000FF00000F17159D1517951DC6
:100580009517157F3F80001D94199A1313931393A9
:1005900013177F3F87031393139313129110180FB0
:1005A000000000000000060F0D1F1D161F1D1F1D5F
:1005B000363F3D7F7D76FFFDFFFD767F7D3F3D36FB
:1005C0001F1D1F1D161F1D0F0D0600000000FF80C0
:1005D000808080808080808080808080808080801B
:1005E000808080808080808080808080808080800B
:1005F0008080808080FF00000000060F0D1F1D1608
:100600001F1D1F1D363F3D7F7D76FFFDFFFD767F61
:100610007D3F3D361F1D1F1D161F1D0F0D060000BF
:100620000000000000003600000000003800020258
:100630000202020202020202010204081020200447
:1006400010080102000004000000000011241FBE79
:10065000CFE5D2E0DEBFCDBF10E0A0E6B0E0EAEB30
:10066000FCE102C005900D92A038B107D9F720E057
:10067000A0E8B0E001C01D92A23EB207E1F776D635
:100680001ACBBECCC298C098C29AC09A089530E0E6
:1006900020E090E0AC01022E01C0440F0A94EAF77A
:1006A00047FF0CC0C09AC29AC2982F5F3F4F2830B4
:1006B000310581F7C09AC29AC2980895C098F3CFC5
:1006C000C29AC09AC098C2980895CF93C82FF8DFF5
:1006D00088E7DDDF80E0DBDF8C2FD9DFCF91D2CF61
:1006E000EFDF88E7D4DF80E4D2CF823089F018F4DE
:1006F000813051F00895833019F0843009F0089565
:100700008CB58F7D8CBD08958AB58F778ABD08958D
:100710008AB58F7DFBCF1F93CF93DF93E6E4F6E09E
:100720009491ECE3F6E0D491E2E3F6E0C491CC23BB
:10073000B1F0182F992311F0892FD7DFEC2FF0E0BB
:10074000EE0FFF1FE85DF94FA591B4918FB7F894B4
:10075000EC91111108C0D095DE23DC938FBFDF919F
:10076000CF911F910895DE2BF8CFCF93DF93E3E471
:10077000F6E08491E9E3F6E0D491EFE2F6E0C4918B
:10078000CC2399F08111B1DFEC2FF0E0EE0FFF1FC9
:10079000EE5DF94FA591B491EC91ED2381E090E0ED
:1007A00009F480E0DF91CF91089580E090E0FACFE6
:1007B000CF93DF9390E0FC01E85CF94F2491825DD8
:1007C000994FFC0184918823D1F090E0880F991F04
:1007D000FC01E056FF4FA591B491FC01E85DF94F93
:1007E000C591D49161110EC09FB7F8948C91E22FFE
:1007F000E0958E238C932881E223E8839FBFDF91CD
:10080000CF9108958FB7F894EC91E22BEC938FBFC2
:10081000F6CF865087B9369A3699FECF84B195B116
:1008200008953FB7F8948091890090918A00A09133
:100830008B00B0918C0022B708B601FE05C02F3F97
:1008400019F00196A11DB11D3FBFBA2FA92F982FF6
:100850008827BC01CD01620F711D811D911D42E0F1
:10086000660F771F881F991F4A95D1F708958F92B9
:100870009F92AF92BF92CF92DF92EF92FF924B0185
:100880005C01CFDF6B017C01CCDF6C197D098E0927
:100890009F09683E734081059105B0F321E0821AFB
:1008A0009108A108B10888EEC80E83E0D81EE11CAB
:1008B000F11C81149104A104B10431F7FF90EF9071
:1008C000DF90CF90BF90AF909F908F900895CF937F
:1008D000DF93633150F5E62F062E000CFF0B93E0FB
:1008E000F595E7959A95E1F7677020E830E002C04A
:1008F000359527956A95E2F7A82F880FBB0BCD0198
:1009000063E070E09AD983579F4FEC01CE0FDF1F51
:10091000C881CD0163E070E090D983579F4FE80F05
:10092000F91F442329F02C2B2083DF91CF910895C8
:1009300020952C23F9CF2091D0003091D100C9010E
:1009400064E670E0A4D9AB01E1E8F0E06283CB019A
:10095000992764E670E071D9B901681B790BCB0166
:100960006AE070E094D9962F6183842F64E65CD9A5
:10097000281B892F6AE058D9281B20830895CF921D
:10098000DF92EF92FF920F931F93CF93DF93D82EB6
:10099000C62EF701149131966491A42FB0E0E82F90
:1009A000880FFF0BC12FC150DD0BCE018E0F9F1F93
:1009B0008A179B070CF45BC0AE17BF070CF457C037
:1009C000CC2DD0E083E0D595C7958A95E1F72C171B
:1009D00008F44DC0CE01860F911D2817190611F09D
:1009E0000CF045C0812F20D931E0380F602F70E026
:1009F000E32FE150FF0BCF0120D9DC012C1B5C2D34
:100A00005770812F622F10D94E5F4D19E82FE40FD8
:100A100090E03E1758F0EA0FFB2FF11DEE0DFF1D81
:100A20009491052E01C0990F0A94EAF72223A9F0A8
:100A3000811B480FA40FB11DEA0EFB1EF701E490C5
:100A4000341758F0F12C28E030E0251B310902C0A2
:100A5000F594E7942A95E2F79E29892FDF91CF91AB
:100A60001F910F91FF90EF90DF90CF90089590E04D
:100A7000F4CFEF92FF920F931F93CF93DF93C82F82
:100A80008091D2006AE0EAD8192F96E7E92E90E02B
:100A9000F92E082F25E04C2F69E28DE670DFD82F64
:100AA000012F25E04C2F69E282E769DF8D2BDF9172
:100AB000CF911F910F91FF90EF900895CF92DF9209
:100AC000EF92FF920F931F93CF93DF93D82F162FA0
:100AD00081E8C82E80E0D82E96E7E92E90E0F92E26
:100AE000F6010281262F4D2F68E080E148DFC82FF4
:100AF000F6010181212F4D2F68E084E140DFC82BF2
:100B0000F6010081212F4D2F68E088E138DF8C2B22
:100B1000DF91CF911F910F91FF90EF90DF90CF90D9
:100B200008954F925F926F927F928F929F92AF92B1
:100B3000BF92CF92DF92EF92FF920F931F93CF93CA
:100B4000DF9391EA980F993108F08CC0623008F079
:100B500089C0162FD82FC090D300D090D400C601E2
:100B600060E177E294D8762EB72E4C0186E7E82E26
:100B700080E0F82E062F212F4D2F68E08FE5FFDE55
:100B8000C82FC40168EE73E082D8662EA72E062F08
:100B9000212F4D2F68E083E6F2DEC82B862D9A2D9B
:100BA00068EE73E04AD84C01872D9B2D60E177E217
:100BB00044D85C01C601881999098A199B0964E621
:100BC00070E065D8562E472E062F212F4D2F68E056
:100BD00087E6D5DEC82B852D942D64E670E02DD8F0
:100BE0009601281B390BC901881999098A199B0993
:100BF0006AE070E04CD8D62E062F212F4D2F68E0EA
:100C00008BE6BDDEC82B8D2D6AE00ED80C2D081B9F
:100C1000852D64E609D8081B862D68EE05D8081BCB
:100C2000729490EF79220719212F4D2F68E08FE6FB
:100C3000A6DEC82B00E0212F4D2F68E083E79FDE62
:100C40008C2BDF91CF911F910F91FF90EF90DF9050
:100C5000CF90BF90AF909F908F907F906F905F905C
:100C60004F90089580E0EDCF67FD24C08C3020F5D3
:100C7000633114F5962F977040E850E002C0559507
:100C800047959A95E2F7262F660F330B93E035953B
:100C900027959A95E1F7082E000C990B63E070E018
:100CA000CCD783579F4F280F391FF9019081942388
:100CB00081E019F480E0089581E008952F923F9239
:100CC0004F925F926F927F928F929F92AF92BF925C
:100CD000CF92DF92EF92FF920F931F93CF93DF9308
:100CE000CDB7DEB72C970FB6F894DEBF0FBECDBFE1
:100CF000282FACE6AA2EA0E0BA2EC5016FEF73E054
:100D00009CD79A8789871C862E522D838C85805587
:100D1000DCDC80E0DADC80E1D8DCE2DC89859A8505
:100D20008A0D9B1DF6E0880F991FFA95E1F721E2E5
:100D300030E03A83298312ED312C212CFC01EE5D49
:100D4000FD4FFC83EB83EEE2DE2ED10EF501C08079
:100D50001E82F5018181C81608F0D2C01432F8F461
:100D6000E981FA8194906C2D892D7EDF8130A9F480
:100D70008C2D63E059D795E0980F892D63E054D707
:100D80004AE4E42E40E0F42E00E02C854D2D692F3E
:100D9000825DF5DD9E81982B9E83C394DACFEB8133
:100DA000FC81E20DF31D24912B8739E5712C32155E
:100DB00008F04EC08091DE0090E0412C863050F467
:100DC000282F30E0F901EA59FF4F4080205A3F4F69
:100DD000F901908165E028D78E8376E1C72EC90E90
:100DE000712C612C8E81860D082E000C990B9C01B4
:100DF000225E3F4F38872F836CE5562E540C912C82
:100E0000812CEF81F885849120E830E0082C02C025
:100E1000359527950A94E2F7822359F051E4E52E9F
:100E200050E0F52E00E02C854D2D6C2D852DA7DD95
:100E3000782AFFEF8F1A9F0A5394539425E0821665
:100E40009104F9F66394C394C39435E06312CACF56
:100E50008B8587298E838EE1810F8D3008F04CC001
:100E60009C85923008F048C0692F8D2D27DEEE81D9
:100E7000E82BEE836C858D2D54DEFE81F82BFE83EE
:100E800081EC810F8A30D0F52C852530B9F58D2D78
:100E9000F0DD3E81832BFBDBEFEF2E1A3E0A29812A
:100EA0003A812F5F3F4F3A8329831F5F3D81311382
:100EB0004ACFE8DB8C858F5F8C8792E0A90EB11C4E
:100EC000883009F023CF2C960FB6F894DEBF0FBE02
:100ED000CDBFDF91CF911F910F91FF90EF90DF90E9
:100EE000CF90BF90AF909F908F907F906F905F90CA
:100EF0004F903F902F90089580E0B9CF80E0C9CF08
:100F0000EB81FC81E20DF31D8491EE81E82BEE83F1
:100F100037EB832E30E0932EC12C412C3401512C21
:100F2000F30180818130A1F49091E10095509C0DF6
:100F3000852D63E079D63091E00025E4E22E20E0B3
:100F4000F22E00E02C854D2D692F830F18DD482AE5
:100F50005394F5E06F0E711C25E05212E1CF3FEF84
:100F6000831A930A83E0C80E9FE0C912D7CF8E81FF
:100F7000842991CFAF92BF92DF92EF92FF920F93AD
:100F80001F93CF93DF93C82F8091DD0065E04CD68F
:100F9000D82E20E040E030E0D4E080E8E82EF12CCC
:100FA000ED2DE20F0E2E000CFF0BCF01825E9F4F46
:100FB0005C01B0E0A0E00D2F021BC13089F168F1A7
:100FC000C23089F1C33099F1F5011491832F90E07B
:100FD00065E070E032D689549F4F840F911DB701B0
:100FE0000A2E02C0759567950A94E2F7162351E020
:100FF00009F450E0FC0150831196A530B105E9F6E3
:101000002F5F253069F6DF91CF911F910F91FF90EF
:10101000EF90DF90BF90AF900895422F3A2FD4CF3A
:10102000302F4A2FD1CF3D2F3A1B402FCDCF4D2F00
:101030004A1B322FC9CF855224E0260F63E01AD60F
:1010400083508093B5009923D1F081E08093DA003A
:10105000822F63E00FD683508093B600022E000CDF
:10106000330B082E000C990B039663E070E0E5D576
:101070002817390739F081E08093D5000895109240
:10108000DA00E6CF1092D5000895AF92BF92CF92CA
:10109000DF92EF92FF920F931F93CF93DF93009114
:1010A000B600080FB090B50087EBE82E80E0F82E70
:1010B000C0E0A02EAC0E6701D0E0F6011081113027
:1010C00031F46A2D8B2D8D0FCFDD81110DC0DF5FC7
:1010D000F5E0CF0ED11CD53081F7CF5F8FEFE81A46
:1010E000F80AC53031F710E0812FDF91CF911F91C1
:1010F0000F91FF90EF90DF90CF90BF90AF90089549
:10110000AF92BF92CF92DF92EF92FF920F931F9315
:10111000CF93DF93B090B6000091B500080F87EB36
:10112000E82E80E0F82EC0E0AB2CAC0E6701D0E0DA
:10113000F6011081113031F46A2D802F8D0F94DD6E
:1011400081110DC0DF5FF5E0CF0ED11CD53081F7E6
:10115000CF5F8FEFE81AF80AC53031F710E0812F22
:10116000DF91CF911F910F91FF90EF90DF90CF9083
:10117000BF90AF900895FF920F931F93CF93DF938B
:10118000F82E8B01C0E0F80181918F01813041F48C
:10119000D0E04F2D6C2F8D2F9ADBDF5FDC30C9F74D
:1011A000CF5FC33181F7DF91CF911F910F91FF90F6
:1011B000089580918000863020F48F5F80938000B6
:1011C000089580E0FBCFCF93DF93EC01F2DF8093B3
:1011D000DE008091DD00853058F4823078F4882379
:1011E00049F01092B100188280E0DF91CF91C2CE19
:1011F0008730B8F783E08093B100F5CF81E0FBCF73
:10120000E1E8F0E01082118212821092D200109276
:10121000D4001092D3001092D1001092D000089503
:101220009EC495C40F931F93CF93DF93062F10E0B6
:10123000CFEFD0E0C81BD10981E06DDA80E08C17D8
:101240001D0634F495E09A95F1F700008F5FF7CF13
:1012500080E061DA80E08C171D0634F495E09A9501
:10126000F1F700008F5FF7CF1F5F0113E5CFDF912C
:10127000CF911F910F910895CF938091D0009091BD
:10128000D10064E170E003D58091D200861759F057
:101290006093D200C9E060E588E2C4DF60E586E9DA
:1012A000C1DFC150C1F76091D200653198F470E0A0
:1012B00090E080E026EF3FEF4FEF5FEF5ED424E158
:1012C00030E040E050E072D4255F3F4F4F4F5F4F1A
:1012D0002093B200CF9108951F920F920FB60F92F4
:1012E00011242F933F938F939F93AF93BF9380913C
:1012F000850090918600A0918700B0918800309180
:10130000840023E0230F2D3758F50196A11DB11D50
:10131000209384008093850090938600A09387009B
:10132000B09388008091890090918A00A0918B00F1
:10133000B0918C000196A11DB11D809389009093FE
:101340008A00A0938B00B0938C00BF91AF919F91C6
:101350008F913F912F910F900FBE0F901F90189576
:1013600026E8230F0296A11DB11DD2CFCF93DF93A4
:10137000CDB7DEB769970FB6F894DEBF0FBECDBF0D
:1013800078948AB582608ABD8AB581608ABD83B748
:10139000826083BF83B7816083BF89B7826089BF62
:1013A00080B7826080BF80B7816080BF329A319AF7
:1013B000309A379A8CB580648CBDB89ABA9A06EA8E
:1013C00010E0F801849181D90F5F1F4FF0E0023CDB
:1013D0001F07B9F760E081E0EBD961E084E0E8D96C
:1013E00060E086E0E5D960E089E0E2D909DFAE019E
:1013F0004F5F5F4F6A01CE0144969E8B8D8B1C8A96
:101400002DE830E083E0F9019CE0108291503396A2
:101410009111FBCF81502F5F3F4F8111F4CFE7EB4C
:10142000F0E01192148211861686138AACEBB0E0BC
:10143000AE17BF07B1F71092D7001092DC001092E0
:10144000D6001092B40081E08093B3001092E000C7
:101450001092E1001092DB001092DD001092DE008D
:101460001092B1001092DF001092B5001092B600F9
:101470001092DA001092D5001092D9001092D80084
:10148000FBDE6091E1008091E000D5DD8AE090E034
:10149000C8DE8A3A59F590E080E0C3DE8093D2003E
:1014A00081E090E0BEDE082F10E0102F002710939F
:1014B000D1000093D00082E090E0B3DE082B1093BF
:1014C000D1000093D00083E090E0ABDE082F10E065
:1014D000102F00271093D4000093D30084E090E0F5
:1014E000A0DE082B1093D4000093D30024DA412C03
:1014F00060DE8093DD0039D9892B09F0D3C180DE0D
:1015000066E984E18FDE66E984E68CDECE014496EE
:101510005ADE80E8D3DB68EE73E080E090E0A7D984
:1015200087E38093E00085E08093E100712C62E026
:10153000662E01E073E1E72EE7E3FE2E8091DA00EC
:10154000811145C08091B400811138C286E061D913
:10155000853F9140DCF086E05CD98E3E9240B4F449
:101560008091D700811103C062E083E05BDE80914F
:10157000D700882311F0843121F40093D9006092C0
:10158000B400843118F48F5F8093D70086E041D98E
:101590008E3E9240E4F086E03CD9863B9340BCF41A
:1015A0008091D700811103C062E083E03BDE80912F
:1015B000D700882311F0843129F44FEF4093D900EC
:1015C0006092B400843118F48F5F8093D70086E076
:1015D00020D9853F914094F086E01BD98E3E924001
:1015E0006CF086E016D98E3E924044F086E011D928
:1015F000863B93401CF01092D700DBDDB6D80197F4
:1016000051F48091DA00811106C08091D5008111DA
:1016100002C01092DB008091DB008130F9F41C895C
:101620006091E1008091E00006DD8C899091B1002D
:10163000891708F0C7C18F5F8C8B9CDC8091DA0022
:101640005FDD811106C08091D5001FDD882309F47C
:10165000BBC11C8B812F8EDC6092DB008091D5009A
:1016600081110DC08091B30081508093B30081112E
:1016700006C00093D8008091B2008093B30080919F
:10168000D600882309F4AAC181508093D60089E04E
:10169000C0D88E3E92400CF0A4C11092DC00809124
:1016A000DF00863009F0A2C01092DF0097EBA92E70
:1016B00090E0B92E10E04501512C4090B600D401C5
:1016C0008C91813049F48091B500850D8C3020F4E7
:1016D00041E0642D610FFBD85394B5E08B0E911C53
:1016E000E5E05E12EACF1F5FFFEFAF1ABF0A1530C9
:1016F00011F78091D3009091D40028E024150CF4C8
:1017000088C102969093D4008093D3001092E10098
:101710001092E000D601EE2D1D92EA95E9F75601F0
:101720004601212C512C33243394412C652D842DDA
:101730009BDA811101C0312C4394FCE04F12F6CFAB
:10174000332019F0D4010C93232C5394BFEF8B1A40
:101750009B0AE3E15E12E7CFF1E02F1609F45BC1CB
:10176000E0E0D5018D915D01813009F4EF5F4D8995
:101770005E89A416B506A9F78091D0009091D1009A
:101780008E0F911D9093D1008093D000E15080E0A6
:10179000E43020F4F0E0E458FF4F80812091D30042
:1017A0003091D400820F932F911D9093D400809399
:1017B000D300C1D810E061E0812F56DA813009F4FE
:1017C0007EC11F5F1C30B9F76092E100F092E0002B
:1017D0008091DE008093DD00CE014496F4DC00931E
:1017E000DC0080E86BDA48DD80E868DABED7892B58
:1017F00039F48091DB00811103C0DBDC0093DB0056
:101800001091E100B090E000612F8B2D14DC8091ED
:10181000DA00811106C08091D90072DC811110922A
:10182000D9008091D900813009F03AC1B394B092C7
:10183000E000B090E000612F8B2DFDDB8091DA009D
:10184000811102C01092D9008091D8001EDC88233B
:1018500009F42BC11092D8001092D7001092DB002F
:1018600086E08093DF0082E529DA8091D60081113D
:1018700008C08091D8008F3F09F01AC11150109311
:10188000E1006091E1008B2DD6DB8091D5008111C4
:1018900002C01092D80056E075120FC182E50EDA30
:1018A000712C4CCE61E270E080E090E0E0D7BDE0CA
:1018B000B41508F473C04394B12CA12C1A2D80EBFD
:1018C0008A0D03D780E001D780E1FFD609D7C50193
:1018D00064E270E0B2D140EF342E912C812C95015E
:1018E0003695322F222737952795F901EE5DFD4F6A
:1018F000F98FE88F8C569F4F3C01582CF0E88F16DB
:10190000910409F451C0E88DF98DE80DF91D849119
:1019100092EE930DE0E0943220F4F301E80DF91D0E
:10192000E4918E2B8F8B27E0212C2415A8F422E044
:10193000E22E22E0F22E00E0212F452D6CE181E322
:101940001ED8282E32EEE32E31E0F32E212F452D26
:1019500064E281E314D8282A4F89242A612F852D37
:10196000E0D8282A5CE05315D8F01230C8F4612F73
:10197000852DA4D8282A612F852DD3D8282A83EA3B
:10198000830D8A3078F4153069F4852D72D8822958
:101990007ED68FEF881A980A3394AFCF412C8CCF24
:1019A00080E0E8CF80E0F3CF6DD69FEFA91AB90AA7
:1019B000A8E0AA16B10409F081CF9ACD8150809396
:1019C000B40005CE80E038CE65E083E02BDC6AE031
:1019D0008AE028DC65E083E025DC3ECE8091B20021
:1019E00054CE89E016D7863B93400CF056CE8091BA
:1019F000DA00811104C01092D9000093D700D9DB1E
:101A00008091DC0081114BCE0093D8001092D6005B
:101A100046CE019677CEB60181E0ADDB82E54ED9A8
:101A2000B60180E0A8DB82E549D91150A1F761E059
:101A3000812FF8DB1E5F1C3FD1F782E1982EF60163
:101A4000E90DF11D8081813081F41FEF190D911096
:101A500001C010E0F601E10FF11D8081812C813081
:101A600041F41123B9F31150F5CF992059F39A9409
:101A7000E6CF80E0112319F0612F882DF5D8482F8B
:101A8000692D882D24D783942CE08212F2CF9920DF
:101A900009F45AC09A94111111509110DBCF60CE05
:101AA0008F3F09F0C6CEBA94C2CE1092DF00DDCED1
:101AB000813009F0E6CE1F5FE2CE73943FCD80E81F
:101AC000FDD814E666E0812F880FACDB6CE0812F37
:101AD000A9DB11501A30B1F760ED77E080E090E0BB
:101AE000C6D683E090E09DDB182F84E090E099DB80
:101AF000912F2091D3003091D4008217930730F0BA
:101B00008AE090E08EDB8A3A09F479CC6091D200C9
:101B100090E080E085DB6091D10081E090E080DBA7
:101B20006091D00082E090E07BDB6091D40083E0A4
:101B300090E076DB6091D30084E090E071DB6AEAAC
:101B40008AE090E06DDB5BCC1111A6CF09CEE19964
:101B5000FECF9FBB8EBBE09A99278DB30895262FA9
:101B6000E199FECF1CBA9FBB8EBB2DBB0FB6F8947C
:101B7000E29AE19A0FBE01960895EE27FF27AA2761
:101B8000BB2708C0A20FB31FE41FF51F220F331F8E
:101B9000441F551F969587957795679598F37040E4
:101BA000A9F7009799F7BD01CF010895052E97FB7E
:101BB00016F400940FD057FD05D014D007FC02D0C6
:101BC00046F408C050954095309521953F4F4F4FB2
:101BD0005F4F089590958095709561957F4F8F4FD9
:101BE0009F4F0895A1E21A2EAA1BBB1BFD010DC039
:101BF000AA1FBB1FEE1FFF1FA217B307E407F507BD
:101C000020F0A21BB30BE40BF50B661F771F881F98
:101C1000991F1A9469F760957095809590959B012E
:101C2000AC01BD01CF010895002480FD060E660FB2
:101C300011F08695D1F7802D08950024552704C012
:101C4000080E591F880F991F009729F07695679500
:101C5000B8F37105B9F7802D952F0895991B79E098
:101C600004C0991F961708F0961B881F7A95C9F72C
:101C70008095089587FB082E062687FD819567FDD0
:101C80006195ECDF0EF4919507FC81950895AA1BF0
:101C9000BB1B51E107C0AA1FBB1FA617B70710F057
:101CA000A61BB70B881F991F5A95A9F78095909589
:0A1CB000BC01CD010895F894FFCFA8
:101CBA0001FF00000100010001000101000200040F
:101CCA0003070609090C0B0F0E1111130205080C64
:00000001FF
