:100000006DC587C586C585C584C52DC982C581C511
:1000100080C57FC57EC57DC57CC57BC57AC5FFFF14
:10002000FFFFFFFFFFFF0000000000000000FE01D7
:1000300001010101010102020202020202020303A4
:100040000303030303030404040404040404050574
:100050000505050505050606060606060606070744
:100060000707070707070808080808080808090914
:100070000909090909090A0A0A0A0A0A0A0A0B0BE4
:100080000B0B0B0B0B0B0C0C0C0C0C0C0C0C0D0DB4
:100090000D0D0D0D0D0D0E0E0E0E0E0E0E0E387DED
:1000A000FFFFFAF67C3800387DFFFA7438003078AC
:1000B000FDFEFCF4683001000000000000000000BC
:1000C0000080800000000000000000000000000030
:1000D000000000000000000040B0B0400000000040
:1000E0000000000000000000000000000000000010
:1000F00054ABAB5400000000000000000000000002
:1001000000000000001818247EA5A57E2418180001
:10011000000000000000000000001818241824242B
:10012000FF2424FF242418241818000000001818A5
:100130002418241824183C24FFA5A5FF243C1824C7
:100140001824182418180000000000000000000007
:10015000000101000000000000000000000000009D
:100160000000000000000000020D0D020000000071
:10017000000000000000000000000000000000007F
:100180002AD5D52A00000000000000000000000071
:100190000000000000003EE3C1C1C1C1C1C1C1C136
:1001A000C1C1C1C1C1C1C1C1C1C1C1C1C1C1C1C13F
:1001B000C1C1C1C1C1E3FFFFFFFFC18082BE828018
:1001C000BE80BE8488BE8086B88680808080BEAABD
:1001D00094809CA2A29C80BE848884BE80BEAA9487
:1001E00080BEAAA280BE9AAC80C1FFFFFFFFE3C120
:1001F000C1C1C1C1C1C1C1C1C1C1C1C1C1C1C1C1EF
:10020000C1C1C1C1C1C1C1C1C1C1C1C1E33E0000C1
:10021000000000000000FF010000000000000000DE
:1002200000000000000000000000000000000000CE
:1002300000000000000000000000000000000000BE
:1002400000000000000000000000000000000000AE
:10025000000000000000000000000000000000009E
:10026000000000000000000000000000000000008E
:10027000000000000000000000000000000000007E
:1002800000000000000000000000000001FF00006E
:10029000000000000000FF00000000000000FF7FE1
:1002A0007F7F7F7F7F810000000000000000FF7FD4
:1002B0007F7F7F7F7F810000000000000000FF7FC4
:1002C0007F7F7F7F7F810000000000000000FF7FB4
:1002D0007F7F7F7F7F810000000000000000FF7FA4
:1002E0007F7F7F7F7F810000000000000000FF7F94
:1002F0007F7F7F7F7F810000000000000000FF7F84
:100300007F7F7F7F7F8100000000000000FF0000F2
:10031000000000000000FF000000000000000000DE
:1003200000000000000000000000000000000000CD
:1003300000000000000000000000000000000000BD
:1003400000000000000000000000000000000000AD
:10035000000000000000000000000000000000009D
:10036000000000000000000000000000000000008D
:10037000000000000000000000000000000000007D
:1003800000000000000000000000000000FF001C52
:100390003EFE7EB61C04FF00000000000000FF7F50
:1003A0007F7F7F7F7F810000000000000000FF7FD3
:1003B0007F7F7F7F7F810000000000000000FF7FC3
:1003C0007F7F7F7F7F810000000000000000FF7FB3
:1003D0007F7F7F7F7F810000000000000000FF7FA3
:1003E0007F7F7F7F7F810000000000000000FF7F93
:1003F0007F7F7F7F7F810000000000000000FF7F83
:100400007F7F7F7F7F8100000000000000FF001CD5
:100410003EFE7EB61C04FF0000000000000000004D
:1004200000000000000000000000000000000000CC
:1004300000000000000000000000000000000000BC
:1004400000000000000000000000000000000000AC
:10045000000000000000000000000000000000009C
:10046000000000000000000000000000000000008C
:10047000000000000000000000000000000000007C
:1004800000000000000000000000000000FF001C51
:100490003EFE7EB61C04FF00000000000000FF7F4F
:1004A0007F7F7F7F7F810000000000000000FF7FD2
:1004B0007F7F7F7F7F810000000000000000FF7FC2
:1004C0007F7F7F7F7F810000000000000000FF7FB2
:1004D0007F7F7F7F7F810000000000000000FF7FA2
:1004E0007F7F7F7F7F810000000000000000FF7F92
:1004F0007F7F7F7F7F810000000000000000FF7F82
:100500007F7F7F7F7F8100000000000000FF0000F0
:100510000000000000007FC080808080808080809C
:1005200080808080808080808080808080808080CB
:1005300080808080808080808080808080808080BB
:1005400080808080808080808080808080808080AB
:10055000808080808080808080808080808080809B
:10056000808080808080808080808080808080808B
:10057000808080808080808080808080808080807B
:10058000808080808080808080808080C07F0E1B03
:100590007F7F3F1B0E000E1B7F3F3F5B0E000E5BFD
:1005A0003F3F7F1B0E00020E1B7F3F5F0E00020EBF
:1005B0005B3F7F1F0E00020E7B3F7F5F0E000E1F12
:1005C0007F7F3F1F0E000E1F7F3F3F5F0E000E5FBD
:1005D0003F3F7F1F0E000E5F7F3F7B0E02000E1F0E
:1005E0007F3F5B0E02000E5F3F7F1B0E02000C1E62
:1005F0002A6E2A1E0C00001E2567251E00000E1FF5
:100600002567251F0E000C1E2A6E2A1E0C00001ED8
:100610002567251E00000E1F2567251F0E000C1ED6
:100620002A6E2A1E0C00001E2567251E00000E1FC4
:100630002567251F0E000C1E2A6E2A1E0C00001EA8
:100640002567251E00000E1F2567251F0E00AE2002
:1006500000B0C8001040813FA1A6A83FA4D300D598
:10066000F0D922DA12DB208D14AFF83C05017FD0DF
:1006700015454E255509D000FDFF51536455054DD4
:100680004EC555001000F81D14531DF014147821A8
:10069000551FFF00FFFFFFFFFFFFFFFFFFFFFFFFF3
:1006A000FFFFFFFFFFFFFFFFFFFFFFFFFFFFFFFF5A
:1006B000FFFFFFFFFFFFFFFFFFFFFFFFFFFFFFFF4A
:1006C000FFFFFFFFFFFFFFFFFFFFFFFFFFFFFFFF3A
:1006D000FFFFFFFFFFFFFFFFFFFFFFFFFFFFFFFF2A
:1006E000FFFFFFFFFFFFFFFFFFFFFFFFFFFFFFFF1A
:1006F000FFFFFFFFFFFFFFFFFFFFFFFFFFFFFFFF0A
:10070000FFFFFFFFFFFFFFFFFFFFFFFFFFFFFFFFF9
:10071000FFFFFFFFFFFFFFFFFFFFFFFFFF000000E6
:1007200000000000808080808080808000000000C9
:100730000000008080808080808080800000000039
:100740000000008080808080808080800000000029
:100750000000008080808080808080800000000019
:100760000000008080808080808080800000000009
:1007700000000080808080808080808000000000F9
:1007800000000080808080808080808000000000E9
:10079000000000FFFFFFFFFFFFFFFFFFFF00000063
:1007A00000000000FFFFFFFFFFFFFFFF0000000051
:1007B000000000FFFFFFFFFFFFFFFFFF0000000042
:1007C000000000FFFFFFFFFFFFFFFFFF0000000032
:1007D000000000FFFFFFFFFFFFFFFFFF0000000022
:1007E000000000FFFFFFFFFFFFFFFFFF0000000012
:1007F000000000FFFFFFFFFFFFFFFFFF0000000002
:10080000000000FFFFFFFFFFFFFFFFFF00000000F1
:10081000000000FFFFFFFFFFFFFFFFFFFF000000E2
:1008200000000000808080808080808000000000C8
:100830000000008080808080808080800000000038
:100840000000008080808080808080800000000028
:100850000000008080808080808080800000000018
:100860000000008080808080808080800000000008
:1008700000000080808080808080808000000000F8
:1008800000000080808080808080808000000000E8
:10089000000000FFFFFFFFFFFFFFFFFFFF00000062
:1008A00000000000FFFFFFFFFFFFFFFF0000000050
:1008B000000000FFFFFFFFFFFFFFFFFF0000000041
:1008C000000000FFFFFFFFFFFFFFFFFF0000000031
:1008D000000000FFFFFFFFFFFFFFFFFF0000000021
:1008E000000000FFFFFFFFFFFFFFFFFF0000000011
:1008F000000000FFFFFFFFFFFFFFFFFF0000000001
:10090000000000FFFFFFFFFFFFFFFFFF00000000F0
:10091000000000FFFFFFFFFFFFFFFFFFFF000000E1
:1009200000000000808080808080808000000000C7
:100930000000008080808080808080800000000037
:100940000000008080808080808080800000000027
:100950000000008080808080808080800000000017
:100960000000008080808080808080800000000007
:1009700000000080808080808080808000000000F7
:1009800000000080808080808080808000000000E7
:10099000000000FFFFFFFFFFFFFFFFFFFF00000061
:1009A00000000000FFFFFFFFFFFFFFFF000000004F
:1009B000000000FFFFFFFFFFFFFFFFFF0000000040
:1009C000000000FFFFFFFFFFFFFFFFFF0000000030
:1009D000000000FFFFFFFFFFFFFFFFFF0000000020
:1009E000000000FFFFFFFFFFFFFFFFFF0000000010
:1009F000000000FFFFFFFFFFFFFFFFFF0000000000
:100A0000000000FFFFFFFFFFFFFFFFFF00000000EF
:100A1000000000FFFFFFFFFFFFFFFFFFFF80808060
:100A200080808080808080808080808080808080C6
:100A300080808080808080808080808080808080B6
:100A400080808080808080808080808080808080A6
:100A50008080808080808080808080808080808096
:100A60008080808080808080808080808080808086
:100A70008080808080808080808080808080808076
:100A80008080808080808080808080808080808066
:100A9000808080FF019600780196001E0196001E5E
:100AA0003298009B4696004B5A96004B6E8E6E8E87
:100AB000009B6E8E6E8E009B5AC05AC05AC00000BA
:100AC0000000380000000000370000000000360081
:100AD00002020202020201020408102011241FBEB9
:100AE000CFE5D2E0DEBFCDBF10E0A0E6B0E0ECE89D
:100AF000FEE102C005900D92A037B107D9F720E0C2
:100B0000A0E7B0E001C01D92AC38B207E1F7F5D321
:100B1000BBC976CAE7EDFAE08491E1EDFAE0E49131
:100B2000EE2371F0F0E0EE0FFF1FE653F54FA591B5
:100B3000B491EC91E82381E090E021F480E0089505
:100B400080E090E00895CF93DF9387FF07C08F7711
:100B500059F1813059F1823059F183E090E0FC0184
:100B6000EA52F54F24918053954FFC0184918823DC
:100B7000C1F090E0880F991FFC01EC53F54FC5912F
:100B8000D491FC01E254F54FA591B4919FB7F8942C
:100B90008881E22FE0958E2388838C91E823EC9363
:100BA0009FBFDF91CF91089585E0D8CF82E0D6CF67
:100BB00084E0D4CFC298C098C29AC09A089530E019
:100BC00020E090E0AC01022E01C0440F0A94EAF745
:100BD00047FF0CC0C09AC29AC2982F5F3F4F28307F
:100BE000310581F7C09AC29AC2980895C098F3CF90
:100BF000C29AC09AC098C2980895CF93C82FF8DFC0
:100C000088E7DDDF80E0DBDF8C2FD9DFCF91D2CF2B
:100C10008F7787B987B187B9369A3699FECF84B175
:100C200095B108953FB7F894809175009091760042
:100C3000A0917700B091780022B708B601FE05C0F8
:100C40002F3F19F00196A11DB11D3FBFBA2FA92F4B
:100C5000982F8827BC01CD01620F711D811D911D48
:100C600042E0660F771F881F991F4A95D1F70895B4
:100C7000CF92DF92EF92FF92CF93DF936B017C01D3
:100C8000D1DFEB01CFDF6C1B7D0B683E7340A0F022
:100C9000C114D104E104F10439F4DF91CF91FF9044
:100CA000EF90DF90CF90089581E0C81AD108E10855
:100CB000F108C851DC4FE6CFC114D104E104F104BE
:100CC00009F7EBCFFB012091610090E06AE070E052
:100CD000BED8E80FF91F40858781E681F0E060917A
:100CE000600070E0DF011796A617B707E4F0440F25
:100CF000440F440F480F50E0220F220F220F822F83
:100D000090E09A01295F3F4F2817390764F0695F27
:100D10007F4F6E177F073CF09C01295F3F4F81E0BA
:100D2000241735070CF480E00895F4DE0197E9F705
:100D300081E0809389000895282FDB01842F90E0C3
:100D40006AE070E084D8A80FB91F1696EC91169748
:100D50002E1780F1F0E030E0CF010796821793075D
:100D60004CF180918900811102C0442309F112964F
:100D70008C91129790E060E670E069D82E1B3F0BD3
:100D8000280F391FEC91F0E083E0EE0FFF1F8A95EA
:100D9000E1F7E20FF31F13962C9130E093E0220F5E
:100DA000331F9A95E1F7E20FF31FE257FA4F449190
:100DB000842F089540E0FCCFE82F8A3698F4A82FBE
:100DC000A695A695A6958A2F68EF38D8E80FF0E08B
:100DD000E859FF4FB0E0A758BF4F90818C919823FE
:100DE00081E009F480E00895E82F282F26952695C4
:100DF0002695822F68EF22D8E80FE1509FE7E73071
:100E000060F4F0E0EB5FF84F099406C00EC00FC02D
:100E100010C011C012C013C09FEBE22FF0E0E758E2
:100E2000FF4F80819823908308959FEDF6CF9FEE2A
:100E3000F4CF97EFF2CF9BEFF0CF9DEFEECF9EEF89
:100E4000ECCF2F923F924F925F926F927F928F9250
:100E50009F92AF92BF92CF92DF92EF92FF920F9349
:100E60001F93CF93DF9300D000D01F92CDB7DEB792
:100E70008B83362E272E21EF2983F12CE12C512C48
:100E800038E0832E912C7E2C80EB8E0DB6DE80E038
:100E9000B4DE80E1B2DEACDE88E791DE80E48FDE96
:100EA0001D821C82C7019695982F88279795879554
:100EB000AC0142575E4F5A014C808C819D81803835
:100EC000910509F412C19B81911109C1809189009A
:100ED000882309F4CAC08FEF840D873038F48091DD
:100EE0008700813049F020F0823051F00FEF0EC0C2
:100EF000E6E07E1609F4C2C0F5E07F1609F4BEC034
:100F000001E024E0721201C000E00195EC81FD8156
:100F1000EA0DFB1D34913A83C32CD22C10E0612CD6
:100F2000F6018085082E000C990BE816F90609F0E9
:100F3000A7C08181813061F0462D632D722D842DF3
:100F4000FBDEF601278101C0880F2A95EAF7182BEE
:100F500063945AE0C50ED11C85E06812E1CF9A81F6
:100F6000192B772059F0EC81FD81E25EFF4F8491CF
:100F70008E3F09F4A3C08F3F09F0A1C080E0182B79
:100F800020916000022E000C330B4C815D814217D2
:100F900053070CF4A0C0C9010796841795070CF4F9
:100FA0009AC080916100082E000C990BE816F90692
:100FB00009F091C0E09163000E2E000CFF0B83E05E
:100FC000EE0FFF1F8A95E1F7CA01821B930BE80F12
:100FD000F91FE256FF4F8491182B809162008130F7
:100FE00009F07BC057E0541508F077C0772009F46A
:100FF00074C0F90138978C819D818E179F070CF47E
:101000006CC0215F3F4F281739070CF466C08091F0
:101010006100082E000C990B9C0121503109E21649
:10102000F3060CF45AC001968E159F050CF455C0BA
:10103000C701821B930B68E470E009D72C813D81C6
:101040002E1B3F0BF901E80FF91F80916300082E5A
:10105000000C990B68E170E0FAD6E80FF91FEA542A
:10106000FF4F8491812B8023AADD31E053264C81F0
:101070005D814F5F5F4F5D834C831ECF00E046CFA5
:101080000196E816F90609F063CF8781882309F4F1
:101090005FCF8181813009F45BCF462D632D722DA6
:1010A000842D4ADE90E0F6012781A401421B5109FC
:1010B00002C0959587954A95E2F749CF81E0E9818D
:1010C0008E0F7ADE882309F45ACF8AEA552009F474
:1010D00056CF85E554CF80E07FCF80E0C3CFEC8151
:1010E000FD81EA0DFB1D8491BFCF64DD5FEFE51A42
:1010F000F50A8981815F8983893609F0C4CE0F9012
:101100000F900F900F900F90DF91CF911F910F9143
:10111000FF90EF90DF90CF90BF90AF909F908F9017
:101120007F906F905F904F903F902F900895CF9257
:10113000DF92EF92FF920F931F93CF93DF93FB0108
:1011400090E06AE070E083D6E80FF91F2085022E58
:10115000000C330B2150310943E0220F331F4A9515
:10116000E1F79781290F311D7901A901495F5F4F8F
:1011700037FD7A0193E0F594E7949A95E1F757FFEC
:1011800003C0A901425F5F4F6A0183E0D594C79411
:101190008A95E1F7C681D0E0FE01E25EFF4F04913F
:1011A00082E0800F10E0823060F08E2D6FE046D636
:1011B000800F02DE182F8C2D6FE040D6800FFCDDF3
:1011C000180FCB5DDF4FFE01C49182E08C0F82309F
:1011D00068F08E2D6FE032D68C0FEEDDD82F8C2D7F
:1011E0006FE02CD68C0FE8DD8D0F180F812FDF916B
:1011F000CF911F910F91FF90EF90DF90CF900895C6
:1012000090E02FEF30E0281B31099617C9F08111CB
:10121000C49A40E04217130634F455E05A95F1F7AA
:1012200000004F5FF7CFC49840E04217130634F434
:1012300055E05A95F1F700004F5FF7CF9F5FE5CF7C
:101240000895CF93C1E061E08C2FDADF62E08C2F4C
:101250008095D6DFCF5FCF3FB1F76CE271E080E0E1
:1012600090E0CF9105CD1F920F920FB60F921124EF
:101270002F933F938F939F93AF93BF938091710070
:1012800090917200A0917300B09174003091700041
:1012900023E0230F2D3768F126E8230F0296A11DC6
:1012A000B11D209370008093710090937200A09301
:1012B0007300B09374008091750090917600A091B6
:1012C0007700B09178000196A11DB11D8093750043
:1012D00090937600A0937700B0937800BF91AF9180
:1012E0009F918F913F912F910F900FBE0F901F9064
:1012F00018950196A11DB11DD4CFCF93DF93CDB723
:10130000DEB7E8970FB6F894DEBF0FBECDBF83E01F
:101310008ABD83BF789489B7826089BF80E48CBD21
:101320008FEF8DBD87EC80BF86B1876886B9379A0D
:10133000B89ABA9A0EE416E0F80184915EDC0F5F69
:101340001F4FF6E00A361F07B9F781E0FCDB80E8A3
:10135000FADB83E8F8DBBC9A9E012F5F3F4F39012F
:1013600082E3D9011D928A95E9F7FE01B996FCAB9B
:10137000EBAB5FE7252E312C83E0809387008FEF66
:1013800080938B001092890010928A001C861E8A1E
:1013900018A21AA6B30181E054DDBCDB892BD1F77A
:1013A000C4DC80918B0082300CF084C087FD0BC0C0
:1013B00015E064E680E524DF6CE271E080E090E017
:1013C00057DC1150B1F780918B008F5F80938B00B9
:1013D0001C861E8A18A21AA680918B0090E06EE0EF
:1013E00070E035D5A9E7B0E030E020E08659994FAC
:1013F000FC01E20FF31FE491ED932F5F3F4F2E307E
:101400003105B1F793012E5C3F4F3EAB2DAB86EF1C
:1014100080936000809361001092620010926300DC
:101420001B8289E08F8327E02987188692E09E83BC
:101430009D831C821A8281E08D8738E3398B8B8BE8
:101440001A8A8F8B38E73B8F9D8F1C8E89A397E775
:101450009DA32FA31EA28BA788E18FA785E089AB50
:1014600018AA58DB892B29F480918900811101C0C9
:101470005CDC80918900882309F485C080E8C8DBA2
:101480008E3E924044F180E8C3DB863B93401CF5DE
:101490001E8283E8BDDB8E3E92407CF583E8B8DB9C
:1014A000853F914094F183E8B3DB8E3E92406CF52A
:1014B0001D822FC015E064E680E5A2DE6CE271E0DB
:1014C00080E090E0D5DB1150B1F781E080938A0095
:1014D00010928B007DCF80E89BDB853F91402CF400
:1014E0008F818770B1F682E006C080E891DB8E3E86
:1014F0009240B4F781E08E83CCCF83E889DB863BD2
:10150000934064F681E08D8304C08885882309F4C4
:101510003EC100DB892BB9F580916200811133C097
:101520008F8190E0039633E0959587953A95E1F7A2
:10153000880F880F880F809360008985082E000C23
:10154000990B43E0880F991F4A95E1F72885280FEA
:10155000392F311DC901039697FD079623E0959514
:1015600087952A95E1F78093610085E0809362007A
:101570001DE962E0812F44DE61E087E1810F40DEFA
:101580001F5F1130B1F780918800883108F001C1E8
:101590008F5F80938800809189008823E9F12F81F3
:1015A00030E0B9016A5F7F4F4985042E000C550B6E
:1015B00083E0440F551F8A95E1F78885480F511D38
:1015C000DA011696F30110E083858130E9F0808915
:1015D00090E068177907C4F0069682179307A4F085
:1015E0008289082E000C990B03E0880F991F0A9539
:1015F000E1F70189800F911DA817B9072CF0069615
:10160000841795070CF011E03A968BA99CA98E17C8
:101610009F07D1F61111B4C22301730110E069E0F4
:10162000862E72E0A72EE7E09E2E112321F08091F6
:101630008A00813021F08091880080FD81C1D7012E
:101640001696BC9016971896DC9018971796CC9023
:10165000179715968C911597813009F09DC0E1E0A0
:10166000EB0D1696EC938D2D0D2C000C990B969589
:10167000982F8827979587954E2F50E04A5F5F4FA8
:10168000FC01E40FF51FEC56F94F2491FC01E40F27
:10169000F51FEC5EF84F84914C2D50E0F1010C2CBD
:1016A00001C0EE0F0A94EAF72E2301E071F428E05E
:1016B00030E0241B350BF10102C0F595E7952A9522
:1016C000E2F7E82301E009F400E0B301812F2FDD08
:1016D000080F80E0112319F0B301812FF3DA080F0E
:1016E00069F0112309F46DC0FBD222E030E040E044
:1016F00050E066D3F7016583F701B682D7011496EF
:101700008C911497813009F066C017969C911797B9
:10171000973008F05AC09F5F17969C93D701179691
:101720009C91292F30E0933008F0DAC0A22D01C03F
:10173000AA0F9A95EAF780E0F701208590E0820FE2
:10174000911D27FD9A959695982F882797958795AF
:10175000668130E020E070E0AC01460F571F6C5608
:10176000794F680F791FCA01820F931FE0E081153E
:10177000944020F4FB01E20FF31FE491EA2309F007
:1017800060C02F5F3F4F2730310569F7A7C082E067
:10179000BACE10928800FFCE811110C0EFEFEB0D92
:1017A0001696EC938D2D0D2C000C990B9695982F79
:1017B0008827979587954E2F50E062CF80E020E0F4
:1017C0006BCFD7011596AC9297CFF7019085178212
:1017D0009F5F9087A3CF811181C017968C91179737
:1017E000882309F46FC0815017968C93D701179600
:1017F0008C91A22D01C0AA0F8A95EAF7F7016085A6
:10180000062E000C770B7695762F662777956795D1
:10181000868130E020E090E0AB01480F591F8C56E4
:10182000994F860F971FBA01620F731FE0E0611591
:10183000744020F4FC01E20FF31FE491EA2309F461
:1018400047C001E0B301812F72DC080F80E0112353
:1018500019F0B301812F36DA080F91F0112309F442
:101860004AC03ED222E030E040E050E0A9D2D701A9
:1018700014966C93D7011896DC9218971796CC9211
:1018800080918800111147C080FDDAC1F7012481E1
:101890002130A1F51382D70115969C9115979130AF
:1018A000A1F513968C9289813A85311161C18230FC
:1018B00008F044C0223019F4923009F43FC08F5F21
:1018C00089833EC0F70180859782815080878ECFC3
:1018D0002F5F3F4F2730310509F0A5CF00E0B2CF91
:1018E00048E050E0421B530BD10102C0B595A795CB
:1018F0004A95E2F721CFF701A482BCCF2111CBCFCB
:10190000E6E0D7011396EC93C6CF9111CCCF33E02C
:10191000F7013383C8CF882311F08C3019F4D70135
:1019200013961C9266E0A4D291110AC0F70180813F
:10193000823008F023C18F5F808302C0B1E0BA8794
:101940001F5FBAE0EB0EF11C153009F06ECE8091EE
:101950008800982F977F11F0803161F49091620098
:10196000923044F02091630022300CF021C12F5FAF
:1019700020936300837009F0C9C0809162008130B8
:1019800009F0C4C00091630002300CF01FC10130A7
:1019900009F0B9C0F09061008F2D880F880F880F73
:1019A0006AEF680FE090600041E04E0D50E070E09B
:1019B0004A01E6E08E0E911C6B01F5E1CF0ED11CC1
:1019C000F301A681B0E09D01295F3F4F2417350741
:1019D000DCF02085220F220F220F3781230F30E009
:1019E000590197E0A90EB11CA616B7066CF08A162D
:1019F0009B0654F0C216D3063CF010861782218154
:101A0000213011F0A1E0A1833A962DA93EA92E170D
:101A10003F07B9F64AEF4E0D50E08F5F90E05A0154
:101A200035E1A30EB11CBC016A5F7F4F78AF6FAB8D
:101A300099249394D20116966C91169770E09B01AD
:101A4000295F3F4F2417350744F118962C911897BA
:101A5000322F330F330F330F17962C91230F30E0B3
:101A60006901B7E0CB0ED11CC816D906B4F0A61692
:101A7000B7069CF06FA978AD6217730774F0D201B6
:101A800018961C92189717961C92179711962C91DE
:101A90001197213011F011969C92BAE04B0E511C17
:101AA000E415F50539F68E2DEE0C990B6C01E8E086
:101AB000CE1AD108D7FE04C06C01F1E0CF1AD108CC
:101AC00023E0D594C7942A95E1F7AC2CBB24BA94B3
:101AD000BF0C8B2D6FE0B2D1E82EBB2021F081EF3F
:101AE0008E0D8C0D81D9EC0C8E2D7ED926E0B21690
:101AF00029F08F2D6FE0A2D18C0D76D9A1105EC098
:101B000081E08E0D71D90F5F009363008091880092
:101B100080FD21C0B30180E094D98091890081309B
:101B2000D1F482E08093890094E9E92E9AE0F92EBD
:101B3000F70131966491F701849162DBF2E0EF0ED8
:101B4000F11C20EC3AE02E153F0591F764EF71E0AF
:101B500080E090E08DD88A81813009F05CC080916E
:101B60008700882309F448C06CDB809187000DC092
:101B7000882311F08150A4CE1A86E2CE1082E0CEE6
:101B800060DB80918700882321F08150809387005B
:101B90003ECC68EC70E080E090E06AD815E064E646
:101BA00084E62EDB64E681E02BDB1150C1F7E4CB49
:101BB00010926300915090936200DCCE8FEF8E0DF7
:101BC00013D93EE0A31609F49ECF9ACF86EF8093F7
:101BD00060008093610010926200109263000DE239
:101BE000FF24F39461E08F2D801B0ADB62E0802FDD
:101BF00007DB0150B9F78ACF24DB68EC70E080E0A6
:101C000090E036D864E684E6FBDA64E681E0F8DA50
:101C10001150C1F7B1CB809188008C3009F021CCF4
:101C20008C85882309F41DCC8E89882309F419CC6E
:101C300088A1882309F415CC8AA58111B2CB11CCD7
:101C4000BAE0EB0EF11C11E0F2CC8F929F92AF92B2
:101C5000BF92CF92DF92EF92FF92CF93DF93EC018E
:101C6000688179818A819B81611571058105910562
:101C700021F464E279ED8BE597E02DE133EF41E06B
:101C800050E09ED049015A0127EA31E440E050E09B
:101C90007ED06B017C012CEE34EF4FEF5FEFC5017E
:101CA000B40175D0C60ED71EE81EF91EF7FE06C099
:101CB00081E0C81AD108E10880E8F80AC882D98210
:101CC000EA82FB82C701B6019F77DF91CF91FF9037
:101CD000EF90DF90CF90BF90AF909F908F9008953E
:101CE0008F929F92AF92BF92CF92DF92EF92FF922C
:101CF000609164007091650080916600909167002A
:101D0000611571058105910521F464E279ED8BE59A
:101D100097E02DE133EF41E050E052D049015A0104
:101D200027EA31E440E050E032D06B017C012CEE38
:101D300034EF4FEF5FEFC501B40129D0C60ED71EB7
:101D4000E81EF91EF7FE06C081E0C81AD108E108B6
:101D500080E8F80AC0926400D0926500E0926600C4
:101D6000F0926700C701B6019F77FF90EF90DF9078
:101D7000CF90BF90AF909F908F9008956093640034
:101D80007093650080936600909367000895EE2736
:101D9000FF27AA27BB2708C0A20FB31FE41FF51F08
:101DA000220F331F441F551F96958795779567958A
:101DB00098F37040A9F7009799F7BD01CF010895F6
:101DC000052E97FB16F400940FD057FD05D014D0C4
:101DD00007FC02D046F408C05095409530952195F7
:101DE0003F4F4F4F5F4F0895909580957095619547
:101DF0007F4F8F4F9F4F0895A1E21A2EAA1BBB1B46
:101E0000FD010DC0AA1FBB1FEE1FFF1FA217B307C6
:101E1000E407F50720F0A21BB30BE40BF50B661FDC
:101E2000771F881F991F1A9469F7609570958095A0
:101E300090959B01AC01BD01CF010895002480FD68
:101E4000060E660F11F08695D1F7802D08950024B7
:101E5000552704C0080E591F880F991F009729F0B5
:101E600076956795B8F37105B9F7802D952F08958C
:101E7000991B79E004C0991F961708F0961B881FDC
:0C1E80007A95C9F780950895F894FFCF7B
:101E8C00F6F600000100000080402010080402015A
:00000001FF
