:1000000071C38BC398C889C388C34BC886C385C3D3
:1000100084C383C382C381C380C37FC37EC3000004
:1000200000000000000008080800000060600000F8
:10003000002010080402003E5149453E0000427F66
:100040004000004261514946002141454B310018B2
:1000500014127F10002745454539003C4A49493074
:10006000000171090503003649494936000649492E
:10007000291E000036360000007C1211127C007F21
:1000800049494936003E41414122007F4141221CFD
:10009000007F49494941007F09090901003E414962
:1000A000497A007F0808087F0000417F4100002056
:1000B00040413F01007F08142241007F4040404002
:1000C000007F020C027F007F0408107F003E414148
:1000D000413E007F09090906003E4151215E007F33
:1000E000091929460046494949310001017F0101AA
:1000F000003F4040403F001F2040201F003F40384D
:10010000403F002054545478007F4844443800381D
:100110004444442000384444487F00385454541820
:1001200000087E0901020018A4A4A47C007F080432
:1001300004780000447D4000004080847D00007F02
:10014000102844000000417F4000007C041804781F
:10015000007C0804047800384444443800FC24241B
:1001600024180018242418FC007C08040408004803
:100170005454542000043F444020003C4040207C24
:10018000001C2040201C003C4030403C0044281013
:100190002844001CA0A0A07C3C7EFFFFFFFF7E3C0B
:1001A0003C7EFFFFE7E7C3427CFE3F0F0F3FFE7C34
:1001B00042C3E7E7FFFF7E3C3E7FFCF0F0FC7F3E62
:1001C0000E770E08180824082E0837083F084B0839
:1001D00054085D0868086F0877080E141814241472
:1001E0002E1437143F144B1454145D1468117711F6
:1001F0000E1F181F241F2E1F5D1F68196F197719F6
:1002000068256F2577250E2B182B242B2E2B372BAB
:100210003F2B4B2B542B5D2B682E772E0E37183728
:1002200024372E3737373F374B3754375D376837EA
:100230006F37000C0C17171F1F22222D2D387CFE44
:1002400022EBFF62EA7C7CC20A83830A827C1C3C2C
:100250007E666662401010107C381000002060FF3F
:1002600060200010387C10101000000406FF060407
:100270000000000000000000F804F414141414142A
:1002800014141413100F00000000000000000F10E1
:10029000131414141414141414E404E4141414148F
:1002A000141414141414141414141414141414140E
:1002B0001414141414E404E414141414141414146E
:1002C00014141414141414141414141414141414EE
:1002D0001414E404E414141414141414141414144E
:1002E00014141414141414141414141414E404F82A
:1002F0000000000000000000FF00FF000000000000
:1003000000000040A0A0A0A0A0A0A0A0A0A0A0A02D
:10031000400000000000000000FF00FF000000009F
:100320000000000040A0A0A0A0A0A0A040000000ED
:1003300000000000007F807F00000000000000003F
:1003400040A0A0A0A0A0A0A0A0400000000000002D
:1003500000007F807F0000000000000000C020A09F
:10036000A0A0A020C00000000000000000FF00FFCF
:100370000000000000000000FF00FF00000000007F
:10038000000000000000000000000000000000006D
:10039000000000000000000000FF00FF000000005F
:1003A000000000000000000000000000000000004D
:1003B000000000000000000000000000000000003D
:1003C000000000000000000000000000000000002D
:1003D000000000000000000000000000001F202FAF
:1003E0002F2F2F201F0000000000000000FF00FF43
:1003F0000000000000000000FF00FF0000000000FF
:10040000000000FE01FE0000000000000000FE01F0
:10041000FE000000000000000007080700000000C8
:1004200000000000FE01FD050505050505050505A3
:10043000050502000202020202020002050505058E
:1004400005050505050505FD01FE0000000000008D
:100450000000FE013E40404040404040404040409F
:1004600040404040800000000000000000FF00FF0E
:100470000000000000000000FF00FF00000000007E
:100480000000007F807F00000000000000007F80EF
:100490007F0000000000000000C020C0000000003D
:1004A000000000007F809FA0A0A0A0A0A0A0A0A00E
:1004B000A0A0A0A0A0A0A0A0A0A0A0A0A0A0A0A03C
:1004C000A0A0A0A0A0A0A09F807F0000000000002E
:1004D00000007F807E010101010101010101010194
:1004E00001010101000000000000000000FF00FF0A
:1004F0000000000000000000FF00FF0000000000FE
:1005000000000000000000000000000000000000EB
:10051000000000000000000000FF00FF00000000DD
:1005200000000000000000000000000000000000CB
:1005300000000000000000000000000000000000BB
:1005400000000000000000000000000000000000AB
:1005500000000000000000000000000000F804F4AB
:10056000F4F4F404F80000000000000000FF00FFB5
:100570000000000000000000FF00FF00000000007D
:10058000000000020505050505050505050505052D
:10059000020000000000000000FF00FF000000005B
:1005A0000000000002050505050505050200000024
:1005B0000000000000FE01FE00000000000000003E
:1005C00002050505050505050502000000000000FF
:1005D0000000FE01FE000000000000000003040512
:1005E00005050504030000000000000000FF00FFF7
:1005F00000000000000000001F20272828282828CD
:10060000282828282828282828282828282828286A
:100610002828282828282828282720272828282864
:10062000282828282828282828282828282828284A
:100630002828282828272027282828282828282844
:10064000282828282828282828282828282828282A
:100650002828C700FF0000000000000000F008C8C4
:100660002828282828282828282828282827201F1C
:100670000000C0E0F0F8FCFCFEFEFEFFFFFFFFFE06
:10068000FEFEFCFCF8706000FEFFFFFFFFFFFFFFB7
:10069000FFFFFFEFEFC787838301000010387C382E
:1006A000100000000010387C381000070F1F3F7F3B
:1006B0007F7F7FFFFFFFFFFFFF7F7F3F3F3E1E1ECD
:1006C00000000000380002020202020202020202DE
:1006D0000102040810202004100801020000040098
:1006E0000000000011241FBECFE5D2E0DEBFCDBF69
:1006F00011E0A0E6B0E0E4EAFEE102C005900D9250
:10070000A231B107D9F721E0A2E1B1E001C01D9209
:10071000A838B207E1F719D5C3CB72CCEEEDF6E0FD
:100720002491E4EDF6E09491EAECF6E0E491EE2316
:10073000C1F0222329F0223009F1A0F42130D1F0B8
:10074000F0E0EE0FFF1FE054F94FA591B4912FB7E1
:10075000F894811116C08C91E92FE095E823EC9371
:100760002FBF0895233011F0243051F72CB52F7D81
:100770002CBDE6CF2AB52F772ABDE2CF2AB52F7D33
:10078000FBCFEC91E92BEBCF865087B9369A36999F
:10079000FECF84B195B108953FB7F89480914D0193
:1007A00090914E01A0914F01B091500122B708B62F
:1007B00001FE05C02F3F19F00196A11DB11D3FBFDD
:1007C000BA2FA92F982F8827BC01CD01620F711D68
:1007D000811D911D42E0660F771F881F991F4A9562
:1007E000D1F708958F929F92AF92BF92CF92DF92EE
:1007F000EF92FF924B015C01CFDF6B017C01CCDFFC
:100800006C197D098E099F09683E73408105910529
:10081000B0F321E0821A9108A108B10888EEC80E51
:1008200083E0D81EE11CF11C81149104A104B104E1
:1008300031F7FF90EF90DF90CF90BF90AF909F90F7
:100840008F9008951092650110925A0110925901EB
:10085000EFE5F1E011821082138212821582148278
:1008600010925E0110925D01E1E7F1E082E4808385
:100870002CE12183A8E6B1E083E090E011969C93FF
:100880008E9337E33283238313969C938E93129730
:100890004DE44483258315969C938E931497368359
:1008A00088E2878317961C921E9216971092560123
:1008B0001092550108951092700110927901E4E1AF
:1008C000F1E081E0819391E0EC34F907D9F780936E
:1008D00012018093130108950F931F93CF93DF9319
:1008E000262F26952695269530E0677048E050E043
:1008F000461B51090FEF10E0F80102C0F595E7958E
:100900004A95E2F7AF0102C0000F111F6A95E2F7A6
:10091000A82FB0E0B9017695762F66277795679571
:100920006A0F7B1FD0E0C0E090E080E06F587D4F01
:10093000FB01EC0FFD1FE491F0E0E023F123EF2B2E
:1009400011F081E090E02196C830D10589F72F5F42
:100950003F4F3695322F2227379527952A0F3B1F79
:1009600070E060E02F583D4FF901E60FF71FE4916A
:10097000F0E0E423F523EF2B11F081E090E06F5FCE
:100980007F4F6830710581F7DF91CF911F910F91F3
:100990000895CF92DF92EF92FF920F931F93CF9320
:1009A000DF932091870121111DC06B017C0110E0B4
:1009B00000E081E0B3DED0E0C0E0CC16DD0619F047
:1009C00000002196FACF80E0A9DE90E080E0C81711
:1009D000D90719F000000196FACF0F5F1F4FE016FC
:1009E000F1063CF7DF91CF911F910F91FF90EF90AF
:1009F000DF90CF90089530E020E090E0AC01022E2F
:100A000001C0440F0A94EAF747FF0CC0C09AC29A8B
:100A1000C2982F5F3F4F2830310581F7C09AC29AA4
:100A2000C2980895C098F3CFC298C098C29AC09A4D
:100A30000895C29AC09AC098C2980895CF93DF9340
:100A4000C82FD62FF6DF88E7D6DF80E0D4DF80EB33
:100A50008D0FD1DF8C2F82958F708061CCDF8C2F32
:100A60008E708160C8DFDF91CF91DECFE2DF88E753
:100A7000C2DF80E4C0CF2F923F924F925F926F927D
:100A80007F928F929F92AF92BF92CF92DF92EF921E
:100A9000FF920F931F93CF93DF9300D000D000D02D
:100AA000CDB7DEB70FEFF12CE12C10E0912C812CAB
:100AB00038E0432E512C47E7642E41E0742E612F1D
:100AC00080E0BCDFD3DFC701880F991F9C01205D48
:100AD0003D4F3A832983AC014F5C5D4F5C834B8370
:100AE0001E821D82B4016F587D4F1B01CD80AD80E9
:100AF000BE80A80CB91C8D819E818038910509F4B7
:100B0000AAC1FC01E20DF31D649130917701D090F0
:100B10007801C31608F449C1E32FF0E0CF0107962E
:100B20004D815E81841795070CF43FC18D2D86950C
:100B30008695869581130AC14D2D47708D819E81C2
:100B40008E1B9F0BFC0180916601909167010197BC
:100B500009F0F9C080916E0190916F01B3E0880FA8
:100B6000991FBA95E1F7E80FF91FE056FE4FE4919F
:100B700001C0EE0F4A95EAF7262F2E2B56E05C15A2
:100B800040F1113081F4809155019091560167E058
:100B900070E075D96D817E81860F971FFC01EB5A3D
:100BA000FD4FE4912E2B409180015091810183E013
:100BB00090E063E0ED81FE81E25BFD4F161305C01E
:100BC0008417950714F47491272B6F5F0197673092
:100BD000A9F78091650190E0F3E0880F991FFA95DD
:100BE000E1F7A1E7B1E04C91C41600F150E0BA0181
:100BF000695F7F4FED81FE816E177F07BCF0119614
:100C0000BC9011976B2D6695669566956113CFC064
:100C1000E41BF50BE80FF91FE25CFD4FE4914B2D4F
:100C2000477001C0EE0F4A95EAF72E2B12966A160E
:100C30007B06C9F6063008F04DC0E981FA81B49010
:100C40004D2D50E0495F5F4F632F70E0695F7F4F2C
:100C5000EB81FC818491B81608F03CC08B2D90E0AC
:100C6000DC01AC5EBE4FEC91EE2309F4CFC0880FDF
:100C7000991FFC01EE53FE4FA490CA10C7C0A49068
:100C80008D539E4F3A1508F0AEC0E491E617170653
:100C900011F00CF0A8C0FC01A490DA1408F0A3C075
:100CA000A490A416150611F00CF09DC01C92809122
:100CB00079018F5F80937901809182019091830106
:100CC00040917E0150917F01840F951F9093830185
:100CD0008093820150911201513041F4163031F469
:100CE000E0ECF1E08491C812A1C0206E40911301A4
:100CF000413081F4163071F4E1ECF1E08491C816D2
:100D000041F0849190E001966D817E8168177907AA
:100D100009F4206E73E3D7120EC03E3008F092C083
:100D2000513049F41092120181E0809365011092D4
:100D30005A0110925901822F5EDEED81FE813196BB
:100D4000FE83ED83D3CEE856FE4F11CF90E001969F
:100D5000E816F90651F58D2D8770A201481B51093F
:100D6000CA014D815E814E1B5F0BFA014091660105
:100D70005091670141305105A9F440916E015091A5
:100D80006F01A3E0440F551FAA95E1F7E40FF51F8B
:100D9000E056FE4FE491F0E002C0F595E7958A95A4
:100DA000E2F7EACEE856FE4FF5CFE0E0E5CE70E0A0
:100DB0006F5F7F4F6E157F0509F038CFED81FE81A3
:100DC000E41BF50BE80FF91FE25CFD4FE491F0E046
:100DD0004B2D4770B201641B710902C0F595E79570
:100DE0006A95E2F722CFFC01A491EA2FE695E695F9
:100DF000E695E1130DC0FC0184918770E1E0F0E01D
:100E000002C0EE0FFF1F8A95E2F72E2BB39420CF7E
:100E1000FC01A491EA2FE695E695E695F0E031967F
:100E2000EE16FF0699F7FC018491F0CFE0ECF1E0BB
:100E3000849190E001966D817E818617970709F075
:100E400055CF53CF303708F476CF413009F073CF08
:100E50001092130169CFE8DD1F5FFFEFEF1AFF0A61
:100E60000F5F4501183009F02ACE26960FB6F89488
:100E7000DEBF0FBECDBFDF91CF911F910F91FF90CD
:100E8000EF90DF90CF90BF90AF909F908F907F902A
:100E90006F905F904F903F902F900895AF92BF92C8
:100EA000CF92DF92EF92FF920F931F93CF93DF9336
:100EB000D82F162F6A0100E0F601E00FF11D8081A6
:100EC000882389F1C0E0803251F0C4EDC80FC031F1
:100ED00030F0CEECC80FC93210F0C5ECC80FDF37C8
:100EE00010F01F5FD0E0183018F4612F8D2FA6DDB1
:100EF000BDDD8C2F90E066E070E0C1D7F12CE12CD5
:100F0000825E9F4F5C01F501EE0DFF1D849173DD44
:100F10008FEFE81AF80A86E0E816F104A1F784DDFD
:100F2000DA5F0F5FC9CFDF91CF911F910F91FF90D3
:100F3000EF90DF90CF90BF90AF900895CF93C82FE0
:100F400078DD88E758DD80E056DD8C2F54DDCF91C9
:100F50006BCDCF93DF93C0EB8C2FF0DF80E0EEDF23
:100F600080E1ECDF83DDD0E080E045DDDF5FD0387D
:100F7000D9F75ADDCF5FC83B79F7DF91CF9108955C
:100F8000B89ABA9A8EEADADF80E0D8DF80E1D6DF5D
:100F900080E4D4DF81E8D2DF8FECD0DF81EACEDFDE
:100FA00088ECCCDF86EACADF88EAC8DF8FE3C6DFD9
:100FB00083EDC4DF80E0C2DF85EDC0DF80E8BEDF07
:100FC00089EDBCDF81EFBADF8AEDB8DF82E1B6DF01
:100FD0008BEDB4DF80E4B2DF80E2B0DF82E0AEDF31
:100FE0008DE8ACDF84E1AADF84EAA8DF86EAA6DF29
:100FF0008FEAA4CF86E0C8DB853F914034F086E0DD
:10100000C3DB21E08E3E92400CF020E0822F089559
:1010100086E0BADB8F3E924034F086E0B5DB21E01B
:10102000863B93400CF020E0822F0895EF92FF92D0
:101030000F931F93CF93DF93CDB7DEB72A970FB6E9
:10104000F894DEBF0FBECDBFF82EE62ECA018E018A
:101050000F5F1F4F2AE0F80111922A95E9F74AE045
:10106000B80164D6A8016E2D8F2D18DF2A960FB611
:10107000F894DEBF0FBECDBFDF91CF911F910F91CE
:10108000FF90EF90089549EF50E065E085E206DFBC
:10109000409182015091830165E070E08BE490E023
:1010A000C5CF1F920F920FB60F9211242F933F932B
:1010B0008F939F93AF93BF93809151019091520171
:1010C000A0915301B091540130914C0123E0230FC2
:1010D0002D3758F50196A11DB11D20934C01809329
:1010E000510190935201A0935301B0935401809108
:1010F0004D0190914E01A0914F01B0915001019688
:10110000A11DB11D80934D0190934E01A0934F01FD
:10111000B0935001BF91AF919F918F913F912F91CB
:101120000F900FBE0F901F90189526E8230F029680
:10113000A11DB11DD2CF1F920F920FB60F92112495
:101140000F900FBE0F901F901895CF93DF93CDB7E0
:10115000DEB72B970FB6F894DEBF0FBECDBF7894E5
:101160008AB582608ABD8AB581608ABD83B7826094
:1011700083BF83B7816083BF89B7826089BF80B72F
:10118000826080BF80B7816080BF329A319A309A86
:10119000379A8CB580648CBDBC9AB998BE9887B3D9
:1011A00087BBA99A8BB780628BBFA2E04A2E512CD5
:1011B000E7DECFDE4CE650E062E084E06FDE48E739
:1011C00050E064E080E06ADE61E080E037DC2CE43F
:1011D00030E03D832C834ADC88E30DDC25DC8C8108
:1011E0009D8101979D838C83892BA9F763E080E023
:1011F00025DCECE4F0E0FD83EC8338DC8CE1FBDB08
:1012000013DC2C813D81215031093D832C83232B1C
:10121000A1F710E000E083E090E09D838C836C8177
:1012200084E50CDC23DCD12CC12CF801EF58F94FFC
:101230008491E1DB0F5F1F4FEC81FD81E330F1050D
:1012400011F0359739F4F6E1CF16D1041CF0F3E232
:10125000CF2ED12C2FEFC21AD20A32E2C316D104FC
:1012600024F3E2DB8C819D8101969D838C8306971C
:10127000B1F645E850E066E080E010DE41E950E07C
:1012800067E080E00BDE60EB74E080E090E0AADADB
:101290008FB7F894409151015091520160915301E0
:1012A000709154018FBFB19973C22FB7F894809198
:1012B000510190915201A0915301B09154012FBF5F
:1012C000841B950BA60BB70B813D9740A105B1057B
:1012D00054F39EDE882309F440C260E090E080E091
:1012E00060D560E081E090E05CD540EA50E060E0ED
:1012F00088E0D4DDF1E0FC83B19BFECF8C818111CD
:1013000054C468EE73E080E090E06CDA39DE21DEF0
:1013100010928301109282015092810140928001CB
:1013200081E090E090937F0180937E01E6E9F0E018
:10133000F0937D01E0937C0150927B0140927A0111
:10134000BADA80DAEE24E394F12C00918001109156
:10135000810117FDA0C380917901883308F451C041
:1013600071DAA9DA20917E0130917F012F5F3F4F22
:101370003D832C8330937F0120937E012330310500
:1013800019F02530310531F40F5F1F4F10938101A3
:101390000093800180917A0190917B0183309105C7
:1013A0002CF4019690937B0180937A0180917C01CB
:1013B00090917D01833391052CF0499790937D01A5
:1013C00080937C01C6DD47ED50E062E083E266DD9C
:1013D0004BEC50E063E085E261DD4C815D8163E0D0
:1013E00070E08BE490E022DE4EDE47ED50E066E0F8
:1013F00083E254DD64EC79E080E090E0F3D9A9DD8C
:101400003ADB80915D0190915E01019690935E01BF
:1014100080935D0120917C0130917D0182179307BB
:101420000CF110925E0110925D0180917A01909111
:101430007B0140E0E42FF0E0E817F9079CF4EE0FA1
:10144000FF1FDF01A15ABE4F2D913C911197232B15
:1014500009F0A0C1EF58FE4F80E4808380E18183D2
:10146000ED92FC928FE591E09987888761E7262EBF
:1014700061E0362E81011B861A86E885F985819107
:101480009191F987E8870197B9F52A853B85220F65
:10149000331F3F832E8328593E4F3D832C83F90110
:1014A000808191818130910509F490C10CF074C163
:1014B000892B09F494C1EE81FF81EF58FE4F6F0133
:1014C0004F01FA818F0E911CF40160808B81860D93
:1014D0008083F80161818081FFD9019709F089C17A
:1014E000F4016082CCD324E030E040E050E080D4CE
:1014F000EC81FD81718360832A853B852F5F3F4F9F
:101500003B872A870E5F1F4F2330310509F0B5CF87
:1015100071DD882309F4A5C110925601109255017E
:1015200080915B0190915C01019690935C018093A6
:101530005B010297D9F48091660190916701892B34
:1015400009F0E0C180916501F0926701E0926601C7
:1015500090E064E670E093D4BC0160577E4F84E174
:1015600090E017DA10925C0110925B0180916501A6
:10157000882391F08091590190915A01019690939E
:101580005A0180935901883C910534F0109265010D
:1015900010925A011092590100916E0110916F0141
:1015A0001093580100935701809155019091560175
:1015B00090936F0180936E018130910509F4FFC112
:1015C0000CF0A7C1892B09F4C6C180916E019091DE
:1015D0006F018130910509F444C20CF009C2892BD6
:1015E00009F41DC2E1E7F1E095E128E38181811171
:1015F00049C2218334E63083329681E0E937F80727
:10160000A9F7D12C1D821C828091770190E0F10115
:10161000208130E0AC0147505109241735070CF404
:1016200047C00796821793070CF442C08091780157
:1016300090E0218130E0AC01475051092417350773
:10164000BCF10796821793079CF18091650188236E
:1016500009F41EC2EC81FD81E859FF4F8081F10140
:101660008083EC81FD81EC59FF4F8081F101818302
:10167000EC81FD81EE0FFF1FE15AFE4F11821082B7
:101680000CEB12E0B8018EE190E083D9025311090E
:10169000083C1105B9F780918201909183010A9667
:1016A000909383018093820110925E0110925D01FC
:1016B0002C813D812F5F3F4F3D832C8332E0230EF1
:1016C000311C8C819D818330910509F09DCFDD20F7
:1016D000C9F190936F0180936E01F0926701E092DF
:1016E0006601C9D91D821C826C817D8182E390E0F4
:1016F00050D9EC81FD81F296FD83EC83E43FF1400B
:1017000099F71092670110926601B5D96C817D81BD
:1017100082E390E03ED98C819D81C2969D838C832B
:10172000883E934099F760EB74E080E090E05AD8EF
:101730008091800190918101019790938101809324
:10174000800180D880917001882329F0B19B03C06B
:10175000B399109270018FD9F8CD4CDC8111BDCDB9
:10176000209187012C8321110BC081E08093870198
:1017700043EB50E060E080E291DB31E03C83BCCDA4
:10178000109287014EEB50E060E08FE187DBB4CD33
:101790001C82B2CD4F5F4ECE8230910569F0039727
:1017A00009F089CE42E0A42EB12C3FEF398381E0CD
:1017B0008A839FEF9B837FCEF1E0F983AA24A394D1
:1017C000BB24B3941A822FEF2B8375CEE1E0E9831B
:1017D000F1E0FB83A12CB12C21E02A836CCE31E017
:1017E0003B8333E0A32EBB24B3948FEF89831A820B
:1017F00062CE23E0622E712C8B2C912CC80CD91C4C
:10180000F6018081F9818F0FF6018083F8016181F3
:10181000808162D8019711F4772473946A946110DF
:10182000EFCF711011C02BD224E630E040E050E041
:10183000DFD2633371058105910534F08A2D90E084
:10184000EC81FD8191838083EE81FF81EF58FE4F13
:10185000E80DF91D89816DEF09D39081890F80838F
:101860004BCE89E091D78F3E924054F089E08CD7DF
:10187000863B93402CF4F0925601E092550150CEF5
:10188000C7DB882329F0509256014092550148CE7B
:1018900089E07AD7853F914064F089E075D78E3E24
:1018A00092403CF483E090E0909356018093550180
:1018B00037CE80917001811133CEB39913C08091DE
:1018C000550190915601181619064CF40197909302
:1018D00056018093550131E03093700121CE83E0B1
:1018E00090E0F5CFB199F7CF8091550190915601D5
:1018F0008330910514F40196EACF109256011092AC
:101900005501E9CF109267011092660164EA71E017
:1019100026CE82309105D1F1039709F056CED090B2
:1019200078016FEF6D0D6093780180917701D4D7C6
:10193000019721F410936F0100936E012A853B8576
:10194000215031093B872A87232B49F7D394D3941D
:10195000D09278013ACED090770181E08D0D8093BE
:10196000770160917801B8D7019721F410936F0146
:1019700000936E018A859B8501979B878A87892BB7
:1019800051F7DA94DA94D09277011FCED090770194
:101990008FEF8D0D80937701609178019DD701972E
:1019A00021F410936F0100936E01EA85FB85319756
:1019B000FB87EA87EF2B51F7D394D394E4CFD090F1
:1019C000780161E06D0D609378018091770184D793
:1019D000019721F410936F0100936E018A859B8516
:1019E00001979B878A87892B51F7DA94DA94B0CFD5
:1019F0008230910529F1039709F0F4CD30917801F7
:101A00003C83632F6150609378018091770164D7A4
:101A1000019709F0E7CD8C8180937801E3CD909117
:101A200077019C83892F8F5F809377016091780184
:101A300053D7019709F0D6CDEC81E0937701D2CD51
:101A4000F0917701FC838F2F815080937701609113
:101A5000780142D7019709F0C5CD2C8120937701F9
:101A6000C1CD909178019C83692F6F5F609378015D
:101A70008091770131D7019709F0B4CDEC81E093E3
:101A80007801B0CD883308F4B7CD11829083B4CDFE
:101A9000DD24D3940DCE90E080E07BD1282F30E080
:101AA000922F88279D838C83909386018093850154
:101AB00081E090E06ED1EC81FD81E82BF09386010E
:101AC000E0938501109284016091820170918301FD
:101AD000E617F7077CF4709386016093850181E037
:101AE00090E05FD16091830190E080E05AD181E085
:101AF000809384012EDA42ED50E061E08BE0CED994
:101B000043EE50E062E08BE0C9D942ED50E063E083
:101B10008BE0C4D9B8DA8091840181110EC044EF02
:101B200050E067E085E1BAD9409185015091860186
:101B300067E070E088E590E079DA6CED75E080E0D0
:101B400090E050D680918401882379F102DA42ED49
:101B500050E061E08AE0A2D940E051E063E08AE031
:101B60009DD942ED50E067E08AE098D94091850127
:101B70005091860165E070E082E390E057DA2CEB4B
:101B800032E03D832C836C817D818EE190E001D732
:101B90008C819D81C2979D838C83883C910599F7A8
:101BA0006CED75E080E090E01DD6D3D98EEAC6D901
:101BB000379885B7877E806185BF85B7806285BF8E
:101BC00085B7806285BF889585B78F7D85BF85B7CE
:101BD0008F7D85BF379A8FEAB1D980E090E0892B5D
:101BE00009F4E6CA0DD2E4CA8F929F92AF92BF92D7
:101BF000CF92DF92EF92FF92CF93DF93EC01688157
:101C000079818A819B81611571058105910521F496
:101C100064E279ED8BE597E02DE133EF41E050E0B0
:101C2000E7D049015A0127EA31E440E050E0C7D04B
:101C30006B017C012CEE34EF4FEF5FEFC501B40177
:101C4000BED0C60ED71EE81EF91EF7FE06C081E004
:101C5000C81AD108E10880E8F80AC882D982EA8265
:101C6000FB82C701B6019F77DF91CF91FF90EF9084
:101C7000DF90CF90BF90AF909F908F9008958F92FC
:101C80009F92AF92BF92CF92DF92EF92FF926091BC
:101C90006000709161008091620090916300611515
:101CA00071058105910521F464E279ED8BE597E0FA
:101CB0002DE133EF41E050E09BD049015A0127EA82
:101CC00031E440E050E07BD06B017C012CEE34EF3E
:101CD0004FEF5FEFC501B40172D0C60ED71EE81EEC
:101CE000F91EF7FE06C081E0C81AD108E10880E8B5
:101CF000F80AC0926000D0926100E0926200F09217
:101D00006300C701B6019F77FF90EF90DF90CF90FF
:101D1000BF90AF909F908F900895609360007093F4
:101D2000610080936200909363000895BB274A305E
:101D300031F4992322F4BDE2909581959F4F01C023
:101D4000BB27FB015527AA27880F991FAA1FA41795
:101D500010F0A41B83955051B9F7A05DAA3308F089
:101D6000A95DA193009779F7B111B1931192CB01BD
:101D700000C0DC01FC01672F71917723E1F73297F6
:101D800004C07C916D9370836291AE17BF07C8F356
:101D90000895E199FECF9FBB8EBBE09A99278DB342
:101DA0000895262FE199FECF1CBA9FBB8EBB2DBB99
:101DB0000FB6F894E29AE19A0FBE01960895EE27C5
:101DC000FF27AA27BB2708C0A20FB31FE41FF51FD8
:101DD000220F331F441F551F96958795779567955A
:101DE00098F37040A9F7009799F7BD01CF010895C6
:101DF000052E97FB16F400940FD057FD05D014D094
:101E000007FC02D046F408C05095409530952195C6
:101E10003F4F4F4F5F4F0895909580957095619516
:101E20007F4F8F4F9F4F0895A1E21A2EAA1BBB1B15
:101E3000FD010DC0AA1FBB1FEE1FFF1FA217B30796
:101E4000E407F50720F0A21BB30BE40BF50B661FAC
:101E5000771F881F991F1A9469F760957095809570
:101E600090959B01AC01BD01CF010895002480FD38
:101E7000060E660F11F08695D1F7802D0895002487
:101E8000552704C0080E591F880F991F009729F085
:101E900076956795B8F37105B9F7802D952F08955C
:041EA000F894FFCFE4
:101EA400010000001C1C1C2842374D3750204120E3
:101EB400432D4D2041204E00616E6479206A616398
:101EC4006B736F6E00696E737069726564206279FA
:101ED40000776562626F67676C65732E636F6D0070
:101EE4002D484947482053434F52452052455345B6
:101EF400542D002D2D204D555445202D2D002D20E1
:101F0400534F554E44204F4E202D004C4556454CC2
:101F14003A002D2D2D2D2D2D2D2D2D2D2D2D2D2D0D
:101F24002D2D00472041204D204520204F205620B4
:101F340045205200484947482053434F52453A00F0
:101F4400204E455720484947482053434F52452087
:021F540000008B
:00000001FF
