:100000003AC254C2F2C952C251C2A5C94FC24EC26D
:100010004DC24CC24BC24AC249C248C247C2EEEEB0
:100020000000E0EEE000E0EE00E0E00EE00EE00EAA
:1000300000EEE0EE000E00EEE00E0000000000001A
:1000400000000000003F0000000000000000000C65
:100050000C006030180C060301003E63737B6F6771
:100060003E000C0E0C0C0C0C3F001E33301C0633F3
:100070003F001E33301C30331E00383C36337F3097
:1000800078003F031F3030331E001C06031F33333C
:100090001E003F3330180C0C0C001E33331E33335C
:1000A0001E001E33333E30180E000C1E33333F3318
:1000B00033003F66663E66663F003C6603030366A8
:1000C0003C001F36666666361F007F46161E1646C3
:1000D0007F007F46161E16060F003C6603037366FC
:1000E0007C003333333F333333001E0C0C0C0C0CC9
:1000F0001E007830303033331E006766361E366699
:1001000067000F06060646667F0063777F7F6B6396
:10011000630063676F7B736363001C3663636336DE
:100120001C003F66663E06060F001E3333333B1E3F
:1001300038003F66663E366667001E33070E38336A
:100140001E003F2D0C0C0C0C1E00333333333333A5
:100150003F0033333333331E0C006363636B7F77AD
:1001600063006363361C1C3663003333331E0C0C90
:100170001E007F6331184C667F0000001E303E3346
:100180006E000706063E66663B0000001E33033322
:100190001E003830303E33336E0000001E333F0304
:1001A0001E001C36060F06060F0000006E33333E9D
:1001B000301F0706366E666667000C000E0C0C0CCE
:1001C0001E00300030303033331E070666361E36D0
:1001D00067000E0C0C0C0C0C1E000000337F7F6BB4
:1001E000630000001F333333330000001E3333330A
:1001F0001E0000003B66663E060F00006E33333E75
:10020000307800003B6E66060F0000003E031E3093
:100210001F00080C3E0C0C2C180000003333333345
:100220006E0000003333331E0C000000636B7F7FD1
:100230003600000063361C36630000003333333E63
:10024000301F00003F190C263F0088002280082044
:1002500002882280082002882200F8003E800FE0F9
:1002600003F83E800FE003F83E000102030304059B
:100270000606070808000101020304040506070832
:10028000F0023C03EC038001B40380014D038001C4
:10029000F002BE004D03BE00B4038001EC038001F8
:1002A000670428030000280067046C01B403800180
:1002B000F0023C034D038001B4038001EC032803EA
:1002C00000002800EC037C01B40380014D033C03D3
:1002D000F0023C03B4033C03670400030000280061
:1002E00067048C064D031E03000028004D036201C5
:1002F000C602800132023C0378028001C6028001FE
:10030000F002280300002800F0026C01B403800111
:10031000F0023C034D038001B4038001EC03280389
:1003200000002800EC037C01B40380014D033C0372
:10033000F0023C03B4033C036704EC0200000E002F
:1003400000001A006704A006010101018181C1E1DA
:10035000F1F10111F1F1E1C1C1818101010101015D
:10036000010101010101010101010101FCFCFEFF8C
:10037000FFFFFFFFFFFFFF00FFFFFFFFFFFFFFFF8C
:10038000FFFEF80000000000000000000000000078
:10039000FFFF7F3FBF9FCFEFE7F7FBE001FBF3F7E6
:1003A000E7EFCFDFDFBFBF3000000000000000003C
:1003B0000000000000FEFFFFFFFFFFFFFFFFFFFF49
:1003C000003FFFFFFFFFFFFFFFFFFFFFE006FEFC18
:1003D000FCFCF8F8F0F0E00000FFFF7F7F3FBF9FDC
:1003E000DFCFEFEFE400F7E7EFEFCFDFDF9FBFBF37
:1003F0003F00077FFFFFFFFFFFFFFFF000FCFEFE57
:10040000FFFFFFFFFFFFFFFFFF8007FFFFFFFFFF73
:10041000FFFFFFFFFFFFC00E3E1E1C1D0D09030363
:100420000007FFFFFFFFFFFFFFFFFF7F7F3F003F52
:100430003F7F7F7F7F7FFFFFFFFFFF800000000087
:10044000000000008080838383898D8D8C8E8E8E4A
:100450008F8F9F8F8F8F8F8786868282828080800A
:10046000808080808080808044446044C0446006F6
:10047000600CE004204611241FBECFE5D2E0DEBFB1
:10048000CDBF10E0A0E6B0E0E6ECFEE102C00590D2
:100490000D92AA3AB107D9F721E0AAEAB0E001C06B
:1004A0001D92AC34B207E1F7AAD70BCDA9CD81508C
:1004B000E82FF0E0EE0FFF1FE859FB4F8591949174
:1004C00042E251E024E0FA0134E0682F6170608379
:1004D00096958795315034963111F7CF21504F5F63
:1004E0005F4F2111F0CF83E190E09093330180932F
:1004F000320183E090E090933501809334010895B8
:10050000865087B9369A3699FECF84B195B1089551
:100510003FB7F8948091F7009091F800A091F9000E
:10052000B091FA0022B708B601FE05C02F3F19F0BE
:100530000196A11DB11D3FBFBA2FA92F982F882763
:10054000BC01CD01620F711D811D911D42E0660F3E
:10055000771F881F991F4A95D1F708958F929F9210
:10056000AF92BF92CF92DF92EF92FF926B017C012C
:10057000CFDF4B015C01C114D104E104F104B1F0FF
:10058000C7DF681979098A099B09683E73408105AC
:10059000910588F321E0C21AD108E108F10888EE3C
:1005A000880E83E0981EA11CB11CE5CFFF90EF9050
:1005B000DF90CF90BF90AF909F908F9008950F9352
:1005C0001F93CF93DF93262FE0E0683020F0603157
:1005D00058F12F50E2E0A82FB0E0F0E0CD0163E049
:1005E00070E037DC88539F4FEC01CE0FDF1FC881CE
:1005F000022F10E0CD0163E070E02BDC88539F4FA9
:10060000E80FF91F442399F061E070E0CB0102C0CC
:10061000880F991F2A95E2F79C012C2B2083DF91EC
:10062000CF911F910F9108952850E1E0D4CF67E05A
:1006300070E0601B710B4FE750E002C05595479585
:100640006A95E2F76EEF70E001C0660F2A95EAF74F
:10065000462B4C234083E3CFBF92CF92DF92EF92A1
:10066000FF920F931F93CF93DF93C82E08E311E0FF
:10067000C0E07801D0E0F70181917F01813069F419
:10068000D0904801B09049016D2F6D0D80914A01C5
:100690008C0FC11014C041E092DFDF5FD43059F7F6
:1006A000CF5F0C5F1F4FC43021F7DF91CF911F91B7
:1006B0000F91FF90EF90DF90CF90BF90089540E0B2
:1006C0007EDFD0923601B0923701E7CF462F90E01F
:1006D000262F30E06830C0F463E070E0BADB885366
:1006E0009F4FFC01808190E021E030E0042E02C0A9
:1006F000220F331F0A94E2F78223932302C09595B9
:1007000087954A95E2F708956031D0F02F5031096E
:1007100063E070E09EDB88539F4FFC01828190E094
:1007200041E050E0022E02C0440F551F0A94E2F748
:100730008423952302C0959587952A95E2F708951D
:100740002850310963E070E084DB88539F4FFC013F
:100750008181E5CF0F931F93CF93DF93262FE0E0A6
:10076000683020F0603158F12F50E2E0A82FB0E05F
:10077000F0E0CD0163E070E06CDB86559F4FEC014B
:10078000CE0FDF1FC881022F10E0CD0163E070E0C3
:1007900060DB86559F4FE80FF91F442399F061E015
:1007A00070E0CB0102C0880F991F2A95E2F79C01E7
:1007B0002C2B2083DF91CF911F910F91089528500A
:1007C000E1E0D4CF67E070E0601B710B4FE750E0D1
:1007D00002C0559547956A95E2F76EEF70E001C04B
:1007E000660F2A95EAF7462B4C234083E3CFDF922E
:1007F000EF92FF920F931F93CF93DF93D82E02E2D5
:1008000011E0C0E07801D0E0F70181917F018130F3
:1008100051F4609132016D0F809134018C0F41E0F1
:10082000D11040E097DFDF5FD43071F7CF5F0C5F0E
:100830001F4FC43039F7DF91CF911F910F91FF9077
:10084000EF90DF900895462F90E0262F30E068303B
:10085000C0F463E070E0FDDA86559F4FFC018081B3
:1008600090E021E030E0042E02C0220F331F0A94F2
:10087000E2F78223932302C0959587954A95E2F784
:1008800008956031D0F02F50310963E070E0E1DA73
:1008900086559F4FFC01828190E041E050E0022E9E
:1008A00002C0440F551F0A94E2F78423952302C027
:1008B000959587952A95E2F708952850310963E0C8
:1008C00070E0C7DA86559F4FFC018181E5CF5F92CA
:1008D0006F927F928F929F92AF92BF92CF92DF9250
:1008E000EF92FF920F931F93CF93DF93C090340149
:1008F000D09035018090320190903301E6013601AD
:1009000083E0680E711C540193E0A90EB11C5C2EAB
:10091000EC2EEC186C167D064CF18401F12CEE0CDB
:10092000FF1CEE0CFF1CC7018E5D9E4F7C01E02F6B
:10093000E819A016B106C4F0EE0DFF2DF11D80815F
:10094000882379F0D7FD23C0CA30D10514F517FDEF
:1009500020C0083111052CF4602F852D74DF811122
:1009600018C00F5F1F4FE3CF2196D1CF80E0DF91FA
:10097000CF911F910F91FF90EF90DF90CF90BF909C
:10098000AF909F908F907F906F905F90089582E0DE
:10099000EECF81E0ECCFCF93DF93C0913201D091C5
:1009A0003301C330D105ACF1CE01029790933301EE
:1009B000809332018CDF209132013091330181111B
:1009C00007C0215031093093330120933201F2CF17
:1009D00080E1E2E2F1E0A8E3B1E001900D928A95B6
:1009E000E1F72F5F3F4F30934901209348018091F9
:1009F00034019091350190934B0180934A01DD279A
:100A0000D0933301C0933201229781E02C173D0728
:100A10000CF080E0DF91CF91089581E01DDEBBDF17
:100A2000882311F080E018CE089584E1E2E2F1E03D
:100A3000AFEFB0E001900D928A95E1F7809134011B
:100A400090913501019790933501809334013FDFF8
:100A5000882351F084E1EFEFF0E0A2E2B1E00190F1
:100A60000D928A95E1F70895D8CF30E020E090E02C
:100A7000AC01022E01C0440F0A94EAF747FF0CC0F4
:100A8000C09AC29AC2982F5F3F4F2830310581F734
:100A9000C09AC29AC2980895C098F3CFC298C098DD
:100AA000C29AC09A0895C29AC09AC098C2980895EE
:100AB000CF93DF93C82FD62FF6DF88E7D6DF80E00D
:100AC000D4DF8D2F806BD1DF8C2F8F70CEDF8C2FFA
:100AD00082958F708061C9DFDF91CF91DFCF683061
:100AE00008F4E6CF0895DFDF88E7BFDF80E4BDCFFD
:100AF0002F923F924F925F926F927F928F929F922E
:100B0000AF92BF92CF92DF92EF92FF920F931F931B
:100B1000CF93DF93CDB7DEB72F970FB6F894DEBF34
:100B20000FBECDBF6A0149013A83298324E18216B1
:100B3000910424F043E150E05A834983FC0197FF7C
:100B400002C0F0E0E0E0EB58FD4F54915E87FB01FE
:100B50006B30710514F0EAE0F0E0E659FD4FF490D7
:100B60008C2DD7FC80E08F8366E06AD992E0492E15
:100B7000480E6E84660CB12CA12CEE858E2F90E071
:100B80009C0120523F4F3D872C873E853F1508F042
:100B9000D6C0532E53947E84343030F0732E739429
:100BA0007394373008F4752C4E85442309F4BBC088
:100BB000473009F0AEC010E81C141D040CF473C0DB
:100BC00067E080E08CDF8FDF10E88FEF4EDF812F52
:100BD0004CDFEF80862D90E0FC01E65AFD4FFC8350
:100BE000EB8322242394270C9C012F5F3F4FA90104
:100BF000465A5D4F5E834D83F901E65BFD4FF987F1
:100C0000E8879C01265B3D4F3B872A8749815A81B3
:100C1000E41615060CF04EC0312C6E2D872D13DE18
:100C2000882309F445C0EB81FC81F491F12BFF8707
:100C30006E2D822D08DE882331F0ED81FE818491B6
:100C4000FF85F82BFF8780912001882311F16E2DFD
:100C5000872D3CDD882361F0832D8B7FEB81FC8128
:100C6000882311F0EA85FB858491FF85F82BFF87A7
:100C70006E2D822D2BDD882361F0832D8B7FED81FE
:100C8000FE81882311F0E885F9858491FF85F82B92
:100C9000FF878F85EADE339425E03212BECF812FA5
:100CA000E4DEE394B3CF6E85842D19DF1CDF91CF92
:100CB0001F87BECF33E1831691042CF04E858EEF53
:100CC00041118FEFD2DEEADE01111CC05E85563085
:100CD000C8F0652F88E703DF06DF8C859D858A0DC8
:100CE0009B1D9C838B8318E0EB81FC818081BDDEA2
:100CF00011502B813C812E5F3F4F3C832B83111180
:100D0000F3CFCCDE3FEFA31AB30A639463945E86FD
:100D10003CCF10E01C141D0434F26E8580E0DFDE51
:100D2000E2DE10E052CF12E01C141D040CF4BBCF25
:100D300060E080E0D4DED7DE12E08EEF47CF2F9662
:100D40000FB6F894DEBF0FBECDBFDF91CF911F91DC
:100D50000F91FF90EF90DF90CF90BF90AF909F905A
:100D60008F907F906F905F904F903F902F9008955D
:100D7000EF92FF920F93CF93DF93EC017B0101E0A1
:100D8000B7DE409148015091490180913601909120
:100D900037019C012C5F3F4F481759072CF09A01EF
:100DA0002C5F3F4F01E0AC01B701CE01A1DEDF9126
:100DB000CF910F91FF90EF9008957F928F929F9225
:100DC000AF92BF92CF92DF92EF92FF920F931F9359
:100DD000CF93DF9300D000D000D0CDB7DEB7FC01B9
:100DE0004B01742EE22E2AE030E0B90143D88E8305
:100DF000CB01B9013FD88D83CF0164E670E03AD8CA
:100E0000CB01B90137D88C83CF0168EE73E032D8BB
:100E1000CB01B9012FD88B83CF0160E177E22AD8CB
:100E20006A831982F82C540185E0A80EB11C0F2D9D
:100E300010E0A016B1064CF16F2D872D50DE53DE69
:100E400097E0C92ED12C08191909A1E0B0E0AC0F28
:100E5000BD1F0A0F1B1F80E0E1100FC0D801EC91ED
:100E6000F0E0349683E0EE0FFF1F8A95E1F7EC0D7A
:100E7000FD1DE65CFF4F8491880FF7DDB1E0CB1AD2
:100E8000D10848F70BDEF394D2CF26960FB6F8942C
:100E9000DEBF0FBECDBFDF91CF911F910F91FF90AD
:100EA000EF90DF90CF90BF90AF909F908F907F900A
:100EB0000895CF9360E080E0FBDD15DE8FEFD5DD98
:100EC000CEE781E0D2DDC150E1F78FEFCEDDE6DD88
:100ED000C1E06C2F80E003DE06DE8FEFC6DDDEDDD5
:100EE0006C2F8FE7FCDDFFDD8FEFBFDDD7DDCF5F40
:100EF000C73079F767E080E0DBDDF5DD8FEFB5DD4A
:100F0000CEE780E8B2DDC150E1F78FEFAEDDCF91E3
:100F1000C5CDCF93C82FC7DD88E7A7DD80E0A5DD6D
:100F20008C2FA3DDCF91BACDCF93DF93C0EB8C2F65
:100F3000F0DF80E0EEDF80E1ECDFD5DDD0E080E0C7
:100F400094DDDF5FD038D9F7A9DDCF5FC83B79F7F3
:100F5000DF91CF910895B89ABA9A8EEADADF80E0ED
:100F6000D8DF80E1D6DF80E4D4DF81E8D2DF8FEC08
:100F7000D0DF81EACEDF88ECCCDF86EACADF88EA00
:100F8000C8DF8FE3C6DF83EDC4DF80E0C2DF85ED1D
:100F9000C0DF80E8BEDF89EDBCDF81EFBADF8AED1C
:100FA000B8DF82E1B6DF8BEDB4DF80E4B2DF80E250
:100FB000B0DF82E0AEDF8DE8ACDF84E1AADF84EA57
:100FC000A8DF86EAA6DF8FEAA4CFBF92CF92DF9296
:100FD000EF92FF920F931F93CF93DF93082FB62EBC
:100FE0007A0110E0612F600FF701E10FF11D8081A0
:100FF000882349F1C0E0803251F0C4EDC80FC03100
:1010000030F0CDECC80FC93210F0C7ECC80F8B2DF3
:1010100066DD69DDD0E083E0CC0FDD1F8A95E1F766
:10102000D12CC12CCF5BDF4FFE01EC19FD0984915F
:101030001CDD8FEFC81AD80A88E0C816D104A1F7C2
:101040002DDD1F5FCFCFDF91CF911F910F91FF90CB
:10105000EF90DF90CF90BF90089550E040E0C49AA9
:1010600030E020E02617370721F000002F5F3F4FC8
:10107000F9CFC498F0E0E0E02E173F0719F0000028
:101080003196FACF4F5F5F4F8417950744F7089565
:1010900086E036DA8F3E924034F086E031DA21E0A5
:1010A000863B93400CF020E0822F089589E028DAF7
:1010B0008F3E924034F089E023DA21E0863B934072
:1010C0000CF020E0822F089589E01ADA853F9140E4
:1010D00034F089E015DA21E08E3E92400CF020E0F9
:1010E000822F08950F93CF93DF93C82F6CEB73E09B
:1010F00084E190E0B2DFE6EEF0E080E1DF011D92F6
:101100008A95E9F7C1508C2F90E0880F991F880FBE
:10111000991FBC01625E7F4FAC01415E5F4FDF01F2
:10112000EF01FB0124912A83FA0124912B8322965B
:10113000F0E0CC3EDF07A9F7AC01405E5F4F8F5D6A
:101140009F4FFA0124911A962C931A97FC0124912F
:101150001B962C931B971296F0E0AC3EBF0789F7C5
:1011600000E023E130E050E040E06AE070E090E031
:1011700080E0BEDCDF91CF910F910895FF920F9335
:101180001F93CF93DF9380E1E2E2F1E0AFEFB0E0B5
:1011900001900D928A95E1F7C0913201D09133010F
:1011A000D0931001C0930F018091340190913501CB
:1011B0009093120180931101CE0101979093330116
:1011C0008093320184DB882309F49EC0D0933301DD
:1011D000C093320180E00BDBC0E0D0E010E001E022
:1011E0006C2F812F30DB811101C000E01F5F1A30AE
:1011F000B9F70023F1F1DF5F60E273E08EE190E088
:101200002CDF68E572E08EE190E027DF60E971E0B5
:101210008EE190E022DF10E040E06C2F812F9ADA1F
:101220001F5F1A30C9F74C2F50E09A012F5F3F4FD4
:1012300069E070E090E080E09BDD6EE170E080E0CE
:1012400090E08CD910E00C2F073178F4FF24F39450
:10125000F00E6F2D812FF7DA41E0811101C040E0DF
:10126000602F812F77DA0F2DEFCF1F5F1A3059F7DC
:10127000C150CF5FC83109F0B1CF80911901909171
:101280001A018D0F911D90931A018093190180917D
:101290001D0190911E01D23009F44DC008F041C0EB
:1012A000D13009F446C0059690931E0180931D012C
:1012B00000E023E130E050E040E06AE070E090E0E0
:1012C00080E016DC20E048E750E070E060E08091CC
:1012D0001D0190911E0171DDC0911B018C2FE7D87B
:1012E000F6DA882371F181E080931F01CDD427E0E5
:1012F00030E040E050E066D5DC01CB010196A11D55
:10130000B11D80931B01EEDE81E0A6D944DB88236A
:1013100011F080E0A1D9DF91CF911F910F91FF9043
:101320000895D33059F0D43009F0BDCF805E9C4F82
:10133000BBCF8896B9CF8C599F4FB6CF845D9E4F57
:10134000B3CF8C2FB4D881E087D925DB882371F205
:1013500080E082D9CBCF1F920F920FB60F9211244B
:101360002F933F938F939F93AF93BF938091FB00F5
:101370009091FC00A091FD00B091FE003091F6002C
:1013800023E0230F2D3758F50196A11DB11D2093A1
:10139000F6008093FB009093FC00A093FD00B093B7
:1013A000FE008091F7009091F800A091F900B091B3
:1013B000FA000196A11DB11D8093F7009093F800EB
:1013C000A093F900B093FA00BF91AF919F918F91D4
:1013D0003F912F910F900FBE0F901F90189526E808
:1013E000230F0296A11DB11DD2CF1F920F920FB6EF
:1013F0000F9211240F900FBE0F901F901895CF934E
:10140000DF93CDB7DEB76A970FB6F894DEBF0FBE95
:10141000CDBF78948AB582608ABD8AB581608ABD65
:1014200083B7826083BF83B7816083BF89B78260DF
:1014300089BF80B7826080BF80B7816080BF329AE9
:10144000319A309A379A8CB580648CBDBC9AB99821
:10145000BE9887B387BBA99AAB9A8BB780628BBFC4
:10146000789479DD90E080E066D4182F8068E82ECB
:10147000F12CC70160D401E0080F602FC70168D4C8
:10148000602F70E0762F6627610F711D072E000C0C
:10149000880B990B611571058105910509F042D4FE
:1014A000F3D317E0412E512C612C712C1E0121E148
:1014B000220E311CB4E0EB2E4EDD36DDFADC44E6C4
:1014C00050E060E481E081DD4BE650E060E381E0E4
:1014D0007CDD42E750E068E281E077DDEADC10E0A5
:1014E00000E0F12C6F2D8EE4FADAFDDAB12CA12C9C
:1014F000A801485B5C4F6A01F601EA0DFB1D84916F
:10150000B4DA5FEFA51AB50A84E2A816B104A1F710
:10151000C5DAF3940C5D1F4F98E0F912E3CF8FB753
:10152000F894A090FB00B090FC00C090FD00D0901B
:10153000FE008FBFADDD182F882361F12FB7F8941F
:101540008091FB009091FC00A091FD00B091FE0005
:101550002FBF8A199B09AC09BD09813D9740A105A0
:10156000B10544F36CEB73E084E190E076DDB19972
:1015700084C049E750E068E082E027DD0091210166
:10158000011172C081E0809321014EE750E060E1DB
:1015900082E01BDD7DDDF82E8111FCCF111105C32A
:1015A00047E950E065E182E010DD80912001882369
:1015B00009F47AC032E3398FA0E8CA2EA2E0DA2E0D
:1015C0001A8EF60105911491F60132966591749187
:1015D0007695679590E080E0101611060CF067C0D4
:1015E00028EE33E040E050E0D4D39801220F331FBF
:1015F000220F331FD9011597A801440F551F4A0127
:10160000550FAA08BB088D8A9E8AAF8AB88E198AA0
:101610001A8A1B8A1C8A29893A894B895C89261770
:101620003707480759070CF043C0C49A0130110529
:1016300019F0FD013197F1F7C4980130110519F047
:10164000FD013197F1F789889A88AB88BC882D898C
:101650003E894F89588D820E931EA41EB51E898A1D
:101660009A8AAB8ABC8AD7CF1092210143E850E016
:1016700060E181E0AADC102F8DCF4AE850E060E104
:1016800081E0A3DC00912001011107C081E080937B
:10169000200140E950E068E07BCF1092200143E94F
:1016A00050E068E082E0E6CF49E1498F85CF56D728
:1016B0003A8D3F5F3A8F44E0C40ED11C898C83126F
:1016C00080CF32DC10921F0110921E0110921D017A
:1016D00010921C0110E000E040E0612F802F3AD80A
:1016E0000F5F0A30C9F71F5F1831A9F710E000E05B
:1016F00040E0612F802F63D70F5F0A30C9F71F5F6B
:101700001831A9F7C1D2A30192015CD381E0860F01
:10171000CED680E06CD83FD9882311F080E09CD7EA
:1017200080E09AD7B1D2A30192014CD3DC01CB0166
:101730000196A11DB11D80931B01D4DC8091210174
:10174000882391F014E681E052D818DD9DD2A301E0
:10175000920138D364307105810591050CF065D98B
:1017600080E045D8115079F7AA24A394B12CB09207
:101770001A01A092190100E023E130E050E040E0BE
:101780006AE070E090E080E0B3D920E048E750E004
:1017900070E060E080911D0190911E010EDB03E07E
:1017A000B2E0BB2E10911F0111118EC181E01FD834
:1017B000E5DC80E01CD840913201509133018091EA
:1017C0003401909135019A012B5F3F4FBC016C5F52
:1017D0007F4FCEDA2FB7F8948091FB009091FC00F8
:1017E000A091FD00B091FE002FBF80931501909352
:1017F0001601A0931701B0931801809119019091DF
:101800001A01880F991F880F991F8935924034F06B
:1018100046E950E050931A01409319018FB7F894AC
:101820004091FB005091FC006091FD007091FE0022
:101830008FBF8091150190911601A0911701B09171
:101840001801481B590B6A0B7B0B80911901909171
:101850001A01A6E9B0E0A81BB90BCD01880F991FAA
:10186000880F991F092E000CAA0BBB0B48175907AC
:101870006A077B0708F096CF80911C01811114C183
:1018800023DC8823E1F081E080931C0110911C018E
:10189000112379F068E372E084E190E0DEDB13303D
:1018A00009F4CEC018F5113009F481C0123009F4E2
:1018B00093C06EE170E080E090E050D6AFCFF6DBF1
:1018C000882319F0B0921C01E1CFE2DB882319F0E4
:1018D00000931C01DBCFB19903C0E0921C01D6CF6D
:1018E000B399D4CFB5E0B0931C01D0CF163008F730
:1018F00081E07DD79E012F5F3F4F62E2C62E61E0FF
:10190000D62E4601A22E432FF0E0E0E0CF011530A5
:1019100009F0B8C0880F991F880F991F8C0D9D1D65
:10192000DC0113965C91C9018E0F9F1FDC015C9353
:101930003196E430F10551F72C5F3F4FB1E0CB1AFF
:10194000D1085FEF851A950A22153305E9F684E17F
:10195000E2E2F1E0AFEFB0E001900D928A95E1F79D
:1019600080E1EA2DF42FA2E2B1E001900D928A9578
:10197000E1F7ADD7882309F48EC084E1EFEFF0E002
:10198000A2E2B1E001900D928A95E1F780E02FD7B5
:101990004091320150913301809134019091350191
:1019A0009A012C5F3F4FBC016C5F7F4F13C081E0F9
:1019B0001ED73BD880E01BD74091320150913301B4
:1019C00080913401909135019A012C5F3F4FBC0109
:1019D0006B5F7F4FCDD96DCF81E009D784E1E2E223
:1019E000F1E0AFEFB0E001900D928A95E1F78091C0
:1019F0003401909135010196909335018093340123
:101A000066D78823D9F084E1EFEFF0E0A2E2B1E0FD
:101A100001900D928A95E1F780E0E9D6409132017C
:101A20005091330180913401909135019A012C5FDE
:101A30003F4FBC016C5F7F4F0197CCCFEED7ECCF0F
:101A400027DB882309F435CF81E0D1D697DB80E00E
:101A5000CED6409132015091330180913401909162
:101A600035019A012B5F3F4FBC016C5F7F4F80D9DE
:101A70006AE070E080E090E071D580911F018823DA
:101A8000F9F2CCCE6CEF7FEFE4D1880D991DDC012B
:101A90001C965C9148CF81E0DFD57DD7882309F47F
:101AA00075CF80E0D9D572CF0FDB811102CFFEDA7E
:101AB0008111FFCEEDDA8111FCCEB19BFACEB39B42
:101AC000F8CE10921C01F5CE2FDA90E080E03BD1E9
:101AD000909314018093130160911D0170911E0178
:101AE0008617970744F4709314016093130190E0F4
:101AF00080E03CD1F12EDDD94CE950E068E581E091
:101B000064DA43EA50E060E381E05FDAC0901D01EF
:101B1000D0901E0120E040E550E061E070E0C60199
:101B20004CD9A0901301B090140120E048E250E09D
:101B300061E070E0C50141D910E000E0B80182E346
:101B400090E08BDA0E5C1F4F083E83E01807B1F778
:101B500014E021E040E550E061E070E0C6012DD9DD
:101B6000FF2039F021E048E250E061E070E0C5017B
:101B700024D968EC70E080E090E0F0D420E040E50B
:101B800050E061E070E0C60118D9FF2039F020E094
:101B900048E250E061E070E0C5010FD968EC70E008
:101BA00080E090E0DBD41150A1F668EB7BE080E0B0
:101BB00090E0D4D4B9D98EEAACD9379885B7877E6E
:101BC000806185BF85B7806285BF85B7806285BF2C
:101BD000889585B78F7D85BF85B78F7D85BF379AFF
:101BE0008FEA97D980E090E0892B09F465CC08D280
:101BF00061CC8F929F92AF92BF92CF92DF92EF9281
:101C0000FF92CF93DF93EC01688179818A819B8178
:101C1000611571058105910521F464E279ED8BE58B
:101C200097E02DE133EF41E050E0CCD049015A017B
:101C300027EA31E440E050E0ACD06B017C012CEEAF
:101C400034EF4FEF5FEFC501B401A3D0C60ED71E2E
:101C5000E81EF91EF7FE06C081E0C81AD108E108A7
:101C600080E8F80AC882D982EA82FB82C701B601FD
:101C70009F77DF91CF91FF90EF90DF90CF90BF9053
:101C8000AF909F908F9008958F929F92AF92BF9246
:101C9000CF92DF92EF92FF926091600070916100AD
:101CA0008091620090916300611571058105910535
:101CB00021F464E279ED8BE597E02DE133EF41E02B
:101CC00050E080D049015A0127EA31E440E050E079
:101CD00060D06B017C012CEE34EF4FEF5FEFC5015C
:101CE000B40157D0C60ED71EE81EF91EF7FE06C077
:101CF00081E0C81AD108E10880E8F80AC0926000C3
:101D0000D0926100E0926200F0926300C701B601D8
:101D10009F77FF90EF90DF90CF90BF90AF909F9014
:101D20008F900895609360007093610080936200CB
:101D3000909363000895E199FECF9FBB8EBBE09A1C
:101D400099278DB30895A8E1B0E042E050E013C0B8
:101D5000262FE199FECF1CBA9FBB8EBB2DBB0FB6C1
:101D6000F894E29AE19A0FBE01960895F1DF272FC9
:101D7000F0CFDC01CB01FC01E199FECF06C0FFBB37
:101D8000EEBBE09A31960DB20D9241505040B8F73B
:101D90000895EE27FF27AA27BB2708C0A20FB31F6D
:101DA000E41FF51F220F331F441F551F969587957B
:101DB0007795679598F37040A9F7009799F7BD015B
:101DC000CF010895052E97FB16F400940FD057FD10
:101DD00005D014D007FC02D046F408C050954095B9
:101DE000309521953F4F4F4F5F4F089590958095C7
:101DF000709561957F4F8F4F9F4F0895A1E21A2EE6
:101E0000AA1BBB1BFD010DC0AA1FBB1FEE1FFF1F9E
:101E1000A217B307E407F50720F0A21BB30BE40BEE
:101E2000F50B661F771F881F991F1A9469F7609535
:101E30007095809590959B01AC01BD01CF010895EF
:101E4000002480FD060E660F11F08695D1F7802DD7
:101E500008950024552704C0080E591F880F991FA4
:101E6000009729F076956795B8F37105B9F7802D3D
:101E7000952F089597FB072E16F4009406D077FD52
:101E800008D00BD007FC05D03EF4909581959F4F6C
:101E90000895709561957F4F0895AA1BBB1B51E172
:101EA00007C0AA1FBB1FA617B70710F0A61BB70BCA
:101EB000881F991F5A95A9F780959095BC01CD016F
:061EC0000895F894FFCF25
:101EC6000100000054455452495300417474696E30
:101ED6007900417263616465004D4F444500484195
:101EE6005244004E4F524D414C0047484F53540008
:101EF6004F4E004F464600474F4C4400594F552E13
:0A1F06002E2E002E2E2E544F5000F8
:00000001FF
