:1000000045C15FC197C35DC15CC14AC35AC159C1F3
:1000100058C157C156C155C154C153C152C1AE2078
:1000200000B0C8001040813FA1A6A83FA4D300D5CE
:10003000F0D922DA12DB208D14AF0000000000009E
:100040000000002F000000000700070000147F14CC
:100050007F1400242A7F2A120062640813230036CA
:100060004955225000000503000000001C224100F9
:10007000000041221C000014083E08140008083E3D
:100080000808000000A06000000808080808000038
:1000900060600000002010080402003E5149453E07
:1000A0000000427F40000042615149460021414525
:1000B0004B31001814127F10002745454539003C8C
:1000C0004A4949300001710905030036494949365A
:1000D00000064949291E0000363600000000563649
:1000E000000000081422410000141414141400002D
:1000F0004122140800020151090600324959513EBB
:10010000007C1211127C007F49494936003E414172
:100110004122007F4141221C007F49494941007F23
:1001200009090901003E4149497A007F0808087F12
:100130000000417F4100002040413F01007F081442
:100140002241007F40404040007F020C027F007F40
:100150000408107F003E4141413E007F0909090625
:10016000003E4151215E007F091929460046494958
:1001700049310001017F0101003F4040403F001F25
:100180002040201F003F4038403F006314081463A4
:1001900000070870080700615149454300007F418E
:1001A000410000552A552A55000041417F000004B6
:1001B00002010204004040404040000001020400EF
:1001C000002054545478007F484444380038444454
:1001D000442000384444487F0038545454180008E0
:1001E0007E0901020018A4A4A47C007F08040478FE
:1001F0000000447D4000004080847D00007F102886
:1002000044000000417F4000007C04180478007C1A
:100210000804047800384444443800FC242424189A
:100220000018242418FC007C0804040800485454D6
:10023000542000043F444020003C4040207C001CEF
:100240002040201C003C4030403C00442810284402
:10025000001CA0A0A07C004464544C44141414144A
:1002600014140000000036000000000038000202F4
:10027000020202020202020201020408102020040B
:1002800010080102000004000000000011241FBE3D
:10029000CFE5D2E0DEBFCDBF20E0A4EAB0E001C0F0
:1002A0001D92A63BB207E1F710E0A0E6B0E0ECE358
:1002B000FFE002C005900D92A43AB107D9F764D2CD
:1002C0003BC69ECEC298C098C29AC09A089530E0AC
:1002D00020E090E0AC01022E01C0440F0A94EAF73E
:1002E00047FF0CC0C09AC29AC2982F5F3F4F283078
:1002F000310581F7C09AC29AC2980895C098F3CF89
:10030000C29AC09AC098C2980895FADF88E7DFDFE2
:1003100080E4DDCFF5DF88E7DADF80E0D8CFCF9368
:10032000C82FF8DF8C2FD3DFCF91CCCF1F93CF9383
:10033000DF93182FC0EB8C2FF2DF80E0F0DF80E13D
:10034000EEDFE3DFD0E0812FC2DFDF5FD038D9F707
:10035000B9DFCF5FC83B79F7DF91CF911F91089547
:10036000EF92FF920F931F93CF93DF938C01F801CD
:10037000C1918F01CC23B9F0C8DFC0528C2F90E01F
:1003800066E070E0CED3D0E0C0E0865C9F4F7C0199
:10039000F701EC0FFD1F84919ADF2196C630D1053D
:1003A000B9F790DFE4CFDF91CF911F910F91FF90CC
:1003B000EF900895CF93DF93C82FD62FABDF80EB5C
:1003C0008D0F85DF8C2F82958F70806180DF8C2F61
:1003D0008E7081607CDFDF91CF9174CF0895823081
:1003E00089F018F4813051F00895833019F0843089
:1003F00009F008958CB58F7D8CBD08958AB58F77EF
:100400008ABD08958AB58F7DFBCF1F93CF93DF936D
:10041000E6E8F2E09491ECE7F2E0D491E2E7F2E072
:10042000C491CC23B1F0182F992311F0892FD7DF75
:10043000EC2FF0E0EE0FFF1FE859FD4FA591B491AE
:100440008FB7F894EC91111108C0D095DE23DC939E
:100450008FBFDF91CF911F910895DE2BF8CFEF92E0
:10046000FF920F931F93CF93DF937C010FE110E076
:1004700081E0CBDFD0E0C0E000002196EC16FD0665
:10048000D9F780E0C2DF90E080E000000196C81755
:10049000D907D9F70150110959F7DF91CF911F9171
:1004A0000F91FF90EF900895CF93DF93E3E8F2E090
:1004B0008491E9E7F2E0D491EFE6F2E0C491CC2335
:1004C00099F081118CDFEC2FF0E0EE0FFF1FEE5959
:1004D000FD4FA591B491EC91ED2381E090E009F4FA
:1004E00080E0DF91CF91089580E090E0FACF8650D0
:1004F00087B9369A3699FECF84B195B108950F9396
:100500001F93CF93DF93FC01048115810115110521
:1005100039F4FB011082DF91CF911F910F91089563
:100520000430110510F004E010E0EB01FC016081E3
:100530007181A801CE01F1D4C00FD11F1882EBCF79
:10054000FC0180819181009709F098C308950F9371
:100550001F93CF93DF938C01EB01FC01808191818C
:100560000097D1F06881798161157105A1F0428110
:1005700053812C813D814217530768F0C7D48C8189
:100580009D81F801958384831D821C82DF91CF9128
:100590001F910F91089572D388819981F8019183F9
:1005A00080838A819B81938382838C819D819583C3
:1005B0008483198218821B821A82E6CFEF92FF92FF
:1005C0000F931F93CF93DF93EC017B018A01888106
:1005D0009981009729F02A813B812417350780F4FF
:1005E000B8016F5F7F4FD3D3009789F099838883D9
:1005F0001B830A832C813D81232B11F4FC01108283
:100600001D830C83B7018881998180D40BC08881B8
:100610009981009709F032D3198218821D821C82B9
:100620001B821A82CE01DF91CF911F910F91FF9013
:10063000EF900895EF92FF920F931F93CF93DF9364
:10064000CDB7DEB762970FB6F894DEBF0FBECDBF51
:100650008C01CB01F8011182108213821282158263
:1006600014824AE09E012F5F3F4F7901B901EFD11B
:10067000F70101900020E9F73197AF014E195F09AA
:10068000B701C8019BDF62960FB6F894DEBF0FBEBC
:10069000CDBFDF91CF911F910F91FF90EF90089503
:1006A0001F920F920FB60F9211242F933F938F93A7
:1006B0009F93AF93BF938091A9009091AA00A091BE
:1006C000AB00B091AC003091A80023E0230F2D3790
:1006D00058F50196A11DB11D2093A8008093A90093
:1006E0009093AA00A093AB00B093AC008091A400BB
:1006F0009091A500A091A600B091A7000196A11D20
:10070000B11D8093A4009093A500A093A600B09380
:10071000A700BF91AF919F918F913F912F910F9023
:100720000FBE0F901F90189526E8230F0296A11D6B
:10073000B11DD2CF1F920F920FB60F9211242F939B
:100740008F939F93AF93BF9381E08093B1002FB7B6
:10075000F8948091A9009091AA00A091AB00B0916B
:10076000AC002FBF8093AD009093AE00A093AF007C
:10077000B093B000BF91AF919F918F912F910F9047
:100780000FBE0F901F901895CF93DF93CDB7DEB7B4
:1007900067970FB6F894DEBF0FBECDBF78948AB5C9
:1007A00082608ABD8AB581608ABD83B7826083BF5B
:1007B00083B7816083BF89B7826089BF80B7826059
:1007C00080BF80B7816080BF329A319A309A379A61
:1007D0008CB580648CBD80E187BB82E085BB8BB724
:1007E00080628BBF2FEF83EF91E0215080409040DB
:1007F000E1F700C00000B89ABA9A0EE110E0F801E3
:1008000084918DDD0F5F1F4FF0E00A331F07B9F7AA
:1008100010E000E0FF24FA948F2D90E0002E02C03B
:10082000959587950A94E2F7F82E80957FDD2FEF56
:1008300081EE94E0215080409040E1F700C000003C
:100840000F5F1F4F0430110539F780E06FDD00E0C6
:1008500010E08BE0E9E9F0E0DE01119601900D92E5
:100860008A95E1F71B8A1A8A1D8A1C8A1F8A1E8AAA
:1008700050E040E063EA70E0CE0142969FDE60E027
:1008800080E098DD86E690E06BDD62E080E092DD5E
:1008900084E790E065DD08DEBC01CE010C96CADE7F
:1008A000BE01645F7F4FCE01429651DECE010C96B1
:1008B00047DEBE016F5F7F4FCE01429620DE62E0D1
:1008C0008CE378DD8EE990E04BDD62E08CE372DD55
:1008D000CE01019645DD8091B100882351F162E09F
:1008E0008AE568DD89E790E03BDD2FB7F8948091D9
:1008F000A9009091AA00A091AB00B091AC002FBFCD
:100900004091AD005091AE006091AF007091B00089
:10091000841B950BA60BB70B8D329140A105B10539
:1009200040F062E08AE546DD8DE790E019DD109247
:10093000B10063E080E03EDD81E890E011DD86E01B
:10094000D6DDBC01CE010C9675DEBE01645F7F4F23
:10095000CE014296FCDDCE010C96F2DDBE016F5F4A
:100960007F4FCE014296CBDD63E08CE323DD8EE941
:1009700090E0F6DC63E08CE31DDDCE010196F0DC57
:1009800064E080E017DD86E890E0EADC89E0AFDD36
:10099000BC01CE010C964EDEBE01645F7F4FCE01DE
:1009A0004296D5DDCE010C96CBDDBE016F5F7F4F49
:1009B000CE014296A4DD64E08CE3FCDC8EE990E09D
:1009C000CFDC64E08CE3F6DCCE010196C9DC66E0A6
:1009D00080E0F0DC8BE890E0C3DC66DD892B49F435
:1009E00080E991E03CDD8CE291E039DD84E690E045
:1009F00036DD86E07CDD863B93404CF488EC90E06D
:100A00002EDD8CE291E02BDD80E991E028DD89E0AC
:100A10006EDD863B93404CF48CE291E020DD80E972
:100A200091E01DDD88EC90E01ADD8FEF90E7E2E0C9
:100A300081509040E040E1F700C00000CE014296B6
:100A40007FDD0115110509F404CFDADA02CFBB27E7
:100A50004A3031F4992322F4BDE2909581959F4F5D
:100A600001C0BB27FB015527AA27880F991FAA1F82
:100A7000A41710F0A41B83955051B9F7A05DAA33B9
:100A800008F0A95DA193009779F7B111B193119284
:100A9000CB0100C0DC01FC01672F71917723E1F7E6
:100AA000329704C07C916D9370836291AE17BF073B
:100AB000C8F308952F923F924F925F926F927F9268
:100AC0008F929F92AF92BF92CF92DF92EF92FF925E
:100AD0000F931F93CF93DF93CDB7DEB7CA1BDB0B0A
:100AE0000FB6F894DEBF0FBECDBF09942A883988AF
:100AF00048885F846E847D848C849B84AA84B984B6
:100B0000C884DF80EE80FD800C811B81AA81B981C1
:100B1000CE0FD11D0FB6F894DEBF0FBECDBFED01D5
:100B200008950024552704C0080E591F880F991FE7
:100B3000009729F076956795B8F37105B9F7802D80
:100B4000952F08950F931F93CF93DF9382309105D4
:100B500010F482E090E0E091B400F091B50030E054
:100B600020E0B0E0A0E0309799F42115310509F4B8
:100B70004AC0281B390B24303105D8F58A819B8166
:100B80006115710589F1FB0193838283FE0111C018
:100B9000408151810281138148175907E0F04817BD
:100BA000590799F4109761F012960C9312971396C7
:100BB0001C933296CF01DF91CF911F910F91089531
:100BC0000093B4001093B500F4CF2115310551F016
:100BD0004217530738F0A901DB019A01BD01DF017B
:100BE000F801C1CFEF01F9CF9093B5008093B40025
:100BF000CDCFFE01E20FF31F819391932250310973
:100C000039832883D7CF2091B2003091B300232BB2
:100C100041F420916200309163003093B30020933F
:100C2000B20020916000309161002115310541F43E
:100C30002DB73EB74091640050916500241B350BE1
:100C4000E091B200F091B300E217F307A0F42E1B7D
:100C50003F0B2817390778F0AC014E5F5F4F241720
:100C6000350748F04E0F5F1F5093B3004093B2001A
:100C7000819391939FCFF0E0E0E09CCFCF93DF93FF
:100C80000097E9F0FC01329713821282A091B40020
:100C9000B091B500ED0130E020E01097A1F4208183
:100CA0003181820F931F2091B2003091B300281739
:100CB000390709F061C0F093B300E093B200DF910F
:100CC000CF910895EA01CE17DF07E8F54A815B81ED
:100CD0009E0141155105B1F7E901FB83EA83499172
:100CE0005991C40FD51FEC17FD0761F480819181E4
:100CF0000296840F951FE9019983888382819381ED
:100D00009B838A83F0E0E0E012968D919C9113978B
:100D10000097B9F52D913C911197CD010296820F64
:100D2000931F2091B2003091B3002817390739F68C
:100D3000309751F51092B5001092B400B093B30003
:100D4000A093B200BCCFD383C28340815181840F72
:100D5000951FC817D90761F44E5F5F4F888199814D
:100D6000480F591F518340838A819B8193838283DB
:100D70002115310509F0B0CFF093B500E093B40030
:100D80009ECFFD01DC01C0CF13821282D7CFB0E02D
:100D9000A0E0ECECF6E090CE8C01009741F4CB01A2
:100DA000D1DE8C01C801CDB7DEB7E0E1A1CEFC01F8
:100DB000E60FF71F9C0122503109E217F30708F4F0
:100DC00099C0D901CD91DC911197C617D70790F042
:100DD000C530D10538F3CE0104978617970710F375
:100DE000C61BD70B2297C193D1936D937C93CF01F0
:100DF00045DFD8CF5B01AC1ABD0A4C018C0E9D1E9D
:100E0000A091B400B091B500512C412CF12CE12CF3
:100E1000109731F58091B2009091B3008815990533
:100E200009F05CC04616570608F058C08091600073
:100E300090916100009741F48DB79EB74091640096
:100E400050916500841B950BE817F90708F052C014
:100E5000F093B300E093B200F90171836083A2CFF5
:100E60008D919C91119712966C90129713967C908D
:100E70001397A815B90559F56C0142E0C40ED11CB1
:100E8000CA14DB0420F1AC014A195B09DA0112969D
:100E9000159780F06282738251834083D9016D93EC
:100EA0007C93E114F10471F0D7011396FC93EE9357
:100EB000129778CF22968C0F9D1FF9019183808322
:100EC000F301EFCFF093B500E093B4006BCF481679
:100ED000590608F42C017D01D3019ACFCB0132DEF3
:100EE0007C01009739F0AE01B80107D0C801C6DE19
:100EF000870158CF10E000E055CFFB01DC0102C0B4
:100F000001900D9241505040D8F70895FB01DC014B
:100F100001900D920020E1F70895FB01DC014150A2
:100F2000504048F001900D920020C9F701C01D9279
:0C0F300041505040E0F70895F894FFCFC6
:100F3C000000B6008000415474696E793835205435
:100F4C00657374005042313A00494E54002A2A2AE3
:100F5C00002041303A002041333A005072657373DF
:100F6C0020746F20426565700020202020202020F6
:040F7C002020200011
:00000001FF
