:1000000043C35DC35CC35BC35AC359C958C357C319
:1000100056C355C354C353C352C351C350C3FFFF48
:1000200001FF0101FFFFFF010101FF01FF01FF804F
:1000300001000100010001800100010001000180B8
:1000400001000100010001800100010001000180A8
:100050000100010001000180010001000100018098
:100060000100010001000180010001000100018088
:100070000100010001000180010001000100018078
:1000800001000100010001FFFFDBDBDBDBDBDBDB71
:10009000DBDBDBDBDBDBDBDBDBDBDBDBDBDBDBDBB0
:1000A000DBDBDBDBDBDBDBDBDBDBDBDBDBDBDBDBA0
:1000B000DBDBDBDBDBDBDBDBDBDBDBDBDBDBDBDB90
:1000C000DBDBDBDBDBDBDBDBDBDBDBDBDBDBDBDB80
:1000D000DBDBDBDBDBDBDBDBDBDBDBDBDBDBDBDB70
:1000E000DBFFFFB656B6A6B656B6A6B656B6A6B649
:1000F00056B6A6B656B6A6B656B6A6B656B6A6B660
:1001000056B6A6B656B6A6B656B6A6B656B6A6B64F
:1001100056B6A6B656B6A6B656B6A6B656B6A6B63F
:1001200056B6A6B656B6A6B656B6A6B656B6A6B62F
:1001300056B6A6B656B6A6B656B6A6FFFF6D556D10
:100140002A6D556D2A6D556D2A6D556D2A6D556D4B
:100150002A6D556D2A6D556D2A6D556D2A6D556D3B
:100160002A6D556D2A6D556D2A6D556D2A6D556D2B
:100170002A6D556D2A6D556D2A6D556D2A6D556D1B
:100180002A6D556D2A6D556D2A6D556D2A6D556D0B
:100190002A6D556D2AFFFF8A518A518A518A518AE8
:1001A000518A518A518A518A518A518A518A518A77
:1001B000518A518A518A518A518A518A518A518A67
:1001C000518A518A518A518A518A518A518A518A57
:1001D000518A518A518A518A518A518A518A518A47
:1001E000518A518A518A518A518A518A518A51FFC2
:1001F000FF82148214821482148214821482148264
:10020000148214821482148214821482148214823E
:10021000148214821482148214821482148214822E
:10022000148214821482148214821482148214821E
:10023000148214821482148214821482148214820E
:10024000148214821482148214FFFF2004200420DC
:10025000042004200420042004200420042004207E
:10026000042004200420042004200420042004206E
:10027000042004200420042004200420042004205E
:10028000042004200420042004200420042004204E
:10029000042004200420042004200420042004203E
:1002A000042004FF0101010101010101010101011B
:1002B000010101010101010101010101010101012E
:1002C000010101010101010101010101010101011E
:1002D000010101010101010101010101010101010E
:1002E00001010101010101010101010101010101FE
:1002F00001010101010101010101010101011901D6
:100300008092A5A9928081BF8181BE8585BE80BF74
:100310008585BA8081BF8181800801001C7E3E3EB8
:100320007E3400001C3E7E3E7E3400001C3E7E3E3D
:100330003E7400003C7E3E7E7C2400003C7E3E7E7F
:100340007C2800003C7E3E7E7C480000347E3E3EA1
:100350007E1C0000347E3E7E3E1C0000743E3E7ECD
:100360003E1C00003C7E7C7E3E2400003C7E7C7E69
:100370003E1400003C7E7C7E3E1200003C7E7E7E71
:100380007E3C00003C787070783C00003870606003
:100390007038000020404040402000000000000075
:1003A000000000080100187C743C745800000C7EAA
:1003B0005A1E7A4C000018343C1C341800001C32C1
:1003C0003E1E321C000EFFFDD91FFDF9CE005874F1
:1003D0003C747C1800004C7A1E5A7E0C00001834C5
:1003E0003C1C341800001C323E1E321C00CEF9FDAD
:1003F0001FD9FDFF0E20303C7C7A7E742420303ED5
:100400007E757772224729321414322947385652A2
:10041000A4A4525638787EFEF5F7F3F25224747E87
:100420007A7C3C3020227277757E3E30204729321C
:100430001414322947385652A4A452563852F2F3B3
:10044000F7F5FE7E78040102020404000C03003874
:100450003838003838380038383800383838002311
:100460000400FCFAFA02FAFAFEFEEE0AFEFEFE06AE
:10047000F6F6F60EFE06FEFEFE06FEFC000000008E
:10048000000000000001C3C3A2E3434303FBFE0FCF
:10049000EFEFDE3FFF0FEEEFDF36F636F8FFFB380B
:1004A000F818E8E8E8D8F002030307070707020096
:1004B0000F9FD0D7D7DB9C1F1017171B1C1F1817B7
:1004C0001717905FD857D696180F0000000000004D
:1004D00000000000030F07070F06000202010102DF
:1004E0000404020000090F030B0F01000004017C4B
:1004F000447C00007C000074545C0044547C001C6C
:10050000107C005C5474007C54740004740C007CF7
:10051000547C005C547C00000000003700AE2000DA
:10052000B0C8001040813FA1A6A83FA4D300D5F0D9
:10053000D922DA12DB208D14AFFFCFFFFFCFFF836C
:10054000CFFF83CFFFFFCFFFFFCFFFFF03FFFF03EF
:10055000CFFFFFCFFFFFCFFFFFCFFFFFFFFFCFFF9B
:10056000FFCFFF83CE0F83CE0FFFCFFFFFCFFFFF65
:1005700003FFFF03CFFFFFCFFFFFCFFFFFCFFFFF43
:10058000FFFFCFFFFFCFFFCFCF83CFCF83CFCFFFF3
:10059000CFCFFFCF03FFFF03CFFFFFCFFFFFCFE0A2
:1005A000FFCFE0FFFFFFCF9FFFCF9FCFCF83CFCF06
:1005B00083C1CFFFC1CFFFCF000FFF000FFFFFCFE1
:1005C000FFFFCFE0FFCFE0FFFFFFCFFFFFCFFF83B5
:1005D000CF8383CF83CFCFFFCFCFFFCF03FFCF0317
:1005E000CFCF3FCFCF3FCFC03FCFC03FFFCFCFFF19
:1005F000CFCFFF83CF8383CF83FFCFCFFFCFCFFC7E
:1006000003CFFC03CFFCFFCFFCFFCFC0FFCFC0FF69
:10061000FFFFFFF3FFFFF3800FC3800FC3FFCFFF88
:10062000FFCFFF0303CF0303CF3FFF033FFF0300D1
:100630003FCF003FFF1C10005C28015C10002430FD
:10064000010101000001010100010101010101019D
:10065000010101010101010101010101010000008D
:10066000003600000000003800020202020202020E
:1006700002020201020408102020041008010200F6
:10068000000400000000000011241FBECFE5D2E0EE
:10069000DEBFCDBF10E0A0E6B0E0ECEFFFE102C0AE
:1006A00005900D92A236B107D9F720E0A2E6B0E09E
:1006B00001C01D92AC3FB207E1F74BD69DCCA0CC58
:1006C000FC01DB018C9188502081245130E035956C
:1006D0002795359527952083082E000C990B959525
:1006E0008795959587958C930895C298C098C29ADE
:1006F000C09A089530E020E090E0AC01022E01C0E5
:10070000440F0A94EAF747FF0CC0C09AC29AC298F5
:100710002F5F3F4F2830310581F7C09AC29AC298A7
:100720000895C098F3CFC29AC09AC098C29808950D
:10073000CF93C82FF8DF88E7DDDF80E0DBDF8C2F89
:10074000D9DFCF91D2CF823089F018F4813051F0C7
:100750000895833019F0843009F008958CB58F7DA9
:100760008CBD08958AB58F778ABD08958AB58F7D2F
:10077000FBCF1F93CF93DF93E1E8F6E09491E7E797
:10078000F6E0D491EDE6F6E0C491CC23B1F0182F59
:10079000992311F0892FD7DFEC2FF0E0EE0FFF1F28
:1007A000ED59F94FA591B4918FB7F894EC911111CF
:1007B00008C0D095DE23DC938FBFDF91CF911F91CE
:1007C0000895DE2BF8CFCF93DF93EEE7F6E0849128
:1007D000E4E7F6E0D491EAE6F6E0C491CC2399F0A0
:1007E0008111B1DFEC2FF0E0EE0FFF1FE35AF94F5C
:1007F000A591B491EC91ED2381E090E009F480E0C3
:10080000DF91CF91089580E090E0FACFCF93DF930E
:1008100090E0FC01ED58F94F24918759994FFC0164
:1008200084918823D1F090E0880F991FFC01E95E44
:10083000FA4FA591B491FC01ED59F94FC591D491AE
:1008400061110EC09FB7F8948C91E22FE0958E2332
:100850008C932881E223E8839FBFDF91CF91089595
:100860008FB7F894EC91E22BEC938FBFF6CF8650C4
:1008700087B9369A3699FECF84B195B10895CF9253
:10088000DF92EF92FF920F93CF93DF93F701C49122
:100890003196E491A42FB0E0C82E880FDD08D0E097
:1008A000AE01415051094C0D5D1D4A175B078CF19B
:1008B000AC15BD0574F1822F90E0062E000C770B6D
:1008C0008617970734F1F0E09F0121503109260F78
:1008D000371F28173907ECF0861B970BBE0167DB23
:1008E000AC19BD09A80FB91FCE01BF0160DB602F95
:1008F00070E05DDBFD01E80FF91F3296EE0DFF1D84
:100900008491DF91CF910F91FF90EF90DF90CF9086
:10091000089580E0F6CFDF92EF92FF920F931F933E
:10092000CF93DF93182FD62ED42F8DEEE82E84E0B0
:10093000F82E00916900262F412F67E085E58D0F85
:100940009EDFC82F009168002D2D412F67E089E5BB
:100950008D0F95DFC82B009167002D2D412F67E08B
:100960008DE58D0F8CDFC82B009166002D2D412F5A
:1009700067E081E68D0F83DFC82B009165002D2D88
:10098000412F67E085E68D0F7ADFC82B00E02D2D23
:10099000412F67E089E68D0F72DF8C2BDF91CF91BD
:1009A0001F910F91FF90EF90DF9008959DEE980FAB
:1009B0009A3578F4282F2351330BF901862F90E0D4
:1009C0006AE570E0F4DAE80FF91FE25DFF4F849109
:1009D000089580E00895AF92BF92CF92DF92EF9298
:1009E000FF920F931F93CF93DF93362FF701C4909D
:1009F0003196E491D12CA42FB0E0A82E880FBB082B
:100A0000C60101978A0D9B1D8A179B070CF466C0CF
:100A1000AA15BB050CF462C0462F660F550B83E088
:100A2000559547958A95E1F7622F70E06417750731
:100A30000CF454C08E2F90E0FC01E40FF51FE61774
:100A4000F7070CF44BC0B601B2DAEC012196602F27
:100A500070E0ADDA8C01241B3770AA19BB09822F14
:100A6000022E000C990BB601A2DAAC01FD01E80FD1
:100A7000F91F329680E0CE17DF0750F0E00FF11F2C
:100A8000EE0DFF1D8491032E01C0880F0A94EAF732
:100A90001216CCF44C195D09A40FB51F1296F8017B
:100AA000EA0FFB1FEE0DFF1DE491CA17DB0758F09C
:100AB000F0E048E050E0431B510902C0F595E7958E
:100AC0004A95E2F78E2BDF91CF911F910F91FF9006
:100AD000EF90DF90CF90BF90AF90089580E0F3CF7C
:100AE0009091E800943030F49F5F9093E8008093F9
:100AF000E90008951092E8009091E700923020F408
:100B00009F5F9093E700F3CF90E0FBCFE09162000E
:100B1000EF3054F4EF5FE09362000E2E000CFF0BF9
:100B2000E25EFF4F84910895E0E0F5CF282F8631F3
:100B300018F56C3008F5E82F880FFF0B83E0F5956A
:100B4000E7958A95E1F7862F660F990B63E070E0D1
:100B50002EDA81599F4FE80FF91F922F977020E8E6
:100B600030E002C0359527959A95E2F7209580816F
:100B70002823208380E0089581E00895282F86317E
:100B800040F56C3034F567FD22C08770E0E8F0E096
:100B900002C0F595E7958A95E2F7022E000C330B1B
:100BA00083E0359527958A95E1F7862F660F990B97
:100BB00063E070E0FCD981599F4F280F391FD9019C
:100BC0008C9190E0E823F92381E0EF2B09F480E099
:100BD000089581E008952F923F924F925F926F9215
:100BE0007F928F929F92AF92BF92CF92DF92EF92BD
:100BF000FF920F931F93CF93DF9300D000D01F92EB
:100C0000CDB7DEB78A836B83342E2C83202E1092CF
:100C1000640010926300622E660C65ED862E60E023
:100C2000962E8C81821509F403C1805581DD80E008
:100C30007FDD80E17DDD77DD88E75CDD80E45ADD06
:100C400010926400109263009EEF960D99834424E5
:100C50004A94460CD12CC12CCD82EC2DE33170F49A
:100C600080E048DDFFEFCF1ADF0AC314A8F33DDDB3
:100C70008C818F5F8C8363946394D3CFFA818D8151
:100C8000F13099F18453883170F58C81873059F5B2
:100C90004FED67E08C2D3FDEB82E5FE5E52E54E08A
:100CA000F52E00E02C814D8162E08EE2E8DDB82A6D
:100CB0009B8180E0983048F44EEFE42E42E0F42E21
:100CC0002C814D8166E083E3DADD8B2913DDED8134
:100CD000E33141F280916400833008F0A1C08F5F5E
:100CE00080936400BFCFB12CD8CF8555883108F0F0
:100CF00073C0EC81E73009F06FC040E067E08C2DF5
:100D00000ADE782EFD816C8183E1F33129F08D813B
:100D10008C3608F463C06C8149DE182F29E1E22E7D
:100D200023E0F22E0091E6002C814D816091F400C9
:100D30008091F30050DE182B39E9A32E30E0B32E5A
:100D4000512CF5018481882359F093EAE92E93E030
:100D5000F92E05852C814D81618180813CDE582AE8
:100D6000FFE0AF0EB11C8A149B0459F7172980913C
:100D7000D900882309F450C0853009F44DC085E4BA
:100D8000E82E84E0F82E0091DA002C814D816091EC
:100D9000D6008091D5001FDEB82E8091DF00882319
:100DA00051F00091DA002C814D816091DC0080913E
:100DB000DB0011DEB82A15298C81873079F59D81F9
:100DC000933161F18091F200891740F1F601E55C01
:100DD000FB4F8491B12A79CF712C94CF9C8160E034
:100DE000992321F0EC81E73019F467E08D8194CFED
:100DF000B090630069818B2DC1DE1FE0813009F066
:100E000010E0642D8B2DBADE813009F4106F6C81F7
:100E10008D81CCDD182382CFB12CCDCF80E0DACF0D
:100E200010926400809163008F5F809363001ACFFB
:100E30000F900F900F900F900F90DF91CF911F9117
:100E40000F91FF90EF90DF90CF90BF90AF909F9069
:100E50008F907F906F905F904F903F902F9008956C
:100E6000EF92FF920F931F93CF93DF938091F10046
:100E7000823009F46AC008F05BC0882309F45FC0BF
:100E8000813009F460C02091EA003091EB00C90183
:100E900060E177E29DD8462F972F60936900862FF7
:100EA00060E177E284D88C01C901801B910B68EE68
:100EB00073E08ED8E62F972F60936800862F68EE38
:100EC00073E075D87C01C9018E199F09801B910BB5
:100ED00064E670E07DD8EB0160936700CB01992751
:100EE00064E670E064D8B901681B790BCB018E19F8
:100EF0009F09801B910B6AE070E06AD8862F60938F
:100F000066006AE04BD8281B8C2F64E647D8281B64
:100F10008E2F68EE43D8281B4295407F241B2093D8
:100F20006500DF91CF911F910F91FF90EF90089591
:100F3000833069F0843009F0A6CF82E201C083E1FA
:100F40008093F200A0CF87E1FBCF8BE1F9CF8FE157
:100F5000F7CF0F93E1EEF0E08185928501969287BD
:100F600081877EDF08E027E04DE660E081E033DE48
:100F70000F910895FF920F931F93CF93DF93082F44
:100F8000F62E10E0CFEFD0E0C81BD109002311F0FE
:100F900081E0EFDB80E08C171D0634F495E09A9534
:100FA000F1F700008F5FF7CF80E0E3DB80E08C1784
:100FB0001D0634F495E09A95F1F700008F5FF7CFA6
:100FC0001F5FF112E3CFDF91CF911F910F91FF903F
:100FD000089561E088ECCECF1F93CF93DF9300D0CC
:100FE000CDB7DEB79091F80080916000282F30E0F7
:100FF000290F311D97FD3A9522333105ECF18253CB
:10100000890F8093F8008091F3008F5F8093F30045
:1010100080E066DD8091F30085363CF084E68093C5
:10102000F3001092FA001092F80081E08093F5002E
:101030008091F300895F8A838091F4008983BE01E7
:101040006F5F7F4FCE0102963BDB69818A8196DD1F
:10105000182F8130A9F47DDF69818A8167DD69817C
:101060006F5F8A818BDD813069F473DF69816F5F27
:101070008A815CDDAEDF08C0890F8093F800C8CF9D
:1010800010E0EDCF1111F6CF0F900F90DF91CF91BF
:101090001F9108951F93CF93DF9300D0CDB7DEB794
:1010A0008091F80030916000282F231B082E000C3F
:1010B000990B831B91098F3C9F4FDCF52E5C20938D
:1010C000F8008091F30081508093F30082E008DD06
:1010D0008091F30084313CF484E18093F30010921A
:1010E000FA001092F8008FEF8093F5008091F300E2
:1010F0008A838091F4008983BE016F5F7F4FCE01A8
:101100000296DEDA69818A8139DD182F8130A1F4F7
:1011100020DF69818A810ADD69816F5F8A812EDD26
:10112000813061F416DF69816F5F8A81FFDC51DFF6
:1011300007C02093F800CACF10E0EECF1111F7CF0F
:101140000F900F90DF91CF911F9108951F93CF9330
:10115000DF9300D0CDB7DEB78091F9003091600009
:10116000282F231B082E000C990B831B91098F3C01
:101170009F4FD4F52E5C2093F9008091F4008150AC
:101180008093F40083E0ACDC8091F40087FF06C01C
:101190001092F4001092FB001092F9008FEF8093F0
:1011A000F6008091F3008A838091F4008983BE0168
:1011B0006F5F7F4FCE01029683DA69818A81DEDC20
:1011C000182F8130A1F4C5DE69818A81AFDC8A8164
:1011D00069818F5FD3DC813061F4BBDE8A816981F4
:1011E0008F5FA4DCF6DE07C02093F900CBCF10E0C0
:1011F000EECF1111F7CF0F900F90DF91CF911F918C
:1012000008951F93CF93DF9300D0CDB7DEB79091B1
:10121000F90080916000282F30E0290F311D97FDE3
:101220003A9522333105ECF18253890F8093F9000E
:101230008091F4008F5F8093F40081E051DC809115
:10124000F40081333CF080E38093F4001092FB00C3
:101250001092F90081E08093F6008091F3008A8378
:101260008091F400895F8983BE016F5F7F4FCE015B
:10127000029626DA69818A8181DC182F8130A9F4EF
:1012800068DE69818A8152DC8A8169818F5F76DCC0
:10129000813069F45EDE8A8169818F5F47DC99DE87
:1012A00008C0890F8093F900C8CF10E0EDCF11116D
:1012B000F6CF0F900F90DF91CF911F9108951F925D
:1012C0000F920FB60F9211242F933F938F939F93FA
:1012D000AF93BF938091950090919600A091970055
:1012E000B091980030916E0023E0230F2D3758F510
:1012F0000196A11DB11D20936E00809395009093DF
:101300009600A0939700B093980080916A00909106
:101310006B00A0916C00B0916D000196A11DB11DF4
:1013200080936A0090936B00A0936C00B0936D0063
:10133000BF91AF919F918F913F912F910F900FBED1
:101340000F901F90189526E8230F0296A11DB11D3E
:10135000D2CFCF93DF9300D0CDB7DEB778948AB5E4
:1013600082608ABD8AB581608ABD83B7826083BF8F
:1013700083B7816083BF89B7826089BF80B782608D
:1013800080BF80B7816080BF329A319A309A379A95
:101390008CB580648CBDB89ABA9A0DE115E0F8015D
:1013A0008491C6D90F5F1F4FF5E009331F07B9F7C6
:1013B00060E081E02BDA61E084E028DA60E086E03A
:1013C00025DA60E089E022DA10E04ADD08E020E07A
:1013D00040E8612F80E0FFDB2FEF39EF40E0215044
:1013E00030404040E1F700C000001E3008F0DDC092
:1013F0001F5FE9D9892B49F7E6D90197E9F766E933
:1014000084E1B8DD66E984E6B5DD1092EB00109268
:10141000EA001092ED0082E28093F20084E0809373
:10142000F10088EC8093E5008091ED0090E064E2AB
:1014300070E0BDD5BC016C5D7F4F4FE650E0481BAE
:10144000590BDA01A80FB91F30E020E08C01075CCE
:101450001A4FF801E20FF31FE491ED932F5F3F4F16
:1014600023303105B1F703968617970751F7DD242E
:10147000D394CC24C39466246394F2DC1092E100EC
:10148000C092E300C092E2001092E4001092EE00DD
:101490001092E6001092F0001092E7001092E8001F
:1014A0001092E9001092EC001092D9001092DF0027
:1014B0008CE38093F30080E28093F400C092F70005
:1014C0001092F600C092F5001092F8001092F90008
:1014D0001092FA001092FB0009E910E0F12CE12CC7
:1014E000F8011482E091ED00F0E0EE0FFF1FEE0F27
:1014F000FF1FEE0DFF1DEF5BF94FE491EE2311F19D
:10150000C70163E070E053D5FC01E95CF94FB4908A
:10151000FC01EA5CF94F24918B5C994FFC018491AA
:10152000F801D38615821682178210868083218364
:10153000EDDAF8018283EADAF8018383D482118636
:10154000B2861686FFEFEF1AFF0A015F1F4F24E0F5
:10155000E216F10409F0C4CF85E08093D90008E0D9
:1015600027E04DE660E081E036DB812C912C5401D0
:101570007090F00071107FC38091D900882319F01A
:10158000853009F065C086E072D9853F9140CCF086
:1015900086E06DD98E3E9240A4F4B8DA8091F400D2
:1015A000877029F419DD11E012C010E022CF80917C
:1015B000F6008F3F21F08130B1F723DEF4CFC6DD96
:1015C000F2CF86E054D98E3E9240CCF410E089E010
:1015D0004ED9853F914054F589E049D98E3E9240DD
:1015E00094F189E044D9863B93406CF58FDA809181
:1015F000F30087708430C1F504DE1E5F24C086E0EE
:1016000036D9863B934014F781DA8091F4008770D5
:1016100019F440DD14E0DBCF8091F6008F3F21F01C
:101620008130C1F7EEDDF6CF91DDF4CF89E01FD92F
:101630008E3E92408CF66ADA8091F3008770843097
:1016400049F484DD185F1630E9F0C0F41330D1F0AE
:1016500089E119C08091F5008F3F21F0813091F729
:10166000BBDCF0CF17DDEECF8091F5008F3F21F08E
:10167000813019F6B1DCC1CF0DDDBFCF193011F0CB
:101680001C3031F78DE08093600009E910E0FF2401
:10169000FA94F8018481882309F46AC1868581114E
:1016A00067C18181877009F03FC08385813009F06F
:1016B00080C082818F3F09F496C08130A9F5F8017E
:1016C00027804080E580F8E1FE150CF0BEC087EE73
:1016D0008E0DF801858381E0840D8083F80180817F
:1016E000895F8A8381818983BE016F5F7F4FCE01CD
:1016F0000296E6D759803A80652D832D3FDA8130F6
:1017000009F0A8C0F8018385882309F4AAC0F8016C
:1017100027824082E5828281813009F0ADC0F28269
:10172000F80180814812D486F80180818770843066
:1017300009F01EC1F8018385813009F0BEC08381A4
:101740008F3F09F4D3C0813009F012C1F801208421
:101750005180E680F8E1FE150CF0F2C087EE8E0DA8
:10176000F801868381E0850D8183F80180818A8379
:101770008181895F8983BE016F5F7F4FCE010296B1
:101780009FD739804A80632D842DF8D9813009F0A4
:10179000DCC0F8018385882309F4DEC0F8012086C7
:1017A0005182E6828381813009F0E0C0F801F38242
:1017B000DFC02081822F8770843009F07ACF022E1B
:1017C000000C330B8091EE0081113CC08091F3003E
:1017D000082E000C990B281739070CF470CF8217CC
:1017E00093070CF0A7CFF80127804080E580F8EE42
:1017F000EF160CF044C089E18E0DF80185838FEF60
:10180000840D8083F80180818A8381818983BE0170
:101810006F5F7F4FCE01029653D759803A80652D76
:10182000832DACD9813081F5F8018385882391F12E
:10183000F80127824082E58282818130B1F5F8018A
:10184000F28234C084E190E0C6CF89E18E0DF801C8
:10185000858344CF61E0650D832D90D9813009F4F3
:1018600051CFF801808185360CF051CF87708430DC
:1018700019F04CD9F8018383F801D28251CF87EE59
:101880008E0DF8018583BECF61E0650D832D76D97D
:10189000813051F2F8018081843154F287708430B4
:1018A00071F234D9F8018383CACFD282F8018081E2
:1018B000481609F439CF148637CF2181822F8770DB
:1018C00009F03DCF022E000C330B8091EE00811108
:1018D00034C08091F400082E000C990B28173907AA
:1018E0000CF434CF821793070CF042C0F801208427
:1018F0005180E680F8EEEF160CF062C089E18E0DA3
:10190000F80186838FEF850D8183F80180818A83BA
:1019100081818983BE016F5F7F4FCE010296D0D651
:1019200039804A80632D842D29D9813009F04DC03A
:10193000F8018385811132CF4FC090E080E0CECF97
:1019400089E18E0DF801868310CF632D81E0840D2F
:1019500015D9813009F41DCFF801818181330CF054
:101960001DCF877019F0D2D8F8018283F801D38295
:10197000015F1F4FF0E0053D1F0709F08ACE8091FF
:1019800094008330A0F58F5F8093940029E9E22EC4
:1019900020E0F22E35E0532EF701128511111AE0E6
:1019A000F70186859385911102C0882399F18431CE
:1019B00040F58A3008F0AFC08111ABC080E02BC089
:1019C00087EE8E0DF8018683A0CF632D81E0840D14
:1019D000D5D8813009F4ACCFF801818187FDDECE06
:1019E000877009F4E3CE92D8F8018283DFCE81E0DC
:1019F00090919300911180E0809393001092940055
:101A0000C5CF8E3108F461C08E3109F460C0F70192
:101A1000858504C082E090919300890F180FF7012B
:101A20008485813009F079C080E0180FF7011587AF
:101A3000FFE0EF0EF11C25EDE21620E0F20609F0C2
:101A4000ABCFC1D6892B09F041C16092E3008091F0
:101A5000D90085300CF00FC18F5F8093D90061E011
:101A600084E688DA6CE088EC85DA1091E9001130C0
:101A700009F460C008F453C0123009F468C0133090
:101A800009F46BC08091D5008E5F8A838091D60067
:101A90008E5F8983BE016F5F7F4FCE01029610D6A5
:101AA0008091D90083300CF489C06092DF0011303E
:101AB00009F466C008F45CC0123009F4FCC01330AD
:101AC00009F4FDC080E090E059C084E0A7CFF701A1
:101AD0001686148207E020E04DE660E081E07BD8C6
:101AE00001E064E0802F46DA0B5F0536D1F75092B3
:101AF000D9008091EA009091EB0005969093EB005D
:101B00008093EA00ADD908E027E04DE660E081E08F
:101B100062D880E083CF81E081CF85E086CF1092CC
:101B2000DA008091F300885F8093D5008091F40003
:101B30008E5F0AC01093DA008091F3008E5F80936D
:101B4000D5008091F400885F8093D6009BCF1092DF
:101B5000DA008091F3008450E7CF6092DA00809140
:101B6000F3008E5F8093D5008091F4008450ECCF19
:101B70009091F300945F8091F4008E5F20E007C0A5
:101B80009091F3009E5F8091F400845F21E02093A8
:101B9000E0009093DB008093DC009E5F9A838E5F71
:101BA0008983BE016F5F7F4FCE01029689D569811F
:101BB0008A81E4D7813011F41092DF00E9E9F0E086
:101BC00070E08185813009F471E03F96EE15FF05E4
:101BD000C1F7E9E9F0E064E0A5EDB0E014968C917E
:101BE00014978823E9F184818823D1F18081082E1C
:101BF000000C990B2C912F5F022E000C330BA901C6
:101C00004F5F5F4F481759075CF10796821793079C
:101C10003CF18181082E000C990B11962C911197A3
:101C20002F5F022E000C330BA9014F5F5F4F481747
:101C30005907B4F007968217930794F0711101C009
:101C4000D1868185882361F034E03093D90071100A
:101C500007C086858E3108F48F5F8687772473945A
:101C6000169681EE90E08A179B0709F0B7CF615076
:101C70003F966111B1CF8091E1008230D0F58F5F46
:101C80008093E1008091EC00882309F441C0813009
:101C900009F499C08091EE00882309F409C18130CC
:101CA00009F425C181E09091EC00911180E08093CE
:101CB000EC002CD75DCC9091F30098505CCF9091C4
:101CC000F3009E5F8091F400885060CF8091E30024
:101CD000813089F61092D9001092DF001092E30053
:101CE0001092A2001092B1001092C0001092CF008A
:101CF000C2CF1092E10025ED30E0E9E9F0E0868501
:101D00008111815086873F962E173F07C1F7BACFC2
:101D10008091F000863020F4813018F1855F28C072
:101D2000863049F107E020E04DE660E081E053D7DE
:101D3000D501C401AC01BD01481959096A097B09E3
:101D40004234510561057105C0F42FB7F8948091B4
:101D5000950090919600A0919700B09198002FBFA8
:101D6000E9CF8091E90063E019D19091E700890FF4
:101D70008093E600D7CF80E1FBCF2091E2002130B5
:101D800059F4EFEFF3ED20E3E150F0402040E1F7AC
:101D900000C000001092E2002091F000263009F00F
:101DA00084C03FEF43ED80E3315040408040E1F795
:101DB00000C000008091F100882309F405CB815018
:101DC0008093F1005ACB8091E4008F5F8093E40010
:101DD0009091E5009817A8F41092E400E9E9F0E08A
:101DE00090E080E02481222309F458C0238521302B
:101DF00009F054C06FE070E0DAD087569F4FFC01C5
:101E0000138695EDE92E90E0F92E09E910E0F8012E
:101E100084818130E1F58685811139C08091F3009C
:101E20008F5F082E000C990B2081022E000C330BC3
:101E3000A901495F5F4F481759074CF10596821772
:101E400093072CF18091F4008F5F082E000C990B02
:101E50002181022E000C330BA901495F5F4F481707
:101E60005907ACF00596821793078CF088EC782E12
:101E700061E0872D7FD8FCEF7F0ED1F71092D9005B
:101E80001092DF008091F0008F5F8093F000015F7F
:101E90001F4FE016F10609F0BACFFCCE01963F962F
:101EA0008430910509F09ECFACCF4C015D01F2CE9C
:101EB000E9E9F0E030E020E080E09481913011F435
:101EC0002F5F382F8F5F3F968430B9F7213009F0AC
:101ED000E9CE832F90E06FE070E069D087569F4F86
:101EE000FC0113862093EE003093EF00DBCE2091AF
:101EF000EF0030E0C9016FE070E059D0FC01E75617
:101F0000FF4F8081843119F48181882351F0C90108
:101F10006FE070E04CD087569F4FFC0184818111A7
:101F2000C1CEC9016FE070E042D087569F4FFC01DF
:101F3000148207E020E04DE660E081E04CD620E02E
:101F40004DE660E081E047D611E064E0812F12D8D1
:101F50006FE080E00FD862E0812F80950BD8165F8C
:101F60001B3F99F7FFEF23ED30E3F1502040304065
:101F7000E1F700C000008091E5008D3058F08A50F4
:101F80008093E5008091ED00863030F48F5F809380
:101F9000ED004ACA8AE0F4CF82E0F9CF002480FD48
:101FA000060E660F11F08695D1F7802D0895002456
:101FB000552704C0080E591F880F991F009729F054
:101FC00076956795B8F37105B9F7802D952F08952B
:101FD000AA1BBB1B51E107C0AA1FBB1FA617B7074F
:101FE00010F0A61BB70B881F991F5A95A9F780956B
:0C1FF0009095BC01CD010895F894FFCF3E
:021FFC001900CA
:00000001FF
