:10000000E4C6FEC6FDC6FCC6FBC6ECC8F9C6F8C60B
:10001000F7C6F6C6F5C6F4C6F3C6F2C6F1C60000CA
:1000200000003700AE2000B0C8001040813FA1A6FC
:10003000A83FA4D300D5F0D922DA12DB208D14AF6B
:1000400000000000360060F6FF6F4658F0C01C3616
:100050003F5F773F1E3B386C5C7C383810601F7EFA
:1000600058B0E0E040401C3E7F7F7F361C001C3EC5
:100070007F037F361C001C3E0F030F361C0000223E
:100080006375773E1C0014367775773E1C001C3E66
:100090007F7D7F3E1C001C3E7F7F7F361C001C3E08
:1000A0007F607F361C001C3E786078361C001C3E4A
:1000B0007F7D7F3E1C001C3E7775773614001C3E0A
:1000C0007775632200002D7F7F5B7F7F3E005A7F24
:1000D0007F5B7F7F3E002D7F7F7F6D7F3E005A7F5D
:1000E0007F7F6D7F3E002D77416541413E005A770D
:1000F000416541413E002D77414153413E005A77D1
:10010000414153413E000000000024000000000077
:1001100000002400000000000000120000000000A9
:1001200000001200000000000000000000000000BD
:1001300000000000000000000000000000000000BF
:1001400000000000000000000000000000000000AF
:10015000000000000000000000000000000000009F
:10016000000000000000000000000000000000008F
:10017000000000000000000000000000000000007F
:10018000000000000000000000000000000000006F
:10019000000000000000000000000000000000005F
:1001A000000000000000000000000000000000004F
:1001B0000000000000000006060000000000000033
:1001C000020000000000000000020000000000002B
:1001D000000002000000000000000002000000001B
:1001E000000000000200000000000000000200000B
:1001F00000000000000002000000000000000002FB
:1002000000000000000000000002000000000000EC
:1002100000000002000000000000000000060600D0
:1002200000000000000000000000000000000000CE
:1002300000000000000000040000000000000000BA
:1002400000000000000000000004000000000000AA
:10025000000000000008000000000000000000088E
:100260000000000000000000000800000000000086
:100270000000000000000000000000000000000876
:100280000000000000000000000800000000000066
:100290000000000400000000000000000004000056
:1002A000000000000000000000000000000000004E
:1002B0000000000000000008000000000000000036
:1002C000080000000000000000080000000000001E
:1002D000000000000008000000000000000000080E
:1002E000000000000000000000000000000000000E
:1002F00000000000000000000000000000000008F6
:1003000000000000000000000008000000000000E5
:1003100000000008000000000000000000080000CD
:1003200000000000000000000000000000000000CD
:10033000000000000000002000000000000000009D
:10034000200000000000000000200000000000006D
:10035000000000000020000000000000000000205D
:10036000000000000000000000000000000000008D
:10037000000000000000000000000000000000205D
:10038000000000000000000000200000000000004D
:10039000000000200000000000000000002000001D
:1003A000000000000000000000000000000000004D
:1003B00000000000000000400000000000000000FD
:1003C00000000000000000000040000000000000ED
:1003D00000000000002000000000000000000020DD
:1003E00000000000000000000020000000000000ED
:1003F00000000000000000000000000000000020DD
:1004000000000000000000000020000000000000CC
:10041000000000400000000000000000004000005C
:1004200000000000000000000000000000000000CC
:1004300000000000000000C0C0000000000000003C
:1004400080000000000000000080000000000000AC
:10045000000080000000000000000080000000009C
:10046000000000008000000000000000008000008C
:10047000000000000000800000000000000000807C
:1004800000000000000000000080000000000000EC
:1004900000000080000000000000000000C0C0005C
:1004A000000000000000000000000000000000004C
:1004B000000000000000000000000000000000003C
:1004C000000000000000000000000000000000002C
:1004D000000000000000000000000000000000001C
:1004E000000000000000000000000000000000000C
:1004F00000000000000000000000000000000000FC
:1005000000000000000000000000000000000000EB
:1005100000000000000000000000000000000000DB
:1005200000000000000000000000000000000000CB
:10053000F8FC0CEC2C2C2C2C2C2C2C2C2C2C2C2CBF
:100540002C2C2C2C2C2C2C2C2C2C2C2C2C2C2C2CEB
:100550002C2C2C2C2C2C2C2C2C2C2C2C2C2C2C2CDB
:100560002C2C2E2E203E000000000000003E202EED
:100570002E2C2C2C2C2C2C2C2C2C2C2C2C2C2C2CB9
:100580002C2C2CEC0CEC2C2C2C2C2C2C2C2C2C2C4B
:100590002C2C2C2C2C2C2C2C2C2C2C2C2C2C2C2C9B
:1005A0002CEC0CFCF8000000000000000000000033
:1005B000FFFF00FF00000000000000E020A0A0A05E
:1005C000A0A0A020E000000000000000E0A0A0A08B
:1005D000A0A0A0A0A0A0A0A0A0A0A0A0A0A0A0A01B
:1005E000A0A0A0A0A0E000000000000000E020A06B
:1005F000A0A0A0A0A0A0A0A0A0A020E000000000BB
:10060000000000FF80BFA0A0A0A0A0A0A0A020E0AC
:1006100000000000000000E020E0000000000000FA
:1006200000FF00FFFF0000000000000000000000CD
:10063000FFFF00FF00000000000000FF80BFBFBF01
:10064000BFBFBF80FF0000000000000080808080EE
:10065000808000000000000000808080000000001A
:1006600000000080808000000000000000FF00FF0C
:10067000000000000000000000FF00FF000000007C
:1006800000000080808000000000000000FF80FF6C
:1006900000000000000000FF80FF000000000000DC
:1006A00000FF00FFFF00000000000000000000004D
:1006B000FFFF00FF8080808080808080808080803D
:1006C000808080808000000000000000FF00FEFEAF
:1006D00000FF000000000000001F101F00000000CD
:1006E000000000FF00FF00000000000000FF00FF0E
:1006F0000000000000000000000F080F00000000D4
:10070000000000FF00FF80808080808080808080EB
:100710000000000000000080808080808080808059
:1007200080FF00FFFF00000000000000000000004C
:10073000FFFF00FE020202020202020202020202A5
:10074000020202020300000000000000FF00FFFFA1
:1007500000FF00000000000000F010F000000000AA
:10076000000000FF00FF00000000000000FF00FF8D
:10077000000000000000000000E020E00000000099
:10078000000000FF00FE0202020202020202020357
:100790000000000000000003020202020202020246
:1007A00002FE00FFFF00000000000000000000004B
:1007B000FFFF00FF00000000000000FE02FAFAFA4E
:1007C000FAFAFA02FE000000000000000302020232
:1007D000020300000000000000030203000000000C
:1007E00000000003020300000000000000FF00FF03
:1007F000000000000000000000FF00FF00000000FB
:1008000000000003020300000000000000FE02FEE2
:1008100000000000000000FE02FE000000000000DA
:1008200000FF00FFFF0000000000000000000000CB
:10083000FFFF00FF000000000000000F080B0B0B83
:100840000B0B0B080F000000000000000E0A0A0A44
:100850000A0A0A0A0A0A0A0A0A0A0A0A0A0A0A0AF8
:100860000A0A0A0A0A0E000000000000000F080B26
:100870000A0A0A0A0A0A0A0A0A0B080F00000000FC
:10088000000000FE02FA0A0A0A0A0A0A0A0B080F06
:10089000000000000000000F080F00000000000032
:1008A00000FF00FFFF00000000000000000000004B
:1008B0003F7F606F686868686868686868686868CB
:1008C00068686868686868686868686868686868A8
:1008D0006868686868686868686868686868686898
:1008E0006868E8E808F800000000000000F808E880
:1008F000E8686868686868686868686868686868F8
:100900006868686F606F6868686868686868686861
:100910006868686868686868686868686868686857
:10092000686F607F3F0000000000000000000000D2
:10093000F0F81CCC2C2C2C2C2C2C2C2C2C2C2C2CD7
:100940002C2C2C2C2C2C2C2C2C2C2C2C2C2C2C2CE7
:100950002C2C2C2C2C2C2C2C2C2C2C2C2C2C2C2CD7
:100960002C2C2E2E201E000000000000001E202E29
:100970002E2C2C2C2C2C2C2C2C2C2C2C2C2C2C2CB5
:100980002C2C2CEC0CEC2C2C2C2C2C2C2C2C2C2C47
:100990002C2C2C2C2C2C2C2C2C2C2C2C2C2C2C2C97
:1009A0002CCC1CF8F000000000000000000000004B
:1009B000FFFF00FF00000000000000C020A0A0A07A
:1009C000A0A0A020C00000000000000040A0A0A047
:1009D000A0A0A0A0A0A0A0A0A0A0A0A0A0A0A0A017
:1009E000A0A0A0A0A04000000000000000C020A027
:1009F000A0A0A0A0A0A0A0A0A0A020C000000000D7
:100A00000000007F80BFA0A0A0A0A0A0A0A020C048
:100A100000000000000000C020C000000000000036
:100A200000FF00FFFF0000000000000000000000C9
:100A3000FFFF00FF000000000000007F80BFBFBF7D
:100A4000BFBFBF807F0000000000000000808080EA
:100A50008000000000000000000080000000000096
:100A600000000000800000000000000000FF00FF08
:100A7000000000000000000000FF00FF0000000078
:100A8000000000008000000000000000007F807F68
:100A9000000000000000007F807F000000000000D8
:100AA00000FF00FFFF000000000000000000000049
:100AB000FFFF00FF80808080808080808080808039
:100AC000808080800000000000000000FF00FEFE2B
:100AD00000FF000000000000000F100F00000000E9
:100AE000000000FF00FF00000000000000FF00FF0A
:100AF00000000000000000000007A8070000000040
:100B0000000000FF00FF8080808080808080800067
:100B100000000000000000008080808080808080D5
:100B200080FF00FFFF000000000000000000000048
:100B3000FFFF00FE020202020202020202020202A1
:100B4000020202020100000000000000FF00FFFF9F
:100B500000FF00000000000000E010E000000000C6
:100B6000000000FF00FF00000000000000FF00FF89
:100B7000000000000000000000C02AC000000000CB
:100B8000000000FF00FE0202020202020202020155
:100B90000000000000000001020202020202020244
:100BA00002FE00FFFF000000000000000000000047
:100BB000FFFF00FF00000000000000FC02FAFAFA4C
:100BC000FAFAFA02FC000000000000000102020232
:100BD000020100000000000000010201000000000E
:100BE00000000001020100000000000000FF00FF03
:100BF000000000000000000000FF00FF00000000F7
:100C000000000001020100000000000000FC02FCE6
:100C100000000000000000FC02FC000000000000DA
:100C200000FF00FFFF0000000000000000000000C7
:100C3000FFFF00FF0000000000000007080B0B0B87
:100C40000B0B0B080700000000000000040A0A0A52
:100C50000A0A0A0A0A0A0A0A0A0A0A0A0A0A0A0AF4
:100C60000A0A0A0A0A040000000000000007080B34
:100C70000A0A0A0A0A0A0A0A0A0B08070000000000
:100C8000000000FC02FA0A0A0A0A0A0A0A0B08070C
:100C9000000000000000000708070000000000003E
:100CA00000FF00FFFF000000000000000000000047
:100CB0001F3F70676868686868686868686868681F
:100CC00068686868686868686868686868686868A4
:100CD0006868686868686868686868686868686894
:100CE0006868E8E808F000000000000000F008E88C
:100CF000E8686868686868686868686868686868F4
:100D00006868686F606F686868686868686868685D
:100D10006868686868686868686868686868686853
:100D20006867703F1F007DFF7DFF6EFF6EFF5FFFF6
:100D30005FFF4BFF4BFF4BFF74FF74FF74FF74FFAB
:100D400064FF64FF64FF64FF7DFF7DFF7DFF7DFF27
:100D500073FF73FF7DFF7DFF8CFF8CFF78FF78FFB3
:100D600064FF64FF64FF7DFF7DFF7DFF7DFF73FFF8
:100D700073FF7DFF7DFF8CFF8CFF73FF73FF7DFF93
:100D80007DFF8CFF8CFF9BFF9BFF9BFFA5FFA5FFBB
:100D9000A5FFAAFFAAFFAAFFAAFFAAFFA5FFA5FF1A
:100DA000A5FFA5FFA5FFA5FFAAFFAAFFAAFFAAFF0F
:100DB000AAFF000000003800020202020202010243
:100DC0000408102001020000040011241FBECFE51A
:100DD000D2E0DEBFCDBF10E0A0E6B0E0E6EAFEE183
:100DE00002C005900D92A436B107D9F720E0A4E621
:100DF000B0E001C01D92AE37B207E1F73DD251C855
:100E0000FFC8C298C098C29AC09A089530E020E006
:100E100090E0AC01022E01C0440F0A94EAF747FFAC
:100E20000CC0C09AC29AC2982F5F3F4F283031053C
:100E300081F7C09AC29AC2980895C098F3CFC29A17
:100E4000C09AC098C2980895CF93C82FF8DF88E75A
:100E5000DDDF80E0DBDF8C2FD9DFCF91D2CFE8EC74
:100E6000FDE02491E2ECFDE09491ECEBFDE0E491F7
:100E7000EE23C1F0222329F02130A9F42AB52F77DF
:100E80002ABDF0E0EE0FFF1FEE54F24FA591B49192
:100E900081111AC08FB7F8942C91E92FE095E223C5
:100EA000EC938FBF0895223019F42AB52F7DE8CF37
:100EB000233021F420B72F7D20BFE3CF243009F762
:100EC0002CB52F7D2CBDDDCF8FB7F894EC91E92B9D
:100ED000E7CFCF93DF9387FF07C08F7769F181302A
:100EE00069F1823069F183E090E0FC01E254F24F55
:100EF00024918854924FFC0184918823D1F090E092
:100F0000880F991FFC01E25EFF4FA591B491FC018F
:100F1000EE54F24FC591D491611114C09FB7F8946B
:100F20008C91E22FE0958E238C932881E223E88335
:100F30009FBFDF91CF91089585E0D6CF82E0D4CFD7
:100F400084E0D2CF8FB7F894EC91E22BEC938FBF73
:100F5000F0CF8F7787B987B187B9369A3699FECFA8
:100F600084B195B108953FB7F8948091690090914C
:100F70006A00A0916B00B0916C0022B708B601FE28
:100F800005C02F3F19F00196A11DB11D3FBFBA2F1B
:100F9000A92F982F8827BC01CD01620F711D811DDB
:100FA000911D42E0660F771F881F991F4A95D1F760
:100FB0000895CF92DF92EF92FF92CF93DF936B0170
:100FC0007C01D1DFEB01CFDF6C1B7D0B683E7340F2
:100FD000A0F0C114D104E104F10439F4DF91CF9100
:100FE000FF90EF90DF90CF90089581E0C81AD1086C
:100FF000E108F108C851DC4FE6CFC114D104E10487
:10100000F10409F7EBCFCF93DF93282FDB01842F77
:1010100090E06AE070E034D7A80FB91F1696CC9123
:1010200016972C1708F45AC0D0E030E0CE0107968E
:10103000821793070CF452C0442309F44CC0119654
:101040008C911197E0E2F0E28130A9F080916E007E
:101050009AEF980F973048F08251873030F0909196
:101060006F0080917B008917B0F5F0917100F295C7
:10107000FF0FF07EE0E080917000811102C04423F8
:1010800031F112968C91129790E060E670E0F8D6FC
:101090002C1B3D0B280F391F8C9190E043E0880FEB
:1010A000991F4A95E1F7280F391F13968C9190E00C
:1010B00053E0880F991F5A95E1F7280F391F2F0F1A
:1010C000311DE20FF32FF11DEA59FF4F4491842F98
:1010D000DF91CF910895E0E0F0E0CDCF40E0F7CF91
:1010E0009F92AF92BF92CF92DF92EF92FF920F93B7
:1010F0001F93CF93DF93982EB42EA52EC42FD52FF8
:10110000D12CC12C062F10E088E0E82EF12C888528
:10111000082E000C990B80179107E9F44C2D6B2DCC
:101120007A2D892D70DF2F8101C0880F2A95EAF76B
:10113000D82AC3942A9655E0C512E9CF8D2DDF91A8
:10114000CF911F910F91FF90EF90DF90CF90BF90C4
:10115000AF909F90089501960817190751F78F8156
:10116000882339F34C2D6B2D7A2D892D4CDF90E09F
:101170002F81A701421B510902C0959587954A9579
:10118000E2F7D6CFFF920F931F93CF93DF93082FF1
:10119000F62E10E0CFEFD0E0C81BD1091F15E1F00B
:1011A000002311F081E05BDE80E08C171D0634F433
:1011B00095E09A95F1F700008F5FF7CF80E04FDE62
:1011C00080E08C171D0634F495E09A95F1F7000045
:1011D0008F5FF7CF1F5FE2CFDF91CF911F910F910C
:1011E000FF9008951F920F920FB60F9211242F9324
:1011F0003F938F939F93AF93BF938091650090919E
:101200006600A0916700B09168003091640023E00F
:10121000230F2D3768F126E8230F0296A11DB11D7B
:10122000209364008093650090936600A09367000C
:10123000B09368008091690090916A00A0916B0062
:10124000B0916C000196A11DB11D8093690090932F
:101250006A00A0936B00B0936C00BF91AF919F9117
:101260008F913F912F910F900FBE0F901F90189567
:101270000196A11DB11DD4CFCF93DF93CDB7DEB7BB
:10128000E8970FB6F894DEBF0FBECDBF83E08ABDEE
:1012900083BF789489B7826089BF80E48CBD8FEF6B
:1012A0008DBD87EC80BF86B1876886B9379AB89ABA
:1012B000BA9A04E210E0F8018491C6DD0F5F1F4F77
:1012C000F0E000341F07B9F760E081E002DE61E082
:1012D00084E0FFDD60E080E8FCDD60E083E8F9DDCC
:1012E0009E012F5F3F4F190182E3D9011D928A951C
:1012F000E9F7FE01B996FCABEBAB88EC80937C0080
:1013000083E080937D0010926F001092700082E75E
:10131000682E80E0782E8FEFD3018D933D01BBE7DF
:101320006B16B0E07B06C1F710926D0010926E0054
:1013300080917C00869580937B00E2E7F0E08FEF60
:1013400081936E167F06E1F70FE7802E912C1092A5
:1013500071001B8280E48F8383E0898795E0988702
:1013600082E08E838D831C8281E08D872CE4298B23
:1013700034E03B8B1C868F8B4BE44B8F9D8F1E8AFA
:1013800089A34DE44DA33FA318A28BA72FA799AB28
:101390001AA6EFEBFDE08491E9EBFDE0E491EE238A
:1013A00051F0F0E0EE0FFF1FE05CFF4FA591B4910C
:1013B000EC918E23A1F480917000811110C09CE407
:1013C000998B23E02B8B8BE48B8F84E08D8F3DE416
:1013D0003DA32FA39FA789AB81E0809370008091EC
:1013E00070008823C1F180E8B4DD8E3E9240BCF0ED
:1013F00080E8AFDD863B934094F41E8283E8A9DD4C
:101400008E3E9240CCF483E8A4DD853F9140DCF031
:1014100083E89FDD8E3E9240B4F41D8214C080E8C4
:1014200098DD853F914054F380E893DD8E3E9240F5
:101430002CF781E08E83E2CF83E88BDD863B9340FF
:1014400014F781E08D8380916F00823008F4CEC064
:10145000815080936F0080916E00883108F0CEC07B
:101460008F5F80936E0080917000810120E0FF24E7
:10147000F3948111C6C08101F12CF2E0DF2EBB2470
:10148000B394A7E0AA2EB6E05B2ED80116964C9036
:1014900016971896EC9018971796CC901797159664
:1014A0008C91B7E0BE1508F446C190916E0090FF94
:1014B00007C0FF2029F090917C00913A08F03BC1D1
:1014C000813009F015C1840DF80186838E2D0E2C14
:1014D000000C990B9695982F882797958795D8019A
:1014E0001696EC914E2F50E04A5F5F4FFC01E40FDF
:1014F000F51FEA5DFA4F2491FC01E40FF51FEA5550
:10150000FA4F84914C2D50E0F4010C2C01C0EE0FE9
:101510000A94EAF72E2361F428E030E0241B350B0F
:10152000F40102C0F595E7952A95E2F7E82369F002
:10153000FF2009F408C1EDD322E030E040E050E0A4
:1015400058D4F8016583F801468290916E00D80165
:1015500014968C9190FF07C0FF2029F090917C0099
:10156000913A08F068C1813009F0FBC0F801878129
:10157000873008F0ECC08F5F8783D80117968C9175
:10158000282F30E0833008F05CC1A82D01C0AA0FDD
:101590008A95EAF780E0F801208590E0820F911D9E
:1015A00027FD9A959695982F882797958795668118
:1015B00030E020E070E0AC01460F571F6A5D7A4FC3
:1015C000680F791FCA01820F931FE0E081159440D4
:1015D00020F4FB01E20FF31FE491EA2309F045C375
:1015E0002F5F3F4F2730310569F7F7C0813009F091
:1015F00032CF10926F00109271002DCF10926E00BA
:1016000032CF4F8150E0D80150968C91509790E0A6
:10161000BA016A5F7F4F681779070CF441C00696DC
:1016200084179507ECF14985042E000C550B73E0E7
:10163000440F551F7A95E1F78885480F511D529642
:101640008C915297082E000C990BBC01E3E0660FB9
:10165000771FEA95E1F751968C915197860F972F56
:10166000911DBA016A5F7F4F68177907CCF0069623
:1016700084179507ACF01B968C919091710099237B
:1016800061F0813031F064E684E17CDD64E682E083
:1016900079DDF801F38620E003C021E08130D9F341
:1016A000065F1F4F8BA99CA98017910709F0A9CF4E
:1016B000222309F4E0CE68EC84E664DD68EC8BE478
:1016C00061DD68EC82E35EDD68EC89E15BDD68EC9E
:1016D0008CE058DD60E971E080E090E06ADC8091A8
:1016E0007D00882309F409CE815080937D002FCEA0
:1016F000811121C0F1101AC08985833019F48F81BE
:10170000863529F08FEF840DD80116968C938E2D97
:101710000E2C000C990B9695982F882797958795F6
:10172000D8011696EC914E2F50E0E0CE8FEF840D4D
:10173000F8018683ECCF813009F4C8CE882339F3D1
:1017400080E020E0DFCED8011596DC92FCCE178237
:1017500080858F5F893011F080870FCF2FEF208732
:101760000CCF81113AC0D80117968C911797882316
:1017700009F455C0815017968C93D80117968C9117
:10178000A82D01C0AA0F8A95EAF7F8016085062EF8
:10179000000C770B7695762F66277795679586816F
:1017A00030E020E090E0AB01480F591F8A5D9A4F6E
:1017B000860F971FBA01620F731FE0E06115744036
:1017C00020F4FC01E20FF31FE491EA2309F04DC27B
:1017D0002F5F3F4F2730310569F790916E00492FF9
:1017E00041709801265F3F4FF11052C0411142C233
:1017F000F8018481813009F040C01382F8018581AD
:10180000813009F03EC089E0838389814A85411196
:10181000BDC0823008F060C08F5F89835EC0F80170
:10182000A782808581508E3F11F08087A6CFE8E0A7
:101830001896EC93A2CF882309F49FCF813069F6E4
:101840009CCE88E090E0821B930BD40102C0B5953A
:10185000A7958A95E2F781E09ECE5BD222E030E048
:1018600040E050E0C6D2D80114966C93D801189687
:10187000EC9218971796CC92B0CF8111BFCF5382BC
:10188000BDCF8111C2CFE3E0D8011396EC93BDCF59
:10189000992311F09C3059F4D80113961C92139798
:1018A00014968C911497811102C01396DC92F80162
:1018B0008181813049F486818A54833028F480857F
:1018C0008250833008F41182411107C0D8018C91F5
:1018D000811162C0BC9201C0BA86F3948901F5E01F
:1018E000FF12D3CD90FF5BC090E0E92FE695E6951F
:1018F000E6958E2F68EFBBD2890F20E830E002C05A
:10190000359527958A95E2F7F0E0EE58FF4F8081F4
:10191000822309F099C19E3309F0A5C112E001E0CC
:101920006AE0812F2FDC64E1802F811B2BDC1F5F9D
:101930001E33B1F768EE73E080E090E03ADB80910F
:101940007C008B3008F4F4CC8A5080937C00803A81
:1019500049F0883739F0803529F0883219F08A301B
:1019600009F0E6CC80917D00833008F0E1CC8F5FF8
:1019700080937D0064E680E505DC6CE271E080E048
:1019800090E017DBFA94F110F5CFD2CC882311F058
:10199000815043CF1A86A1CFF80110829ECF8FEFDE
:1019A00080936D0010E000E0C02E80EB800F4CDAD9
:1019B00080E04ADA80E148DA42DA88E727DA80E430
:1019C00025DAF12CE12CC8019695982F8827979558
:1019D00087959C012A5D364F3EAB2DABDC01AA5D9D
:1019E000BE4FB8AFAFAB2801B1E04B1A5108BE2CC7
:1019F000A0907000E0E8EE16F10409F404C1EDA92E
:101A0000FEA9EE0DFF1DAA2009F4F5C0D490A10196
:101A10006C2D8E2D65DBD82AEFA9F8ADEE0DFF1DDC
:101A2000A490A1101EC0A12CDA2880917D00C816B8
:101A300008F0A6C0F7E0FB1508F4A2C0F701E259D0
:101A4000FF4FE4918D2D8E2B25E0C21609F4B9C00D
:101A50002C1508F497C034E0C31609F4BFC0E0E0C9
:101A60009EC080916D00E1E0E80FE0936D00EE30E4
:101A700008F04CC0EC3018F4E23008F050C021E01F
:101A8000AE2FA695A695A6958A2F68EFF0D1E80F00
:101A9000B0E0AE58BF4F8C9140E850E00E2E02C02F
:101AA000559547950A94E2F7482309F464C09B8151
:101AB000911162C09F819B1508F05EC0A70145503F
:101AC0005109941715060CF457C04985042E000CD3
:101AD000550B0417150719F49885963040F04415F6
:101AE000550509F049C09885963008F445C0E15085
:101AF0009FE7E730B8F4F0E0E158F24F099432C0C4
:101B000010C026C027C028C029C02AC0E23338F040
:101B1000E43308F4B4CF8D53823008F4B0CF20E022
:101B2000AFCF9FED98239C932130F1F480917C00FE
:101B300080936F002093710080916E009AEF980F50
:101B4000973008F470CF8251873008F06DCF6BCF9B
:101B50009FEEE8CF97EFE6CF9BEFE4CF9DEFE2CF8C
:101B60009EEFE0CF9FEBDECF6AE08AE00BDB6AE01E
:101B700082E308DB59CFA12C213009F055CFDCCF0F
:101B8000E0E060CF96E0C91681F0A7E0CA1267CF07
:101B9000F701EA5BFF4FAB1508F461CFE4918E2BA0
:101BA00035D92FEFE21AF20A22CF90917C009F3BA9
:101BB00008F055CFB7E0F701E25BFF4FBB1570F7B8
:101BC0004ECF90917C00953B08F049CFE7E0EB15B4
:101BD00008F445CFF701EA5AFF4FE0CF90917C001F
:101BE0009B3A08F03CCFF7E0FB1508F438CFF7013B
:101BF000E25AFF4FD3CFD490A1016C2D8E2D70DA15
:101C00008D298095CDCFFDD80F5F1F4F083011056E
:101C100009F0CACE31E0A31217C086E2E82E8DE0AB
:101C2000F82E02EB1DE0F70131966491F7018491E3
:101C300064568850A7DAF2E0EF0EF11C0E151F056E
:101C400091F782E08093700080917100882309F4FD
:101C5000A0CB80916E0080FD9CCB80916F0061E0F5
:101C6000809590DA96CB9F5F40CEF110F6CDF801CB
:101C7000D482FCCD8901FF24F39407CC8F929F92EC
:101C8000AF92BF92CF92DF92EF92FF92CF93DF930A
:101C9000EC01688179818A819B81611571058105DB
:101CA000910521F464E279ED8BE597E02DE133EFC6
:101CB00041E050E09ED049015A0127EA31E440E07A
:101CC00050E07ED06B017C012CEE34EF4FEF5FEFE4
:101CD000C501B40175D0C60ED71EE81EF91EF7FE69
:101CE00006C081E0C81AD108E10880E8F80AC88275
:101CF000D982EA82FB82C701B6019F77DF91CF913B
:101D0000FF90EF90DF90CF90BF90AF909F908F901B
:101D100008958F929F92AF92BF92CF92DF92EF92EF
:101D2000FF926091600070916100809162009091DB
:101D30006300611571058105910521F464E279ED77
:101D40008BE597E02DE133EF41E050E052D04901BF
:101D50005A0127EA31E440E050E032D06B017C01C7
:101D60002CEE34EF4FEF5FEFC501B40129D0C60E62
:101D7000D71EE81EF91EF7FE06C081E0C81AD1087A
:101D8000E10880E8F80AC0926000D0926100E09219
:101D90006200F0926300C701B6019F77FF90EF9059
:101DA000DF90CF90BF90AF909F908F9008956093F9
:101DB00060007093610080936200909363000895C7
:101DC000EE27FF27AA27BB2708C0A20FB31FE41FD7
:101DD000F51F220F331F441F551F96958795779542
:101DE000679598F37040A9F7009799F7BD01CF0167
:101DF0000895052E97FB16F400940FD057FD05D0DB
:101E000014D007FC02D046F408C050954095309598
:101E100021953F4F4F4F5F4F089590958095709556
:101E200061957F4F8F4F9F4F0895A1E21A2EAA1BF5
:101E3000BB1BFD010DC0AA1FBB1FEE1FFF1FA2177A
:101E4000B307E407F50720F0A21BB30BE40BF50B77
:101E5000661F771F881F991F1A9469F76095709500
:101E6000809590959B01AC01BD01CF0108950024A0
:101E700080FD060E660F11F08695D1F7802D08952E
:101E80000024552704C0080E591F880F991F00977A
:101E900029F076956795B8F37105B9F7802D952FE0
:061EA0000895F894FFCF45
:041EA6000100000037
:00000001FF
