:10000000C7C3E1C3E0C3DFC3DEC3DAC9DCC3DBC3FC
:10001000DAC3D9C3D8C3D7C3D6C3D5C3D4C380C06A
:1000200080000080C080000080C080000070787870
:1000300078787E7F7E787878787054D1B4783CF088
:1000400034F88078EAE07400000058BC163F3F1690
:10005000BC58000000000000985CB65F5FB65C987A
:100060000000000070187DB6BC3C3CBCB67D18702A
:1000700000001EB87D363C3C3C3C367DB81E00007E
:100080009C9E5E76375F5F37765E9E9C00001C5EAE
:10009000FEB6375F5F37B6FE5E1C00004060F05072
:1000A0007858587850F0604000004060D070587820
:1000B000785870D060400000000000002418182418
:1000C00000000000000000008100241818240081B6
:1000D0000000000000248118245A5A2418812400AA
:1000E00000420024814A3CA4253C4A81240042F07D
:1000F0000F00030C0F30333C3FC0C3CCCFF0F3FCF8
:10010000FF3C221E00003E00003A2A2E00222A3E1A
:10011000000E083C002E2A3A003E28380002320E1B
:10012000003E2A3E000E0A3E003C2C2C3C28783033
:100130002070187DB6BC3C3CBCB67D1870022A0EFF
:1001400000002E00003C0A3C003E2A14001C222223
:10015000003E221C003E2A22003E0A02001C2232DF
:10016000003E083E00003E000030201E003E0836E3
:10017000003E2020003E0C3E003E1C3E001C221C87
:10018000003E0A04001C223C003E0A3400242A12CD
:1001900000023E02003E203E001E301E003E183E81
:1001A00000360836000E380E00322A2600000058AD
:1001B000BC163F3F16BC5800009C9E5E76375F5FC2
:1001C00037765E9E9C20307828315550BF0180C024
:1001D00082E089F000E081C000E088F081E08BF0EF
:1001E00081E088F000E081C000E084F081E001C09F
:1001F00080BDBB02789C1E8B1F003FC6841FDB8521
:100200003FC6813F043E3C38B060B7BC02010206E5
:10021000820400FCA483FCC2027F1FFF8404C68406
:1002200007000F8507810F011F7FC500FCA30C018C
:10023000FF7F3F1F07804020180E0301B8BFA202B6
:10024000037C80A201037FC2011F03A10107F8A361
:100250000007C1000FC1007FA303807E077FC2009B
:100260007EA20080C6007EA304C030180603BF052E
:1002700000C0E0F0F8FC86FE00FC85FE02FCF0EE1B
:1002800089FE00FC81F801FEFF84C0C100E181C04D
:1002900082F800FF84C0C100F0C184C000FF82F872
:1002A000C283C001FFF8C102DFC7C182C002F8F6F5
:1002B000E187F885FE02FCF0E081F000F881FC8720
:1002C000FE00F881E000C0A208070F79E1C1010338
:1002D0000F3FC106F9C383070F1F7FC101F383825C
:1002E00003003FC101FBC3810302070F7FC200E18E
:1002F00083010003C483038301000FC4840383F3D9
:1003000081030007810FC38303008386F3C2011FAB
:10031000038101008181F181F38303008FC2017F9A
:100320001F810F0487E3F3F13182010181E7807EB1
:10033000A30F03071C38E08003071F7FFEF0E08057
:100340000001810701CE80A201073FC109FCF0C076
:1003500000030F3FFFF880A2003FC3A302FEFCE0B2
:10036000A10003C4A3C2000FA300F8C1000FA300A3
:10037000C084CFC2023F0701A106809E9F1F0F616C
:10038000E081F000FCC101EF83828006981E1F1EF1
:100390001FF6E68206010701A01F70807000800032
:1003A0003820F8030F1C70E081838FBFFEF8E080D7
:1003B000818F9FFEDC30E0C0839FC005CF1F7CE0B3
:1003C000C08181838380C1010FFF838000F381138B
:1003D00000F08280009FC2828000BC82BF818002C8
:1003E000C0E07FC10087838000BE83BFC2019F83BE
:1003F000818001F0FEC1078F8180E0F03EFFDF8247
:10040000870097819F08DFC7E160381C0E0301A5B4
:10041000C100FDD000FDCB0B3F5F1FCF2FC7BFE753
:100420007FEFFFBFCE00FBCD00F7CE007FCC007F7B
:10043000CF00F7C4CD00FEC900FDC510C014E9F619
:10044000BDEFFDFFFDFFBFFFD77FDFBFF6CF007F12
:10045000DFC100BFCB00DFC700BFC4CB00EFD409B2
:10046000FEFFFDF7FFF7FFF7FFFDC100FDDA1BBF41
:100470007F1FBF0F478F23479343B54BA3DBA5DBFC
:10048000B3E75BF7AFF76FFFDFFF5FC900BFCED405
:1004900000DFCB00EFD400BFCA1F9F0F43150250EF
:1004A00004A218E20CF20CF3ACDAF5BAED7AEFDA4A
:1004B000BFF6FFEFFDF77FFFEDFF807F08FBBFFE7C
:1004C000DF7DF7DFFFBFC200BFCD01FFFED000BF61
:1004D000C300AFC300BFDFC31F112408520055285B
:1004E000C31CD1B64DFA57FDD76EFBEE77DFF5DFB3
:1004F000FBFDBFFAFFFDFFFD7F80FE02BFFFDFC2F5
:1005000000BFC201FEABC900FDC5CD00FEC10EF7A4
:10051000FFF7FFB6D5F780F7D5B6FFF7FFF7DF197E
:10052000FFF648A11449A659A5BA6BDE75FFDB7F1B
:10053000EDFFF7FFFD7FFFFDFFFEC310DFFBFFBFF9
:10054000F7DFFBBF6DDFFFB77FFF57BED5C5007F6D
:10055000C700BFC0C600FDCA00FEC301FAEFC2005B
:10056000FED200FDD00FFEE9D46B9679D7BDD7FD42
:10057000EFBDF7DFFFEEC300EFC211FBEEFF77FD2B
:10058000FFDFF6EF7DEBFF56BDCBF5F6FDD2C500E4
:10059000EFCE00FBD9007FC900EFCA1EFDFEFFFAB7
:1005A000F7FDEFF7DEEFFFBFEEFFDFBFFFDFFEBFC0
:1005B000FFAFFFDFFBFFF6FFFBFFFCC600FEC50041
:1005C000FBC9AE2000B0C8001040813FA1A6A83FE3
:1005D000A4D300D580D922DA12DB208D14AF454E8A
:1005E00054455200594F5552004E414D454E4557C6
:1005F00000484953434F5245405B5C5D3C3D3E5B88
:100600005C5D5E5F60613A3B0000000047414D4524
:10061000004F564552003C3D3E5E5F6000315550F4
:1006200000313233343500000000613A3B5B5C5DE1
:100630005E5F603C3D3E5B5C5D5E5F600000313054
:100640000000000000000000003C3D3E0000323091
:100650000000000000000000005B5C5D0000343022
:10066000000000000000000000613A3B00003F3F36
:10067000000000000000020202020202040404045E
:10068000040404040404040404040404040404022C
:100690000000020404020000020404040404040430
:1006A000FF00000000FF0202020202020404040430
:1006B0000404FF04040404FF00FF0000FF0002FF25
:1006C0000202FF0204FF0404FF0404FF0404FF0409
:1006D000FFFF0202FFFF0002020202000204020208
:1006E000040202FFFFFFFF020404040404040202E8
:1006F00002020202000000000000000000000000F2
:10070000FF00000000FF02FFFFFFFF0204FFFFFFEA
:10071000FF04FF04040404FF04FF04FF04FFFF04BC
:10072000FF04FF0404FF04FF04FFFF04FF04FF04B1
:10073000FFFF0000FFFF02020404020202020404A1
:100740000202FFFF0000FFFF00000404020200009D
:100750000404020200000404020200000404020275
:10076000000000003600010200000400000000004C
:100770000000000038000000000037000202020202
:1007800002020202020201020408102020041008E2
:1007900011241FBECFE5D2E0DEBFCDBF10E0A0E642
:1007A000B0E0ECEDFFE102C005900D92A237B10779
:1007B000D9F721E0A2E7B0E001C01D92A235B2074F
:1007C000E1F748D609CC1CCCCF93DF9390E0FC0135
:1007D000EA57F84F24918458984FFC01849188235C
:1007E000C1F090E0880F991FFC01EA58F84FC591BD
:1007F000D491FC01E059F84FA591B4919FB7F894BA
:100800008881E22FE0958E2388838C91E823EC93F6
:100810009FBFDF91CF910895C298C098C29AC09AA5
:10082000089530E020E090E0AC01022E01C0440FBA
:100830000A94EAF747FF0CC0C09AC29AC2982F5F89
:100840003F4F2830310581F7C09AC29AC298089567
:10085000C098F3CFC29AC09AC098C2980895CF9317
:10086000C82FF8DF88E7DDDF80E0DBDF8C2FD9DF02
:10087000CF91D2CFE7E6F7E08491E7E8F7E09491F3
:10088000EDE7F7E0E491EE2321F1882329F08230AF
:10089000E9F080F48130B1F0F0E0EE0FFF1FE05A94
:1008A000F84FA591B491EC91E92381E090E099F49F
:1008B00080E00895833011F0843071F78CB58F7D1E
:1008C0008CBDEACF8AB58F778ABDE6CF8AB58F7D9A
:1008D000FBCF80E090E0089517B8369A3699FECFA6
:1008E00084B195B108959C01A0E6B0E0FB014D9163
:1008F0005D9190E32417350720F09F5F241B350B93
:10090000F9CF91938D919C911197892B81F708953F
:100910002091380130913901820F931F9093390152
:100920008093380108958EE491E00895ECE4F1E0BD
:1009300080E09191890F91E0E235F907D0F30895B5
:1009400080914C0190914D01089590934D018093B9
:100950004C010895F5DF209138013091390182175B
:10096000930720F4C901F1DF81E0089580E0089544
:10097000809138019091390108950F931F93CF937F
:10098000DF936351DA0130E020E000E810E06830E6
:10099000F8F4F801062E02C0F595E7950A94E2F7FF
:1009A00092969C919297792F7E2391F0240F351F78
:1009B000E095E923D9019296EC93811103C08FEF62
:1009C000FA0181A781E0DF91CF911F910F910895E6
:1009D00098EF960F9830A0F4F80102C0F595E795CE
:1009E0009A95E2F7E901219693969C919397792F36
:1009F0007E2331F0C40FD51FE095E923EAA3DDCFB4
:100A000063522E5F3F4F12962630310509F0BFCF5B
:100A100080E0D9CFFC0110923C01AC014C5F5F4FEC
:100A200024E090E0DA0136E08D918F3F19F08630B6
:100A30000CF49F5F3150C1F721504A5F5F4F211185
:100A4000F1CF90933C0196959695969596AB089527
:100A5000FF920F931F93CF93DF931092510166DFA4
:100A60009AE2981B909351010CE411E0C0E8D0E0A9
:100A7000F801F1908F01CE01CAD8F81619F06F2D48
:100A8000CE01CDD82196F1E002351F0788F3DF9122
:100A9000CF911F910F91FF9008950F931F93CF93C4
:100AA000DF93CCE4D1E000E810E0C801B0D889932E
:100AB0000F5F1F4F81E0C235D807B8F3DF91CF91A8
:100AC0001F910F910895E9DF31DF8A3271F01092A2
:100AD0004D0110924C0143E050E06FE370E08EE472
:100AE00091E073DA10925101B3CF0895E8EFF0E08E
:100AF00080E4DF011D928A95E9F7089590E02FEFD9
:100B000030E0281B31098111C49A40E042171306D6
:100B100034F455E05A95F1F700004F5FF7CFC498D1
:100B200040E04217130634F455E05A95F1F70000FF
:100B30004F5FF7CF9F5F6913E6CF08956DE784E6B7
:100B4000DDDF6DE782E3DACF50E090E088509F4F21
:100B500055C82F923F924F925F926F927F928F92E1
:100B60009F92AF92BF92CF92DF92EF92FF920F933C
:100B70001F93CF93DF9300D000D01F92CDB7DEB785
:100B8000782E8B01A0E12A2EA4E03A2E882321F0B2
:100B9000FCEC2F2EF1E03F2EDDDE90914201892BFF
:100BA00080934201711020C0A1DF43E069EC71E045
:100BB00080E0CADFB8DEFC0193E0AEE0B1E0019076
:100BC0000D929A95E1F780914201882329F043E044
:100BD00069EC71E086E1B8DFCBDE6CEF70E083DEBC
:100BE000AFDE62E171E07FDE80913E016EE0BAD956
:100BF00090913F01992369F18658D80198968C937A
:100C0000512C412C842C88E790E040E850E0910181
:100C10002F5F3F4FF101649167FF26C0762F7076FA
:100C2000E1F066FB772770F971956F71FF24F394FB
:100C3000F60EF982B82FFC017193AE2FAB1BF98031
:100C4000AF15D0F370E06F5F7F4F860F971F1901CC
:100C500022C08C5CF80180A7D3CFF2E02F0E311CAC
:100C6000F90174919101E1CF71E0760F7983F90177
:100C70008B83DC0174917D9331967A2FFB807F19F1
:100C8000F9807F15B8F370E06F5F7F4F1901260E72
:100C9000371E860F971F2981421B510909F0B7CFD4
:100CA00080EB880DDCDD80E0DADD80E1D8DDD2DDAF
:100CB00088E7B7DD80E4B5DDC20195958795E4E06E
:100CC000880F991FEA95E1F7F12CE12CAC0148500F
:100CD0005F4F5A834983582D51705B839E2C70E877
:100CE000E716F10409F418C37110DCC220913A012F
:100CF000211154C186E088121DC03DEE3E0DE0E09A
:100D0000383008F02AC1E00FF12FF11D42A180E830
:100D100090E0032E02C0959587950A94E2F784230C
:100D200049F0313009F43CC108F430C1383008F0E2
:100D30002DC12FE0D8019896EC91E90DEF77F0E006
:100D4000E858FF4FD080D0948091410190E065E059
:100D500070E0F7D80197F701E81BF90B1E161F0684
:100D60000CF420C1F7E08F121DC1F701E25EFF4FC6
:100D700034913C832D2980913E01F701E81BF10954
:100D8000ED30F10508F01AC147E0841217C18091D7
:100D90003D01811109C1E35DFF4FA491DC80D22A9E
:100DA000F8012081283809F40BC1811009C1022EF5
:100DB000000C330BE216F3060CF402C1A7014E50EF
:100DC0005109241735070CF4FBC0A701421B530B34
:100DD0009A01818190E06EE070E0B3D8F901E80FEC
:100DE000F91FE556FF4F24912D83DA2AD801D396B7
:100DF000CC909C1408F0E6C01C82ED81ED29ED83B7
:100E0000D8019A968C919A97981226C299962C910D
:100E10009997822F022E000C990B8415950509F0E5
:100E20001BC227FD19C29B969C9181E0911180E025
:100E3000F80183A7911102C0215021A79C1408F446
:100E4000C1C1D12C96012C5A3F4F2E153F050CF4F1
:100E5000B9C1D8019996AC909997AA0CBB0890E0BB
:100E60000196A80EB91EA501440F551F440F551F2A
:100E7000D4968C9190E09C0163E0220F331F6A9519
:100E8000E1F7421753070CF49DC1205E3F4F241732
:100E900035070CF497C1880F991FA81AB90AB50134
:100EA000B7FE02C06F5F7F4F75956795072E000CE8
:100EB000880B990BB1D720E030E040E05FE3BFEF53
:100EC000AB16BB060CF461C110D773D7A62EF70181
:100ED000EC19FD096F01CF016EE070E04FD8072ECD
:100EE000000C880B990B98D720E030E040E05FE3DE
:100EF000F3EFCF16FFEFDF060CF449C1F6D659D752
:100F0000A7FC59C266300CF05DC123E02A150CF431
:100F100059C10A2C000CBB0867FD60E0C62E660FA5
:100F2000DD08C50166E070E00CD8800F911FFC0160
:100F3000EC0DFD1D648035E0361508F443C16AE010
:100F400082E3DCDD41E0461508F423C18AE090E04D
:100F5000DFDC8AE090E0DCDC20C148EF430F483062
:100F6000B8F4EF5FE00FF12FF11D32A180E890E0BF
:100F7000042E02C0959587950A94E2F7832309F41D
:100F8000D9CE463069F0473009F0D3CE20EFD2CE2B
:100F90003352EE5FE63009F0B3CECCCE20E0CACEBD
:100FA0002CEFC8CE1C82E6CED80111968C9190E031
:100FB0006CE070E0C6D7E80FF91FEDCEA0E0EECEF2
:100FC0001D8213CFF80124A9821608F415CFC7019A
:100FD0008C1991096EE070E0D1D766A7882D821B2D
:100FE00087A7663008F008CF853008F005CF65A8E0
:100FF000DB01BB2761102DC090E066E070E0A1D757
:10100000800F911FA80FB91F14969C9198306CF413
:1010100084A56EE08DD7282F9F3F09F4EDCEE92DF2
:10102000EC19EE3020F0EE50FCCF20E0F8CF892F05
:10103000990F990B6EE070E084D78E0F911D820F8F
:10104000911D27FD9A95FC01E95BFF4F24912C83AC
:10105000D4CE81112BC0A00FB11F14969C91983053
:101060006CF484A56EE064D7282F9F3F09F4C4CEAA
:10107000E92DEC19EE3020F0EE50FCCF20E0F8CF57
:10108000892F990F990B6EE070E05BD78E0F911D41
:10109000820F911D27FD9A95FC01E95BFF4FB491EA
:1010A00001C0BB0F6A94EAF7BC83A7CEA82EB12C6F
:1010B000C501019766E070E044D7800F911FFC01E5
:1010C000EA0FFB1F948198304CF4F80184A56EE080
:1010D0002FD7382F9F3F19F41C8223C030E0E92D11
:1010E000EC19EE3010F0EE50FCCF892F990F990BD0
:1010F0006EE070E026D78E0F911D830F911D37FD96
:101100009A95FC01E95BFF4FE4912E2F30E048E017
:1011100050E04619510902C0359527954A95E2F7E6
:101120002C83C50166E070E00CD7800F911FA80FDB
:10113000B91F14969C91983054F4D8019C968C91C8
:101140006EE0F6D6282F9F3F19F4E0E01BC020E0A8
:10115000E92DEC19EE3010F0EE50FCCF892F990FED
:10116000990B6EE070E0EDD68E0F911D820F911DF0
:1011700027FD9A95FC01E95BFF4FE49101C0EE0F5A
:101180006A94EAF7BC81BE2B8FCFAED59ECEACD58C
:10119000B6CE53E0561508F0DCCE8AE090E0B8DB1E
:1011A000C50166E070E0CDD6800F911FC80ED91E34
:1011B000E8E0D6011496EC93EFEFD8019996EC9302
:1011C000C80128DCD80199968C919997811125C086
:1011D0009A962C919A9730E08C91082E000C990BDE
:1011E00028173907D4F00E9682179307B4F0DD2440
:1011F000D39461E08D2D82DCD394B4E6DB12F9CF79
:1012000080914101833028F58F5F8093410182E313
:1012100090E07EDB28E8F8012083D8019B96EC91D2
:10122000F0E0E151FF4F8491BC81ED81BE2BBC8386
:10123000D80113969C911397292F269528110EC03B
:1012400012962C9192120AC0EFE090FF08C0E0EFD6
:1012500006C086E990E0DDCF80E0E6CFE0E0BC812B
:101260008B2B8E2BE0E0811017C0F701F595E795E9
:10127000F595E795E850FF4FE081EE2369F0E053E4
:10128000FF0BEE0FFF1FEE0FFF1F292D2370E20F44
:10129000F11DEF5FFE4FE4918E2BC3DA7FEFE71A6B
:1012A000F70A1CCD31E0F701731204C0E858FF4F74
:1012B0008081F3CF43E0F595E7954A95E1F74981C1
:1012C0005A81E40FF51F208180E0222331F3E22FC1
:1012D000EF77E053FF0BEE0FFF1FEE0FFF1FC7016D
:1012E0009595879583709927E80FF91FEF5FFE4F5B
:1012F000E4915B81511109C0EF70F0E0EF50FF4FB6
:10130000849127FFCACF8095C8CFF0E084E0F5959F
:10131000E7958A95E1F7F2CF71100FC080913A01FD
:1013200081110BC0D80199968C919997863029F438
:10133000A8019A966C9180E020DB6EDABFEF4B1A21
:101340005B0AE8E04E16510409F05CCC71101BC03A
:10135000D801D4962C91D497D0963C9185E090E01A
:10136000831B91092817190674F080913A01813086
:1013700051F0F801B29686E0DF011D928A95E9F7F7
:1013800081E080933A010F900F900F900F900F9093
:10139000DF91CF911F910F91FF90EF90DF90CF9051
:1013A000BF90AF909F908F907F906F905F904F9085
:1013B0003F902F900895A12C66300CF4AACD02CF57
:1013C0001F920F920FB60F9211242F933F938F937A
:1013D0009F93AF93BF938091480190914901A09151
:1013E0004A01B0914B013091470123E0230F2D3783
:1013F00058F50196A11DB11D209347018093480126
:1014000090934901A0934A01B0934B01809143010D
:1014100090914401A0914501B09146010196A11D12
:10142000B11D8093430190934401A0934501B09373
:101430004601BF91AF919F918F913F912F910F9056
:101440000FBE0F901F90189526E8230F0296A11D3E
:10145000B11DD2CFCF93DF93CDB7DEB7E8970FB6EC
:10146000F894DEBF0FBECDBF78948AB582608ABD86
:101470008AB581608ABD83B7826083BF83B781608C
:1014800083BF89B7826089BF80B7826080BF80B721
:10149000816080BF329A319A309A379A8CB58064D5
:1014A0008CBDB89ABA9A02EC15E0F8018491D7D9AC
:1014B0000F5F1F4FF5E00E3D1F07B9F781E084D99C
:1014C000BC9A86E081D9FFDA1092420152E0452EA3
:1014D000CE0101963C010ADB80914201882309F488
:1014E00047C14CE06DEE75E082E02EDB4FE06EED23
:1014F00075E080E229DB24DA6EE071E0F4D913DADA
:101500005C014C0193E0890E911C48EFC42E40E031
:10151000D42E850180169106E1F183E0F501AFE25A
:10152000B1E001900D928A95E1F7F8015080D4D98D
:10153000845F91407C018A3F910538F453942AE5F9
:10154000251510F43FE3532EF9DA8AEFE81AF10873
:1015500098ECE916F10438F45A94EEE3E51510F02E
:101560002AE5522EEBDAF8015082852D8068F601CB
:1015700087ABB30182E0EDDA7DD9892BB1F6DEDAF3
:1015800079D9892BE9F30F5F1F4FFFEFCF1ADF0ADD
:10159000C1CF5EDA1092420110926C0010923901B4
:1015A0001092380183E08093410110924001109223
:1015B0003F019CDA10E000E07801EFEFEE1AFE0A3E
:1015C000B30181E00A3F110570F010E000E0F4EF94
:1015D000EF16F1E0FF0648F447E369E376E085E0C3
:1015E000B3DAB30182E0B5DA870144D9892B21F758
:1015F000A5DA10923A0110923B0188E180933C01F8
:1016000088E3F30111928A95E9F710914001812F47
:10161000012E000C990B68E170E093D4B30100E057
:1016200086199709FF24FA94DB0130E020E0AC0131
:10163000460F571F4059594F043009F4B2C0FA0100
:10164000E20FF31FE4911496EC9314972F5F3F4F32
:1016500011962630310581F70F5F6A5F7F4F0530A5
:1016600019F746E050E06FEF70E0CE018396ADD4FD
:1016700080E18B838C8388E889838FEF8AA783E05E
:1016800089AB8CE28BAB84E18CAB143010F081E041
:101690008DAB88E08FAB81E088AFC301BBD988E315
:1016A00080933E0116E393E0292E312C10923D01E8
:1016B000B30180E04EDAFFEF23ED80E3F1502040EC
:1016C0008040E1F700C0000000E08FE7582E8091D5
:1016D0003C0181116BC06FEF8EE610DA9FEFE3EFF4
:1016E000F1E09150E040F040E1F700C000006FEF02
:1016F00082E804DA2FEF83EF91E0215080409040A0
:10170000E1F700C000006FEF84E6F8D9EFEFF3EFE8
:1017100021E0E150F0402040E1F700C000006BE91B
:1017200081E0ECD98FEF99EFE0E081509040E0400C
:10173000E1F700C000006FEF8CE3E0D96FEF8CE3BE
:10174000DDD980914001893018F48F5F809340018A
:101750002FEF83ED90E3215080409040E1F700C0EF
:10176000000080913F0191E0892780933F0141CFA4
:1017700080916C00811110CF40E469EF75E0E4D9ED
:10178000F7D860E271E0AFD8B30182E0E2D92FEF81
:101790008BE792E9215080409040E1F700C00000C3
:1017A000FBCEF301E20FF31FF48E50CF89A990E036
:1017B00001962DA9820F911D079729F4011103C0ED
:1017C000F1E0F0933D0180913B019091400129E0CF
:1017D00030E0291B31098217130611F00CF0B3C059
:1017E0008F5F80933B01B30180E0B3D981E09A81A0
:1017F000911180E08A839E012B5F3F4F94E0F901B5
:1018000046E080818B3014F08FEF808381918830A7
:1018100024F0DF0111978F5F8C93415091F7915025
:101820002A5F3F4F9111EBCF8C81E0903E01CE2C8F
:10183000D12C8031E9F06B8192EF980F923060F4F7
:101840006E1550F09601225F3F4F6217130609F0A4
:101850001CF491E090933D018695863009F0AEC06E
:10186000A30181E08AD8882309F4A8C0E0E1EC83D1
:101870008981883829F082508D3E0CF4A3C0898379
:101880008CA98A51833038F48DA9823021F48EA935
:10189000843009F45982212F30E0C6010296821764
:1018A000930744F4C9018C199D09B10167D3E60E71
:1018B000E0923E0140913E01842F90E0BC016250D5
:1018C00071092617370744F4821B930B6DEF7FEFE6
:1018D00055D3460F40933E0180913D01813009F47C
:1018E000C6C08EA59FA9891708F06FC08F5F8EA70D
:1018F000F3D7845F91408A3F910518F41C3608F4B1
:101900001A5F8A5F9109883C910518F4163008F037
:101910001650B0D7892B69F482E048120AC064E0FF
:1019200088ECECD886E08AA780913E018A5F8BA77D
:10193000412C8AA58F3F09F0CACE22E0421609F455
:10194000C6CE4394C4CE10923B0101D14B015C0141
:10195000FED06B017C018C81803109F044CFC50140
:10196000B40123E030E040E050E080D1B62EC70162
:10197000B60126E030E040E050E078D1262F663016
:1019800008F025E08B2D90E066E070E0DAD2860D5D
:10199000971DFC01E20FF11D84818F3F09F423CFD5
:1019A0009CA9995F822F6EE0C3D2890F8B838DA98A
:1019B000E82EEB0CEE0CE394EC8215CF8C818F5F5C
:1019C0008C8356CFF8E8F9835BCF83E089AB23E0C3
:1019D000822F90E066E070E0B4D20496F301E80F45
:1019E000F91F86E091919F3F21F48150D9F7215052
:1019F000EFCF29AB8DA591E0811190E09DA761E02B
:101A0000882361F084E67AD88CA998AD9130C9F426
:101A10009BA9891728F48E5F8CAB0AC088ECF3CFA2
:101A20008EA9873048F48C5F883020F48EAB18AED6
:101A30001EA65ECF87E0FACF8DA98F5F8DAB1EAA61
:101A4000F6CF9AA9981710F48250E6CF8EA9873066
:101A500048F48C5F883020F48EAB21E028AFE8CFCB
:101A600087E0FACF8DA98F5F8DAB1EAAF6CF61E01C
:101A700080E544D861E084E641D80F5F0E3108F478
:101A800058CF9FEFEBE4FDE19150E040F040E1F7EB
:101A900000C0000089A990E001962DA9820F911D38
:101AA000079709F418CD80914101882309F413CDDB
:101AB000815080934101FACD8F929F92AF92BF9255
:101AC000CF92DF92EF92FF92CF93DF93EC01688188
:101AD00079818A819B81611571058105910521F4C8
:101AE00064E279ED8BE597E02DE133EF41E050E0E2
:101AF000BDD049015A0127EA31E440E050E09DD0D1
:101B00006B017C012CEE34EF4FEF5FEFC501B401A8
:101B100094D0C60ED71EE81EF91EF7FE06C081E05F
:101B2000C81AD108E10880E8F80AC882D982EA8296
:101B3000FB82C701B6019F77DF91CF91FF90EF90B5
:101B4000DF90CF90BF90AF909F908F9008958F922D
:101B50009F92AF92BF92CF92DF92EF92FF926091ED
:101B60006D0070916E0080916F0090917000611512
:101B700071058105910521F464E279ED8BE597E02B
:101B80002DE133EF41E050E071D049015A0127EADD
:101B900031E440E050E051D06B017C012CEE34EF99
:101BA0004FEF5FEFC501B40148D0C60ED71EE81E47
:101BB000F91EF7FE06C081E0C81AD108E10880E8E6
:101BC000F80AC0926D00D0926E00E0926F00F09221
:101BD0007000C701B6019F77FF90EF90DF90CF9024
:101BE000BF90AF909F908F90089560936D00709319
:101BF0006E0080936F00909370000895FB01DC01EC
:101C000002C005900D9241505040D8F70895E199D7
:101C1000FECF9FBB8EBBE09A99278DB30895262FE8
:101C2000E199FECF1CBA9FBB8EBB2DBB0FB6F894BB
:101C3000E29AE19A0FBE01960895EE27FF27AA27A0
:101C4000BB2708C0A20FB31FE41FF51F220F331FCD
:101C5000441F551F969587957795679598F3704023
:101C6000A9F7009799F7BD01CF010895052E97FBBD
:101C700016F400940FD057FD05D014D007FC02D005
:101C800046F408C050954095309521953F4F4F4FF1
:101C90005F4F089590958095709561957F4F8F4F18
:101CA0009F4F0895A1E21A2EAA1BBB1BFD010DC078
:101CB000AA1FBB1FEE1FFF1FA217B307E407F507FC
:101CC00020F0A21BB30BE40BF50B661F771F881FD8
:101CD000991F1A9469F760957095809590959B016E
:101CE000AC01BD01CF0108955058BB27AA270ED0E3
:101CF000E5C0D6D030F0DBD020F031F49F3F11F4B6
:101D00001EF4CBC00EF4E095E7FBC1C0E92FE7D08D
:101D100080F3BA17620773078407950718F071F408
:101D20009EF5FFC00EF4E0950B2EBA2FA02D0B01EF
:101D3000B90190010C01CA01A0011124FF27591B10
:101D400099F0593F50F4503E68F11A16F040A22F16
:101D5000232F342F4427585FF3CF46953795279587
:101D6000A795F0405395C9F77EF41F16BA0B620B86
:101D7000730B840BBAF09150A1F0FF0FBB1F661FCD
:101D8000771F881FC2F70EC0BA0F621F731F841F10
:101D900048F4879577956795B795F7959E3F08F036
:101DA000B3CF9395880F08F09927EE0F97958795F5
:101DB000089504D06894B111B5C0089598D088F002
:101DC0009F5790F0B92F9927B751A0F0D1F0660F27
:101DD000771F881F991F1AF0BA95C9F712C0B13042
:101DE00081F09FD0B1E008959CC0672F782F88279D
:101DF000B85F39F0B93FCCF3869577956795B39581
:101E0000D9F73EF490958095709561957F4F8F4FEF
:101E10009F4F0895E89409C097FB3EF490958095F4
:101E2000709561957F4F8F4F9F4F9923A9F0F92FA0
:101E300096E9BB279395F695879577956795B7951E
:101E4000F111F8CFFAF4BB0F11F460FF1BC06F5F04
:101E50007F4F8F4F9F4F16C0882311F096E911C016
:101E6000772321F09EE8872F762F05C0662371F037
:101E700096E8862F70E060E02AF09A95660F771F4B
:101E8000881FDAF7880F9695879597F9089597F93F
:101E90009F6780E870E060E008959FEF80EC089510
:101EA00000240A9416161706180609060895002439
:101EB0000A9412161306140605060895092E0394B3
:101EC000000C11F4882352F0BB0F40F4BF2B11F427
:101ED00060FF04C06F5F7F4F8F4F9F4F089557FD86
:101EE0009058440F551F59F05F3F71F04795880F88
:101EF00097FB991F61F09F3F79F08795089512161F
:101F000013061406551FF2CF4695F1DF08C01616CA
:101F100017061806991FF1CF86957105610508947B
:101F20000895E894BB2766277727CB0197F9089592
:101F3000002480FD060E660F11F08695D1F7802DE6
:101F400008950024552704C0080E591F880F991FB3
:101F5000009729F076956795B8F37105B9F7802D4C
:101F6000952F0895991B79E004C0991F961708F0E2
:101F7000961B881F7A95C9F78095089597FB072EC1
:101F800016F4009406D077FD08D00BD007FC05D0DE
:101F90003EF4909581959F4F0895709561957F4F80
:101FA0000895AA1BBB1B51E107C0AA1FBB1FA617A0
:101FB000B70710F0A61BB70B881F991F5A95A9F7F2
:101FC00080959095BC01CD010895DC0101C06D9311
:0C1FD00041505040E0F70895F894FFCF16
:101FDC001027E80364000A00010000000101000062
:021FEC000000F3
:00000001FF
