:10000000D7C0F1C0C6C4EFC0EEC079C4ECC0EBC02D
:10001000EAC0E9C0E8C0E7C0E6C0E5C0E4C000004F
:1000200000000000000808080808000060600000E8
:10003000003C4030403C003E5149453E0000427F7C
:100040004000004261514946002141454B310018B2
:1000500014127F10002745454539003C4A49493074
:10006000000171090503003649494936000649492E
:10007000291E000036360000007C1211127C007F21
:1000800049494936003E41414122007F4141221CFD
:10009000007F49494941007F09090901003E414962
:1000A000497A007F0808087F0000417F4100002056
:1000B00040413F01007F08142241007F4040404002
:1000C000007F020C027F007F0408107F003E414148
:1000D000413E007F09090906003E4151215E007F33
:1000E000091929460046494949310001017F0101AA
:1000F000003F4040403F001F2040201F003F40384D
:10010000403F002054545478007F4844443800381D
:100110004444442000384444487F00385454541820
:1001200000087E0901020018A4A4A47C001CA0A061
:10013000A07C0000447D4000004080847D00007F62
:10014000102844000000417F4000007C041804781F
:10015000007C0804047800384444443800FC24241B
:1001600024180018242418FC007C08040408004803
:100170005454542000043F444020003C4040207C24
:10018000001C2040201C0000000036000000000081
:100190003800020202020202020202020102040804
:1001A00010202004100801020000040000000000DC
:1001B00011241FBECFE5D2E0DEBFCDBF11E0A0E627
:1001C000B0E0EAEFFCE102C005900D92A036B10765
:1001D000D9F721E0A0E6B1E001C01D92A53DB2072C
:1001E000E1F7E1D388CD0CCF823089F018F481306B
:1001F00051F00895833019F0843009F008958CB5DA
:100200008F7D8CBD08958AB58F778ABD08958AB594
:100210008F7DFBCF1F93CF93DF93EAEAF1E09491B8
:10022000E0EAF1E0D491E6E9F1E0C491CC23B1F049
:10023000182F992311F0892FD7DFEC2FF0E0EE0F64
:10024000FF1FE457FE4FA591B4918FB7F894EC913E
:10025000111108C0D095DE23DC938FBFDF91CF91C1
:100260001F910895DE2BF8CFCF93DF93E7EAF1E0FB
:100270008491EDE9F1E0D491E3E9F1E0C491CC237C
:1002800099F08111B1DFEC2FF0E0EE0FFF1FEA577C
:10029000FE4FA591B491EC91ED2381E090E009F43B
:1002A00080E0DF91CF91089580E090E0FACF865012
:1002B00087B9369A3699FECF84B195B108953FB784
:1002C000F8948091610190916201A0916301B091D5
:1002D000640122B708B601FE05C02F3F19F0019650
:1002E000A11DB11D3FBFBA2FA92F982F8827BC0190
:1002F000CD01620F711D811D911D42E0660F771FB8
:10030000881F991F4A95D1F708958F929F92AF92B7
:10031000BF92CF92DF92EF92FF924B015C01CFDF51
:100320006B017C01CCDF6C197D098E099F09683E49
:10033000734081059105B0F321E0821A9108A1086C
:10034000B10888EEC80E83E0D81EE11CF11C8114B0
:100350009104A104B10431F7FF90EF90DF90CF90AA
:10036000BF90AF909F908F900895EF92FF920F9360
:100370001F93CF93DF932091D00121111DC0EB017A
:100380007C0110E000E081E045DF90E080E08C1728
:100390009D071CF400000196FACF80E03BDF90E05F
:1003A00080E08C179D071CF400000196FACF0F5FC8
:1003B0001F4FE016F1063CF7DF91CF911F910F918F
:1003C000FF90EF900895CF92DF92EF92FF920F93FC
:1003D0001F93CF93DF932091600030916100E091F3
:1003E0006400E20FF32FF11D88E0C82ED12CCF015D
:1003F000B6015ADC8C01079709F04FC0E09062000B
:10040000F0906300C0916500CE0DDF2DD11DCE01AF
:10041000B6014ADC079751F52130310539F481E006
:1004200090E0909363008093620013C02F3F3F4F92
:1004300031F4EA94EF2819F481E090E006C081E0FD
:1004400090E09093630080936200909361008093AA
:1004500060006CE271E08EE190E0DF91CF911F913E
:100460000F91FF90EF90DF90CF907FCFC770DD2787
:10047000CD2B99F42130310519F48FEF9FEFD1CFB7
:100480002F3F3F4F19F4EF20E094B1F28FEF9FEF31
:100490009093630080936200CFCFE770FF27EF2B2C
:1004A000A9F5E0916200F0916300809165008E0FE4
:1004B0009F2F911DAC0147705527452B71F42F3F9D
:1004C0003207D9F22130310529F4319619F48FEF32
:1004D0009FEFBBCF8FEF9FEFB4CF68E070E0E4DB1E
:1004E000079781F42F3F320709F499CF2130310566
:1004F00011F4319761F381E090E090936300809371
:100500006200E5CF0730110511F796CF07301105CE
:1005100009F492CFC0916200D0916300E091650030
:10052000EC0FFD2FF11DCF0168E070E0BDDB0797F8
:1005300009F475CFE770FF27EF2B09F49ECFD19513
:10054000C195D109D0936300C09362003195219584
:10055000310930936100209360007BCF30E020E0D0
:1005600090E0AC01022E01C0440F0A94EAF747FF65
:100570000CC0C09AC29AC2982F5F3F4F28303105F5
:1005800081F7C09AC29AC2980895C098F3CF4F924B
:100590005F926F927F928F929F92AF92BF92CF9213
:1005A000DF92EF92FF921F93CF93DF9300D000D0A2
:1005B00000D0CDB7DEB78E83E091D401F0E0E058F3
:1005C000FF4F20812D83822F8C7090E0B0E0A0E05F
:1005D0009C01AD010E8004C0220F331F441F551F24
:1005E0000A94D2F729833A834B835C838981B6DFEF
:1005F0008D818E7590E0B0E0A0E04C015D010E8031
:1006000004C0880C991CAA1CBB1C0A94D2F7882D24
:10061000A5DF8D81877990E0B0E0A0E02C013D015D
:100620000E8004C0440C551C661C771C0A94D2F73B
:10063000842D94DF3D813375C32ED12CF12CE12C18
:100640000E8004C0CC0CDD1CEE1CFF1C0A94D2F7FB
:100650008C2D84DF8C2D82DF842D80DF882D7EDF42
:1006600089817CDF8091D301882331F144E00E80C1
:1006700001C0440F0A94EAF7498319E189816EDFCA
:100680001150E1F785E190E09C010E8002C0220F3D
:10069000331F0A94E2F73A83298389815FDF8981D6
:1006A0005DDF8091D201882329F064E670E082E367
:1006B00090E05BDE1092D20126960FB6F894DEBF72
:1006C0000FBECDBFDF91CF911F91FF90EF90DF90D4
:1006D000CF90BF90AF909F908F907F906F905F90E2
:1006E0004F90089580E03ADF80E038DF80E036DF29
:1006F00080E034DF80E032DF80E030DF80E02EDF3A
:1007000080E02CCFC298C098C29AC09A0895C29A2D
:10071000C09AC098C2980895CF93DF93C82FD62F60
:10072000F6DF88E71BDF80E019DF80EB8D0F16DF37
:100730008C2F82958F70806111DF8C2F8E7081607D
:100740000DDFDF91CF91DECFE2DF88E707DF80E4C6
:1007500005CFAF92BF92CF92DF92EF92FF920F93AD
:100760001F93CF93DF93D82FE62E6A01F12CF60169
:10077000EF0DF11D8081882369F1C0E0803251F0D6
:10078000C4EDC80FC03130F0CEECC80FC93210F044
:10079000C5ECC80FDF3710F0E394D0E06E2D8D2F3D
:1007A000BBDFD2DF8C2F90E066E070E06CDA10E007
:1007B00000E0825E9F4F5C01F501E00FF11F849124
:1007C000CDDE0F5F1F4F06301105B1F79BDFDA5FFB
:1007D000F394CDCFDF91CF911F910F91FF90EF90C8
:1007E000DF90CF90BF90AF900895CF93C82F8FDF49
:1007F00088E7B4DE80E0B2DE8C2FB0DECF9182CF0E
:10080000CF93DF93C0EB8C2FF0DF80E0EEDF80E151
:10081000ECDF9ADFD0E080E0A1DEDF5FD038D9F7EF
:1008200071DFCF5FC83B79F7DF91CF910895B89A18
:10083000BA9A8EEADADF80E0D8DF80E1D6DF80E4A2
:10084000D4DF81E8D2DF8FECD0DF81EACEDF88EC25
:10085000CCDF86EACADF88EAC8DF8FE3C6DF83ED34
:10086000C4DF80E0C2DF85EDC0DF80E8BEDF89ED58
:10087000BCDF81EFBADF8AEDB8DF82E1B6DF8BED56
:10088000B4DF80E4B2DF80E2B0DF82E0AEDF8DE88B
:10089000ACDF84E1AADF84EAA8DF86EAA6DF8FEA7C
:1008A000A4CF27C9EF92FF920F931F93CF93DF93AB
:1008B000CDB7DEB72A970FB6F894DEBF0FBECDBF17
:1008C000F82EE62ECA018E010F5F1F4F2AE0F801B5
:1008D00011922A95E9F74AE0B801D0D8A8016E2D07
:1008E0008F2D37DF2A960FB6F894DEBF0FBECDBF2F
:1008F000DF91CF911F910F91FF90EF9008951F927C
:100900000F920FB60F9211242F933F938F939F93C3
:10091000AF93BF938091650190916601A0916701AB
:10092000B09168013091600123E0230F2D3758F515
:100930000196A11DB11D20936001809365019093E4
:100940006601A0936701B093680180916101909165
:100950006201A0916301B09164010196A11DB11DD6
:100960008093610190936201A0936301B09364014D
:10097000BF91AF919F918F913F912F910F900FBE9B
:100980000F901F90189526E8230F0296A11DB11D08
:10099000D2CF1F920F920FB60F9211240F900FBE5D
:1009A0000F901F901895CF93DF9300D000D000D008
:1009B000CDB7DEB778948AB582608ABD8AB581608A
:1009C0008ABD83B7826083BF83B7816083BF89B7E5
:1009D000826089BF80B7826080BF80B7816080BF3E
:1009E000329A319A309A379A8CB580648CBD80E106
:1009F00087BB82E085BB8BB780628BBF789478948D
:100A000016DFFEDE42E850E062E080E0A2DE4EE863
:100A100050E066E080E09DDE1092D1011092D3019B
:100A20008091D10181112BC089E041DC863B93404C
:100A30002CF48091D3018F5F8093D3018091D301F7
:100A4000833370F31092D30189E031DC853F91400C
:100A500044F089E02CDC8E3E92401CF452E050932E
:100A6000D10189E024DC8F3E9240D4F289E01FDC82
:100A7000863B9340ACF681E08093D101D1CF9EE1DB
:100A80009D8357E0C52ED12CE12CF12C6FE7862EEB
:100A9000912CA12CB12C00E810E099D72B013C013E
:100AA00096D769837A838B839C83C301B201A701A4
:100AB000960146D86E8369817A818B819C81A501DC
:100AC00094013ED8862F6E8127DE3EDE80D7A701B7
:100AD000960136D8C80102C0959587956A95E2F7C8
:100AE0003DDD10DEED81E150ED83E111D6CF88DEF2
:100AF0008091D101813009F0A7C14FE950E062E057
:100B000080E127DE40EC50E064E083E022DE45ED4A
:100B100050E066E086E11DDE44EE50E067E086E1ED
:100B200018DE8FB7F894C0906501D0906601E09010
:100B30006701F09068018FBF97DB892B09F0A1C195
:100B40002FB7F8948091650190916601A09167019B
:100B5000B09168012FBF8C199D09AE09BF09813D75
:100B60009740A105B10544F389E0A1DB863B9340A2
:100B70000CF06FC160E090E080E093DE60E081E027
:100B800090E08FDE60E082E090E08BDE60E083E06A
:100B900090E087DE43EF50E061E088E0DADD31E0AD
:100BA000398362DB892BE9F36981611139C368E21A
:100BB0007AE080E090E0A9DBF89439DE21DE109243
:100BC000CF011092CE011092CD018091D1018130E0
:100BD00009F046C32FB7F8948091650190916601A2
:100BE000A0916701B09168012FBF80939A01909303
:100BF0009B01A0939C01B0939D012AE731E00AE696
:100C000011E081E0F80181938F018787878F2E178C
:100C10003F07C1F780E18093660080E48093650020
:100C200082E3809364008FEF9FEF90936300809343
:100C3000620090936100809360001092CE01109248
:100C4000CD01C5D620E730E040E050E079D7609391
:100C5000690190916901809166008695890F809362
:100C6000650030E3232E312C77247394552453945C
:100C700066246394AA24AA94BA2C8091CF0181118E
:100C80001BC268E270E080E090E03FDB86E00FDBB3
:100C90009C01255F3140293F310528F540916901CC
:100CA0002091660060E870E0621B71099B014617A5
:100CB00017062CF4409169014F5F40936901409100
:100CC0006901421713062CF4409169014F5F40936C
:100CD000690140916901421713062CF420916901C2
:100CE0002F5F209369018F5E9240873C9105D8F475
:100CF00080916901882329F0809169018150809356
:100D0000690180916901882329F0809169018150EE
:100D10008093690180916901882329F0809169019C
:100D200081508093690160916400262F30E08091AA
:100D3000600090916100A901480F591F4633510589
:100D40001CF48130910551F0281B390B22303105FC
:100D50000CF499C08F3F980709F095C0860F8093D7
:100D6000640060916500262F30E0809162009091D0
:100D70006300A901480F591F4F3751051CF48130FA
:100D8000910551F0281B390B223031050CF483C03A
:100D90008F3F980709F07FC0860F80936500809190
:100DA0009A0190919B01A0919C01B0919D010A969E
:100DB000A11DB11D2FB7F8944091650150916601B6
:100DC00060916701709168012FBF84179507A6078E
:100DD000B70708F0FEC0E091640080916000909138
:100DE00061008E0F911D20916500EB30A0F08633DD
:100DF00091058CF030916901231708F454C03091AB
:100E0000690140916600430F5527551F24171506A9
:100E100011F00CF048C030E060916901409166002B
:100E2000469550E0640F752F711D26173707F4F1B2
:100E300060916901C6970CF449C021E030E030931D
:100E40006300209362003DC04FEA50E062E08EE014
:100E500058CE4091D001498341110BC081E080936D
:100E6000D00146E051E061E080E273DC51E059835B
:100E700098CE1092D00141E151E061E087E169DC58
:100E800090CE19828ECE91958195910990936100B3
:100E90008093600066CF919581959109909363004E
:100EA000809362007CCF6092CF01E7CEEB3008F4F4
:100EB000BFCF863391050CF4BBCFB0926300A092F4
:100EC000620068E572E084E190E04FDA80916400AE
:100ED0006091600070916100680F711D77FF02C022
:100EE000695F7F4F23E0759567952A95E1F7072E97
:100EF000000C880B990B68D66B017C014091CD01E9
:100F00005091CE015A83498320E030E040E050E424
:100F100055D6811117C0E0916500E695E695E695F6
:100F2000F0E0E659FE4F80A1882309F444C010A2E6
:100F300069817A816F5F7F4F7093CE016093CD019D
:100F400042DAC4CF20E030E040E85FE3C701B601F9
:100F500035D6811114C0E0916500E695E695E695D9
:100F6000F0E0E659FE4F8089882329F1108A8981B3
:100F70009A8101969093CE018093CD01E1CF20E03C
:100F800030E0A901C701B60119D6811114C0E09162
:100F90006500E695E695E695F0E0E659FE4F80811E
:100FA000882349F01082E981FA813196F093CE01CD
:100FB000E093CD01C5CF89819A81B10175D6892B86
:100FC00041F4EAE6F1E071927786778E0E171F07FB
:100FD000D1F7F8949AE6E92E91E0F92E412C642D90
:100FE00080E09ADBB1DB1A821982E981FA81EE0D89
:100FF000FF1D8081882309F459C080E0AFDA86E0C4
:10100000882E912C8EE7AADAF1E08F1A9108D1F799
:1010100080E0A4DA29813A812F5F3F4F3A83298308
:101020002031310511F76EDB439430E1E30EF11C02
:1010300043E04412D4CF642D80E06EDB85DB19825F
:1010400080E08CDA59815F5F59835038C9F75ADBE9
:10105000439468E04612EFCF709164007983672F64
:101060006695669566958091650056DB6DDB898196
:1010700087708F5F8983852D098001C0880F0A944E
:10108000EAF76CDA3FDBF8948091690167E044DBB2
:101090005BDB91E0998380916600E981E81740F479
:1010A00083E05CDAF981FF5FF983F5CF1BDBB2CF18
:1010B00029DB78947894EACD789482E090E011D599
:1010C000282F30E0522F44275A8349835093CC0174
:1010D0004093CB0183E090E004D569817A81682B4D
:1010E0007A8369837093CC016093CB016091CD01C9
:1010F0007091CE0189819A81861797077CF470934D
:10110000CC016093CB0183E090E0CBDB6091CE011A
:1011100082E090E0C6DB81E08093C6018091CB0144
:101120009091CC019093CA018093C90169DB40E2A0
:1011300051E061E08BE00DDB41E351E062E08BE0E8
:1011400008DB40E251E063E08BE003DB47E451E081
:1011500065E085E2FEDA4091CD015091CE0165E077
:1011600070E08BE490E09EDB8091C60181110EC09F
:1011700042E451E067E085E1ECDA4091C901509129
:10118000CA0167E070E088E590E08CDB1A82198282
:1011900069817A8182E390E0E8D829813A812E5CE6
:1011A0003F4F3A832983283E334091F760ED77E043
:1011B00080E090E0AAD88091C601882389F120DBE5
:1011C00040E251E061E08AE0C4DA4EE451E063E0DD
:1011D0008AE0BFDA40E251E067E08AE0BADA4091A3
:1011E000C9015091CA0165E070E082E390E05ADBEA
:1011F0006CEB72E07A83698369817A818EE190E099
:10120000B4D889819A81C2979A838983883C910551
:1012100099F71092C6016CE87AE080E090E075D80A
:10122000EFDA8EEAE2DA379885B7877E806185BF8C
:1012300085B7806285BF85B7806285BF889585B791
:101240008F7D85BF85B78F7D85BF379A8FEACDDAD1
:10125000F89480E090E0892B09F4D1CBD1D6CFCBA4
:101260001092D20183E080937B0082E080937A0029
:10127000E8E6F0E0ADEBB1E08AE790E02EEC3FEF7E
:10128000219331931D928E179F07D1F71092BC01C5
:101290001092BB011092BA0110E4212E312C8091E2
:1012A000CF0181110BC3E0D7892B31F481E080930A
:1012B000D20185E08093D3012091CD013091CE0100
:1012C000243F91E039074CF5C9016EEC7FEFECD477
:1012D000655F6093B90180917B00853040F4C9015E
:1012E000889666E470E0E0D46F5F60937B00609165
:1012F0007B0070E080E89EE3D7D4CB01880F991F74
:10130000880F991F05970197F1F7C9016CE97FEFE5
:10131000CBD4645C6093670004C0203DE7E03E07E7
:10132000A4F38091D201882331F021503109309308
:10133000CE012093CD018091D301882319F08150F3
:101340008093D30123E030E03A83298311E089E0E0
:10135000AED7863B9340BCF48091BA01882399F0C4
:1013600081508093BA011093D40170E060E081E075
:1013700090E0FBD72CD322E030E040E050E0E0D317
:1013800081E090E0F2D749815A81415051095A8356
:101390004983452BE1F680917A002091BB01309181
:1013A000BC01820F932F911D9093BC018093BB01D0
:1013B000F12CEE24E39480917B00F81608F0D2C063
:1013C0006F2D70E07A8369838B01000F111FF80184
:1013D000E859FF4F8081918181389105D8F520919E
:1013E0007A00821B910991838083FB01E055FE4FB7
:1013F0002081222379F184976CF5DB01A354BE4F41
:101400004C918091BA01481728F590E00596D801D3
:10141000A256BE4F2D913C91240F311D8217930788
:10142000CCF48091D3018823A9F010828091CD0162
:101430009091CE0105969093CE018093CD01F0E975
:10144000CF2ED12CB60181E090E08FD771E0C71A82
:10145000D108C1F7C80188599F4F6C01FC018081F8
:10146000918105970CF070C08090BB019090BC01F9
:10147000092C000CAA08BB08AAD226E430E040E000
:1014800050E05ED3625E7F4F8F4F9F4F8616970668
:10149000A806B9060CF458C02BE730E0F6013183FA
:1014A000208380906700912CB12CA12C89E190E0E1
:1014B000A0E0B0E03AE183169104A104B1046CF01D
:1014C00086D2A5019401295131094109510938D326
:1014D000DC01CB014996A11DB11DF801E256FE4F7A
:1014E000918380838101081B190B60E0101611069F
:1014F00034F46DD29801110F440B550B21D3E981BF
:10150000FA81E354FE4F60838090B901912CB12C95
:10151000A12C49815A8140555E4F5A8349838114D9
:101520009104A104B10491F4E981FA81E08210925E
:10153000BC011092BB018091CD019091CE0101962A
:101540009093CE018093CD01F39435CF40D2A50185
:101550009401F6D2672B682B692B31F3E981FA816C
:101560001082E5CF1091D3018091BA01111105C00D
:10157000883318F48F5F8093BA011982F091BA0111
:10158000F695F695F695FD8329812F1739F0622F90
:1015900080E0C2D8D9D8A6D8A5D8B4D839813F5FC1
:1015A0003983383059F76D8180E1B6D8CDD8111123
:1015B00009C04FE1498380E0D1D759815150598307
:1015C0005111F9CF9FD810E001E080917B001817EE
:1015D00008F0C3C0612F70E07A836983CB01880F64
:1015E000991FFC01E859FF4F20813181A9014B5F10
:1015F0005F4F4638510508F09CC02950310927300B
:101600003105E8F4FB01E354FE4F60812091BA01FB
:10161000261798F030E02C5F3F4FFC01E256FE4F5A
:1016200040815181460F511D2417350734F4E9815B
:10163000FA81E055FE4F208121110093CF01F12C5A
:10164000E12CFC01E859FF4F3F0129813A812354E5
:101650003E4F5901AC0142565E4F6A0169817A8161
:1016600060557E4F7A836983F301808091806E2D6F
:10167000882D52D869D8F1E08F1A910897012F5F11
:101680003F4F79013FE78316910408F04DC0A70151
:1016900063E0440F551F6A95E1F7F501208130E0C2
:1016A000CA01821B930B89309105D4F488248A9453
:1016B000912C02C0959487948A95E2F7E981FA818A
:1016C0005080552011F09AEA592E882D47D7852D44
:1016D0008695882943D7852D882940D7882D1EC017
:1016E000BA0168507109F60180819181820F931FC0
:1016F0006217730704F1841795070CF411C1E9818F
:10170000FA819080992011F03AEA932E80E026D752
:10171000892D869523D7892D21D780E01FD780E09A
:101720001DD780E01BD7EED7F8E0EF16F10409F0E3
:101730009BCF1F5F4ACF861797070CF4F5C0481759
:1017400059070CF4F1C08770992788248A94912C4A
:1017500001C0880C8A95EAF7B1CF2091BA01122F07
:1017600017702695269526952983112309F49FC085
:10177000622F88E0D1D7E8D7812F09D7C3D76981F5
:101780006F5F88E0C9D7E0D7E091D401F0E0E0587E
:10179000FF4F30813E8348E0411B4D83832F8C7087
:1017A00090E0B0E0A0E09C01AD010D8004C0559533
:1017B0004795379527950A94D2F729833A834B8327
:1017C0005C838981CBD68E818E7590E0B0E0A0E0FD
:1017D0004C015D010D8004C0B594A7949794879443
:1017E0000A94D2F7882DBAD68E81877990E0B0E03E
:1017F000A0E02C013D010D8004C0759467945794BE
:1018000047940A94D2F7842DA9D63E813375C32E0E
:10181000D12CF12CE12C0D8004C0F594E794D794E1
:10182000C7940A94D2F78C2D99D68C2D97D6842DF7
:1018300095D6882D93D6898191D68091D30188231E
:1018400041F184E090E00D8002C0959587950A945F
:10185000E2F7898319E1898181D61150E1F785E1A9
:1018600090E0AC010D8002C0559547950A94E2F7CF
:101870005A834983898172D6898170D68091D20139
:10188000882329F064E670E082E390E06ED5109240
:10189000D20138D74091CD015091CE0170E060E087
:1018A0008CE590E0FFD71092D4017894F8CC698150
:1018B00088E032D749D780E06AD6EBCF90E080E06D
:1018C00010D1682F70E0962F88279A838983909390
:1018D000C8018093C70181E090E003D1E981FA81DA
:1018E000E82BF093C801E093C7016091CD0170919E
:1018F000CE01E617F7077CF47093C8016093C70127
:1019000081E090E0CED76091CE0190E080E0C9D731
:1019100081E08093C6018091C7019091C80102CCFB
:10192000861797070CF00FCF8FEF18D68FEF16D6CC
:101930008FEF14D68FEFF2CE8F929F92AF92BF921D
:10194000CF92DF92EF92FF92CF93DF93EC01688109
:1019500079818A819B81611571058105910521F449
:1019600064E279ED8BE597E02DE133EF41E050E063
:10197000E7D049015A0127EA31E440E050E0C7D0FE
:101980006B017C012CEE34EF4FEF5FEFC501B4012A
:10199000BED0C60ED71EE81EF91EF7FE06C081E0B7
:1019A000C81AD108E10880E8F80AC882D982EA8218
:1019B000FB82C701B6019F77DF91CF91FF90EF9037
:1019C000DF90CF90BF90AF909F908F9008958F92AF
:1019D0009F92AF92BF92CF92DF92EF92FF9260916F
:1019E0007C0070917D0080917E0090917F00611558
:1019F00071058105910521F464E279ED8BE597E0AD
:101A00002DE133EF41E050E09BD049015A0127EA34
:101A100031E440E050E07BD06B017C012CEE34EFF0
:101A20004FEF5FEFC501B40172D0C60ED71EE81E9E
:101A3000F91EF7FE06C081E0C81AD108E10880E867
:101A4000F80AC0927C00D0927D00E0927E00F09275
:101A50007F00C701B6019F77FF90EF90DF90CF9096
:101A6000BF90AF909F908F90089560937C0070938B
:101A70007D0080937E0090937F000895BB274A30BD
:101A800031F4992322F4BDE2909581959F4F01C0D6
:101A9000BB27FB015527AA27880F991FAA1FA41748
:101AA00010F0A41B83955051B9F7A05DAA3308F03C
:101AB000A95DA193009779F7B111B1931192CB0170
:101AC00000C0DC01FC01672F71917723E1F73297A9
:101AD00004C07C916D9370836291AE17BF07C8F309
:101AE0000895E199FECF9FBB8EBBE09A99278DB3F5
:101AF0000895262FE199FECF1CBA9FBB8EBB2DBB4C
:101B00000FB6F894E29AE19A0FBE01960895EE2777
:101B1000FF27AA27BB2708C0A20FB31FE41FF51F8A
:101B2000220F331F441F551F96958795779567950C
:101B300098F37040A9F7009799F7BD01CF01089578
:101B4000052E97FB16F400940FD057FD05D014D046
:101B500007FC02D046F408C0509540953095219579
:101B60003F4F4F4F5F4F08959095809570956195C9
:101B70007F4F8F4F9F4F0895A1E21A2EAA1BBB1BC8
:101B8000FD010DC0AA1FBB1FEE1FFF1FA217B30749
:101B9000E407F50720F0A21BB30BE40BF50B661F5F
:101BA000771F881F991F1A9469F760957095809523
:101BB00090959B01AC01BD01CF01089540D008F480
:101BC00081E00895E89409C097FB3EF490958095D4
:101BD000709561957F4F8F4F9F4F9923A9F0F92FF3
:101BE00096E9BB279395F695879577956795B79571
:101BF000F111F8CFFAF4BB0F11F460FF1BC06F5F57
:101C00007F4F8F4F9F4F16C0882311F096E911C068
:101C1000772321F09EE8872F762F05C0662371F089
:101C200096E8862F70E060E02AF09A95660F771F9D
:101C3000881FDAF7880F9695879597F90895990F79
:101C40000008550FAA0BE0E8FEEF16161706E80786
:101C5000F907C0F012161306E407F50798F0621BA7
:101C6000730B840B950B39F40A2661F0232B242B7C
:101C7000252B21F408950A2609F4A140A6958FEF9B
:101C8000811D811D08950024552704C0080E591F89
:101C9000880F991F009729F076956795B8F371051D
:101CA000B9F7802D952F089597FB072E16F4009411
:101CB00006D077FD08D00BD007FC05D03EF49095F8
:101CC00081959F4F0895709561957F4F0895AA1B48
:101CD000BB1B51E107C0AA1FBB1FA617B70710F017
:101CE000A61BB70B881F991F5A95A9F78095909549
:0A1CF000BC01CD010895F894FFCF68
:101CFA00FFFFFFFF323E103CCEFFCEFFCEFFCEFFEE
:101D0A00CEFFCEFFCEFFCEFFCEFF020101000000C4
:101D1A003FFF2055502020203A2055464F002044AE
:101D2A004F574E203A20425245414B4F555400429C
:101D3A00205220452041204B204F20552054005549
:101D4A002046204F20204320482041204F20530086
:101D5A006D6F647320626820616E6468206A6163D3
:101D6A006B736F6E0067616D652064657369676E7A
:101D7A00206268002F6562626F67676C65732E6305
:101D8A006F6D002D484947482053434F5245205212
:101D9A00455345542D002D2D204D555445202D2DAC
:101DAA00002D2D20534F554E44204F4E202D2D00EF
:101DBA002D2D2D2D2D2D2D2D2D2D2D2D2D2D2D2D49
:101DCA0000472041204D204520204F205620452005
:101DDA005200484947482053434F52453A00204E43
:101DEA00455720484947482053434F524520000051
:00000001FF
