:100000000DC527C526C525C524C52DCA22C521C5B0
:1000100020C51FC51EC51DC51CC51BC51AC5FFFFB4
:10002000FDFFFFFFFFFFFFFFFFFFFFFFFFFFFFFFE2
:10003000FFFFFDFFFFFFFFFFFFFFFFFFFFFFFF3F92
:100040005F1FCF2FC7BFE77FEFFFBFFFFFFFFFFFA0
:10005000FFFFFFFFFFFFFFFFFFFFFBFFFFFFFFFFB4
:10006000FFFFFFFFFFFFFFFFFFF7FFFFFFFFFFFFA8
:10007000FFFFFFFFFFFFFFFFFF7FFFFFFFFFFFFF10
:10008000FFFFFFFFFFFFFF7FFFFFFFFFFFFFFFFF00
:10009000FFFFFFFFFFFFFFFFF7FFFFFFFFFFFFFF78
:1000A000FFFFFFFFFFFFFFFFFFFFFFFFFEFFFFFF61
:1000B000FFFFFFFFFFFFFFFDFFFFFFFFFFFFC0147C
:1000C000E9F6BDEFFDFFFDFFBFFFD77FDFBFF6FF06
:1000D000FFFFFFFFFFFFFFFFFFFFFFFFFFFFFF7FB0
:1000E000FFFFFFFFFFFFFFFFFFFFFFFFFFFFFFFF20
:1000F000FFFFFFFFFFFFFFFFFFFFFFFFFFFFFFFF10
:10010000FFFFBFFFFFFFFFFFFFFFFFFFFFFFFFDF5F
:10011000FFFFFFFFFFFFFFFFBFFFFFFFFFFFFFFF2F
:10012000FFFFFFFFFFFFFFFFFFFFEFFFFFFFFFFFEF
:10013000FFFFFFFFFFFFFFFFFFFFFFFFFFFFFFFFCF
:10014000FEFFFDF7FFF7FFF7FFFDFFFFFDFFFFFFDE
:10015000FFFFFFFFFFFFFFFFFFFFFFFFFFFFFFFFAF
:10016000FFFFFFFFFFFFFFFFBF7F1FBF0F478F2373
:10017000479343B54BA3DBA5DBB3E75BF7AFF76F63
:10018000FFDFFF5FFFFFFFFFFFFFFFFFFFFFBFFF7F
:10019000FFFFFFFFFFFFFFFFFFFFFFFFFFFFFFFF6F
:1001A000FFFFFFFFFFFFFFFFFFFFFFFFFFFFFFFF5F
:1001B000FFFFFFDFFFFFFFFFFFFFFFFFFFFFFFFF6F
:1001C000EFFFFFFFFFFFFFFFFFFFFFFFFFFFFFFF4F
:1001D000FFFFFFFFFFFFBFFFFFFFFFFFFFFFFFFF6F
:1001E000FFFF9F0F4315025004A218E20CF20CF31C
:1001F000ACDAF5BAED7AEFDABFF6FFEFFDF77FFF85
:10020000EDFF7FFBBFFEDF7DF7DFFFBFFFFFFFBF1F
:10021000FFFFFFFFFFFFFFFFFFFFFFFFFFFFFFFEEF
:10022000FFFFFFFFFFFFFFFFFFFFFFFFFFFFFFFFDE
:10023000FFBFFFFFFFFFAFFFFFFFFFBFFFFFFFFF9E
:10024000FFFFFFFFFFFFFFFFFFFFFFFFFFFFFFFFBE
:10025000FFFFFFFFFFFFFFFFFFFFFFFFFFFFFFFFAE
:1002600011240852005528C31CD1B64DFA57FDD7AA
:100270006EFBEE77DFF5DFFBFDBFFAFFFDFFFD7FD5
:10028000FEBFFFDFFFFFFFBFFFFFFFFEABFFFFFF74
:10029000FFFFFFFFFFFFFFFDFFFFFFFFFFFFFFFF70
:1002A000FFFFFFFFFFFFFFFFFFFFFFFFFEFFFFF767
:1002B000FFF7FFB6D5F780F7D5B6FFF7FFF7FFFFDB
:1002C000FFFFFFFFFFFFFFFFFFFFFFFFFFFFFFFF3E
:1002D000FFFFFFFFFFFFFFFFFFFFFFFFFFFFFFF637
:1002E00048A11449A659A5BA6BDE75FFDB7FEDFF67
:1002F000F7FFFD7FFFFDFFFEFFFFFFFFDFFBFFBFFF
:10030000F7DFFBBF6DDFFFB77FFF57BED5FFFFFFF6
:10031000FFFFFF7FFFFFFFFFFFFFFFFFBFFFFFFFAD
:10032000FFFFFFFFFFFDFFFFFFFFFFFFFFFFFFFFDF
:10033000FFFEFFFFFFFFFAEFFFFFFFFEFFFFFFFFE4
:10034000FFFFFFFFFFFFFFFFFFFFFFFFFFFFFFFDBF
:10035000FFFFFFFFFFFFFFFFFFFFFFFFFFFFFFFFAD
:10036000FFFEE9D46B9679D7BDD7FDEFBDF7DFFF70
:10037000EEFFFFFFFFEFFFFFFFFBEEFF77FDFFDF6D
:10038000F6EF7DEBFF56BDCBF5F6FDFFFFFFFFFF60
:10039000FFFFFFFFFFFFFFFFFFFFFFFFFFFFFFFF6D
:1003A000FFFFFFFFEFFFFFFFFFFFFFFFFFFFFFFF6D
:1003B000FFFFFFFFFBFFFFFFFFFFFFFFFFFFFFFF51
:1003C000FFFFFFFFFFFFFFFFFFFFFFFFFFFFFF7FBD
:1003D000FFFFFFFFFFFFFFFFFFFFEFFFFFFFFFFF3D
:1003E000FFFFFFFFFFFFFDFEFFFAF7FDEFF7DEEF78
:1003F000FFBFEEFFDFBFFFDFFEBFFFAFFFDFFBFF93
:10040000F6FFFBFFFCFFFFFFFFFFFFFFFEFFFFFF0D
:10041000FFFFFFFBFFFFFFFFFFFFFFFFFFFF80C0AE
:1004200080000080C080000080C08000007078786C
:1004300078787E7F7E787878787054D1B4783CF084
:1004400034F88078EAE07400000058BC163F3F168C
:10045000BC58000000000000985CB65F5FB65C9876
:100460000000000070187DB6BC3C3CBCB67D187026
:1004700000001EB87D363C3C3C3C367DB81E00007A
:100480009C9E5E76375F5F37765E9E9C00001C5EAA
:10049000FEB6375F5F37B6FE5E1C00004060F0506E
:1004A0007858587850F0604000004060D07058781C
:1004B000785870D060400000000000002418182414
:1004C00000000000000000008100241818240081B2
:1004D0000000000000248118245A5A2418812400A6
:1004E00000420024814A3CA4253C4A81240042F079
:1004F0000F000000000000000000000000000000ED
:1005000000000000000000000000000000000000EB
:100510000080C0E0E0E0F0F0F0F0F0F0F0F0F0F09B
:10052000E0C0C0E0F0F0F0F0F0F0F0F0F0E0E0F06B
:10053000F0F0F0F0F0F0F0F0F0F0F0E0E0F0F0F0DB
:10054000F0F0F0F0F0F0E0C0C0E0F0F0F0F0F0E03B
:10055000E0C080000000000000000000000000007B
:10056000000000000000000000000000000000008B
:10057000000000000000000000000000000000007B
:1005800000000000000000000000000000789C1E39
:100590001F1F1F1F1F1F1F1F1F1F1F1F3FFFFFFFAB
:1005A000FFFFFFFF1F1F1F1F1FFFFFFFFFFFFFFFBB
:1005B000FFFFFFFFFFFFFFFFFFFFFFFFFFFFFFFF4B
:1005C000FFFFFFFFFF3F3F3F3F3F3FFFFFFFFFFFBB
:1005D000FFFF3F3F3E3C38B06000000000000000DD
:1005E000000000000000000000000000000000000B
:1005F00000000000000000000000000000000000FB
:1006000000000000000000000000000000000102E7
:1006100006040404FC0000000000FCFCFCFCFFFFDE
:10062000FF7F1FFF0404040404FFFFFFFFFFFFFF21
:1006300007070707070F0707070707070F0F1F7FA2
:10064000FFFFFFFFFFFFFC0000000001FF7F3F1FD7
:1006500007804020180E0301000000000000000089
:10066000000000000000000000000000000000008A
:10067000000000000000000000000000000000007A
:10068000000000000000000000000000000000006A
:1006900000000000037C80000000037FFFFFFF1FBD
:1006A00003000007F80000000007FFFF0FFFFF7FB7
:1006B00000000000807E077FFFFFFF7E00000080BB
:1006C000FFFFFFFFFFFFFF7E00000000C0301806A5
:1006D0000300000000000000000000000000000017
:1006E000000000000000000000000000000000000A
:1006F0000000C0E0F0F8FCFEFEFEFEFEFEFEFCFE8A
:10070000FEFEFEFEFEFCF0EEFEFEFEFEFEFEFEFE29
:10071000FEFEFCF8F8FEFFC0C0C0C0C0FFFFE1C095
:10072000C0F8F8F8FFC0C0C0C0C0FFFFF0FFFFC0B6
:10073000C0C0C0C0FFF8F8F8FFFFFFC0C0C0C0FFD6
:10074000F8FFFFDFC7C1C0C0C0F8F6E1F8F8F8F85D
:10075000F8F8F8F8FEFEFEFEFEFEFCF0E0F0F0F821
:10076000FCFCFEFEFEFEFEFEFEFEF8E0E0C0000029
:1007700000070F79E1C101030F3FFFFFF9C38307B2
:100780000F1F7FFFFFF3830303033FFFFFFBC30341
:1007900003070F7FFFFFFFE10101010103FFFFFFDF
:1007A000FFFF03030303010101010FFFFFFFFFFF31
:1007B0000303030303F3F3F3F30303070F0FFFFF35
:1007C000FFFF0303030383F3F3F3F3F3F3F3FFFFF9
:1007D000FF1F03010181F1F1F3F3030303038FFF13
:1007E000FFFF7F1F0F0F87E3F3F13101010181E765
:1007F0007E0000000003071C38E08003071F7FFE17
:10080000F0E08000010707CE80000000073FFFFFF7
:10081000FCF0C000030F3FFFF8800000003FFFFF27
:10082000FFFF00000000FEFCE0000003FFFFFFFFF1
:10083000FF00000000FFFFFF0F00000000F8FFFFB7
:100840000F00000000C0CFCFCFCFCFFFFFFF3F078B
:10085000010000809E9F1F0F61E0F0F0FCFFFFEFA2
:1008600083808080981E1F1E1FF6E606060607017D
:1008700000708070008000A8A8F9030F1C70E08150
:10088000838FBFFEF8E080818F9FFEDC30E0C08365
:100890009FFFCF1F7CE0C081838380808080FFFF2B
:1008A0000FFF80808080F31313F08080809FFFFF14
:1008B000FF808080BCBFBFBF8080C0E07FFFFF871C
:1008C00080808080BEBFBFBFBFFFFFFF9F8380804F
:1008D000F0FEFFFF8F8180E0F03EFFDF8787879784
:1008E0009F9FDFC7E160381C0E030100000000007D
:1008F00000AE2000B0C8001040813FA1A6A83FA4D0
:10090000D300D5F0D922DA12DB208D14AF0000001D
:1009100000000002020202020204040404040404AF
:100920000404040404040404040404040200000293
:1009300004040200000204040404040404FF000090
:100940000000FF020202020202040404040404FF85
:1009500004040404FF00FF0000FF0002FF0202FF86
:100960000204FF0404FF0404FF0404FF04FFFF0269
:1009700002FFFF000202020200020402020402025D
:10098000FFFFFFFF02040404040404020202020247
:1009900002000000000000000000000000FF000056
:1009A0000000FF02FFFFFFFF0204FFFFFFFF04FF45
:1009B00004040404FF04FF04FF04FFFF04FF04FF1A
:1009C0000404FF04FF04FFFF04FF04FF04FFFF0013
:1009D00000FFFF020204040202020204040202FFFA
:1009E000FF0000FFFF0000040402020000040402F4
:1009F00002000004040202000004040202000000DD
:100A0000003600000000003800000000003700023F
:100A100002020202020102040810200011241FBE7B
:100A2000CFE5D2E0DEBFCDBF10E0A0E6B0E0E6E368
:100A3000FFE102C005900D92A636B107D9F720E07C
:100A4000A6E6B0E001C01D92A537B207E1F755D583
:100A500070CAD6CACF93DF9387FD85E090E0FC0192
:100A6000EB5EF54F2491815F954FFC0184918823C3
:100A7000C1F090E0880F991FFC01E75FF54FC59129
:100A8000D491FC01ED5FF54FA591B4919FB7F89417
:100A90008881E22FE0958E2388838C91E823EC9364
:100AA0009FBFDF91CF910895C298C098C29AC09A13
:100AB000089530E020E090E0AC01022E01C0440F28
:100AC0000A94EAF747FF0CC0C09AC29AC2982F5FF7
:100AD0003F4F2830310581F7C09AC29AC2980895D5
:100AE000C098F3CFC29AC09AC098C2980895CF9385
:100AF000C82FF8DF88E7DDDF80E0DBDF8C2FD9DF70
:100B0000CF91D2CFE6E1FAE08491E0E1FAE0E4911E
:100B1000EE2371F0F0E0EE0FFF1FE350F64FA591CA
:100B2000B491EC91E82381E090E021F480E0089515
:100B300080E090E0089517B887B187B9369A369962
:100B4000FECF84B195B10895663040F46230B8F4B8
:100B5000662359F0613069F080E00895663069F0ED
:100B60006730D1F7813059F402C0811108C080EF9D
:100B70000895811104C08CEF08958130E1F38FE076
:100B80000895683008F03BC070E061537A4FE82F59
:100B9000F0E0E40FF51F82A16F937F93089507C0E3
:100BA0000EC012C016C01AC01EC022C026C0805877
:100BB00082A3211124C08FEFFA0181A708958054E8
:100BC00082A32223C1F30895805282A3222399F3A2
:100BD0000895805182A3222371F30895885082A33F
:100BE000222349F30895845082A3222321F30895F8
:100BF000825082A32223F9F208958150D9CF08951B
:100C0000463009F077C0A901962F282F6DEE690FA5
:100C1000683088F4E0E8F0E0062E02C0F595E7952C
:100C20000A94E2F7DA0192968C918E2321F080E00B
:100C3000A8DF81E0089565EE690F683078F4E0E898
:100C4000F0E0062E02C0F595E7950A94E2F7DA0186
:100C500093968C918E2311F081E0EACF6AEC690FB4
:100C6000683078F4E0E8F0E0062E02C0F595E795EC
:100C70000A94E2F7DA0194968C918E2311F082E0C7
:100C8000D7CF62EC690F683078F4E0E8F0E0062E28
:100C900002C0F595E7950A94E2F7DA0195968C91F2
:100CA0008E2311F083E0C4CF67EA690F683078F4CF
:100CB000E0E8F0E0062E02C0F595E7950A94E2F729
:100CC000DA0196968C918E2311F084E0B1CF6FE912
:100CD000690F683078F4E0E8F0E0062E02C0F59580
:100CE000E7950A94E2F7DA0197968C918E2311F03A
:100CF00085E09ECF80E00895FC0110926800AC0171
:100D00004C5F5F4F24E090E0DA0136E08D918F3F39
:100D100019F086300CF49F5F3150C1F721504A5FC3
:100D20005F4F2111F1CF9093680096959695969517
:100D300096AB089590E02FEF30E0281B3109811128
:100D4000C49A40E04217130634F455E05A95F1F77F
:100D500000004F5FF7CFC49840E04217130634F409
:100D600055E05A95F1F700004F5FF7CF9F5F691389
:100D7000E6CF089568E08CEDDDDF64E088ECDACF43
:100D80002F923F924F925F926F927F928F929F929B
:100D9000AF92BF92CF92DF92EF92FF920F931F9389
:100DA000CF93DF9300D000D000D0CDB7DEB7782E40
:100DB0007E836D83312C212CE0E84E2E512CE22CC9
:100DC00080EB820D94DE80E092DE80E190DE8ADEB0
:100DD00088E76FDE80E46DDE91013695322F2227A1
:100DE000379527953A832983D12CC12C00E02F50C9
:100DF0003B4F3C832B8366246A94711029C3209156
:100E000066002111BDC16DEE600F683008F073C13E
:100E100036E0E31270C1AD81BE8192963C91C20171
:100E2000062E02C0959587950A94E2F7832319F060
:100E300080E08ADE282FAD81BE819896EC91E00F8C
:100E4000E7FDE05849815A814E0F511DFA01E25EDB
:100E5000FF4FB490B09480916B0090E065E070E03B
:100E600024D80197B601681B790BCB011816190617
:100E70000CF488C177E0E71285C1F601E25EFB4F12
:100E8000F490B22A80916000F601E81BF109ED3080
:100E9000F10508F084C187E0E81281C18091690002
:100EA000811172C1E35DFB4F1491BF28ED81FE817A
:100EB0002081283809F475C1E11073C1022E000C9D
:100EC000330BC216D3060CF46CC1A6014E50510967
:100ED000241735070CF465C1A601421B530B9A0178
:100EE000818190E06EE070E0E0D7820F931FFC01FB
:100EF000E556FB4FF490B12AAD81BE81D396AC90FC
:100F00000A1508F050C110E0FB28ED81FE8182A592
:100F100008133AC221A5822F022E000C990B281625
:100F2000390609F031C227FD2FC293A581E0911146
:100F300080E0AD81BE819B968C939B97911103C0FD
:100F4000215099962C930A1508F48FC0B12C950165
:100F50002C5A3F4F2C153D050CF487C0ED81FE81C6
:100F600081A4880C990890E00196880E991EA4012E
:100F7000440F551F440F551F84A990E09C0163E066
:100F8000220F331F6A95E1F7421753070CF46DC027
:100F9000205E3F4F241735070CF467C0880F991F58
:100FA000881A990AB40197FE02C06F5F7F4F75954A
:100FB0006795072E000C880B990BE2D620E030E0F5
:100FC00040E05FE3FFEF8F169F060CF4D5C141D6DA
:100FD000A4D6862E96012A193B095901C9016EE053
:100FE00070E080D7072E000C880B990BC9D633EF21
:100FF000A3163FEFB3060CF4C1C120E030E040E09F
:101000005FE327D68AD687FC29C2663074F543E0B1
:1010100048155CF1082C000C990867FD60E0A62ECD
:10102000660FBB08C40166E070E03FD76D817E812A
:10103000860F971FFC01EA0DFB1D84818630A8F402
:101040006AE082E377DEC40166E070E02ED7AD810E
:10105000BE818A0F9B1F8A0D9B1D28E0FC01248303
:1010600099966C929997CD0147DEAD81BE81999694
:101070008C919997811123C09A962C919A9730E080
:101080008C91082E000C990B28173907C4F00E9686
:1010900082179307A4F0BB24B39461E08B2D4ADE42
:1010A000B394B4E6BB12F9CF80916B00833018F48F
:1010B0008F5F80936B0028E8ED81FE812083AD81F6
:1010C000BE819B96EC91F0E0E151FB4F9491E12FB2
:1010D000EF29AD81BE8113962C911397822F8695AF
:1010E0008E1154C112968C91081350C18FE020FFCD
:1010F0004EC180EF4CC165EE600F683090F4B6E0F1
:10110000EB120FC0ED81FE8133A1C201062E02C099
:10111000959587950A94E2F7832309F48CCE81E0B4
:1011200088CE6AEC600F683040F4F6E0EF1205C03C
:10113000AD81BE8194963C9172CE62EC600F6830B6
:1011400038F4B6E0EB1204C0ED81FE8135A1DDCFAD
:1011500067EA600F683040F4F6E0EF1205C0AD8139
:10116000BE8196963C915BCE6FE9600F683008F0C7
:1011700062CEB6E0EB125FCEED81FE8137A1C5CF26
:1011800020E059CEF12C7DCEAD81BE8111968C919F
:1011900090E06CE070E089D6E80FF91F83CE10E094
:1011A00084CEF12CA8CEED81FE8124A9E21608F4AC
:1011B000AACEC6018A1991096EE070E093D666A79F
:1011C0008E2D821B87A7663008F09DCE853008F0F3
:1011D0009ACE45A9DB01BB2741112CC090E066E007
:1011E00070E063D68E0F9F1FA80FB91F14969C91B5
:1011F00098306CF484A56EE04FD6282F9F3F09F4F9
:1012000082CEE02FEA19EE3020F0EE50FCCF20E045
:10121000F8CF892F990F990B6EE070E046D6E80F52
:10122000F92FF11DE20FF11D27FDFA95E95BFB4F48
:1012300014916ACE81112EC02D813E81A20FB31F61
:1012400014969C9198307CF4D9019C968C916EE018
:1012500023D6282F9F3F09F456CEE02FEA19EE300F
:1012600020F0EE50FCCF20E0F8CF892F990F990B9A
:101270006EE070E01AD6E80FF92FF11DE20FF11DB4
:1012800027FDFA95E95BFB4F149101C0110F4A95B8
:10129000EAF73ACE882E912CC401019766E070E0FF
:1012A00004D6ED81FE818E0F9F1FFC01EA0FFB1F0C
:1012B0009481983054F4ED81FE8184A56EE0ECD5E4
:1012C000382F9F3F19F420E022C030E0E02FEA19C8
:1012D000EE3010F0EE50FCCF892F990F990B6EE095
:1012E00070E0E3D5E80FF92FF11DE30FF11D37FD95
:1012F000FA95E95BFB4FE4912E2F30E088E090E017
:10130000841B910902C0359527958A95E2F7C4019F
:1013100066E070E0CAD56D817E81860F971FA80FA9
:10132000B91F14969C91983054F4DB019C968C91D3
:101330006EE0B2D5382F9F3F19F410E01BC030E0AB
:10134000E02FEA19EE3010F0EE50FCCF892F990F04
:10135000990B6EE070E0A9D5E80FF92FF11DE30FAE
:10136000F11D37FDFA95E95BFB4F149101C0110F98
:101370004A95EAF7122BC8CD6BD42ACE20E030E094
:1013800040E05FE365D43ECE90E0A1CE80E0E92B63
:101390008E2B8FDB0F5FBFEFCB1ADB0A003809F013
:1013A0002CCD71100BC080916600811106C02D817B
:1013B0003E81F90141A562A523DC76DBFFEF2F1A00
:1013C0003F0A28E02216310409F0F9CC711027C039
:1013D000AD81BE81D4962C91D497D0963C91D09774
:1013E00085E090E0831B910928171906C4F08091CD
:1013F00066008130A1F092961C92929793961C926F
:10140000939794961C92949795961C92959796967E
:101410001C92969797961C9281E080936600269680
:101420000FB6F894DEBF0FBECDBFDF91CF911F91F5
:101430000F91FF90EF90DF90CF90BF90AF909F9073
:101440008F907F906F905F904F903F902F90089576
:10145000EB81FC81EC0DFD1D84919BCF812C6630CE
:101460000CF4D8CD02CE1F920F920FB60F9211241A
:101470002F933F938F939F93AF93BF93809171006E
:1014800090917200A0917300B0917400309170003F
:1014900023E0230F2D3768F126E8230F0296A11DC4
:1014A000B11D209370008093710090937200A093FF
:1014B0007300B093740080916C0090916D00A091C6
:1014C0006E00B0916F000196A11DB11D80936C005C
:1014D00090936D00A0936E00B0936F00BF91AF9199
:1014E0009F918F913F912F910F900FBE0F901F9062
:1014F00018950196A11DB11DD4CFCF93DF93CDB721
:10150000DEB7EC970FB6F894DEBF0FBECDBF83E019
:101510008ABD83BF789489B7826089BF80E48CBD1F
:101520008FEF8DBD87EC80BF86B1876886B9379A0B
:10153000B89ABA9A01EF18E0F8018491D8DA0F5FEF
:101540001F4FF9E00D301F07B9F781E083DABC9A2D
:1015500080E880DA92E0E92E8E010F5F1F4F23E0D2
:10156000822E912CA12CB12C3DEF232E33243A94C2
:1015700083E080936B0010926A00B80181E000DC88
:10158000C1DA892BD1F76DE784E6D4DB6DE782E31E
:10159000D1DB109266001092670088E180936800AA
:1015A000F0906A008F2D0F2C000C990B68E170E011
:1015B0007CD4B801D12C801B910BCC24CA94DB01C4
:1015C00030E020E0AC01460F571F435F564FE4E088
:1015D000DE1609F49DC0FA01E20FF31FE4911496A0
:1015E000EC9314972F5F3F4F11962630310579F712
:1015F000D3946A5F7F4FF5E0DF12E1CF8FEF8BA3CB
:101600008CA38DA38EA38FA388A790E19B839C833B
:1016100098E899838AA71BA61CA61DA61EA61FA62E
:1016200018AA83E089AB1AAA8CE28BAB84E18CAB5D
:1016300023E02F1508F071C081E08DAB1EAA88E071
:101640008FAB81E088AF1A82C80156DB88E38093B4
:10165000600089A786E3F82E10926900B80180E047
:101660008FDB4FEF53ED80E3415050408040E1F776
:1016700000C00000D12CCC24C3948091680081115B
:101680004EC06FEF8EE656DB9FEFE3EFF1E0915037
:10169000E040F040E1F700C000006FEF82E84ADB75
:1016A0002FEF43EF51E0215040405040E1F700C0A0
:1016B00000006FEF84E63EDB8FEF93EFE1E08150B7
:1016C0009040E040E1F700C000006BE981E032DBD0
:1016D000FFEF29EF40E0F15020404040E1F700C02B
:1016E00000006FEF8CE326DB6FEF8CE323DB809150
:1016F0006A00893018F48F5F80936A002FEF43ED02
:1017000050E3215040405040E1F700C0000041CF7D
:10171000F801E20FF31FC48E65CF1DAA8FCF89A9F0
:1017200090E001962DA9820F911D079721F4D11009
:1017300002C0C09269008091670090916A0029E020
:1017400030E0291B31098217130611F00CF0C8C0D4
:101750008F5F80936700809160006EE0B7D38C5CF0
:1017600089A7B80180E00CDB81E09A81911180E0CB
:101770008A839E012B5F3F4F94E0F90146E0808110
:101780008B3014F05FEF50838191883024F0DF01BB
:1017900011978F5F8C93415091F791502A5F3F4F83
:1017A0009111EBCF4C814031D1F06B8182EF840FEE
:1017B000823060F480916000681740F090E00E96EF
:1017C0006817190609F014F4C0926900469598014B
:1017D00081E016DA882309F4BFC080E18C83898117
:1017E000883859F082508983883809F4B8C0C2DA41
:1017F00089818D3E14F498E899838CA98A518330AD
:1018000040F48DA9823029F48EA9843011F4EFE7D9
:10181000E983EF2DF0E020916000822F90E0AC0191
:101820004E5F5F4F4E175F0754F4AF01481B590BD3
:10183000CA0163E070E056D3260F20936000209128
:101840006000822F90E0AC0142505109E417F50787
:101850003CF48E1B9F0BB10145D3260F20936000F3
:1018600080916900813009F4D4C08EA59FA98917A1
:1018700008F079C08F5F8EA75ED98E3E92404CF003
:101880005AD9863B93402CF4F5E0FF1510F42AEF6B
:10189000F20E51D9853F91404CF04DD98E3E924089
:1018A0002CF48BE68F1510F096E0F90E2BD9892BCE
:1018B00069F4E2E0EE120AC064E088EC3BDA86E00C
:1018C0008AA7809160008A5F8BA7E12C8AA58F3F51
:1018D00009F0D3CE82E0E81609F4CFCEE394CDCE62
:1018E0001092670007D12B013C0104D169AF7AAF98
:1018F0008BAF9CAF8C81803109F02DCFC301B20139
:10190000A501940167D1762E69AD7AAD8BAD9CAD02
:1019100026E030E040E050E05DD1262F663008F050
:1019200025E0872D90E066E070E0BFD2800F911F28
:10193000FC01E20FF11D84818F3F09F40CCF9CA9BB
:10194000995F822F6EE0A8D2890F8B838DA9780EC4
:10195000770C73947C82FFCE8C818F5F3FCF61E0E8
:1019600080E0E8D945CF83E089AB9E01295E3F4FF7
:10197000F90196E041914F3F39F49150D9F78150E8
:10198000265031098F3FA1F789AB9DA581E09111C8
:1019900080E08DA78981992389F0883859F0EAD9A8
:1019A0008CA998AD913001F59BA9891760F48E5FE1
:1019B0008CAB11C061E088ECBDD9F2CF883879F7E3
:1019C00061E084E6F9CF8EA9873048F48C5F8830D7
:1019D00020F48EAB18AE1EA64FCF87E0FACF8DA9AC
:1019E0008F5F8DAB1EAAF6CF9AA9981710F482507C
:1019F000DFCF8EA9873040F48C5F883018F48EAB2F
:101A0000C8AEE9CF87E0FBCF8DA98F5F8DAB1EAA53
:101A1000F7CF61E080E58ED961E084E68BD9D3947D
:101A2000FDE1FD1508F052CF2FEF4BE45DE12150B1
:101A300040405040E1F700C0000089A990E00196C5
:101A40002DA9820F911D079709F492CD80916B000B
:101A5000882309F48DCD815080936B00FDCD8F924A
:101A60009F92AF92BF92CF92DF92EF92FF92CF936D
:101A7000DF93EC01688179818A819B816115710511
:101A80008105910521F464E279ED8BE597E02DE184
:101A900033EF41E050E09ED049015A0127EA31E49A
:101AA00040E050E07ED06B017C012CEE34EF4FEF34
:101AB0005FEFC501B40175D0C60ED71EE81EF91E32
:101AC000F7FE06C081E0C81AD108E10880E8F80AEC
:101AD000C882D982EA82FB82C701B6019F77DF9173
:101AE000CF91FF90EF90DF90CF90BF90AF909F90FD
:101AF0008F9008958F929F92AF92BF92CF92DF9274
:101B0000EF92FF926091610070916200809163009A
:101B100090916400611571058105910521F464E2DD
:101B200079ED8BE597E02DE133EF41E050E052D0C5
:101B300049015A0127EA31E440E050E032D06B011C
:101B40007C012CEE34EF4FEF5FEFC501B40129D0DB
:101B5000C60ED71EE81EF91EF7FE06C081E0C81AA1
:101B6000D108E10880E8F80AC0926100D0926200D2
:101B7000E0926300F0926400C701B6019F77FF9086
:101B8000EF90DF90CF90BF90AF909F908F9008958F
:101B9000609361007093620080936300909364008F
:101BA0000895EE27FF27AA27BB2708C0A20FB31F5F
:101BB000E41FF51F220F331F441F551F969587956D
:101BC0007795679598F37040A9F7009799F7BD014D
:101BD000CF010895052E97FB16F400940FD057FD02
:101BE00005D014D007FC02D046F408C050954095AB
:101BF000309521953F4F4F4F5F4F089590958095B9
:101C0000709561957F4F8F4F9F4F0895A1E21A2ED7
:101C1000AA1BBB1BFD010DC0AA1FBB1FEE1FFF1F90
:101C2000A217B307E407F50720F0A21BB30BE40BE0
:101C3000F50B661F771F881F991F1A9469F7609527
:101C40007095809590959B01AC01BD01CF010895E1
:101C50005058BB27AA270ED0E5C0D6D030F0DBD035
:101C600020F031F49F3F11F41EF4CBC00EF4E09548
:101C7000E7FBC1C0E92FE7D080F3BA17620773070B
:101C80008407950718F071F49EF5FFC00EF4E095F7
:101C90000B2EBA2FA02D0B01B90190010C01CA0126
:101CA000A0011124FF27591B99F0593F50F4503ED1
:101CB00068F11A16F040A22F232F342F4427585FC3
:101CC000F3CF469537952795A795F0405395C9F7DB
:101CD0007EF41F16BA0B620B730B840BBAF0915093
:101CE000A1F0FF0FBB1F661F771F881FC2F70EC032
:101CF000BA0F621F731F841F48F487957795679505
:101D0000B795F7959E3F08F0B3CF9395880F08F0ED
:101D10009927EE0F97958795089504D06894B1118F
:101D2000B5C0089598D088F09F5790F0B92F9927A3
:101D3000B751A0F0D1F0660F771F881F991F1AF0D6
:101D4000BA95C9F712C0B13081F09FD0B1E00895C3
:101D50009CC0672F782F8827B85F39F0B93FCCF344
:101D6000869577956795B395D9F73EF490958095CC
:101D7000709561957F4F8F4F9F4F0895E89409C0EC
:101D800097FB3EF490958095709561957F4F8F4FAE
:101D90009F4F9923A9F0F92F96E9BB279395F695C4
:101DA000879577956795B795F111F8CFFAF4BB0F42
:101DB00011F460FF1BC06F5F7F4F8F4F9F4F16C0A6
:101DC000882311F096E911C0772321F09EE8872F30
:101DD000762F05C0662371F096E8862F70E060E0EC
:101DE0002AF09A95660F771F881FDAF7880F969565
:101DF000879597F9089597F99F6780E870E060E00C
:101E000008959FEF80EC089500240A941616170693
:101E100018060906089500240A94121613061406DB
:101E200005060895092E0394000C11F4882352F03E
:101E3000BB0F40F4BF2B11F460FF04C06F5F7F4FF6
:101E40008F4F9F4F089557FD9058440F551F59F0DD
:101E50005F3F71F04795880F97FB991F61F09F3F97
:101E600079F087950895121613061406551FF2CFC0
:101E70004695F1DF08C0161617061806991FF1CF10
:101E800086957105610508940895E894BB27662737
:101E90007727CB0197F90895002480FD060E660F81
:101EA00011F08695D1F7802D08950024552704C0A0
:101EB000080E591F880F991F009729F0769567958E
:101EC000B8F37105B9F7802D952F0895991B79E026
:101ED00004C0991F961708F0961B881F7A95C9F7BA
:101EE0008095089597FB072E16F4009406D077FD91
:101EF00008D00BD007FC05D03EF4909581959F4FFC
:101F00000895709561957F4F0895AA1BBB1B51E101
:101F100007C0AA1FBB1FA617B70710F0A61BB70B59
:101F2000881F991F5A95A9F780959095BC01CD01FE
:061F30000895F894FFCFB4
:061F36003801000000006C
:00000001FF
