:100000005EC078C002C376C075C0B5C273C072C08E
:1000100071C070C06FC06EC06DC06CC06BC00C1280
:10002000212121120C00080C080808081C001E21C0
:10003000201806013F001E21201C20211E0018143C
:1000400012113F1010003F011F2120211E001C0231
:10005000011F21211E003F201008080404001E215A
:10006000211E21211E001E21213E20100C00FF8197
:10007000A59999A581FFFF8199A5A59981FF000008
:10008000000000000000FF818181818181FF27291C
:1000900029272121E100A6A9A9A94F4949005155C5
:1000A0005555555B5100C92B2B4D8D8969005F4417
:1000B0004444444444001F01010F01011F00112466
:1000C0001FBECFE5D2E0DEBFCDBF10E0A0E6B0E0BE
:1000D000EEEBFCE002C005900D92A436B107D9F713
:1000E00020E0A4E6B0E001C01D92A939B207E1F713
:1000F00096D2E3C585CF83E087B9369A3699FECF8D
:1001000084B195B10895EFE6F0E08EE280838183BB
:100110008283838384838583369690E0E939F90767
:10012000A9F708953FB7F8948091690090916A000B
:10013000A0916B00B0916C0022B708B601FE05C01B
:100140002F3F19F00196A11DB11D3FBFBA2FA92F56
:10015000982F8827BC01CD01620F711D811D911D53
:1001600042E0660F771F881F991F4A95D1F70895BF
:100170008F929F92AF92BF92CF92DF92EF92FF92B7
:100180004B015C01CFDF6B017C01CCDF6C197D0979
:100190008E099F09683E734081059105B0F321E007
:1001A000821A9108A108B10888EEC80E83E0D81E13
:1001B000E11CF11C81149104A104B10431F7FF90FA
:1001C000EF90DF90CF90BF90AF909F908F90089569
:1001D00030E020E090E0AC01022E01C0440F0A9410
:1001E000EAF747FF0CC0C09AC29AC2982F5F3F4FF0
:1001F0002830310581F7C09AC29AC2980895C098F4
:10020000F3CFC298C098C29AC09A0895C29AC09A71
:10021000C098C2980895CF93DF93C82FD62FF6DFEA
:1002200088E7D6DF80E0D4DF80EB8D0FD1DF8C2F25
:1002300082958F708061CCDF8C2F8E708160C8DFDB
:10024000DF91CF91DECFCF93C82FE0DF88E7C0DF0B
:1002500080E0BEDF8C2FBCDFCF91D3CFCF93DF9375
:10026000C0EB8C2FF0DF80E0EEDF80E1ECDFCEDF53
:1002700088E7AEDF80E4ACDFD0E080E0A9DFDF5FBD
:10028000D038D9F7BEDFCF5FC83B59F7DF91CF91A8
:100290000895E4DF8EEAD7DF379885B7877E8061DF
:1002A00085BF85B7806285BF85B7806285BF889529
:1002B00085B78F7D85BF85B78F7D85BF379A8FEADC
:1002C000C2CF0F931F93CF93DF93C82F9FDF88E791
:1002D0007FDF80E47DDF0C2E000CDD0B83E0CC0F94
:1002E000DD1F8A95E1F710E000E0C25EDF4FFE01FE
:1002F000E00FF11F84916CDF0F5F1F4F0830110575
:10030000B1F7DF91CF911F910F917BCFEF92FF92C9
:100310000F931F93CF93DF930FE610E0C8E27801AD
:10032000D1E06D2F8C2F77DFF70180818F3421F0A2
:100330008835B1F08DE001C08BE0C3DFDF5FF6E010
:10034000EF0EF11CD83069F70F5F1F4FC85FC8353B
:1003500031F7DF91CF911F910F91FF90EF900895AA
:100360008AE0EBCF9C01CB0167307105C0F466E0F9
:1003700070E092D4820F931FFC0125E030E055819C
:1003800050343CF4820F931FFC01408381E090E0E5
:1003900008952150310931972F3F320781F790E0BE
:1003A00080E008952F923F924F925F926F927F92DA
:1003B0008F929F92AF92BF92CF92DF92EF92FF9275
:1003C0000F931F93CF93DF9300D000D000D0CDB711
:1003D000DEB7462F9C838B8310E000E030E020E006
:1003E000AB80BC8075011E821D82F0E0E0E0912CA4
:1003F000812C712C612CD12CC12C512C412CAB8126
:10040000BC816D817E81A61BB70BBA83A9831801BD
:100410002E0E3F1E77E02716310468F4CF0166E008
:1004200070E03AD48E0D9F1DDC018C91841303C0C3
:10043000BFEF4B1A5B0A8D819E818E0F9F1F06971F
:1004400058F5C5018E0F9F1FDC018C91841303C0EA
:10045000BFEFCB1ADB0AB7E02B163104E8F4CF016B
:1004600067E070E019D48E0D9F1DDC018C91841320
:1004700003C0BFEF6B1A7B0ACF0165E070E00CD4BC
:10048000A981BA818A0F9B1FDC0116968C91841377
:1004900003C0BFEF8B1A9B0A64E04616510411F4A7
:1004A0002F5F3F4F74E0C716D10411F42F5F3F4F09
:1004B00084E06816710411F42F5F3F4F94E08916B1
:1004C000910411F42F5F3F4F3196E430F10509F0AC
:1004D0009ECFAD81BE811196BE83AD83BFEFEB1A77
:1004E000FB0A6FEFA61AB60AAD81BE81169709F016
:1004F0007CCF0F5F1F4FAB81BC811696BC83AB8353
:100500000730110509F06CCFC90126960FB6F89493
:10051000DEBF0FBECDBFDF91CF911F910F91FF9036
:10052000EF90DF90CF90BF90AF909F908F907F9093
:100530006F905F904F903F902F900895EF92FF92B1
:100540001F93CF93DF93182F7B01D0E0C0E06C2F77
:100550006F5F80E160DE812FEC16FD0609F08CE014
:10056000B0DE2196C730D10591F7DF91CF911F9171
:10057000FF90EF9008951F920F920FB60F921124E3
:100580002F933F938F939F93AF93BF938091650079
:1005900090916600A0916700B0916800309164006E
:1005A00023E0230F2D3758F50196A11DB11D20938F
:1005B00064008093650090936600A0936700B093F9
:1005C00068008091690090916A00A0916B00B091E1
:1005D0006C000196A11DB11D8093690090936A0083
:1005E000A0936B00B0936C00BF91AF919F918F91DE
:1005F0003F912F910F900FBE0F901F90189526E8F6
:10060000230F0296A11DB11DD2CF1F920F920FB6DC
:100610000F9211240F900FBE0F901F901895CF933B
:10062000DF93CDB7DEB7C654D1090FB6F894DEBF5D
:100630000FBECDBF78948AB582608ABD8AB58160CD
:100640008ABD83B7826083BF83B7816083BF89B768
:10065000826089BF80B7826080BF80B7816080BFC1
:10066000329A319A309A379A8CB580648CBDB89A98
:10067000BA9A8EEAE8DD80E0E6DD80E1E4DD80E440
:10068000E2DD81E8E0DD8FECDEDD80EADCDD88ECB8
:10069000DADD86EAD8DD88EAD6DD8FE3D4DD83EDC6
:1006A000D2DD80E0D0DD85EDCEDD80E8CCDD89EDEA
:1006B000CADD81EFC8DD8AEDC6DD82E1C4DD8BEDE8
:1006C000C2DD80E4C0DD80E2BEDD82E0BCDD8DE81D
:1006D000BADD84E1B8DD84EAB6DD86EAB4DD8FEA0E
:1006E000B2DDBCDD10DD12DEB998BE9887B387BBE2
:1006F000A99AAB9A8BB780628BBF63E080E78BDDF2
:100700008EE0DFDD64E080E786DD8FE0DADD66E045
:1007100080E781DD80916D0090916E00892B09F05A
:1007200080C08AE0CEDD63E070E08AE007DF03E0AE
:1007300010E080916D0090916E00892B09F021C12D
:10074000DADC853F9140FCF0D6DC8E3E9240DCF452
:100750006AE070E080E090E00BDDCDDC853F914009
:1007600094F0C9DC8E3E924074F40150110917FFD9
:1007700002C010E000E0B8018AE0E0DE68EC70E062
:1007800080E090E0F5DCB7DC8F3E924004F1B3DC12
:10079000863B9340E4F46AE070E080E090E0E8DCBF
:1007A000AADC8F3E92409CF0A6DC863B93407CF412
:1007B0000F5F1F4F0730110514F006E010E0B8017D
:1007C0008AE0BCDE68EC70E080E090E0D1DCB19BB8
:1007D00002C0B399AECF6AE070E080E090E0C8DC80
:1007E000B19B02C0B399A5CF48E5B8018FE690E070
:1007F000B9DD892B09F49DCF81E090E090936E00E4
:1008000080936D0083DD6FEF7FEF8AE097DEB19B11
:10081000FECFB39BFCCF64E670E080E090E0A8DC04
:1008200088CF8BE04EDD63E070E08BE087DE1E0159
:100830009BE2290E311CAA24AA94BA2C4424439486
:10084000FFE15F2EFAE06F2EFAEF7F2E10E000E05E
:10085000F101108211821282138274E1872E912C91
:1008600090E080E0DC01A159BF4FE1E0F0E0EC0F47
:10087000FD1FE80FF91F30E020E04D9141932F5FFD
:100880003F4F26303105C9F706968A32910551F758
:100890004FE4B801CE01019665DD892B09F445C00E
:1008A000F12C43D19B01AC018F2D817067EFEBD10F
:1008B00068E5E62EE80ECA01B90127E030E040E025
:1008C00050E0A3D14E2DCE0101964CDDF394F5E01E
:1008D000FF12E7CF6FE4CE01019664DD092E000C14
:1008E000AA0BBB0BF10140815181628173816C01C4
:1008F0007D01C40ED51EE61EF71E68E5CE010196E9
:1009000051DD880F991F092E000CAA0BBB0BC81ACA
:10091000D90AEA0AFB0AF101C082D182E282F3829B
:10092000F1E08F1A910809F09BCFF101819191912B
:10093000A191B1911F01481659066A067B061CF465
:1009400058012C013D010F5F1F4F0730110509F0C1
:100950007FCFFFEFAF16BF06A1F0B5018BE0EEDD54
:1009600068EE73E080E090E003DC4FE4B5018FE6D1
:1009700090E0F8DC892B09F477C010926E00109299
:100980006D00C4DC68E58FE690E00CDD892BD1F0CA
:1009900063E080E740DC80E194DC64E080E73BDCFE
:1009A00081E18FDC66E080E736DC8AE08ADC68E89B
:1009B00073E180E090E0DCDB6CDCA5DB10926E0084
:1009C00010926D006FE48FE690E0ECDC892BD1F0A3
:1009D00063E080E720DC80E174DC64E080E71BDC1E
:1009E00081E16FDC66E080E716DC8BE06ADC68E8BA
:1009F00073E180E090E0BCDB4CDC85DB10926E00A4
:100A000010926D00EFE6F0E029E930E090E080E040
:100A1000408140340CF4019636962E173F07C1F7FB
:100A2000892BD1F463E080E7F6DB82E14ADC64E005
:100A300080E7F1DB83E145DC66E080E7ECDB8AE020
:100A400040DC68E873E180E090E092DB22DC5BDB75
:100A500010926E0010926D0059DC80E090E0892BBE
:100A600009F44BCECDDA49CE63E080E7D4DB80E1F8
:100A700028DC64E080E7CFDB81E123DC66E080E70F
:100A8000CADB8BE01EDC60ED77E080E090E070DB9D
:100A90003ADB73CF8F929F92AF92BF92CF92DF9249
:100AA000EF92FF92CF93DF93EC01688179818A8185
:100AB0009B81611571058105910521F464E279ED51
:100AC0008BE597E02DE133EF41E050E09ED0490106
:100AD0005A0127EA31E440E050E07ED06B017C010E
:100AE0002CEE34EF4FEF5FEFC501B40175D0C60EA9
:100AF000D71EE81EF91EF7FE06C081E0C81AD1080D
:100B0000E10880E8F80AC882D982EA82FB82C7013C
:100B1000B6019F77DF91CF91FF90EF90DF90CF905C
:100B2000BF90AF909F908F9008958F929F92AF92B9
:100B3000BF92CF92DF92EF92FF926091600070912E
:100B400061008091620090916300611571058105DB
:100B5000910521F464E279ED8BE597E02DE133EF27
:100B600041E050E052D049015A0127EA31E440E027
:100B700050E032D06B017C012CEE34EF4FEF5FEF91
:100B8000C501B40129D0C60ED71EE81EF91EF7FE16
:100B900006C081E0C81AD108E10880E8F80AC092CE
:100BA0006000D0926100E0926200F0926300C701A1
:100BB000B6019F77FF90EF90DF90CF90BF90AF90FE
:100BC0009F908F9008956093600070936100809370
:100BD0006200909363000895EE27FF27AA27BB27A2
:100BE00008C0A20FB31FE41FF51F220F331F441FBD
:100BF000551F969587957795679598F37040A9F757
:100C0000009799F7BD01CF010895052E97FB16F4C3
:100C100000940FD057FD05D014D007FC02D046F445
:100C200008C050954095309521953F4F4F4F5F4FED
:100C3000089590958095709561957F4F8F4F9F4F48
:100C40000895A1E21A2EAA1BBB1BFD010DC0AA1F0D
:100C5000BB1FEE1FFF1FA217B307E407F50720F025
:100C6000A21BB30BE40BF50B661F771F881F991FA0
:100C70001A9469F760957095809590959B01AC01E9
:100C8000BD01CF010895002480FD060E660F11F00E
:100C90008695D1F7802D08950024552704C0080EAD
:100CA000591F880F991F009729F076956795B8F31B
:0E0CB0007105B9F7802D952F0895F894FFCFA8
:040CBE000100000031
:00000001FF
